AFLY0Qvo 0103528
HFDTE040118
HFFXA010
HFPLTPILOT:TONY            
HFCM2CREW2:NKN
HFGTYGLIDERTYPE:RXMoyes         
HFGIDGLIDERID:NKN             
HFDTM100GPSDATUM:WGS84
HFRFWFIRMWAREVERSION: 1.04.17
HFRHWHARDWAREVERSION:1.00
HFFTYFRTYPE:Flytec Element Track
HFGPS:FASTRAX,IT430,48
HFPRSPRESSALTSENSOR:INTERSEMA,MS5401BM,12000
HFALGALTGPS:GEO
HFALPALTPRESSURE:ISA
HFTZNUTCOFFSET: 11.00h
I033638FXA3940SIU4143TAS
C040118011322040118005302
C3321372S14756016E TAKEOFF
C3321372S14756016E START  BMI023           00000000005000000000360000AREA
C3354492S14808055E TURN   GRENFE           00000000015000000000360000AREA
C3311123S14840787E TURN   MANILD           00000000020000000000360000AREA
C3321372S14756016E FINISH BMI023           00000000000400000000360000AREA
C3321372S14756016E LANDING
F013339020612171924
B0133393321349S14756054EA002110022900606000
F013409020612171924
B0134093321349S14756054EA002110023000606000
F013439020612171924
B0134393321349S14756054EA002110023000806000
F013509020612171924
B0135093321350S14756052EA002110022900606000
F013539020612171924
B0135393321350S14756051EA002110022800606000
F013609020612171924
B0136093321350S14756049EA002110022800906000
F013639020612171924
B0136393321350S14756049EA002110022800706000
F013709020612171924
B0137093321350S14756048EA002110022800706000
F013739020612171924
B0137393321350S14756046EA002110022700806000
E013746STA
E013746ATS1015.2
LFLYA1 00226
B0137463321364S14756021EA002100022700906000
B0137473321368S14756014EA002090022700806000
B0137483321372S14756006EA002110022700506000
B0137493321376S14755997EA002140022700706000
B0137503321381S14755987EA002150022700806000
B0137513321385S14755978EA002160022800706000
B0137523321390S14755969EA002210022800606000
B0137533321395S14755961EA002240022901006000
B0137543321400S14755952EA002260023001006000
B0137553321405S14755944EA002310023101206000
B0137563321411S14755935EA002350023200806000
B0137573321416S14755927EA002390023300806000
B0137583321422S14755918EA002400023400906000
B0137593321427S14755908EA002420023500906000
B0138003321432S14755899EA002470023700806000
B0138013321438S14755889EA002500023800906000
B0138023321443S14755880EA002520024000906000
B0138033321449S14755869EA002570024101006000
B0138043321454S14755859EA002580024400806000
B0138053321458S14755848EA002610024600806000
B0138063321463S14755838EA002650024800906000
B0138073321467S14755827EA002700025100906000
B0138083321471S14755817EA002750025400806000
B0138093321476S14755805EA002820025700906000
B0138103321480S14755794EA002840026000906000
B0138113321485S14755783EA002890026300906000
B0138123321489S14755772EA002910026600906000
B0138133321493S14755762EA002940026900806000
B0138143321498S14755751EA002990027301006000
B0138153321502S14755741EA003010027601006000
B0138163321507S14755730EA003020028001006000
B0138173321512S14755720EA003040028401006000
B0138183321517S14755709EA003060028801006000
B0138193321521S14755698EA003070029101006000
B0138203321527S14755688EA003090029701106000
B0138213321533S14755678EA003110030201106000
B0138223321539S14755668EA003110030501106000
B0138233321544S14755657EA003130030901006000
B0138243321549S14755647EA003140031201006000
B0138253321554S14755637EA003160031601006000
B0138263321559S14755627EA003180031801206000
B0138273321563S14755616EA003190032100906000
B0138283321567S14755605EA003170032501006000
B0138293321569S14755594EA003170032801206000
B0138303321570S14755583EA003200033101006000
B0138313321570S14755572EA003200033301006000
B0138323321570S14755561EA003210033601106000
B0138333321568S14755550EA003220034001106000
B0138343321565S14755541EA003240034300906000
B0138353321562S14755531EA003250034500906000
B0138363321557S14755522EA003270034600706000
B0138373321553S14755513EA003290034700906000
B0138383321547S14755506EA003310034900606000
B0138393321541S14755498EA003340035000706000
B0138403321534S14755492EA003360035000906000
B0138413321527S14755486EA003360035000806000
F0138420206121924
B0138423321519S14755482EA003370035100905000
F013843020612171924
B0138433321511S14755478EA003380035300806000
B0138443321502S14755475EA003400035401306000
B0138453321494S14755473EA003420035601106000
B0138463321485S14755471EA003440035900906000
B0138473321476S14755471EA003450036200806000
B0138483321468S14755471EA003460036500806000
B0138493321459S14755471EA003490036700806000
B0138503321451S14755473EA003500036900706000
B0138513321443S14755475EA003510037100706000
B0138523321435S14755477EA003530037400706000
B0138533321427S14755480EA003570037700706000
B0138543321419S14755484EA003590038000806000
B0138553321412S14755489EA003610038300706000
B0138563321404S14755494EA003660038700706000
B0138573321396S14755499EA003680039000806000
B0138583321387S14755505EA003700039000906000
B0138593321379S14755511EA003710039100906000
B0139003321371S14755518EA003730039300906000
B0139013321362S14755525EA003750039400806000
B0139023321354S14755533EA003770039600906000
B0139033321347S14755542EA003780039800806000
B0139043321340S14755551EA003810040000806000
F0139050206171924
B0139053321333S14755560EA003840040201005000
F013906020612171924
B0139063321327S14755570EA003870040500606000
B0139073321321S14755580EA003880040700806000
B0139083321315S14755590EA003910041000906000
B0139093321309S14755599EA003930041200806000
B0139103321302S14755610EA003970041501006000
B0139113321296S14755620EA004000041701006000
B0139123321290S14755630EA004030042001006000
B0139133321285S14755640EA004040042201006000
B0139143321279S14755649EA004070042501006000
B0139153321272S14755658EA004100042701006000
B0139163321266S14755668EA004120042901006000
B0139173321259S14755677EA004140043200906000
B0139183321253S14755686EA004150043400906000
B0139193321246S14755694EA004170043600906000
B0139203321239S14755703EA004190043800606000
B0139213321232S14755711EA004220043900906000
B0139223321225S14755720EA004220044100906000
B0139233321218S14755728EA004220044200906000
B0139243321211S14755737EA004200044300906000
B0139253321204S14755745EA004220044400906000
B0139263321197S14755754EA004230044600806000
B0139273321190S14755762EA004240044700806000
B0139283321184S14755771EA004250044800806000
B0139293321177S14755779EA004270044900906000
B0139303321169S14755788EA004280045000806000
B0139313321162S14755796EA004280045100606000
B0139323321155S14755804EA004290045200506000
B0139333321147S14755812EA004300045200706000
B0139343321139S14755820EA004300045300806000
B0139353321131S14755827EA004310045400806000
B0139363321123S14755834EA004320045400806000
B0139373321115S14755841EA004320045500806000
B0139383321107S14755847EA004330045600906000
B0139393321099S14755853EA004340045700906000
B0139403321090S14755858EA004350045800606000
B0139413321082S14755864EA004360045900606000
B0139423321074S14755869EA004370046100706000
B0139433321065S14755875EA004380046200606000
B0139443321057S14755880EA004400046300706000
B0139453321048S14755885EA004410046400806000
B0139463321040S14755890EA004440046600806000
B0139473321032S14755894EA004470046700806000
B0139483321024S14755899EA004510046900706000
B0139493321015S14755903EA004540047000706000
B0139503321007S14755907EA004570047200706000
B0139513320998S14755911EA004610047400706000
B0139523320989S14755915EA004640047700606000
B0139533320980S14755919EA004690048000606000
B0139543320972S14755923EA004770048300506000
B0139553320963S14755927EA004830048600506000
B0139563320955S14755932EA004890048900706000
B0139573320946S14755937EA004960049300606000
B0139583320938S14755942EA005000049800606000
B0139593320929S14755946EA005050050400806000
B0140003320921S14755949EA005130050800806000
B0140013320912S14755950EA005160051200806000
B0140023320904S14755951EA005190051700906000
B0140033320896S14755952EA005230052200906000
B0140043320888S14755952EA005250052600606000
B0140053320881S14755951EA005260052900506000
B0140063320874S14755951EA005280053200606000
B0140073320866S14755949EA005290053500606000
B0140083320860S14755948EA005290053800606000
B0140093320853S14755945EA005300054000706000
B0140103320846S14755942EA005310054200906000
B0140113320840S14755937EA005300054500906000
B0140123320835S14755931EA005300054800906000
B0140133320830S14755925EA005310055000906000
B0140143320826S14755918EA005320055300806000
B0140153320823S14755910EA005330055600906000
B0140163320821S14755901EA005340055900706000
B0140173320819S14755891EA005360056200806000
B0140183320819S14755882EA005370056400206000
B0140193320820S14755872EA005370056600406000
B0140203320821S14755861EA005360056700606000
B0140213320824S14755851EA005360056801106000
B0140223320827S14755841EA005350057101106000
B0140233320831S14755832EA005360056901106000
B0140243320837S14755823EA005370057000806000
B0140253320843S14755815EA005380056900906000
B0140263320850S14755807EA005390056800906000
B0140273320858S14755801EA005380056900906000
B0140283320867S14755795EA005370056601006000
B0140293320875S14755790EA005370056501006000
B0140303320884S14755787EA005370056501006000
B0140313320893S14755784EA005380056501006000
B0140323320903S14755783EA005410056600806000
B0140333320913S14755784EA005430056701006000
B0140343320922S14755785EA005440056801006000
B0140353320932S14755787EA005460057001106000
B0140363320942S14755790EA005490057100806000
B0140373320952S14755794EA005520057501106000
B0140383320961S14755798EA005580057901106000
B0140393320970S14755803EA005650058401106000
B0140403320979S14755808EA005730058901006000
B0140413320987S14755813EA005820059601106000
B0140423320995S14755818EA005900060401106000
B0140433321003S14755822EA005960061201006000
B0140443321009S14755825EA006010062101306000
B0140453321015S14755827EA006070062901106000
B0140463321021S14755828EA006110063501006000
B0140473321028S14755830EA006120063901106000
B0140483321037S14755831EA006120064301206000
B0140493321045S14755832EA006140064701206000
B0140503321052S14755835EA006150065001206000
B0140513321059S14755839EA006170065401306000
B0140523321065S14755844EA006170065701206000
B0140533321068S14755850EA006170065501106000
B0140543321071S14755857EA006170065501206000
B0140553321072S14755864EA006150065401306000
B0140563321070S14755872EA006130065201806000
B0140573321065S14755879EA006120065201606000
B0140583321058S14755884EA006120065201706000
B0140593321051S14755889EA006130065301606000
B0141003321045S14755894EA006160065501506000
B0141013321039S14755898EA006210065801206000
B0141023321033S14755901EA006240065901006000
B0141033321026S14755904EA006270066101306000
B0141043321020S14755906EA006300066301106000
B0141053321013S14755908EA006320066501206000
B0141063321006S14755909EA006330066701206000
B0141073320998S14755909EA006350066900806000
B0141083320991S14755908EA006370067001106000
B0141093320985S14755904EA006380067200806000
B0141103320981S14755898EA006400067400706000
B0141113320978S14755891EA006410067400806000
B0141123320978S14755882EA006410067500806000
B0141133320980S14755874EA006410067600806000
B0141143320984S14755867EA006410067601206000
B0141153320990S14755862EA006420067701206000
B0141163320996S14755858EA006440067801206000
B0141173321002S14755854EA006450067801206000
B0141183321009S14755852EA006470067901106000
B0141193321017S14755850EA006490067900706000
B0141203321024S14755851EA006500068001006000
B0141213321032S14755853EA006530068001106000
B0141223321039S14755857EA006570068100906000
B0141233321043S14755862EA006600068401606000
B0141243321045S14755872EA006630068701806000
B0141253321044S14755882EA006650068902106000
B0141263321041S14755892EA006680069202006000
B0141273321036S14755898EA006700069401206000
B0141283321029S14755902EA006720069601006000
B0141293321022S14755904EA006720069701206000
B0141303321015S14755902EA006720069701206000
B0141313321009S14755897EA006730069801306000
B0141323321004S14755888EA006740070001506000
B0141333321001S14755880EA006750070301406000
B0141343321000S14755871EA006750070401106000
B0141353321001S14755863EA006760070500806000
B0141363321005S14755856EA006770070501106000
B0141373321011S14755852EA006790070601806000
B0141383321019S14755852EA006800070801706000
B0141393321027S14755856EA006830071001606000
B0141403321034S14755861EA006860071201206000
B0141413321040S14755869EA006900071601306000
B0141423321044S14755877EA006940072001206000
B0141433321046S14755886EA006990072400806000
B0141443321046S14755895EA007010072801306000
B0141453321044S14755904EA007030073101506000
B0141463321040S14755910EA007060073601606000
B0141473321034S14755914EA007070073901006000
B0141483321028S14755915EA007080074200906000
B0141493321021S14755913EA007080074401106000
B0141503321015S14755908EA007090074601306000
B0141513321011S14755899EA007110074901506000
B0141523321010S14755891EA007130075101506000
B0141533321010S14755883EA007140075301706000
B0141543321012S14755876EA007140075401406000
B0141553321018S14755871EA007130075501706000
B0141563321025S14755867EA007140075601606000
B0141573321034S14755866EA007150075701106000
B0141583321042S14755867EA007180075901406000
B0141593321049S14755870EA007210076001006000
B0142003321056S14755874EA007250076201206000
B0142013321062S14755880EA007280076401106000
B0142023321068S14755887EA007310076701106000
B0142033321074S14755895EA007340077001106000
B0142043321079S14755903EA007390077401006000
B0142053321083S14755911EA007420077900906000
B0142063321085S14755919EA007450078201006000
B0142073321087S14755927EA007470078500906000
B0142083321087S14755935EA007490078701006000
B0142093321086S14755943EA007500078901306000
B0142103321082S14755950EA007500079001306000
B0142113321074S14755954EA007510079001406000
B0142123321065S14755954EA007530079201406000
B0142133321057S14755948EA007540079301506000
F01421402061217192425
B0142143321051S14755940EA007550079501407000
B0142153321048S14755930EA007570079901707000
B0142163321047S14755921EA007580080201207000
B0142173321049S14755913EA007590080401407000
B0142183321051S14755906EA007600080601207000
B0142193321055S14755899EA007610080801307000
B0142203321061S14755893EA007610080801007000
B0142213321067S14755888EA007610080801007000
B0142223321074S14755885EA007630080901107000
B0142233321081S14755884EA007650081001007000
B0142243321087S14755884EA007660081001307000
B0142253321094S14755886EA007660081001107000
B0142263321101S14755889EA007650081000907000
B0142273321108S14755895EA007640080901107000
B0142283321115S14755902EA007630080900807000
B0142293321121S14755911EA007630081000507000
B0142303321126S14755920EA007650081100507000
B0142313321128S14755929EA007690081300607000
B0142323321130S14755938EA007710081400507000
B0142333321131S14755946EA007720081500507000
B0142343321130S14755955EA007730081600507000
B0142353321128S14755964EA007740081600507000
B0142363321123S14755972EA007750081700507000
B0142373321117S14755977EA007770081800607000
B0142383321109S14755981EA007780081900907000
B0142393321103S14755983EA007810082101207000
B0142403321096S14755979EA007820082201207000
B0142413321089S14755972EA007840082401307000
B0142423321085S14755962EA007860082701407000
B0142433321083S14755952EA007880083001507000
B0142443321084S14755943EA007900083101307000
B0142453321088S14755937EA007910083101407000
B0142463321095S14755933EA007910083201507000
B0142473321103S14755931EA007910083301207000
B0142483321111S14755931EA007920083501107000
B0142493321118S14755934EA007930083701007000
B0142503321125S14755939EA007940083800907000
B0142513321131S14755945EA007940083901007000
B0142523321136S14755952EA007950084000507000
B0142533321139S14755961EA007950084100507000
B0142543321141S14755970EA007960084200507000
B0142553321141S14755979EA007980084300507000
B0142563321139S14755988EA008010084600507000
B0142573321136S14755995EA008050084900507000
B0142583321132S14756001EA008090085100507000
B0142593321127S14756005EA008130085300507000
B0143003321120S14756007EA008150085600507000
B0143013321113S14756008EA008160085700607000
B0143023321106S14756005EA008180085901007000
B0143033321100S14755998EA008200086101207000
B0143043321096S14755985EA008220086701207000
B0143053321097S14755975EA008250087101507000
B0143063321100S14755968EA008280087301307000
B0143073321106S14755963EA008290087401207000
B0143083321113S14755961EA008280087301007000
B0143093321121S14755962EA008270087200907000
B0143103321130S14755965EA008270087301207000
B0143113321137S14755969EA008280087301307000
B0143123321144S14755974EA008300087501107000
B0143133321150S14755979EA008320087701107000
B0143143321157S14755983EA008340088001107000
B0143153321163S14755988EA008400088301007000
B0143163321169S14755992EA008430088500807000
B0143173321176S14755997EA008450088800907000
B0143183321182S14756002EA008470089000907000
B0143193321188S14756008EA008480089200807000
B0143203321194S14756015EA008510089500807000
B0143213321200S14756021EA008540089700307000
B0143223321205S14756028EA008560090000307000
B0143233321211S14756035EA008590090300307000
B0143243321217S14756042EA008620090600707000
B0143253321222S14756049EA008660091000807000
B0143263321227S14756056EA008700091400807000
B0143273321232S14756062EA008710091700907000
B0143283321237S14756068EA008720091900807000
B0143293321241S14756075EA008710092100307000
B0143303321245S14756082EA008710092100307000
B0143313321248S14756090EA008710092200407000
B0143323321252S14756097EA008710092200307000
B0143333321254S14756106EA008720092200307000
B0143343321256S14756114EA008730092300307000
B0143353321256S14756123EA008730092400307000
B0143363321255S14756132EA008740092600407000
B0143373321253S14756141EA008760092700507000
B0143383321247S14756149EA008780092900607000
B0143393321239S14756155EA008810093001007000
B0143403321228S14756157EA008850093201007000
B0143413321220S14756156EA008890093501307000
B0143423321211S14756150EA008910093701207000
B0143433321204S14756143EA008930094001307000
B0143443321199S14756133EA008940094201207000
B0143453321195S14756124EA008950094501007000
B0143463321193S14756114EA008960094700907000
B0143473321191S14756104EA008970094901207000
B0143483321189S14756095EA008990095201007000
B0143493321189S14756086EA009010095301007000
B0143503321190S14756077EA009020095400907000
B0143513321193S14756069EA009030095400807000
B0143523321198S14756063EA009030095501107000
B0143533321204S14756061EA009050095600807000
B0143543321211S14756062EA009070095800807000
B0143553321217S14756065EA009090096001107000
B0143563321222S14756070EA009100096100907000
B0143573321226S14756075EA009100096201007000
B0143583321230S14756082EA009100096200507000
B0143593321233S14756090EA009100096300407000
B0144003321235S14756099EA009110096400407000
B0144013321236S14756108EA009110096500507000
B0144023321235S14756118EA009130096700607000
B0144033321231S14756127EA009150096700707000
B0144043321224S14756135EA009170096800707000
B0144053321217S14756141EA009200096900707000
B0144063321208S14756145EA009240097001107000
B0144073321199S14756147EA009270097201207000
B0144083321190S14756146EA009310097300707000
B0144093321181S14756142EA009340097400607000
B0144103321173S14756137EA009380097500607000
B0144113321166S14756130EA009400097700907000
B0144123321162S14756122EA009400098001307000
B0144133321160S14756112EA009410098401507000
B0144143321161S14756102EA009430098701507000
B0144153321166S14756096EA009450099101607000
B0144163321177S14756098EA009470099101707000
B0144173321187S14756106EA009500099701107000
B0144183321193S14756114EA009550100401407000
B0144193321194S14756123EA009610101000807000
F014420020612171924
B0144203321195S14756132EA009650101401506000
F01442102061217192425
B0144213321195S14756141EA009680101800507000
B0144223321195S14756151EA009710102200507000
F014423020612171924
B0144233321192S14756160EA009730102501306000
F01442402061217192425
B0144243321187S14756170EA009760103000607000
B0144253321179S14756176EA009820103500607000
B0144263321171S14756179EA009860104100707000
B0144273321163S14756180EA009910104600807000
B0144283321156S14756179EA009940105301107000
B0144293321149S14756174EA009960105801007000
B0144303321144S14756165EA009980106201407000
B0144313321141S14756156EA010000106601207000
B0144323321142S14756146EA010030106901407000
B0144333321145S14756138EA010060107201407000
B0144343321152S14756133EA010080107401507000
B0144353321159S14756130EA010100107501307000
B0144363321166S14756129EA010120107601207000
B0144373321174S14756131EA010150107901107000
B0144383321182S14756134EA010180108200907000
B0144393321188S14756141EA010210108500907000
B0144403321192S14756150EA010260109000507000
B0144413321193S14756161EA010300109400407000
B0144423321190S14756171EA010330109700607000
B0144433321186S14756181EA010360110000607000
B0144443321179S14756187EA010390110200707000
B0144453321171S14756192EA010430110500607000
B0144463321162S14756194EA010470110701007000
B0144473321154S14756191EA010510111001407000
B0144483321147S14756184EA010550111401307000
B0144493321143S14756176EA010590111801407000
B0144503321141S14756168EA010600112201507000
B0144513321144S14756160EA010610112401407000
B0144523321152S14756155EA010630112701807000
B0144533321159S14756155EA010670112901607000
B0144543321165S14756157EA010720113201507000
B0144553321171S14756163EA010780113501307000
B0144563321175S14756171EA010830114001207000
B0144573321177S14756180EA010870114200607000
B0144583321177S14756190EA010890114500707000
B0144593321176S14756200EA010910114700707000
B0145003321170S14756209EA010930115100907000
B0145013321163S14756215EA010960115600907000
B0145023321154S14756218EA011000116001007000
B0145033321147S14756218EA011030116401407000
B0145043321141S14756216EA011050116901407000
B0145053321134S14756210EA011060117301407000
B0145063321130S14756200EA011070117701507000
B0145073321129S14756191EA011090117901507000
B0145083321129S14756182EA011120118101507000
B0145093321132S14756174EA011150118401607000
B0145103321135S14756167EA011180118701507000
B0145113321140S14756162EA011230119001407000
B0145123321146S14756161EA011240119301407000
B0145133321153S14756163EA011270119401207000
B0145143321160S14756168EA011290119501307000
B0145153321164S14756177EA011320119600807000
B0145163321164S14756188EA011380120000907000
B0145173321160S14756200EA011430120400807000
B0145183321154S14756210EA011460120900907000
B0145193321145S14756217EA011500121401107000
B0145203321137S14756222EA011530121801307000
B0145213321129S14756222EA011550122201507000
B0145223321122S14756217EA011580122701607000
B0145233321116S14756208EA011600123101407000
B0145243321114S14756198EA011610123501507000
B0145253321114S14756187EA011620123801407000
B0145263321117S14756179EA011640123801407000
B0145273321122S14756173EA011660124001507000
B0145283321130S14756171EA011680124201307000
B0145293321138S14756171EA011690124301207000
B0145303321147S14756176EA011690124401107000
B0145313321155S14756185EA011710124601007000
B0145323321159S14756196EA011740124800607000
B0145333321161S14756207EA011790125300707000
B0145343321161S14756218EA011850125700807000
B0145353321158S14756229EA011890126100807000
B0145363321152S14756236EA011930126400807000
B0145373321143S14756241EA011950126500907000
B0145383321134S14756243EA011950126600907000
B0145393321124S14756243EA011950126601107000
B0145403321116S14756239EA011940126801307000
B0145413321109S14756231EA011930126901107000
B0145423321104S14756222EA011930126801307000
B0145433321104S14756212EA011940126701707000
B0145443321105S14756203EA011960126801607000
B0145453321110S14756195EA011990126901607000
B0145463321116S14756190EA012010127101307000
B0145473321124S14756186EA012020127201407000
B0145483321131S14756182EA012040127201307000
B0145493321139S14756179EA012060127301107000
B0145503321148S14756178EA012090127501107000
B0145513321156S14756177EA012120127701007000
B0145523321163S14756178EA012150128001007000
B0145533321171S14756180EA012190128300807000
B0145543321179S14756184EA012230128700807000
B0145553321185S14756190EA012280129201007000
B0145563321189S14756199EA012320129600807000
B0145573321191S14756209EA012350130000407000
B0145583321189S14756219EA012390130400507000
B0145593321184S14756228EA012400130800507000
B0146003321178S14756235EA012420131000807000
B0146013321170S14756237EA012440131201107000
B0146023321162S14756235EA012440131501407000
B0146033321154S14756229EA012450131801507000
B0146043321148S14756220EA012480132001507000
B0146053321145S14756210EA012500132401407000
B0146063321146S14756200EA012530132601707000
B0146073321150S14756193EA012550132801307000
B0146083321155S14756189EA012580133001307000
B0146093321162S14756186EA012590133101007000
B0146103321170S14756185EA012630133301007000
B0146113321179S14756185EA012650133601407000
B0146123321186S14756186EA012680133701307000
B0146133321194S14756190EA012710133901207000
B0146143321200S14756196EA012760134200907000
B0146153321205S14756203EA012790134500507000
B0146163321207S14756212EA012830134800507000
B0146173321207S14756222EA012860135100507000
B0146183321202S14756231EA012880135300607000
B0146193321195S14756237EA012890135400607000
B0146203321187S14756242EA012910135600807000
B0146213321178S14756243EA012940135700807000
B0146223321170S14756241EA012980135900807000
B0146233321163S14756237EA013010136101007000
B0146243321156S14756232EA013020136301107000
B0146253321151S14756224EA013030136401007000
B0146263321147S14756215EA013030136601407000
B0146273321146S14756205EA013030136801207000
B0146283321149S14756194EA013040137101507000
B0146293321153S14756186EA013080137501507000
B0146303321160S14756179EA013120137901307000
B0146313321166S14756174EA013170138301207000
B0146323321173S14756173EA013230138801207000
B0146333321180S14756172EA013280139401007000
B0146343321186S14756175EA013320139801107000
B0146353321192S14756179EA013350140201007000
B0146363321196S14756187EA013370140400907000
B0146373321198S14756196EA013400140700507000
B0146383321199S14756205EA013440141000707000
B0146393321195S14756214EA013480141400807000
B0146403321189S14756220EA013520141700707000
B0146413321182S14756224EA013580142300607000
B0146423321175S14756225EA013610142600707000
B0146433321169S14756224EA013620143101107000
B0146443321161S14756219EA013630143401407000
B0146453321155S14756209EA013630143801407000
B0146463321152S14756198EA013660144301107000
B0146473321152S14756187EA013710144701207000
B0146483321153S14756178EA013750145000807000
B0146493321157S14756172EA013780145201407000
B0146503321165S14756170EA013830145601707000
B0146513321172S14756175EA013870145901707000
B0146523321178S14756183EA013910146401507000
B0146533321181S14756192EA013950146901407000
B0146543321182S14756202EA013990147300807000
B0146553321180S14756212EA014020147900807000
B0146563321174S14756220EA014070148500707000
B0146573321168S14756225EA014110149100707000
B0146583321160S14756231EA014150149600707000
B0146593321152S14756234EA014170150100807000
B0147003321144S14756233EA014180150401107000
B0147013321138S14756229EA014190150601107000
B0147023321132S14756221EA014210150901207000
B0147033321129S14756210EA014240151201407000
B0147043321128S14756200EA014280151501207000
B0147053321129S14756191EA014310151701407000
B0147063321133S14756182EA014330151801507000
B0147073321141S14756175EA014350151901407000
B0147083321148S14756169EA014370152101307000
B0147093321155S14756164EA014420152401107000
B0147103321162S14756160EA014470152601107000
B0147113321170S14756159EA014510152901107000
B0147123321178S14756160EA014560153101007000
B0147133321185S14756164EA014590153300807000
B0147143321191S14756171EA014630153700907000
B0147153321194S14756179EA014680154000507000
B0147163321194S14756188EA014710154500707000
B0147173321192S14756197EA014740154800807000
B0147183321186S14756202EA014800155400807000
B0147193321179S14756206EA014830155800807000
B0147203321172S14756208EA014850156200807000
B0147213321165S14756209EA014870156500807000
B0147223321158S14756209EA014880156800807000
B0147233321151S14756207EA014880157101007000
B0147243321143S14756202EA014900157401107000
B0147253321136S14756195EA014940157901407000
B0147263321131S14756186EA015000158301507000
B0147273321127S14756179EA015050158701007000
B0147283321123S14756171EA015090159100907000
B0147293321120S14756163EA015120159401307000
B0147303321116S14756155EA015150159901007000
B0147313321113S14756146EA015180160300907000
B0147323321109S14756138EA015210160801107000
B0147333321106S14756131EA015250161201007000
B0147343321104S14756123EA015280161600807000
B0147353321102S14756116EA015310161900807000
B0147363321101S14756107EA015310162000807000
B0147373321102S14756099EA015310162100807000
B0147383321105S14756090EA015300162100707000
B0147393321110S14756083EA015300162000807000
B0147403321117S14756078EA015300161900907000
B0147413321125S14756076EA015310162000907000
B0147423321133S14756077EA015340162000907000
B0147433321140S14756079EA015360162201007000
B0147443321146S14756084EA015390162400807000
B0147453321152S14756091EA015410162500707000
B0147463321157S14756100EA015430162700407000
B0147473321161S14756109EA015450163000507000
B0147483321163S14756118EA015480163200707000
B0147493321163S14756129EA015530163500507000
B0147503321162S14756139EA015570163900507000
B0147513321159S14756148EA015610164300507000
B0147523321154S14756156EA015650164800607000
B0147533321147S14756161EA015700165200607000
B0147543321139S14756165EA015740165600607000
B0147553321130S14756165EA015770165900807000
B0147563321122S14756161EA015810166401207000
B0147573321116S14756153EA015850166801307000
B0147583321111S14756144EA015890167201507000
B0147593321110S14756134EA015920167701307000
B0148003321111S14756124EA015950168001307000
B0148013321115S14756115EA015960168201207000
B0148023321121S14756108EA015980168501307000
B0148033321128S14756104EA016010168701207000
B0148043321136S14756102EA016040168901107000
B0148053321144S14756103EA016060169301107000
B0148063321152S14756107EA016080169500807000
B0148073321159S14756114EA016110169801007000
B0148083321164S14756122EA016130170200807000
B0148093321166S14756131EA016180170500407000
B0148103321167S14756141EA016200170800507000
B0148113321166S14756151EA016230171100707000
B0148123321162S14756160EA016260171400807000
B0148133321154S14756166EA016300171800807000
B0148143321145S14756170EA016320172000907000
B0148153321136S14756172EA016350172200907000
B0148163321127S14756170EA016370172301307000
B0148173321118S14756165EA016400172501307000
B0148183321112S14756157EA016440172801207000
B0148193321107S14756149EA016480173101507000
B0148203321104S14756140EA016490173401407000
B0148213321105S14756129EA016490173701407000
B0148223321107S14756119EA016500173901307000
B0148233321112S14756110EA016520174201607000
B0148243321118S14756103EA016560174501107000
B0148253321125S14756098EA016590174901207000
B0148263321131S14756094EA016620175101107000
B0148273321139S14756091EA016640175401107000
B0148283321146S14756090EA016670175701007000
B0148293321154S14756089EA016690176001007000
B0148303321163S14756090EA016730176500907000
B0148313321170S14756092EA016770176900907000
B0148323321178S14756095EA016810177200907000
B0148333321185S14756100EA016840177600807000
B0148343321192S14756107EA016870177800807000
B0148353321197S14756115EA016890178100707000
B0148363321202S14756125EA016920178400307000
B0148373321204S14756135EA016950178700507000
B0148383321206S14756146EA016980179000707000
B0148393321204S14756156EA017030179300707000
B0148403321200S14756166EA017050179600907000
B0148413321195S14756174EA017070179700907000
B0148423321188S14756181EA017090179900807000
B0148433321180S14756185EA017120180200907000
B0148443321172S14756188EA017150180401207000
B0148453321163S14756189EA017170180601107000
B0148463321155S14756185EA017190180901207000
B0148473321147S14756177EA017200181201207000
B0148483321140S14756169EA017230181601307000
B0148493321135S14756161EA017270181901307000
B0148503321131S14756153EA017300182301207000
B0148513321129S14756145EA017340182601007000
B0148523321127S14756137EA017360182901007000
B0148533321128S14756128EA017380183201107000
B0148543321129S14756119EA017390183601007000
B0148553321132S14756110EA017410183900907000
B0148563321136S14756102EA017430184201107000
B0148573321142S14756096EA017460184501007000
B0148583321148S14756091EA017490184800807000
B0148593321156S14756088EA017520185001007000
B0149003321163S14756088EA017550185300907000
B0149013321170S14756090EA017570185500707000
B0149023321177S14756094EA017600185700807000
B0149033321183S14756102EA017610185800807000
B0149043321187S14756112EA017620185800807000
B0149053321189S14756123EA017620185800707000
B0149063321188S14756135EA017650185900907000
B0149073321185S14756146EA017700186000907000
B0149083321180S14756156EA017740186200907000
B0149093321174S14756164EA017790186400807000
B0149103321167S14756170EA017820186600807000
B0149113321159S14756174EA017840186700807000
B0149123321151S14756176EA017860186900807000
B0149133321143S14756175EA017890187100807000
B0149143321135S14756172EA017920187300707000
B0149153321130S14756168EA017950187600907000
B0149163321125S14756162EA017980188101407000
B0149173321122S14756155EA018000188401107000
B0149183321120S14756148EA018020188601007000
B0149193321119S14756140EA018020188901207000
B0149203321120S14756131EA018030189100907000
B0149213321122S14756122EA018050189301007000
B0149223321125S14756114EA018070189500807000
B0149233321130S14756107EA018100189801007000
B0149243321135S14756101EA018120190000907000
B0149253321142S14756097EA018140190300907000
B0149263321149S14756093EA018180190600907000
B0149273321156S14756091EA018210191000907000
B0149283321164S14756091EA018250191500907000
B0149293321170S14756094EA018290191800607000
B0149303321176S14756097EA018310192100807000
B0149313321182S14756103EA018320192300807000
B0149323321189S14756109EA018310192400807000
B0149333321196S14756116EA018300192500807000
B0149343321203S14756124EA018310192700807000
B0149353321209S14756133EA018340192900707000
B0149363321214S14756143EA018370193100407000
B0149373321216S14756153EA018420193400407000
B0149383321216S14756164EA018440193700407000
B0149393321214S14756174EA018460193900507000
B0149403321209S14756183EA018480194100507000
B0149413321203S14756190EA018490194200507000
B0149423321195S14756195EA018500194400607000
B0149433321187S14756199EA018530194600907000
B0149443321179S14756202EA018550194900807000
B0149453321171S14756203EA018580195301007000
B0149463321163S14756202EA018610195500907000
B0149473321157S14756199EA018640195700807000
B0149483321151S14756194EA018660196000707000
B0149493321146S14756188EA018690196200707000
B0149503321143S14756180EA018700196401007000
B0149513321141S14756172EA018710196700907000
B0149523321139S14756162EA018720196901107000
B0149533321139S14756153EA018730197201107000
B0149543321139S14756144EA018750197501007000
B0149553321139S14756135EA018790197701007000
B0149563321141S14756127EA018860198001007000
B0149573321145S14756120EA018900198400807000
B0149583321151S14756116EA018940198701007000
B0149593321158S14756115EA018960199000907000
B0150003321165S14756119EA018980199200707000
B0150013321171S14756126EA018990199300907000
B0150023321175S14756136EA018990199400807000
B0150033321177S14756148EA018990199500907000
B0150043321176S14756160EA018960199501207000
B0150053321171S14756173EA018950199500907000
B0150063321161S14756183EA018960199400907000
B0150073321150S14756189EA019000199500907000
B0150083321140S14756192EA019050199601007000
B0150093321132S14756193EA019080199901507000
B0150103321124S14756193EA019090200100907000
B0150113321116S14756190EA019100200300907000
B0150123321109S14756186EA019100200400907000
B0150133321102S14756181EA019110200500807000
B0150143321096S14756176EA019120200501007000
B0150153321091S14756169EA019140200700907000
B0150163321087S14756163EA019150200801007000
B0150173321083S14756155EA019140200900907000
B0150183321081S14756146EA019130200900707000
B0150193321079S14756137EA019130201000907000
B0150203321078S14756128EA019150201100707000
B0150213321077S14756119EA019170201201007000
B0150223321077S14756110EA019180201301007000
B0150233321078S14756101EA019200201500907000
B0150243321080S14756092EA019210201700907000
B0150253321082S14756083EA019220201800907000
B0150263321085S14756074EA019220201900707000
B0150273321089S14756065EA019230201900607000
B0150283321093S14756056EA019230202000707000
B0150293321098S14756048EA019230202000807000
B0150303321103S14756039EA019230202000807000
B0150313321108S14756031EA019210202000807000
B0150323321113S14756024EA019200201900807000
B0150333321118S14756016EA019170201900807000
B0150343321124S14756009EA019140201700807000
B0150353321130S14756001EA019080201600807000
B0150363321137S14755994EA019050201300807000
B0150373321143S14755987EA019030201000907000
B0150383321149S14755980EA019030200900907000
B0150393321155S14755973EA019030200700907000
B0150403321159S14755967EA019020200600807000
B0150413321163S14755959EA018990200400707000
B0150423321166S14755951EA018970200300707000
B0150433321168S14755942EA018930200000807000
B0150443321170S14755932EA018890199800807000
B0150453321171S14755922EA018830199600907000
B0150463321172S14755912EA018810199400807000
B0150473321174S14755903EA018790199100807000
B0150483321177S14755895EA018780198900807000
B0150493321181S14755887EA018760198500807000
B0150503321186S14755880EA018730198100707000
B0150513321192S14755874EA018700197800707000
B0150523321198S14755868EA018670197400707000
B0150533321205S14755862EA018650197100707000
B0150543321212S14755857EA018640196800707000
B0150553321218S14755852EA018630196500707000
B0150563321225S14755848EA018620196300607000
B0150573321232S14755844EA018610196100707000
B0150583321239S14755841EA018590196000707000
B0150593321247S14755838EA018580195700707000
B0151003321256S14755835EA018570195500607000
B0151013321264S14755833EA018550195300607000
B0151023321272S14755829EA018540195200607000
B0151033321280S14755826EA018530195000607000
B0151043321287S14755821EA018520194900607000
B0151053321294S14755815EA018500194700507000
B0151063321300S14755808EA018480194600607000
B0151073321306S14755800EA018470194500707000
B0151083321311S14755792EA018470194400707000
B0151093321315S14755784EA018470194300807000
B0151103321320S14755775EA018480194300707000
B0151113321324S14755767EA018500194300707000
B0151123321328S14755759EA018520194400807000
B0151133321334S14755752EA018540194600807000
B0151143321339S14755745EA018570194700607000
B0151153321345S14755738EA018580194800707000
B0151163321350S14755732EA018610195000707000
B0151173321356S14755727EA018630195200707000
B0151183321362S14755722EA018650195300507000
B0151193321368S14755717EA018660195500707000
B0151203321376S14755713EA018680195600807000
B0151213321382S14755708EA018690195800707000
B0151223321389S14755704EA018720196000707000
B0151233321396S14755700EA018750196200707000
B0151243321404S14755698EA018790196500807000
B0151253321412S14755696EA018830196900707000
B0151263321419S14755694EA018880197100607000
B0151273321427S14755692EA018890197300707000
B0151283321434S14755689EA018890197500807000
B0151293321441S14755685EA018880197600807000
B0151303321448S14755680EA018870197700607000
B0151313321453S14755676EA018880197800707000
B0151323321459S14755671EA018890198000807000
B0151333321464S14755667EA018900198100707000
B0151343321469S14755662EA018890198200707000
B0151353321475S14755657EA018880198300707000
B0151363321480S14755650EA018830198300607000
B0151373321484S14755642EA018800198300807000
B0151383321489S14755634EA018800198400707000
B0151393321493S14755625EA018810198400807000
B0151403321497S14755618EA018870198500807000
B0151413321502S14755613EA018910198600807000
B0151423321507S14755607EA018920198700807000
B0151433321512S14755603EA018930198700707000
B0151443321518S14755599EA018920198800707000
B0151453321524S14755595EA018920198800707000
B0151463321530S14755592EA018930198700707000
B0151473321535S14755590EA018940198800807000
B0151483321542S14755588EA018940198800707000
B0151493321548S14755587EA018930198700707000
B0151503321555S14755586EA018930198700707000
B0151513321562S14755585EA018930198700707000
B0151523321568S14755586EA018950198800807000
B0151533321574S14755587EA018960198900807000
B0151543321580S14755588EA018970198900807000
B0151553321586S14755590EA018970198900807000
B0151563321592S14755592EA018960199000807000
B0151573321598S14755594EA018940199000807000
B0151583321605S14755597EA018930198900707000
B0151593321611S14755600EA018920198900707000
B0152003321618S14755603EA018910198700707000
B0152013321624S14755606EA018900198700707000
B0152023321631S14755609EA018900198700707000
B0152033321637S14755612EA018890198600607000
B0152043321644S14755614EA018880198600707000
B0152053321650S14755617EA018880198500707000
B0152063321656S14755619EA018870198400707000
B0152073321663S14755622EA018820198300707000
B0152083321670S14755625EA018790198200707000
B0152093321678S14755627EA018760198100707000
B0152103321685S14755628EA018740197900707000
B0152113321692S14755629EA018730197600707000
B0152123321699S14755629EA018710197400707000
B0152133321706S14755629EA018700197300607000
B0152143321714S14755629EA018680197100607000
B0152153321721S14755629EA018670196900707000
B0152163321728S14755629EA018650196700707000
B0152173321735S14755630EA018620196500707000
B0152183321743S14755630EA018590196300607000
B0152193321750S14755630EA018550196000707000
B0152203321758S14755629EA018510195800707000
B0152213321766S14755628EA018490195500707000
B0152223321774S14755625EA018450195200707000
B0152233321782S14755623EA018420194900707000
B0152243321789S14755621EA018390194500707000
B0152253321796S14755618EA018360194100707000
B0152263321803S14755616EA018330193700707000
B0152273321811S14755614EA018290193400707000
B0152283321818S14755612EA018230192900707000
B0152293321826S14755609EA018190192300707000
B0152303321835S14755607EA018140191700707000
B0152313321843S14755605EA018090191200707000
B0152323321851S14755603EA018040190600707000
B0152333321860S14755601EA017990190100707000
B0152343321868S14755598EA017930189600707000
B0152353321876S14755595EA017910189100707000
B0152363321884S14755592EA017890188600707000
B0152373321892S14755589EA017870188300807000
B0152383321899S14755586EA017850188000807000
B0152393321906S14755583EA017830187600707000
B0152403321914S14755580EA017800187300707000
B0152413321922S14755577EA017760186900707000
B0152423321930S14755575EA017720186500707000
B0152433321938S14755571EA017680186100707000
B0152443321946S14755567EA017660185800707000
B0152453321953S14755563EA017650185500607000
B0152463321960S14755558EA017640185400607000
B0152473321966S14755553EA017630185400807000
B0152483321972S14755548EA017640185500807000
B0152493321977S14755542EA017640185400607000
B0152503321981S14755535EA017630185400507000
B0152513321986S14755527EA017620185400707000
B0152523321989S14755519EA017630185300707000
B0152533321992S14755511EA017630185300707000
B0152543321995S14755502EA017630185300707000
B0152553321997S14755493EA017630185300707000
B0152563322000S14755485EA017630185300707000
B0152573322005S14755478EA017630185300707000
B0152583322011S14755471EA017600185300907000
B0152593322019S14755465EA017560185101007000
B0153003322028S14755459EA017530185001007000
B0153013322037S14755455EA017510184801007000
B0153023322045S14755451EA017500184700907000
B0153033322053S14755447EA017490184600907000
B0153043322061S14755442EA017480184500907000
B0153053322069S14755438EA017450184300907000
B0153063322077S14755432EA017430184200907000
B0153073322084S14755426EA017440184100607000
B0153083322091S14755420EA017460184100807000
B0153093322097S14755414EA017480184100807000
B0153103322102S14755408EA017500184200707000
B0153113322108S14755401EA017490184200707000
B0153123322112S14755393EA017470184100807000
B0153133322116S14755384EA017450184100807000
B0153143322120S14755375EA017450184200907000
B0153153322124S14755367EA017470184300807000
B0153163322129S14755360EA017480184300807000
B0153173322134S14755353EA017490184300807000
B0153183322139S14755347EA017480184300807000
B0153193322145S14755341EA017470184300807000
B0153203322151S14755334EA017460184200807000
B0153213322158S14755328EA017450184200707000
B0153223322165S14755323EA017430184100707000
B0153233322172S14755317EA017420184000707000
B0153243322178S14755312EA017410184000707000
B0153253322185S14755307EA017400183900607000
B0153263322191S14755302EA017380183800707000
B0153273322197S14755297EA017350183600707000
B0153283322203S14755291EA017330183500707000
B0153293322209S14755284EA017290183300707000
B0153303322214S14755276EA017260183200707000
B0153313322219S14755268EA017250183100707000
B0153323322224S14755260EA017250182900807000
B0153333322228S14755253EA017250182800707000
B0153343322232S14755246EA017250182700707000
B0153353322235S14755239EA017250182700707000
B0153363322240S14755232EA017260182600707000
B0153373322243S14755225EA017280182600707000
B0153383322247S14755218EA017290182400707000
B0153393322249S14755210EA017280182400707000
B0153403322252S14755202EA017270182300607000
B0153413322254S14755194EA017240182200707000
B0153423322256S14755185EA017200182100707000
B0153433322257S14755176EA017190182000707000
B0153443322259S14755169EA017170181800707000
B0153453322261S14755161EA017160181700707000
B0153463322264S14755154EA017140181600707000
B0153473322267S14755147EA017130181400707000
B0153483322272S14755140EA017100181200707000
B0153493322276S14755133EA017080180900607000
B0153503322282S14755127EA017060180800707000
B0153513322287S14755121EA017050180600707000
B0153523322292S14755115EA017060180500707000
B0153533322296S14755110EA017080180400707000
B0153543322301S14755105EA017080180300707000
B0153553322306S14755100EA017070180200707000
B0153563322311S14755095EA017070180100707000
B0153573322317S14755090EA017060180100707000
B0153583322323S14755085EA017060180000707000
B0153593322329S14755080EA017060180000707000
B0154003322335S14755074EA017070180000707000
B0154013322342S14755069EA017080180000707000
B0154023322348S14755063EA017100180000707000
B0154033322355S14755058EA017110180000707000
B0154043322362S14755053EA017110180000707000
B0154053322368S14755048EA017110180000607000
B0154063322375S14755044EA017110180100707000
B0154073322382S14755040EA017120180100707000
B0154083322389S14755037EA017110180100707000
B0154093322396S14755035EA017100180100707000
B0154103322403S14755033EA017090180100707000
B0154113322411S14755032EA017070180000707000
B0154123322419S14755032EA017060179800707000
B0154133322427S14755033EA017030179700707000
B0154143322435S14755035EA017010179600707000
B0154153322442S14755039EA017000179500607000
B0154163322450S14755045EA017000179400707000
B0154173322456S14755053EA016980179200707000
B0154183322461S14755062EA016960179000707000
B0154193322465S14755073EA016950178900407000
B0154203322467S14755083EA016940178700307000
B0154213322468S14755094EA016930178600407000
B0154223322467S14755106EA016930178600307000
B0154233322465S14755116EA016920178500407000
B0154243322461S14755126EA016920178500407000
B0154253322456S14755134EA016910178400407000
B0154263322450S14755142EA016900178300507000
B0154273322442S14755148EA016890178200507000
B0154283322433S14755153EA016860178100807000
B0154293322423S14755155EA016850178001207000
B0154303322413S14755153EA016860178001207000
B0154313322404S14755150EA016860178001207000
B0154323322397S14755144EA016860177901007000
B0154333322390S14755137EA016850177901107000
B0154343322386S14755129EA016850177801307000
B0154353322383S14755120EA016850177701307000
B0154363322382S14755111EA016850177701007000
B0154373322383S14755101EA016850177701407000
B0154383322385S14755093EA016870177800807000
B0154393322389S14755086EA016890177800607000
B0154403322393S14755081EA016900177801207000
B0154413322399S14755076EA016900177801107000
B0154423322406S14755073EA016880177701107000
B0154433322414S14755072EA016870177600907000
B0154443322422S14755071EA016860177501007000
B0154453322430S14755072EA016850177400907000
B0154463322438S14755073EA016840177400907000
B0154473322446S14755075EA016820177300907000
B0154483322454S14755078EA016810177200907000
B0154493322462S14755081EA016800177200707000
B0154503322470S14755085EA016790177000807000
B0154513322477S14755090EA016780177000807000
B0154523322483S14755095EA016770176900807000
B0154533322490S14755101EA016760176800607000
B0154543322496S14755108EA016750176700607000
B0154553322502S14755115EA016750176600707000
B0154563322508S14755124EA016740176600707000
B0154573322512S14755133EA016750176600707000
B0154583322516S14755142EA016760176600807000
B0154593322520S14755151EA016780176600407000
B0155003322522S14755160EA016790176700407000
B0155013322524S14755169EA016810176800407000
B0155023322523S14755179EA016830176900607000
B0155033322520S14755189EA016850177000607000
B0155043322516S14755198EA016870177200707000
B0155053322510S14755206EA016890177400907000
B0155063322504S14755212EA016920177600607000
B0155073322496S14755216EA016940177900907000
B0155083322487S14755217EA016960178101007000
B0155093322479S14755216EA016990178400807000
B0155103322471S14755212EA017010178601007000
B0155113322466S14755205EA017020178801207000
B0155123322463S14755197EA017030179001407000
B0155133322461S14755187EA017040179301007000
B0155143322459S14755179EA017050179501407000
B0155153322459S14755170EA017060179701307000
B0155163322459S14755161EA017080179901007000
B0155173322459S14755153EA017090180001207000
B0155183322460S14755146EA017090180000507000
B0155193322463S14755138EA017090179900507000
B0155203322466S14755131EA017090179901107000
B0155213322470S14755124EA017090180001107000
B0155223322474S14755118EA017090180001007000
B0155233322479S14755114EA017090179900907000
B0155243322486S14755110EA017080179900907000
B0155253322492S14755107EA017060179900807000
B0155263322500S14755106EA017050179800907000
B0155273322508S14755106EA017020179701007000
B0155283322516S14755108EA017000179501007000
B0155293322524S14755111EA016990179400907000
B0155303322532S14755114EA016990179200907000
B0155313322540S14755119EA016990179200807000
B0155323322547S14755125EA017000179200807000
B0155333322554S14755132EA017020179200807000
B0155343322560S14755140EA017030179200707000
B0155353322566S14755148EA017030179300807000
B0155363322571S14755157EA017040179300807000
B0155373322575S14755167EA017060179400707000
B0155383322578S14755178EA017070179500307000
B0155393322579S14755189EA017080179600407000
B0155403322579S14755199EA017090179600407000
B0155413322580S14755210EA017090179700407000
B0155423322580S14755221EA017080179700407000
B0155433322579S14755231EA017070179700407000
B0155443322576S14755242EA017080179800407000
B0155453322571S14755251EA017090179900907000
B0155463322566S14755259EA017100180100907000
B0155473322560S14755265EA017120180300807000
B0155483322553S14755270EA017130180400507000
B0155493322545S14755273EA017130180500807000
B0155503322537S14755274EA017130180500707000
B0155513322527S14755272EA017130180601007000
B0155523322518S14755268EA017140180601107000
B0155533322511S14755262EA017160180700907000
B0155543322504S14755255EA017170180801207000
B0155553322499S14755246EA017190181000807000
B0155563322494S14755238EA017210181100907000
B0155573322491S14755229EA017220181301007000
B0155583322487S14755220EA017230181500607000
B0155593322485S14755211EA017240181600607000
B0156003322483S14755203EA017280181800807000
B0156013322483S14755194EA017300181900907000
B0156023322485S14755187EA017320182000807000
B0156033322487S14755180EA017340182100807000
B0156043322491S14755174EA017340182100807000
B0156053322496S14755169EA017330182100907000
B0156063322503S14755164EA017330182000907000
B0156073322510S14755161EA017340182100907000
B0156083322517S14755160EA017350182100907000
B0156093322526S14755161EA017360182200807000
B0156103322534S14755164EA017370182300907000
B0156113322541S14755170EA017370182400707000
B0156123322548S14755178EA017360182400407000
B0156133322551S14755189EA017360182400507000
B0156143322553S14755200EA017370182500607000
B0156153322552S14755210EA017390182600707000
B0156163322549S14755219EA017410182700707000
B0156173322545S14755226EA017430182800707000
B0156183322541S14755233EA017430182800707000
B0156193322534S14755238EA017420182801007000
B0156203322526S14755243EA017400182801207000
B0156213322517S14755246EA017390182901107000
B0156223322508S14755248EA017390183000807000
B0156233322498S14755248EA017400183201107000
B0156243322490S14755247EA017420183401107000
B0156253322482S14755245EA017430183400907000
B0156263322475S14755242EA017440183501007000
B0156273322468S14755236EA017440183600707000
B0156283322462S14755230EA017440183601007000
B0156293322458S14755222EA017450183800807000
B0156303322454S14755214EA017470183800807000
B0156313322453S14755206EA017480183901107000
B0156323322453S14755198EA017500184000907000
B0156333322455S14755190EA017500184000907000
B0156343322458S14755183EA017500184000807000
B0156353322463S14755177EA017500184000807000
B0156363322468S14755171EA017490184001107000
B0156373322474S14755165EA017480183901007000
B0156383322481S14755159EA017480183901007000
B0156393322487S14755154EA017480183800907000
B0156403322493S14755150EA017480183800907000
B0156413322500S14755146EA017460183700807000
B0156423322508S14755145EA017440183700907000
B0156433322517S14755144EA017420183600807000
B0156443322526S14755146EA017400183500807000
B0156453322534S14755150EA017390183400807000
B0156463322542S14755155EA017380183300807000
B0156473322549S14755162EA017380183200807000
B0156483322555S14755171EA017380183200707000
B0156493322560S14755180EA017390183200607000
B0156503322563S14755190EA017390183200407000
B0156513322565S14755201EA017410183300407000
B0156523322565S14755211EA017420183300507000
B0156533322564S14755221EA017410183300507000
B0156543322562S14755231EA017400183300507000
B0156553322557S14755240EA017400183200507000
B0156563322552S14755249EA017400183201007000
B0156573322545S14755256EA017390183200507000
B0156583322537S14755262EA017390183201007000
B0156593322528S14755266EA017380183100807000
B0157003322519S14755268EA017360183100807000
B0157013322509S14755265EA017340183101007000
B0157023322499S14755261EA017340183100907000
B0157033322489S14755256EA017350183100907000
B0157043322481S14755252EA017360183100807000
B0157053322473S14755247EA017360183100807000
B0157063322466S14755242EA017360183100707000
B0157073322458S14755238EA017370183100807000
B0157083322451S14755234EA017370183100607000
B0157093322445S14755230EA017370183100507000
B0157103322437S14755226EA017370183101007000
B0157113322430S14755222EA017370183100907000
B0157123322422S14755218EA017360183001007000
B0157133322415S14755215EA017360183001007000
B0157143322408S14755212EA017360183100907000
B0157153322400S14755209EA017360183000507000
B0157163322393S14755205EA017350183000607000
B0157173322385S14755201EA017330182900807000
B0157183322378S14755197EA017320182800907000
B0157193322370S14755191EA017310182700607000
B0157203322363S14755184EA017300182600507000
B0157213322356S14755177EA017290182600607000
B0157223322350S14755170EA017300182500807000
B0157233322346S14755162EA017310182300907000
B0157243322345S14755154EA017300182101107000
B0157253322346S14755145EA017270181801207000
B0157263322349S14755137EA017240181501207000
B0157273322353S14755129EA017210181101207000
B0157283322359S14755123EA017200180900907000
B0157293322365S14755119EA017210180901107000
B0157303322372S14755117EA017220180801007000
B0157313322378S14755117EA017220180701107000
B0157323322385S14755119EA017200180401007000
B0157333322392S14755124EA017170180201007000
B0157343322398S14755132EA017150180001007000
B0157353322402S14755140EA017150180001007000
B0157363322406S14755149EA017150180100507000
B0157373322409S14755157EA017160180100507000
B0157383322411S14755166EA017160180100507000
B0157393322413S14755174EA017140180000507000
B0157403322414S14755184EA017110179900407000
B0157413322413S14755194EA017090179700607000
B0157423322412S14755206EA017060179600607000
B0157433322409S14755217EA017040179500607000
B0157443322405S14755229EA017040179500607000
B0157453322401S14755241EA017050179500507000
B0157463322398S14755252EA017050179500507000
B0157473322395S14755262EA017060179600507000
B0157483322393S14755272EA017080179600507000
B0157493322392S14755282EA017080179700507000
B0157503322391S14755291EA017090179700407000
B0157513322390S14755301EA017080179800407000
B0157523322389S14755311EA017090179800307000
B0157533322388S14755322EA017090179900407000
B0157543322388S14755332EA017090179900407000
B0157553322388S14755342EA017090179900407000
B0157563322388S14755352EA017100180000707000
B0157573322390S14755361EA017110180000407000
B0157583322393S14755370EA017110179900407000
B0157593322397S14755378EA017110180000807000
B0158003322403S14755385EA017100179900807000
B0158013322410S14755391EA017100179900907000
B0158023322417S14755396EA017100179900707000
B0158033322424S14755400EA017120180000907000
B0158043322431S14755402EA017140180100907000
B0158053322438S14755402EA017150180100807000
B0158063322445S14755400EA017150180100707000
B0158073322451S14755396EA017140180100707000
B0158083322456S14755390EA017130180100707000
B0158093322460S14755383EA017140180300707000
B0158103322463S14755376EA017160180500707000
B0158113322465S14755369EA017190180800807000
B0158123322466S14755362EA017210181000807000
B0158133322466S14755355EA017230181200707000
B0158143322466S14755348EA017240181400807000
B0158153322466S14755340EA017240181500807000
B0158163322464S14755332EA017230181500807000
B0158173322463S14755324EA017200181600807000
B0158183322461S14755315EA017180181500707000
B0158193322459S14755306EA017150181400807000
B0158203322458S14755296EA017130181300807000
B0158213322456S14755287EA017120181200707000
B0158223322454S14755278EA017110181100507000
B0158233322451S14755270EA017120181100507000
B0158243322449S14755261EA017120181000807000
B0158253322446S14755253EA017130181100707000
B0158263322444S14755245EA017150181100807000
B0158273322442S14755238EA017170181100807000
B0158283322440S14755230EA017160181000707000
B0158293322439S14755222EA017150181000507000
B0158303322438S14755214EA017130180900507000
B0158313322438S14755205EA017110180800607000
B0158323322440S14755197EA017100180700607000
B0158333322443S14755190EA017100180500807000
B0158343322446S14755184EA017090180300807000
B0158353322451S14755178EA017080180100807000
B0158363322457S14755175EA017070179900807000
F0158370206121719242529
B0158373322463S14755172EA017050179700708000
B0158383322470S14755172EA017030179400708000
B0158393322478S14755172EA017020179100708000
B0158403322486S14755174EA017000179000308000
B0158413322493S14755178EA016980178700308000
B0158423322500S14755184EA016970178600308000
B0158433322506S14755190EA016960178500308000
B0158443322510S14755198EA016950178400308000
B0158453322514S14755206EA016930178300308000
B0158463322517S14755216EA016910178200408000
B0158473322519S14755226EA016890178000408000
B0158483322519S14755236EA016880177900608000
B0158493322518S14755247EA016860177700508000
B0158503322515S14755257EA016830177500508000
B0158513322510S14755267EA016810177200608000
B0158523322504S14755276EA016770177000708000
F015853020506121719242529
B0158533322496S14755285EA016750176700509000
B0158543322488S14755292EA016740176400609000
B0158553322480S14755300EA016710176100509000
B0158563322471S14755307EA016690175900509000
B0158573322463S14755313EA016670175700509000
B0158583322454S14755320EA016650175500409000
B0158593322445S14755325EA016640175200309000
B0159003322436S14755330EA016620175100309000
B0159013322427S14755336EA016600174800309000
B0159023322417S14755341EA016580174600409000
B0159033322407S14755347EA016580174500409000
B0159043322398S14755354EA016610174400309000
B0159053322389S14755362EA016630174300309000
B0159063322382S14755368EA016650174400309000
B0159073322376S14755376EA016670174500509000
B0159083322370S14755383EA016660174600409000
B0159093322365S14755392EA016660174600609000
B0159103322360S14755402EA016650174700709000
B0159113322355S14755411EA016660174800309000
B0159123322351S14755420EA016670174900409000
B0159133322347S14755428EA016670175000409000
B0159143322343S14755437EA016670175000309000
B0159153322338S14755445EA016660175100409000
B0159163322333S14755453EA016650175000309000
B0159173322328S14755461EA016640175000409000
B0159183322322S14755469EA016630175100409000
B0159193322315S14755476EA016620175100309000
B0159203322309S14755484EA016630175000309000
B0159213322302S14755490EA016630175000309000
B0159223322296S14755495EA016630175000409000
B0159233322289S14755500EA016630175000409000
B0159243322282S14755503EA016610174800509000
B0159253322274S14755505EA016590174700609000
B0159263322266S14755504EA016570174600609000
B0159273322259S14755500EA016550174400609000
B0159283322252S14755494EA016540174200509000
B0159293322246S14755487EA016520173900709000
B0159303322243S14755479EA016490173600709000
B0159313322242S14755470EA016480173400509000
B0159323322244S14755462EA016460173200509000
B0159333322249S14755455EA016450173100509000
B0159343322255S14755450EA016440173000509000
B0159353322261S14755446EA016420172800309000
B0159363322269S14755444EA016410172700609000
B0159373322276S14755444EA016410172700609000
B0159383322283S14755444EA016410172700409000
B0159393322290S14755445EA016420172700709000
B0159403322298S14755447EA016410172800609000
B0159413322305S14755449EA016400172800509000
B0159423322313S14755452EA016390172800309000
B0159433322320S14755456EA016380172700309000
B0159443322328S14755460EA016370172700309000
B0159453322334S14755464EA016370172700509000
B0159463322341S14755468EA016380172700509000
B0159473322347S14755471EA016380172700309000
B0159483322354S14755475EA016370172600209000
B0159493322361S14755478EA016360172600309000
B0159503322369S14755481EA016350172500509000
B0159513322377S14755483EA016340172500309000
B0159523322384S14755484EA016350172400409000
B0159533322392S14755484EA016350172400209000
B0159543322399S14755484EA016350172400309000
B0159553322407S14755483EA016350172400509000
B0159563322414S14755481EA016350172400509000
B0159573322422S14755479EA016350172400509000
B0159583322429S14755476EA016340172300409000
B0159593322436S14755473EA016340172300209000
B0200003322443S14755469EA016340172300209000
B0200013322450S14755466EA016340172300209000
B0200023322456S14755462EA016340172200209000
B0200033322463S14755459EA016340172200209000
B0200043322470S14755455EA016340172100209000
B0200053322477S14755453EA016340172100209000
B0200063322484S14755450EA016340172000209000
B0200073322491S14755447EA016340172000209000
B0200083322499S14755443EA016330172000209000
B0200093322506S14755440EA016330172000209000
B0200103322513S14755436EA016350172100509000
B0200113322519S14755434EA016370172100509000
B0200123322526S14755431EA016380172200309000
B0200133322532S14755430EA016390172300509000
B0200143322539S14755429EA016400172400509000
B0200153322547S14755428EA016400172500509000
B0200163322554S14755428EA016400172500209000
B0200173322561S14755428EA016410172600209000
F0200180206121719242529
B0200183322568S14755428EA016420172700508000
F020019020506121719242529
B0200193322576S14755428EA016410172700209000
B0200203322583S14755427EA016410172700209000
B0200213322591S14755428EA016420172800309000
B0200223322599S14755430EA016430172900209000
B0200233322607S14755433EA016450173000309000
B0200243322614S14755436EA016470173100309000
B0200253322621S14755441EA016480173200509000
B0200263322628S14755447EA016490173400209000
B0200273322634S14755455EA016490173500309000
B0200283322640S14755463EA016500173600209000
B0200293322644S14755472EA016500173600209000
B0200303322648S14755483EA016510173700309000
B0200313322651S14755493EA016510173800209000
B0200323322652S14755504EA016510173800409000
B0200333322649S14755515EA016510173700409000
B0200343322645S14755525EA016510173500409000
B0200353322639S14755533EA016500173500409000
B0200363322632S14755540EA016490173400409000
B0200373322623S14755544EA016490173400709000
B0200383322615S14755546EA016490173400509000
B0200393322607S14755546EA016510173500409000
B0200403322599S14755544EA016510173600409000
B0200413322593S14755540EA016510173700409000
B0200423322586S14755535EA016520173700309000
B0200433322581S14755530EA016520173800509000
B0200443322577S14755523EA016510173800509000
B0200453322573S14755515EA016500173700509000
B0200463322570S14755507EA016500173700409000
B0200473322569S14755499EA016510173800409000
B0200483322569S14755491EA016520173800309000
B0200493322570S14755483EA016540174000609000
B0200503322572S14755476EA016550174100609000
B0200513322576S14755470EA016560174100209000
B0200523322581S14755465EA016570174100209000
B0200533322587S14755461EA016570174100209000
B0200543322594S14755458EA016570174100409000
B0200553322602S14755457EA016570174100509000
B0200563322610S14755458EA016580174200509000
B0200573322618S14755460EA016590174300509000
B0200583322625S14755464EA016610174500309000
B0200593322631S14755470EA016630174600309000
B0201003322637S14755477EA016640174800309000
B0201013322642S14755486EA016640174900309000
B0201023322645S14755496EA016640174900309000
B0201033322645S14755507EA016640174900309000
B0201043322644S14755518EA016640175000409000
B0201053322641S14755528EA016640175100409000
B0201063322637S14755538EA016650175100309000
B0201073322631S14755546EA016650175200609000
B0201083322625S14755552EA016660175200509000
B0201093322617S14755557EA016660175200309000
B0201103322609S14755559EA016660175200509000
B0201113322602S14755558EA016660175200409000
B0201123322594S14755555EA016660175200409000
B0201133322588S14755550EA016660175200409000
B0201143322584S14755543EA016660175200509000
B0201153322581S14755536EA016660175200509000
B0201163322580S14755528EA016660175100609000
B0201173322581S14755520EA016660175100409000
B0201183322584S14755512EA016660175100409000
B0201193322588S14755505EA016660175100409000
B0201203322592S14755499EA016670175200409000
B0201213322596S14755493EA016680175300309000
B0201223322602S14755487EA016690175300309000
B0201233322607S14755482EA016690175400309000
B0201243322613S14755476EA016690175500309000
B0201253322618S14755471EA016700175600309000
B0201263322624S14755466EA016710175700309000
B0201273322630S14755461EA016710175700309000
B0201283322635S14755456EA016720175800309000
B0201293322641S14755451EA016740176000309000
B0201303322648S14755447EA016760176100309000
B0201313322654S14755444EA016780176300309000
B0201323322661S14755441EA016800176500309000
B0201333322668S14755439EA016820176700309000
B0201343322676S14755439EA016840176900309000
B0201353322683S14755440EA016860177000609000
B0201363322691S14755444EA016860177000309000
B0201373322698S14755451EA016840177000309000
B0201383322703S14755462EA016820177000309000
B0201393322705S14755474EA016820177000409000
B0201403322705S14755486EA016830177200409000
B0201413322701S14755497EA016840177300409000
B0201423322696S14755506EA016860177500609000
B0201433322690S14755513EA016880177600609000
B0201443322683S14755517EA016890177700509000
B0201453322676S14755520EA016900177700509000
B0201463322669S14755521EA016900177600509000
B0201473322662S14755521EA016900177700509000
B0201483322655S14755518EA016900177700509000
B0201493322649S14755515EA016900177700409000
B0201503322643S14755510EA016900177700509000
B0201513322637S14755504EA016910177700509000
B0201523322633S14755498EA016920177800509000
B0201533322628S14755492EA016920177900409000
B0201543322624S14755486EA016930177900309000
B0201553322621S14755479EA016930177900409000
B0201563322617S14755471EA016930177900509000
B0201573322614S14755463EA016930178000609000
B0201583322611S14755455EA016940178100609000
B0201593322609S14755446EA016960178200509000
B0202003322607S14755439EA016980178300509000
B0202013322606S14755431EA017000178400309000
B0202023322606S14755423EA017020178600309000
B0202033322607S14755415EA017040178700609000
B0202043322610S14755408EA017050178900209000
B0202053322615S14755402EA017070179200309000
B0202063322620S14755398EA017100179400309000
B0202073322627S14755395EA017120179700309000
B0202083322634S14755394EA017140179900409000
B0202093322641S14755395EA017150180100509000
B0202103322649S14755398EA017170180300209000
B0202113322656S14755402EA017180180500209000
B0202123322663S14755407EA017200180600209000
B0202133322670S14755413EA017220180900209000
B0202143322677S14755420EA017240181200209000
B0202153322683S14755427EA017270181400209000
B0202163322688S14755435EA017290181600209000
B0202173322693S14755444EA017300181800209000
B0202183322698S14755454EA017320181900209000
B0202193322701S14755464EA017340182100209000
B0202203322704S14755475EA017360182300309000
B0202213322706S14755486EA017390182500309000
B0202223322708S14755496EA017410182800309000
B0202233322708S14755505EA017430182900309000
B0202243322707S14755515EA017440183100309000
B0202253322704S14755524EA017440183100309000
B0202263322701S14755533EA017440183200309000
B0202273322696S14755541EA017440183200409000
B0202283322690S14755547EA017440183100509000
B0202293322684S14755553EA017440183100409000
B0202303322676S14755558EA017430183100409000
B0202313322669S14755561EA017430183000509000
B0202323322662S14755562EA017430183000409000
B0202333322654S14755561EA017440183100509000
B0202343322648S14755559EA017450183100409000
B0202353322642S14755555EA017450183100409000
B0202363322636S14755550EA017450183100409000
B0202373322631S14755543EA017450183200509000
B0202383322627S14755537EA017450183200609000
B0202393322623S14755530EA017450183300609000
B0202403322619S14755522EA017460183400609000
B0202413322616S14755515EA017470183400609000
B0202423322614S14755507EA017480183500509000
B0202433322613S14755498EA017480183500609000
B0202443322611S14755490EA017490183600609000
B0202453322611S14755481EA017510183700509000
B0202463322610S14755473EA017530183800209000
B0202473322610S14755465EA017550184000309000
B0202483322610S14755457EA017570184200309000
B0202493322611S14755450EA017600184400309000
B0202503322612S14755442EA017610184600309000
B0202513322613S14755435EA017630184800309000
B0202523322615S14755428EA017650185100509000
B0202533322617S14755421EA017670185300309000
B0202543322620S14755415EA017690185500209000
B0202553322624S14755408EA017700185700209000
B0202563322628S14755402EA017710185800309000
B0202573322634S14755397EA017720186000309000
B0202583322640S14755393EA017730186200309000
B0202593322646S14755390EA017750186400309000
B0203003322653S14755388EA017770186600309000
B0203013322661S14755388EA017790186800509000
B0203023322668S14755388EA017800187100509000
B0203033322675S14755389EA017820187300409000
B0203043322682S14755391EA017830187500309000
B0203053322690S14755392EA017840187600609000
B0203063322697S14755395EA017850187800309000
B0203073322705S14755399EA017870188000309000
B0203083322712S14755404EA017890188200309000
B0203093322719S14755410EA017910188400309000
B0203103322725S14755418EA017930188500209000
B0203113322729S14755429EA017930188500309000
B0203123322732S14755441EA017930188600409000
B0203133322732S14755453EA017950189000409000
B0203143322730S14755466EA018000189500509000
B0203153322726S14755476EA018060190000509000
B0203163322722S14755485EA018100190500709000
B0203173322716S14755492EA018140190900509000
B0203183322710S14755498EA018170191200709000
B0203193322704S14755503EA018200191500409000
B0203203322697S14755507EA018230191900409000
B0203213322690S14755510EA018270192200609000
B0203223322683S14755511EA018290192500609000
B0203233322676S14755512EA018310192700509000
B0203243322669S14755513EA018330192900609000
B0203253322662S14755512EA018330193100309000
B0203263322655S14755511EA018340193100309000
B0203273322649S14755509EA018350193300509000
B0203283322642S14755506EA018360193300609000
B0203293322637S14755503EA018370193400509000
B0203303322632S14755499EA018380193500509000
B0203313322627S14755493EA018390193600509000
B0203323322624S14755488EA018400193700509000
B0203333322621S14755481EA018410193700409000
B0203343322620S14755474EA018410193700509000
B0203353322620S14755466EA018410193700309000
B0203363322622S14755458EA018410193700609000
B0203373322624S14755450EA018410193800309000
B0203383322627S14755443EA018420193800309000
B0203393322629S14755437EA018430193800609000
B0203403322632S14755430EA018430193700309000
B0203413322636S14755424EA018430193700309000
B0203423322641S14755418EA018420193700209000
B0203433322646S14755413EA018420193700209000
B0203443322652S14755410EA018420193600209000
B0203453322659S14755407EA018420193600409000
B0203463322666S14755406EA018410193500509000
B0203473322674S14755405EA018400193500509000
B0203483322682S14755405EA018390193500309000
B0203493322690S14755404EA018390193500309000
B0203503322697S14755404EA018400193400309000
B0203513322705S14755404EA018410193500309000
B0203523322712S14755404EA018410193500309000
B0203533322720S14755405EA018420193600309000
B0203543322727S14755406EA018430193600509000
B0203553322734S14755408EA018440193700509000
B0203563322742S14755411EA018450193800509000
B0203573322750S14755413EA018460193900209000
B0203583322759S14755416EA018480194000609000
B0203593322768S14755418EA018500194100609000
B0204003322776S14755421EA018520194400609000
B0204013322784S14755425EA018550194600609000
B0204023322792S14755430EA018580194800509000
B0204033322800S14755435EA018600195100609000
B0204043322806S14755442EA018620195400309000
B0204053322812S14755450EA018650195600309000
B0204063322817S14755459EA018660195800209000
B0204073322820S14755469EA018670196000209000
B0204083322821S14755480EA018690196200309000
B0204093322819S14755489EA018710196600409000
B0204103322815S14755498EA018730196700409000
B0204113322809S14755504EA018730196800509000
B0204123322801S14755508EA018730196700509000
B0204133322792S14755507EA018720196700609000
B0204143322783S14755504EA018720196700509000
B0204153322776S14755498EA018740196900509000
B0204163322769S14755493EA018780197100609000
B0204173322765S14755487EA018810197300609000
B0204183322761S14755480EA018870197600809000
B0204193322759S14755474EA018900198000709000
B0204203322758S14755467EA018930198300709000
B0204213322757S14755460EA018950198600709000
B0204223322756S14755453EA018960198900709000
B0204233322755S14755447EA018980199100509000
B0204243322753S14755440EA019000199400609000
B0204253322752S14755434EA019020199600609000
B0204263322750S14755428EA019030199800609000
B0204273322748S14755422EA019030200000609000
B0204283322745S14755416EA019030200000509000
B0204293322742S14755409EA019020200100409000
B0204303322739S14755402EA019020200000309000
B0204313322735S14755395EA019020200100609000
B0204323322732S14755388EA019030200100609000
B0204333322729S14755381EA019030200100509000
B0204343322725S14755375EA019040200100309000
B0204353322722S14755368EA019040200200309000
B0204363322717S14755361EA019040200100509000
B0204373322712S14755355EA019040200200509000
B0204383322708S14755350EA019060200200409000
B0204393322703S14755345EA019070200200509000
B0204403322699S14755339EA019080200200509000
B0204413322695S14755333EA019070200200509000
B0204423322690S14755326EA019060200200609000
B0204433322686S14755319EA019070200200509000
B0204443322682S14755312EA019080200400509000
B0204453322679S14755305EA019100200500609000
B0204463322675S14755299EA019120200600509000
B0204473322672S14755292EA019140200800609000
B0204483322668S14755285EA019160201000609000
B0204493322665S14755278EA019190201200509000
B0204503322662S14755272EA019200201400309000
B0204513322659S14755264EA019210201500209000
B0204523322656S14755256EA019200201600409000
B0204533322653S14755248EA019200201700509000
B0204543322650S14755240EA019210201800509000
B0204553322647S14755232EA019230201900309000
B0204563322643S14755225EA019240202100409000
B0204573322639S14755218EA019240202200509000
B0204583322635S14755211EA019240202200509000
B0204593322629S14755204EA019240202300309000
B0205003322623S14755198EA019240202300209000
B0205013322616S14755193EA019240202400309000
B0205023322609S14755188EA019250202500309000
B0205033322601S14755184EA019270202500309000
B0205043322594S14755180EA019270202600309000
B0205053322586S14755176EA019280202600209000
B0205063322578S14755172EA019280202600209000
B0205073322571S14755168EA019280202600209000
B0205083322563S14755163EA019280202600309000
B0205093322556S14755158EA019290202700309000
B0205103322549S14755153EA019290202700309000
B0205113322542S14755147EA019300202700309000
B0205123322536S14755141EA019300202800309000
B0205133322530S14755135EA019310202800509000
B0205143322524S14755129EA019310202800509000
B0205153322519S14755123EA019310202900509000
B0205163322513S14755117EA019300202800409000
B0205173322508S14755110EA019280202800509000
B0205183322501S14755103EA019260202700309000
B0205193322495S14755097EA019260202600309000
B0205203322488S14755092EA019250202500309000
B0205213322481S14755088EA019250202500309000
B0205223322474S14755084EA019230202300309000
B0205233322467S14755082EA019210202200309000
B0205243322459S14755079EA019190202000409000
B0205253322451S14755077EA019160201700309000
B0205263322442S14755075EA019130201500309000
B0205273322433S14755074EA019100201200409000
B0205283322424S14755074EA019090201000609000
B0205293322415S14755074EA019100200800609000
B0205303322406S14755073EA019120200800609000
B0205313322398S14755071EA019130200700609000
B0205323322390S14755066EA019120200700609000
B0205333322382S14755059EA019120200800409000
B0205343322375S14755052EA019130200900409000
B0205353322368S14755045EA019140201000409000
B0205363322362S14755039EA019160201100609000
B0205373322356S14755032EA019160201200509000
B0205383322350S14755025EA019160201200409000
B0205393322345S14755018EA019160201200409000
B0205403322340S14755012EA019150201200609000
B0205413322334S14755005EA019140201200509000
B0205423322328S14754999EA019130201300509000
B0205433322321S14754992EA019140201200409000
B0205443322314S14754986EA019140201200409000
B0205453322308S14754979EA019140201200409000
B0205463322301S14754973EA019130201100409000
B0205473322293S14754967EA019110201000409000
B0205483322284S14754960EA019100200900309000
B0205493322275S14754954EA019110200900309000
B0205503322267S14754948EA019120200900409000
B0205513322260S14754942EA019120200900409000
B0205523322253S14754937EA019120200800409000
B0205533322246S14754932EA019100200700409000
B0205543322238S14754926EA019070200600409000
B0205553322231S14754921EA019040200400409000
B0205563322223S14754916EA019010200200309000
B0205573322215S14754912EA018990200000409000
B0205583322206S14754909EA018960199700309000
B0205593322198S14754906EA018920199300309000
B0206003322188S14754905EA018890198800309000
B0206013322178S14754904EA018860198500309000
B0206023322168S14754905EA018810198100609000
B0206033322158S14754906EA018790197800609000
B0206043322149S14754908EA018780197600609000
B0206053322140S14754910EA018760197400409000
B0206063322130S14754912EA018750197200509000
B0206073322121S14754916EA018730197000309000
B0206083322112S14754920EA018710196800309000
B0206093322103S14754924EA018700196600309000
B0206103322095S14754928EA018690196500309000
B0206113322087S14754933EA018680196300309000
B0206123322079S14754938EA018660196200209000
B0206133322071S14754942EA018650196000309000
B0206143322063S14754945EA018620195800509000
B0206153322054S14754947EA018580195400609000
B0206163322044S14754948EA018560195200609000
B0206173322034S14754949EA018540195000609000
B0206183322025S14754949EA018540194900609000
B0206193322016S14754949EA018530194700609000
B0206203322007S14754948EA018510194500309000
B0206213321998S14754947EA018490194400309000
B0206223321988S14754946EA018470194100309000
B0206233321978S14754944EA018440193900309000
B0206243321968S14754942EA018420193700309000
B0206253321959S14754939EA018400193500409000
F0206260205061217192429
B0206263321950S14754937EA018380193300308000
F020627020506121719242529
B0206273321941S14754935EA018360193100309000
B0206283321932S14754933EA018350192900309000
B0206293321924S14754931EA018330192700309000
B0206303321915S14754929EA018310192500309000
B0206313321907S14754927EA018300192300309000
B0206323321898S14754924EA018280192100309000
B0206333321890S14754921EA018280192000309000
B0206343321882S14754919EA018270192000509000
B0206353321874S14754917EA018280191900309000
B0206363321867S14754915EA018280192000309000
B0206373321859S14754912EA018280191900309000
B0206383321851S14754910EA018270191900309000
B0206393321843S14754907EA018270191900409000
B0206403321836S14754904EA018260191800309000
B0206413321829S14754901EA018240191700409000
B0206423321822S14754897EA018220191600509000
B0206433321814S14754892EA018200191400309000
B0206443321807S14754887EA018170191300309000
B0206453321800S14754882EA018160191100309000
B0206463321793S14754876EA018140190900409000
B0206473321786S14754871EA018110190800309000
B0206483321780S14754865EA018100190600309000
B0206493321774S14754858EA018090190500409000
B0206503321768S14754851EA018070190300409000
B0206513321764S14754844EA018050190100509000
B0206523321759S14754836EA018030189900609000
B0206533321755S14754827EA018010189700609000
B0206543321752S14754818EA018000189500609000
B0206553321750S14754809EA018000189400609000
B0206563321748S14754801EA018000189400609000
B0206573321747S14754793EA018010189400609000
B0206583321746S14754785EA018010189400509000
B0206593321745S14754777EA018010189400409000
B0207003321745S14754768EA018000189300609000
B0207013321745S14754760EA018000189200509000
B0207023321745S14754752EA017990189200509000
B0207033321745S14754744EA017980189100509000
B0207043321746S14754737EA017970188900509000
B0207053321747S14754729EA017950188800509000
B0207063321749S14754722EA017950188700409000
B0207073321751S14754715EA017940188700409000
B0207083321755S14754708EA017950188700209000
B0207093321758S14754703EA017950188700209000
B0207103321762S14754698EA017940188600309000
B0207113321766S14754693EA017930188500209000
B0207123321770S14754688EA017910188400209000
B0207133321775S14754683EA017910188300309000
B0207143321779S14754678EA017900188200409000
B0207153321784S14754673EA017890188200509000
B0207163321788S14754669EA017890188100509000
B0207173321794S14754666EA017890188000409000
B0207183321800S14754663EA017870187900409000
B0207193321806S14754660EA017860187800409000
B0207203321812S14754657EA017850187700509000
B0207213321818S14754655EA017830187600509000
B0207223321824S14754652EA017820187400409000
B0207233321830S14754649EA017800187300409000
B0207243321836S14754645EA017790187200409000
B0207253321842S14754642EA017780187100209000
B0207263321847S14754639EA017770186900209000
B0207273321852S14754636EA017750186800409000
B0207283321857S14754633EA017720186600309000
B0207293321862S14754628EA017700186400309000
B0207303321868S14754624EA017670186200309000
B0207313321873S14754619EA017660186100409000
B0207323321878S14754614EA017650186000509000
B0207333321884S14754609EA017650185900509000
B0207343321889S14754604EA017640185700509000
B0207353321894S14754600EA017630185600509000
B0207363321900S14754596EA017630185500509000
B0207373321906S14754593EA017620185500509000
B0207383321912S14754592EA017610185400409000
B0207393321918S14754592EA017600185300409000
B0207403321925S14754594EA017600185200209000
B0207413321931S14754597EA017590185100209000
B0207423321936S14754602EA017590185100309000
B0207433321941S14754607EA017590185200309000
B0207443321945S14754614EA017600185200309000
B0207453321947S14754621EA017610185200309000
B0207463321948S14754629EA017610185300209000
B0207473321947S14754637EA017610185200309000
B0207483321944S14754645EA017600185100409000
B0207493321940S14754654EA017590185100409000
B0207503321935S14754662EA017580185000409000
B0207513321929S14754669EA017580185100509000
B0207523321922S14754675EA017590185100509000
B0207533321915S14754680EA017590185100409000
B0207543321907S14754684EA017590185100409000
B0207553321900S14754687EA017590185100409000
B0207563321892S14754689EA017590185100609000
B0207573321884S14754690EA017580185000309000
B0207583321875S14754689EA017570185000309000
B0207593321867S14754686EA017570185000309000
B0208003321859S14754682EA017580185000409000
B0208013321852S14754678EA017590185100409000
B0208023321847S14754672EA017590185100509000
B0208033321841S14754666EA017580185100509000
B0208043321836S14754659EA017560185000609000
B0208053321831S14754652EA017540184900609000
B0208063321826S14754644EA017510184800609000
B0208073321822S14754635EA017490184600509000
B0208083321819S14754627EA017470184400509000
B0208093321817S14754619EA017460184200409000
B0208103321816S14754611EA017440184100309000
B0208113321817S14754602EA017410183800309000
B0208123321818S14754593EA017370183500609000
B0208133321821S14754584EA017340183100309000
B0208143321824S14754576EA017310182800309000
B0208153321829S14754569EA017300182600309000
B0208163321833S14754563EA017280182300309000
B0208173321838S14754558EA017270182100309000
B0208183321842S14754553EA017260182000309000
B0208193321848S14754548EA017240181800509000
B0208203321853S14754544EA017220181600509000
B0208213321860S14754540EA017210181400409000
B0208223321866S14754537EA017200181300509000
B0208233321872S14754535EA017190181200209000
B0208243321879S14754534EA017180181100409000
B0208253321885S14754533EA017170180900409000
B0208263321892S14754534EA017160180800409000
B0208273321898S14754535EA017160180800209000
B0208283321904S14754538EA017160180700209000
B0208293321910S14754541EA017150180700209000
B0208303321915S14754546EA017140180600209000
B0208313321920S14754551EA017140180600209000
B0208323321925S14754557EA017140180500209000
B0208333321928S14754564EA017130180400209000
B0208343321931S14754572EA017130180300209000
B0208353321933S14754581EA017110180200209000
B0208363321935S14754590EA017110180100209000
B0208373321935S14754599EA017100180000209000
B0208383321934S14754608EA017090179900309000
B0208393321931S14754617EA017080179800309000
B0208403321928S14754626EA017070179700309000
B0208413321924S14754634EA017060179600309000
B0208423321920S14754641EA017050179500309000
B0208433321914S14754648EA017040179400409000
B0208443321907S14754655EA017040179400409000
B0208453321900S14754659EA017040179300409000
B0208463321893S14754663EA017040179300509000
B0208473321885S14754666EA017030179300509000
B0208483321877S14754669EA017020179200509000
B0208493321869S14754670EA017020179100409000
B0208503321861S14754671EA017010178900409000
B0208513321852S14754670EA016990178800509000
B0208523321844S14754667EA016980178700409000
B0208533321836S14754663EA016970178600409000
B0208543321830S14754657EA016970178600409000
B0208553321824S14754649EA016970178600609000
B0208563321820S14754641EA016970178600509000
B0208573321817S14754633EA016970178600709000
B0208583321816S14754624EA016970178500609000
B0208593321817S14754614EA016960178400409000
B0209003321821S14754605EA016950178300409000
B0209013321825S14754598EA016940178100409000
B0209023321832S14754592EA016930178100409000
B0209033321839S14754588EA016920178000609000
B0209043321846S14754586EA016910177900309000
B0209053321854S14754586EA016910177800609000
B0209063321861S14754588EA016900177800309000
B0209073321868S14754591EA016900177800309000
B0209083321873S14754595EA016900177700309000
B0209093321879S14754599EA016900177700309000
B0209103321883S14754604EA016890177600309000
B0209113321887S14754611EA016870177500309000
B0209123321890S14754618EA016860177500209000
B0209133321892S14754626EA016840177300309000
B0209143321894S14754634EA016820177100309000
B0209153321895S14754643EA016810177000409000
B0209163321896S14754651EA016800176900409000
B0209173321896S14754660EA016790176900409000
B0209183321896S14754668EA016790176800309000
B0209193321896S14754676EA016790176700309000
B0209203321896S14754685EA016770176600309000
B0209213321896S14754694EA016760176500309000
B0209223321895S14754703EA016750176400209000
B0209233321895S14754712EA016740176400309000
B0209243321895S14754721EA016730176300309000
B0209253321896S14754730EA016710176200309000
B0209263321897S14754739EA016700176100609000
B0209273321898S14754749EA016700176000509000
B0209283321900S14754758EA016700175900509000
B0209293321901S14754766EA016690175800309000
B0209303321902S14754775EA016700175800509000
B0209313321903S14754784EA016700175700309000
B0209323321904S14754793EA016690175600409000
B0209333321903S14754803EA016680175600309000
B0209343321901S14754812EA016680175500309000
B0209353321898S14754821EA016670175400309000
B0209363321894S14754830EA016660175300309000
B0209373321888S14754839EA016660175300309000
B0209383321882S14754846EA016650175200509000
B0209393321875S14754852EA016640175100509000
B0209403321866S14754857EA016620174900309000
B0209413321857S14754860EA016600174800409000
B0209423321848S14754862EA016590174600509000
B0209433321839S14754863EA016570174400509000
B0209443321830S14754863EA016560174300309000
B0209453321822S14754861EA016540174100309000
B0209463321814S14754857EA016530173900309000
B0209473321807S14754853EA016510173700309000
B0209483321800S14754848EA016500173500409000
B0209493321795S14754842EA016480173300409000
B0209503321789S14754834EA016460173100509000
B0209513321785S14754826EA016430172900509000
B0209523321781S14754817EA016410172700509000
B0209533321777S14754808EA016400172600509000
B0209543321775S14754799EA016390172400509000
B0209553321773S14754790EA016370172200309000
B0209563321772S14754780EA016350172000309000
B0209573321772S14754771EA016330171800209000
B0209583321773S14754762EA016320171600309000
B0209593321775S14754753EA016300171500209000
B0210003321777S14754745EA016280171300309000
B0210013321781S14754738EA016260171000309000
B0210023321785S14754731EA016240170800309000
B0210033321790S14754725EA016210170500309000
B0210043321795S14754719EA016190170300309000
B0210053321801S14754714EA016170170100509000
B0210063321807S14754711EA016140169800509000
B0210073321814S14754709EA016120169500509000
B0210083321822S14754708EA016100169400409000
B0210093321829S14754709EA016080169200409000
B0210103321836S14754713EA016070169100309000
B0210113321842S14754718EA016070169000209000
B0210123321847S14754724EA016050168800309000
B0210133321851S14754732EA016040168700409000
B0210143321854S14754741EA016030168600209000
B0210153321856S14754749EA016020168600309000
B0210163321857S14754758EA016020168600309000
B0210173321857S14754767EA016020168500309000
B0210183321856S14754776EA016010168500309000
B0210193321854S14754785EA016010168400309000
B0210203321852S14754795EA016000168400309000
B0210213321850S14754804EA016000168300309000
F0210220205061217192429
B0210223321848S14754813EA016000168300508000
F021023020506121719242529
B0210233321845S14754822EA016000168300209000
B0210243321843S14754830EA015990168200309000
B0210253321841S14754839EA015980168200309000
F0210260205061217192429
B0210263321840S14754849EA015960168100508000
B0210273321839S14754858EA015940168000608000
F021028020506121719242529
B0210283321838S14754868EA015920167800209000
B0210293321836S14754878EA015910167700309000
B0210303321835S14754888EA015900167600309000
B0210313321833S14754898EA015890167500309000
B0210323321831S14754908EA015890167400309000
B0210333321830S14754917EA015880167400309000
B0210343321828S14754926EA015880167300209000
B0210353321826S14754934EA015860167200309000
B0210363321824S14754943EA015820167000309000
B0210373321821S14754952EA015790166800409000
B0210383321819S14754962EA015760166500409000
B0210393321816S14754971EA015740166100409000
B0210403321814S14754981EA015710165800309000
B0210413321811S14754991EA015690165500309000
B0210423321809S14755000EA015660165200309000
B0210433321806S14755010EA015640165000209000
B0210443321804S14755019EA015620164700209000
B0210453321802S14755029EA015590164400309000
B0210463321800S14755038EA015570164100209000
B0210473321799S14755048EA015540163900209000
B0210483321797S14755058EA015520163600309000
B0210493321796S14755067EA015500163300309000
B0210503321795S14755076EA015460163000309000
B0210513321794S14755086EA015430162600309000
B0210523321794S14755095EA015390162300309000
B0210533321794S14755105EA015360162100209000
B0210543321795S14755115EA015340161800209000
B0210553321797S14755124EA015320161600209000
B0210563321799S14755133EA015300161300309000
B0210573321801S14755142EA015280161100309000
B0210583321804S14755151EA015270160900309000
B0210593321807S14755160EA015260160800409000
B0211003321810S14755168EA015260160700309000
B0211013321813S14755176EA015240160500509000
B0211023321815S14755185EA015220160200509000
B0211033321818S14755194EA015170159900509000
B0211043321820S14755204EA015120159600509000
B0211053321823S14755213EA015080159300509000
B0211063321826S14755222EA015050159000409000
B0211073321829S14755231EA015030158700509000
B0211083321832S14755239EA015000158400509000
B0211093321835S14755246EA014960157900509000
B0211103321840S14755254EA014910157500409000
B0211113321845S14755262EA014860156900409000
B0211123321850S14755271EA014810156400409000
B0211133321855S14755280EA014780156000409000
B0211143321860S14755288EA014750155600309000
B0211153321864S14755297EA014720155200509000
B0211163321868S14755306EA014700154900709000
B0211173321871S14755314EA014670154600609000
B0211183321875S14755324EA014640154200309000
B0211193321877S14755333EA014610153900309000
B0211203321879S14755343EA014590153600309000
B0211213321880S14755353EA014560153300309000
B0211223321881S14755363EA014520152900209000
B0211233321880S14755373EA014490152600209000
B0211243321879S14755383EA014460152300209000
B0211253321878S14755393EA014430152000309000
B0211263321876S14755402EA014410151700309000
B0211273321875S14755412EA014390151500409000
B0211283321874S14755421EA014360151200409000
B0211293321874S14755431EA014330150900409000
B0211303321873S14755441EA014300150600209000
B0211313321872S14755451EA014270150300209000
B0211323321871S14755461EA014240150000209000
B0211333321869S14755471EA014200149600309000
B0211343321868S14755480EA014170149300309000
B0211353321866S14755490EA014130148900309000
B0211363321864S14755500EA014090148500309000
B0211373321862S14755510EA014050148100309000
B0211383321861S14755521EA014020147800309000
B0211393321861S14755531EA013990147500309000
B0211403321860S14755542EA013960147200309000
B0211413321861S14755552EA013930146900209000
B0211423321861S14755562EA013910146700309000
B0211433321862S14755573EA013890146400309000
B0211443321864S14755582EA013870146100209000
B0211453321865S14755592EA013850145900309000
B0211463321867S14755601EA013820145600309000
B0211473321869S14755610EA013790145400309000
B0211483321871S14755619EA013750145000409000
B0211493321875S14755628EA013710144700309000
B0211503321878S14755637EA013680144400509000
B0211513321881S14755646EA013650144100309000
B0211523321885S14755654EA013630143800309000
B0211533321888S14755662EA013610143500209000
B0211543321892S14755670EA013580143200309000
B0211553321896S14755678EA013550142900409000
B0211563321899S14755686EA013530142600309000
B0211573321903S14755694EA013500142300309000
B0211583321906S14755701EA013480142100309000
B0211593321910S14755709EA013450141800409000
B0212003321913S14755717EA013420141500409000
B0212013321916S14755725EA013400141300409000
B0212023321918S14755733EA013390141000409000
B0212033321920S14755742EA013360140700309000
B0212043321921S14755750EA013350140500409000
B0212053321920S14755759EA013320140300309000
B0212063321919S14755767EA013300140000309000
B0212073321917S14755775EA013290139900309000
B0212083321914S14755782EA013270139700309000
B0212093321912S14755789EA013230139500409000
B0212103321908S14755796EA013190139200409000
B0212113321902S14755803EA013150138900509000
B0212123321897S14755810EA013120138600509000
B0212133321892S14755816EA013110138400509000
B0212143321887S14755822EA013090138300609000
B0212153321883S14755828EA013080138100509000
B0212163321878S14755834EA013060137800609000
B0212173321874S14755840EA013040137600609000
B0212183321869S14755847EA013010137300609000
B0212193321864S14755854EA012990137100509000
B0212203321859S14755860EA012980136900609000
B0212213321855S14755867EA012960136700609000
B0212223321852S14755874EA012940136500609000
B0212233321849S14755882EA012920136300609000
B0212243321847S14755890EA012900136000509000
B0212253321846S14755899EA012880135800309000
B0212263321846S14755908EA012850135500409000
B0212273321847S14755917EA012830135300309000
B0212283321849S14755926EA012820135100409000
B0212293321852S14755933EA012800134800609000
B0212303321857S14755940EA012780134600509000
B0212313321863S14755947EA012750134200409000
B0212323321870S14755952EA012710133900709000
B0212333321879S14755956EA012680133700709000
B0212343321887S14755958EA012670133500409000
B0212353321895S14755960EA012670133500609000
B0212363321902S14755961EA012670133400709000
B0212373321910S14755963EA012660133400309000
B0212383321917S14755965EA012640133300309000
B0212393321924S14755967EA012630133200509000
B0212403321932S14755969EA012610133100609000
B0212413321940S14755970EA012590133000509000
B0212423321948S14755972EA012570132800609000
B0212433321956S14755973EA012540132700309000
B0212443321964S14755974EA012520132400309000
B0212453321972S14755976EA012500132200509000
B0212463321981S14755979EA012490132000609000
B0212473321989S14755982EA012470131800509000
B0212483321998S14755986EA012450131600509000
B0212493322006S14755990EA012430131500509000
B0212503322014S14755993EA012420131200409000
B0212513322022S14755996EA012400131000309000
B0212523322030S14755998EA012370130800509000
B0212533322038S14756001EA012350130600609000
B0212543322046S14756003EA012320130400609000
B0212553322054S14756004EA012290130100409000
B0212563322062S14756006EA012280129800609000
B0212573322069S14756007EA012260129600509000
B0212583322077S14756008EA012230129300509000
B0212593322085S14756009EA012210129000509000
B0213003322093S14756011EA012180128700509000
B0213013322101S14756013EA012170128500609000
B0213023322109S14756014EA012160128300409000
B0213033322116S14756015EA012150128100309000
B0213043322124S14756016EA012130127900309000
B0213053322131S14756017EA012110127700309000
B0213063322139S14756018EA012070127500609000
B0213073322147S14756018EA012040127200609000
B0213083322155S14756018EA012000126800509000
B0213093322164S14756018EA011960126400309000
B0213103322172S14756017EA011930125900609000
B0213113322180S14756015EA011900125600609000
B0213123322189S14756012EA011870125300309000
B0213133322197S14756010EA011860125000509000
B0213143322205S14756008EA011840124600509000
B0213153322213S14756006EA011810124400409000
B0213163322221S14756004EA011770124000409000
B0213173322230S14756001EA011730123700509000
B0213183322239S14755997EA011690123300309000
B0213193322247S14755992EA011670123100309000
B0213203322255S14755987EA011660122900609000
B0213213322262S14755983EA011650122800609000
B0213223322269S14755980EA011650122700609000
B0213233322276S14755977EA011640122500509000
B0213243322284S14755974EA011630122400309000
B0213253322292S14755972EA011620122300509000
B0213263322299S14755971EA011630122400609000
B0213273322306S14755971EA011640122500609000
B0213283322313S14755972EA011640122600409000
B0213293322320S14755974EA011630122600609000
B0213303322326S14755977EA011610122500609000
B0213313322333S14755979EA011610122500509000
B0213323322340S14755982EA011610122500709000
B0213333322347S14755985EA011610122500709000
B0213343322353S14755988EA011610122500609000
B0213353322360S14755992EA011610122500609000
B0213363322366S14755996EA011620122500509000
B0213373322373S14756001EA011630122600309000
B0213383322379S14756007EA011650122700409000
B0213393322385S14756013EA011670122800609000
B0213403322391S14756021EA011700123000509000
B0213413322396S14756031EA011710123300309000
B0213423322400S14756042EA011740123500309000
B0213433322401S14756054EA011760123900309000
B0213443322401S14756067EA011790124200409000
B0213453322398S14756079EA011810124400309000
B0213463322393S14756090EA011840124700409000
B0213473322387S14756100EA011870125000409000
B0213483322379S14756107EA011900125300509000
B0213493322371S14756112EA011920125500509000
B0213503322362S14756113EA011940125700309000
B0213513322354S14756112EA011950125900309000
B0213523322347S14756108EA011960126100309000
B0213533322341S14756103EA011970126200309000
B0213543322337S14756097EA011980126300509000
B0213553322335S14756091EA011990126300509000
B0213563322335S14756085EA011990126300409000
B0213573322337S14756079EA011980126300409000
B0213583322340S14756074EA011980126300309000
B0213593322346S14756071EA011980126400609000
B0214003322352S14756069EA012000126600609000
B0214013322358S14756069EA012030126900709000
B0214023322364S14756072EA012060127200509000
B0214033322371S14756076EA012070127400409000
B0214043322377S14756083EA012080127600409000
B0214053322383S14756092EA012090127800309000
B0214063322388S14756102EA012110128100309000
B0214073322392S14756113EA012140128400309000
B0214083322395S14756125EA012170128600409000
B0214093322397S14756136EA012200128900309000
B0214103322397S14756149EA012220129100309000
B0214113322395S14756161EA012230129300509000
B0214123322391S14756174EA012250129500609000
B0214133322385S14756184EA012270129800509000
B0214143322377S14756193EA012300130000509000
B0214153322369S14756199EA012320130300609000
B0214163322360S14756203EA012340130400709000
B0214173322351S14756203EA012350130500409000
B0214183322343S14756200EA012370130700309000
B0214193322337S14756194EA012390130800309000
B0214203322334S14756188EA012400130900309000
B0214213322332S14756181EA012420131000309000
B0214223322332S14756175EA012440131100609000
B0214233322334S14756170EA012450131100609000
B0214243322339S14756166EA012450131100409000
B0214253322345S14756164EA012450131100609000
B0214263322352S14756164EA012470131300509000
B0214273322359S14756166EA012500131500609000
B0214283322365S14756170EA012530131800409000
B0214293322371S14756175EA012550132000509000
B0214303322377S14756182EA012570132200509000
B0214313322382S14756190EA012590132400309000
B0214323322387S14756198EA012610132600309000
B0214333322391S14756208EA012630132900309000
B0214343322395S14756219EA012650133100309000
B0214353322396S14756230EA012660133300309000
B0214363322397S14756243EA012660133400309000
B0214373322395S14756256EA012670133600409000
B0214383322391S14756269EA012680133800409000
B0214393322386S14756280EA012710134100409000
B0214403322379S14756289EA012740134300409000
B0214413322371S14756294EA012740134300609000
B0214423322362S14756296EA012730134200409000
B0214433322352S14756295EA012700134200409000
B0214443322343S14756291EA012700134300409000
B0214453322335S14756286EA012720134400409000
B0214463322330S14756280EA012750134600609000
B0214473322326S14756274EA012770134800709000
B0214483322324S14756267EA012790134900709000
B0214493322323S14756260EA012800135000509000
B0214503322325S14756253EA012820135200809000
B0214513322327S14756247EA012840135500809000
B0214523322330S14756242EA012870135700409000
B0214533322333S14756239EA012890135900409000
B0214543322337S14756236EA012910136100509000
B0214553322343S14756234EA012930136200709000
B0214563322349S14756234EA012950136400609000
