AFLY00Bn 0100731
HFDTE010118
HFFXA010
HFPLTPILOT:MICHAEL CASSELLS
HFCM2CREW2:NKN
HFGTYGLIDERTYPE:NKN             
HFGIDGLIDERID:NKN             
HFDTM100GPSDATUM:WGS84
HFRFWFIRMWAREVERSION: 2.00.00
HFRHWHARDWAREVERSION:1.00
HFFTYFRTYPE:Flytec Element Track
HFGPS:FASTRAX,IT430,48
HFPRSPRESSALTSENSOR:INTERSEMA,MS5401BM,12000
HFALGALTGPS:GEO
HFALPALTPRESSURE:ISA
HFTZNUTCOFFSET: 11.00h
I033638FXA3940SIU4143TAS
C010118012321010118006501
C3321372S14756016E TAKEOFF
C3321372S14756016E START  BMI023           00000000010000000000360000AREA
C3227913S14859358E TURN   WELLIN           00000000000400000000360000AREA
C3217910S14933438E FINISH GULGO            00000000000400000000360000AREA
C3217910S14933438E LANDING
F012326020612131517192428
B0123263321367S14756042EA002830023300309000
F012327020612131517192428
B0123273321367S14756042EA002830023300309000
F012339020612131517192428
B0123393321367S14756042EA002830023300409000
F012409020612131517192428
B0124093321367S14756042EA002840023300409000
F012439020612131517192428
B0124393321367S14756042EA002840023300509000
F012509020612131517192428
B0125093321367S14756042EA002830023300409000
F012539020612131517192428
B0125393321367S14756042EA002830023300409000
F012609020612131517192428
B0126093321367S14756042EA002830023300309000
F012639020612131517192428
B0126393321367S14756042EA002830023300509000
E012706STA
E012706ATS1007.2
LFLYA1 00233
B0127063321384S14756015EA002840023300309000
B0127113321411S14755981EA002940023600609000
B0127163321436S14755949EA003060024500609000
B0127213321463S14755918EA003140025400609000
B0127263321492S14755884EA003220026400709000
B0127313321521S14755847EA003320027300609000
B0127363321551S14755810EA003490028800609000
B0127413321578S14755774EA003650030700609000
B0127463321605S14755742EA003820032600709000
B0127513321633S14755715EA003920034300609000
B0127563321659S14755694EA004020035700509000
B0128013321690S14755678EA004060036300809000
B0128063321721S14755669EA004250037500509000
B0128113321753S14755661EA004400038900409000
B0128163321784S14755647EA004500040000509000
B0128213321814S14755632EA004490040700509000
B0128263321838S14755617EA004550041300409000
B0128313321861S14755595EA004580041900409000
B0128363321889S14755578EA004600042200509000
B0128413321919S14755560EA004690042700609000
B0128463321954S14755541EA004730043300509000
B0128513321987S14755516EA004790043800509000
B0128563322015S14755493EA004860044400509000
B0129013322042S14755473EA004900044900509000
B0129063322069S14755454EA004970045600409000
B0129113322096S14755432EA005010046200409000
B0129163322124S14755409EA005110047000409000
B0129213322152S14755380EA005250048000509000
B0129263322182S14755348EA005340049300409000
B0129313322205S14755311EA005470050600909000
B0129363322229S14755270EA005520051800809000
B0129413322247S14755223EA005610052900709000
B0129463322257S14755173EA005660053800409000
B0129513322258S14755122EA005720054700309000
B0129563322252S14755071EA005780055500409000
B0130013322241S14755018EA005820056200309000
B0130063322223S14754968EA005880057200309000
B0130113322198S14754921EA005970057600409000
B0130163322167S14754875EA006010058300709000
B0130213322135S14754833EA006120059000609000
B0130263322094S14754796EA006190060000409000
B0130313322043S14754768EA006250060500609000
B0130363321991S14754741EA006320061000609000
B0130413321939S14754715EA006360061400409000
B0130463321882S14754699EA006360061400609000
B0130513321824S14754699EA006410061500409000
B0130563321769S14754718EA006440061900409000
B0131013321717S14754749EA006480062400409000
B0131063321676S14754789EA006580063400509000
F0131110206121517192428
B0131113321641S14754841EA006620063900708000
B0131163321613S14754902EA006680064400408000
B0131213321586S14754966EA006730064900708000
B0131263321566S14755034EA006800065300408000
B0131313321555S14755108EA006870066000408000
B0131363321555S14755188EA007080067400408000
B0131413321563S14755266EA007290069800708000
B0131463321571S14755343EA007590073000708000
B0131513321585S14755407EA007790075700508000
B0131563321610S14755429EA007700076700708000
B0132013321622S14755392EA007560076100708000
B0132063321604S14755361EA007480074900608000
B0132113321576S14755330EA007380073100508000
B0132163321552S14755298EA007410072300808000
B0132213321530S14755269EA007480072200708000
B0132263321497S14755252EA007510072800608000
B0132313321480S14755214EA007540073400808000
B0132363321446S14755190EA007430072801208000
B0132413321416S14755241EA007250071800708000
B0132463321405S14755295EA007310071301008000
B0132513321400S14755354EA007350071600508000
B0132563321414S14755404EA007430072401208000
B0133013321441S14755383EA007490072901108000
B0133063321408S14755368EA007560073401208000
B0133113321388S14755419EA007610074001308000
B0133163321417S14755435EA007680074700808000
B0133213321412S14755397EA007670074700908000
B0133263321388S14755368EA007540074401008000
B0133313321352S14755364EA007410073101308000
B0133363321325S14755424EA007420072500708000
B0133413321307S14755488EA007490072500608000
B0133463321304S14755545EA007580073400908000
B0133513321333S14755545EA007630073901008000
B0133563321316S14755506EA007650074201408000
B0134013321277S14755506EA007750075001008000
B0134063321262S14755559EA007710075300808000
B0134113321274S14755617EA007770076000908000
B0134163321300S14755648EA007800076200808000
B0134213321321S14755627EA007780076300708000
B0134263321325S14755596EA007670075900808000
B0134313321289S14755585EA007560074901508000
B0134363321246S14755602EA007510073600608000
B0134413321206S14755626EA007490073100508000
B0134463321165S14755646EA007520072700508000
B0134513321122S14755669EA007490072800408000
B0134563321074S14755690EA007490072600508000
B0135013321034S14755732EA007570073000608000
B0135063321033S14755779EA007710073801208000
B0135113321045S14755763EA007830074601208000
B0135163321000S14755778EA007920076001608000
B0135213320994S14755833EA008070077500908000
B0135263321010S14755829EA008230079301008000
B0135313320972S14755822EA008340081600908000
B0135363320940S14755864EA008480083100808000
B0135413320940S14755919EA008610084500708000
B0135463320961S14755937EA008730085800508000
B0135513320978S14755918EA008800086500508000
B0135563320981S14755888EA008780086800608000
B0136013320956S14755857EA008830087000708000
B0136063320919S14755841EA008940087800908000
B0136113320886S14755873EA009060088601108000
B0136163320895S14755919EA009160089501108000
B0136213320914S14755916EA009300090401008000
B0136263320878S14755924EA009390092101708000
B0136313320883S14755977EA009500093301408000
F01363602061215171924
B0136363320911S14755973EA009570094100707000
F0136410206121517192428
B0136413320906S14755939EA009660095301008000
B0136463320887S14755911EA009650095801108000
B0136513320845S14755930EA009650095801008000
B0136563320825S14755990EA009720095900608000
B0137013320820S14756049EA009830096800508000
B0137063320824S14756102EA009900097600408000
B0137113320843S14756106EA009860097700608000
B0137163320829S14756076EA009870097500908000
B0137213320799S14756057EA009920097700808000
B0137263320764S14756063EA009990098100508000
B0137313320740S14756107EA010040098300608000
B0137363320751S14756159EA010090099001008000
B0137413320776S14756180EA010170100100308000
F01374602061217192428
B0137463320779S14756163EA010200100501307000
B0137513320742S14756161EA010220100800907000
B0137563320714S14756213EA010300101501207000
B0138013320722S14756262EA010400102701107000
B0138063320746S14756267EA010360102700607000
B0138113320762S14756250EA010360102700507000
B0138163320771S14756230EA010360102700407000
B0138213320757S14756213EA010350102701207000
B0138263320725S14756253EA010240102401607000
B0138313320702S14756308EA010260101801107000
F013836020612171924
B0138363320683S14756360EA010260101700906000
B0138413320669S14756413EA010220101300606000
B0138463320632S14756445EA010120101001506000
B0138513320592S14756443EA010130100800906000
B0138563320570S14756419EA010120100700906000
B0139013320564S14756390EA010040100501306000
B0139063320563S14756357EA009910099901206000
B0139113320580S14756334EA009880099401306000
B0139163320598S14756312EA009850099001106000
B0139213320617S14756291EA009900098900706000
B0139263320628S14756272EA009970098800906000
B0139313320640S14756249EA009900098701406000
B0139363320647S14756220EA009780098501206000
B0139413320658S14756196EA009660097801206000
B0139463320674S14756183EA009540097001006000
B0139513320698S14756169EA009360096201106000
B0139563320714S14756153EA009180095300706000
B0140013320734S14756128EA008980094000906000
B0140063320766S14756103EA008610092000906000
B0140113320802S14756081EA008370089501306000
B0140163320838S14756069EA008090086901206000
B0140213320882S14756049EA007730083801106000
B0140263320920S14756032EA007520080401306000
B0140313320956S14756012EA007350076901006000
B0140363320991S14755992EA007210073101406000
B0140413321029S14755963EA006960069501206000
B0140463321065S14755932EA006810066400806000
B0140513321097S14755901EA006660064100706000
B0140563321125S14755881EA006650063000706000
B0141013321150S14755860EA006660062900906000
B0141063321173S14755838EA006780063600906000
B0141113321197S14755822EA006830064201006000
B0141163321218S14755802EA006930064901106000
B0141213321235S14755781EA007010065401106000
B0141263321261S14755767EA007080065901106000
B0141313321282S14755743EA007190066501106000
B0141363321304S14755723EA007300067700906000
B0141413321296S14755698EA007390068401406000
B0141463321256S14755710EA007430069301706000
B0141513321224S14755756EA007560070501306000
B0141563321224S14755807EA007670071901206000
B0142013321242S14755846EA007770073300906000
B0142063321273S14755860EA007860074601106000
B0142113321303S14755863EA007990076101006000
B0142163321329S14755851EA008090077100906000
B0142213321323S14755820EA008230077901606000
B0142263321288S14755846EA008340079002106000
B0142313321306S14755895EA008510080202106000
B0142363321327S14755883EA008650081201706000
B0142413321298S14755879EA008780082102906000
B0142463321299S14755945EA008950083602206000
B0142513321329S14755939EA009060085101706000
B0142563321304S14755920EA009200086301806000
B0143013321266S14755947EA009370087702106000
B0143063321280S14755989EA009560090002206000
B0143113321295S14755973EA009670091702106000
B0143163321262S14755967EA009770093302206000
B0143213321254S14756027EA009940095202006000
B0143263321284S14756040EA010080097201706000
B0143313321258S14756027EA010140098402306000
B0143363321224S14756081EA010310100301806000
B0143413321234S14756111EA010490102202106000
B0143463321226S14756086EA010560103401706000
B0143513321181S14756078EA010710104901506000
B0143563321142S14756111EA010910106301906000
B0144013321153S14756147EA011020107502006000
B0144063321174S14756127EA011190109001306000
B0144113321186S14756105EA011370110701106000
B0144163321168S14756086EA011580112401606000
B0144213321142S14756127EA011770114601806000
B0144263321155S14756164EA011950116701706000
F0144310206121724
B0144313321167S14756142EA012100118402305000
F014436020612171924
B0144363321127S14756139EA012260120101906000
B0144413321107S14756187EA012470121502106000
B0144463321131S14756176EA012610123802306000
B0144513321096S14756149EA012840125701906000
B0144563321076S14756189EA013060128001906000
B0145013321106S14756203EA013220130501806000
B0145063321114S14756166EA013330132001506000
B0145113321074S14756145EA013480133501606000
B0145163321032S14756164EA013680136101306000
B0145213321028S14756207EA013840138101806000
B0145263321060S14756211EA014000139501906000
B0145313321080S14756184EA014140140901306000
B0145363321058S14756151EA014250142001506000
B0145413321020S14756178EA014390143201806000
B0145463321017S14756227EA014520144901306000
B0145513321040S14756237EA014670146701606000
B0145563321042S14756206EA014790147901306000
B0146013321000S14756188EA014840148901806000
B0146063320953S14756201EA014940150001506000
B0146113320922S14756242EA015080151201606000
B0146163320916S14756294EA015210152501206000
B0146213320933S14756318EA015390153901406000
B0146263320938S14756287EA015520154702106000
B0146313320897S14756283EA015700155901806000
B0146363320885S14756333EA015840157601606000
B0146413320908S14756337EA015980159501906000
B0146463320901S14756304EA016060160501606000
B0146513320858S14756288EA016150161701906000
B0146563320826S14756331EA016290163002206000
B0147013320842S14756368EA016430164501706000
B0147063320863S14756390EA016560166001206000
B0147113320878S14756393EA016620166901406000
B0147163320863S14756365EA016620167401706000
B0147213320810S14756362EA016630167901306000
B0147263320760S14756382EA016730168701006000
B0147313320729S14756424EA016820169501106000
B0147363320717S14756475EA016940170301206000
B0147413320726S14756499EA016990170601206000
B0147463320742S14756493EA016960170900806000
B0147513320754S14756472EA016960171001006000
B0147563320758S14756442EA016960171101306000
B0148013320764S14756413EA016950171301206000
B0148063320771S14756385EA016940171401006000
B0148113320775S14756354EA016890171400806000
B0148163320755S14756316EA016870171401006000
B0148213320709S14756305EA016830171101406000
B0148263320662S14756332EA016740170601206000
B0148313320620S14756364EA016610169501106000
B0148363320586S14756400EA016560168701206000
B0148413320561S14756448EA016520168401006000
B0148463320532S14756490EA016600168300906000
B0148513320511S14756536EA016620168400706000
B0148563320492S14756579EA016580168201106000
B0149013320494S14756617EA016510167701006000
B0149063320514S14756627EA016420167201106000
B0149113320536S14756612EA016340166901206000
B0149163320558S14756598EA016450167000706000
B0149213320578S14756575EA016530167201106000
B0149263320600S14756557EA016550167301206000
B0149313320631S14756549EA016530167300806000
B0149363320662S14756543EA016540167501506000
B0149413320670S14756511EA016580167501806000
B0149463320636S14756481EA016590167801106000
B0149513320595S14756474EA016590167701406000
B0149563320556S14756497EA016550167601406000
B0150013320539S14756540EA016530167301306000
B0150063320529S14756581EA016520167201306000
B0150113320530S14756624EA016500167001006000
B0150163320541S14756662EA016610167301306000
B0150213320548S14756637EA016630167501606000
B0150263320501S14756622EA016590167602006000
B0150313320449S14756634EA016600167701406000
B0150363320426S14756675EA016640167901406000
B0150413320433S14756704EA016660168001306000
B0150463320459S14756718EA016580168001206000
B0150513320480S14756711EA016690168001006000
B0150563320502S14756697EA016660168101206000
B0151013320524S14756682EA016580168101006000
B0151063320544S14756664EA016530168001106000
B0151113320560S14756643EA016460167801006000
B0151163320574S14756616EA016410167600906000
B0151213320588S14756587EA016330167100806000
B0151263320606S14756564EA016260166401006000
B0151313320630S14756543EA016170165800606000
B0151363320654S14756530EA016170165400906000
B0151413320678S14756520EA016170165001006000
B0151463320696S14756511EA016140164600906000
B0151513320714S14756498EA016050164101006000
B0151563320740S14756490EA015870163200906000
B0152013320770S14756484EA015770162201006000
B0152063320797S14756478EA015780161701206000
B0152113320823S14756475EA015810161301206000
B0152163320847S14756480EA015810161001206000
B0152213320877S14756485EA015770160501106000
B0152263320903S14756492EA015800160300906000
B0152313320928S14756487EA015870160501106000
B0152363320944S14756478EA016000160701006000
B0152413320956S14756465EA016100160901006000
B0152463320923S14756452EA016230161201606000
B0152513320887S14756500EA016350161901706000
B0152563320904S14756536EA016440163301906000
B0153013320918S14756523EA016570164401306000
B0153063320893S14756501EA016730165102006000
B0153113320848S14756533EA016830167101806000
B0153163320841S14756587EA016920168601806000
B0153213320863S14756605EA017040170501406000
B0153263320859S14756585EA017180171301206000
B0153313320816S14756580EA017340172802206000
B0153363320779S14756630EA017440174801806000
B0153413320786S14756683EA017540176601606000
B0153463320803S14756696EA017700178401406000
B0153513320796S14756675EA017830179701206000
B0153563320753S14756672EA017930181001506000
B0154013320714S14756718EA018040182201406000
B0154063320707S14756776EA018140183501206000
B0154113320721S14756812EA018260184701306000
B0154163320737S14756813EA018360185601006000
B0154213320733S14756792EA018490186400806000
F01542602061217192425
B0154263320697S14756784EA018610187901807000
B0154313320653S14756812EA018730188801207000
B0154363320657S14756869EA018790190001707000
B0154413320679S14756897EA018900190900607000
B0154463320703S14756904EA018900191100607000
B0154513320723S14756888EA018940191501307000
B0154563320703S14756859EA019070192001407000
B0155013320663S14756882EA019200192801007000
B0155063320668S14756931EA019330194301107000
B0155113320700S14756935EA019400195500807000
B0155163320727S14756922EA019500196600707000
B0155213320742S14756900EA019520197401107000
B0155263320741S14756863EA019510197801607000
B0155313320692S14756865EA019520198000907000
B0155363320645S14756894EA019460198000707000
B0155413320615S14756950EA019450197900707000
B0155463320613S14757008EA019580198401007000
B0155513320632S14757027EA019660199101407000
B0155563320633S14756995EA019680199401707000
B0156013320592S14756982EA019820200001107000
B0156063320565S14757028EA019820200501307000
B0156113320579S14757068EA019910201501107000
B0156163320600S14757050EA019950201901407000
B0156213320569S14757026EA019980202601607000
B0156263320525S14757042EA020050203000807000
B0156313320504S14757090EA020120203601307000
B0156363320519S14757128EA020200204500707000
B0156413320541S14757126EA020220205001107000
B0156463320548S14757098EA020190205200907000
B0156513320518S14757075EA020200205401807000
B0156563320470S14757095EA020230205401107000
B0157013320451S14757153EA020290206001507000
B0157063320473S14757187EA020320206201007000
B0157113320504S14757197EA020180205900707000
B0157163320536S14757198EA020080205300707000
B0157213320569S14757202EA020010204800707000
B0157263320600S14757203EA019920203900607000
B0157313320634S14757205EA019760202400607000
B0157363320664S14757212EA019670201300607000
B0157413320690S14757230EA019670200800507000
B0157463320712S14757252EA019650200500507000
B0157513320734S14757274EA019630200100707000
B0157563320753S14757304EA019630200000607000
B0158013320761S14757354EA019640199901007000
B0158063320762S14757410EA019680200101007000
B0158113320774S14757456EA019720200401007000
B0158163320795S14757474EA019760200800707000
B0158213320799S14757448EA019790201100907000
B0158263320774S14757414EA019800201201207000
B0158313320729S14757411EA019780201300807000
B0158363320691S14757455EA019820201500707000
B0158413320672S14757507EA019870202000607000
B0158463320668S14757560EA019790202000907000
B0158513320677S14757603EA019800202000607000
B0158563320696S14757601EA019740201800607000
B0159013320702S14757575EA019740201400607000
B0159063320684S14757543EA019730201201107000
B0159113320663S14757512EA019710201101107000
F015916020612171924
B0159163320623S14757502EA019750201001106000
F01592102061217192425
B0159213320582S14757537EA019790201001207000
F015926020612171924
B0159263320560S14757589EA019780200901806000
B0159313320551S14757648EA019750200801406000
B0159363320531S14757711EA019760200801206000
B0159413320533S14757764EA019830201001906000
F01594602061217192425
B0159463320559S14757765EA019750200901507000
B0159513320557S14757736EA019820201101107000
B0159563320526S14757717EA019840201301207000
B0200013320487S14757728EA019880201601107000
B0200063320466S14757787EA019870201801607000
B0200113320481S14757839EA019950202400707000
B0200163320512S14757844EA019970202801207000
B0200213320499S14757825EA020020203201807000
B0200263320456S14757857EA020030203401107000
B0200313320444S14757918EA020080203901807000
B0200363320470S14757942EA020070204301607000
B0200413320489S14757921EA020060204101207000
B0200463320474S14757900EA020090204401307000
B0200513320431S14757910EA020140204601007000
B0200563320399S14757957EA020200204901007000
B0201013320401S14758017EA020220205601507000
B0201063320431S14758041EA020180205800807000
B0201113320437S14758016EA020150205401407000
B0201163320411S14757991EA020140205300807000
B0201213320373S14757996EA020210205400907000
B0201263320357S14758048EA020260205701407000
B0201313320383S14758073EA020260205901607000
B0201363320402S14758053EA020260206101207000
B0201413320410S14758030EA020280206300807000
B0201463320398S14758005EA020260206401307000
B0201513320361S14757997EA020310206501207000
B0201563320318S14757999EA020250206400607000
B0202013320273S14758007EA020230206300607000
B0202063320219S14758037EA020270206400507000
B0202113320168S14758078EA020400207000507000
B0202163320141S14758137EA020500207801307000
B0202213320159S14758170EA020550208700807000
B0202263320169S14758155EA020610209101307000
B0202313320141S14758129EA020720209701507000
B0202363320090S14758139EA020840210601007000
B0202413320059S14758190EA020890211301007000
B0202463320060S14758252EA020890212201307000
B0202513320074S14758301EA020920212800707000
B0202563320091S14758297EA020960213001207000
B0203013320061S14758270EA021000213301307000
B0203063320006S14758289EA021080213801207000
B0203113319986S14758349EA021110214200907000
B0203163319999S14758396EA021150215000807000
B0203213320020S14758399EA021190215601307000
B0203263320021S14758379EA021250216001107000
B0203313319988S14758361EA021270216301307000
B0203363319937S14758388EA021330216700907000
B0203413319920S14758445EA021380217301707000
B0203463319944S14758478EA021390217900907000
B0203513319962S14758469EA021430218201307000
B0203563319952S14758441EA021390218301107000
B0204013319931S14758411EA021420218500607000
B0204063319894S14758398EA021530218800707000
B0204113319849S14758421EA021540219100707000
B0204163319830S14758478EA021530219401607000
B0204213319849S14758524EA021590219700807000
B0204263319872S14758526EA021620220001807000
B0204313319871S14758497EA021590220101007000
B0204363319833S14758475EA021620220201107000
B0204413319779S14758494EA021630220300807000
B0204463319732S14758534EA021620220300707000
B0204513319708S14758588EA021670220601807000
B0204563319731S14758625EA021680220800807000
B0205013319755S14758631EA021660220901307000
B0205063319764S14758613EA021640220801207000
B0205113319770S14758592EA021570220700807000
B0205163319789S14758574EA021580220601407000
B0205213319817S14758572EA021580220500707000
B0205263319834S14758553EA021620220501507000
B0205313319835S14758522EA021630220401107000
B0205363319839S14758488EA021620220400707000
B0205413319838S14758452EA021670220500907000
B0205463319840S14758413EA021740220900807000
B0205513319842S14758375EA021850221500607000
B0205563319814S14758349EA021990222601807000
B0206013319768S14758362EA022100223700907000
B0206063319752S14758401EA022170224901607000
B0206113319774S14758426EA022290226500907000
B0206163319794S14758411EA022430227901007000
B0206213319777S14758378EA022440229001007000
B0206263319732S14758360EA022520229800907000
B0206313319686S14758377EA022580230201107000
B0206363319680S14758415EA022640230702307000
B0206413319706S14758404EA022750231401407000
B0206463319718S14758367EA022760231801507000
B0206513319711S14758325EA022790232401107000
B0206563319700S14758284EA022850232800807000
B0207013319688S14758242EA022900233300707000
B0207063319648S14758218EA022940233701007000
B0207113319622S14758253EA022980234102307000
B0207163319641S14758254EA023030234601407000
B0207213319640S14758216EA023100235101307000
B0207263319608S14758184EA023120235500807000
B0207313319571S14758205EA023110235601007000
B0207363319568S14758247EA023130235901407000
B0207413319591S14758243EA023140235901407000
B0207463319587S14758199EA023130236001007000
B0207513319555S14758168EA023140236100907000
B0207563319527S14758193EA022960235601807000
B0208013319527S14758240EA022890235001507000
B0208063319545S14758259EA022860234401807000
B0208113319553S14758215EA022710233601407000
B0208163319527S14758169EA022630232900907000
B0208213319495S14758134EA022560232201107000
B0208263319451S14758135EA022420230700907000
B0208313319417S14758168EA022270229700807000
B0208363319393S14758216EA022130227700807000
B0208413319365S14758267EA021960226000707000
B0208463319339S14758313EA021840224200807000
B0208513319331S14758364EA021690222201107000
B0208563319326S14758414EA021650220900907000
B0209013319319S14758465EA021620220600607000
B0209063319293S14758519EA021690220300707000
B0209113319265S14758563EA021810220300607000
B0209163319263S14758596EA021930221601407000
B0209213319278S14758578EA022020222801407000
B0209263319248S14758548EA022110223801807000
B0209313319201S14758558EA022190224700907000
B0209363319174S14758593EA022290225601307000
B0209413319187S14758618EA022330226801107000
B0209463319205S14758595EA022360227401407000
B0209513319207S14758556EA022450228201307000
B0209563319171S14758536EA022470228801407000
B0210013319120S14758555EA022430228801307000
B0210063319074S14758584EA022420228901007000
B0210113319053S14758631EA022440228901307000
B0210163319044S14758674EA022460229101107000
B0210213319035S14758714EA022460229200907000
B0210263319010S14758754EA022390229200707000
B0210313318972S14758800EA022340228900707000
B0210363318948S14758849EA022330228301207000
F0210410206121719242529
B0210413318928S14758899EA022280227801108000
B0210463318899S14758949EA022210227300408000
B0210513318867S14759000EA022080226600508000
B0210563318833S14759053EA021960225300708000
F021101020506121719242529
B0211013318804S14759107EA021830223600409000
B0211063318773S14759164EA021640221100309000
B0211113318745S14759222EA021450219000309000
B0211163318717S14759277EA021320217300309000
B0211213318689S14759332EA021160215500309000
B0211263318660S14759390EA021000214000309000
B0211313318635S14759448EA020900212600609000
B0211363318612S14759506EA020810211700309000
B0211413318592S14759557EA020770211200409000
B0211463318571S14759603EA020590210000409000
B0211513318533S14759645EA020410208300409000
B0211563318488S14759679EA020280206600409000
B0212013318442S14759713EA020230205600609000
B0212063318398S14759758EA020240205300509000
B0212113318362S14759805EA020260205500409000
B0212163318325S14759853EA020320205900409000
B0212213318301S14759905EA020380206600409000
B0212263318306S14759951EA020430207500409000
B0212313318331S14759956EA020530208400809000
B0212363318330S14759912EA020580209300809000
B0212413318290S14759881EA020620209900709000
B0212463318239S14759887EA020650210300609000
B0212513318198S14759922EA020720210800509000
B0212563318187S14759973EA020760211400709000
B0213013318202S14800010EA020830211900509000
B0213063318229S14800015EA020910212700609000
B0213113318240S14759985EA020980213500709000
B0213163318218S14759950EA021050214200609000
B0213213318174S14759956EA021100214700709000
B0213263318147S14759998EA021140215200909000
B0213313318151S14800045EA021200215900509000
B0213363318171S14800070EA021340217001209000
B0213413318181S14800039EA021460218400809000
B0213463318147S14800018EA021560219700909000
B0213513318115S14800049EA021630220600709000
B0213563318124S14800091EA021710221400809000
B0214013318152S14800085EA021850222501209000
B0214063318139S14800049EA021980223901209000
B0214113318094S14800061EA022050224700909000
B0214163318085S14800112EA022140225601109000
B0214213318106S14800125EA022290226900909000
B0214263318115S14800094EA022410228501109000
B0214313318082S14800072EA022480229501209000
B0214363318036S14800091EA022540230200709000
B0214413318015S14800139EA022600230701009000
B0214463318017S14800186EA022670231301109000
B0214513318041S14800205EA022620231100509000
B0214563318061S14800183EA022640231000909000
B0215013318072S14800153EA022710231300509000
B0215063318069S14800121EA022750231800609000
B0215113318044S14800097EA022730232000509000
B0215163318003S14800118EA022660231600609000
B0215213317974S14800166EA022670231400409000
B0215263317960S14800216EA022710231600709000
B0215313317967S14800258EA022640231400309000
B0215363317989S14800271EA022600231100409000
B0215413318001S14800249EA022570230800709000
B0215463317997S14800217EA022620230700509000
B0215513317963S14800190EA022560230600409000
B0215563317923S14800179EA022560230400409000
B0216013317880S14800195EA022490229800509000
B0216063317857S14800239EA022470229400409000
B0216113317856S14800285EA022470229200509000
B0216163317875S14800318EA022410228700509000
B0216213317900S14800320EA022350228200809000
B0216263317917S14800299EA022370228200509000
B0216313317907S14800268EA022390228400609000
B0216363317866S14800269EA022390228600809000
B0216413317844S14800312EA022410228601209000
B0216463317865S14800334EA022390228500809000
B0216513317889S14800333EA022420228800709000
B0216563317914S14800326EA022450229100509000
B0217013317919S14800298EA022530229400709000
B0217063317885S14800277EA022550229800909000
B0217113317853S14800308EA022450229200809000
B0217163317863S14800357EA022440229000709000
B0217213317893S14800366EA022510229500709000
B0217263317901S14800338EA022560230000709000
B0217313317865S14800320EA022590230501009000
B0217363317836S14800359EA022620230800809000
B0217413317852S14800396EA022700231300809000
B0217463317873S14800379EA022740231800709000
B0217513317870S14800338EA022780232200609000
B0217563317833S14800313EA022750232200909000
B0218013317789S14800337EA022690231800609000
B0218063317776S14800387EA022660231300709000
B0218113317780S14800435EA022730231400809000
B0218163317798S14800457EA022750231800709000
B0218213317805S14800427EA022730231900909000
B0218263317772S14800406EA022780232101009000
B0218313317730S14800433EA022760232100709000
B0218363317717S14800476EA022830232500709000
B0218413317738S14800495EA022770232400809000
B0218463317764S14800475EA022720232100709000
B0218513317772S14800436EA022740232100709000
B0218563317740S14800405EA022690231900909000
B0219013317686S14800415EA022620231000609000
B0219063317639S14800451EA022520229900509000
B0219113317596S14800494EA022460229200609000
B0219163317565S14800549EA022500229100509000
B0219213317574S14800583EA022560229600909000
B0219263317584S14800566EA022620230001509000
B0219313317545S14800563EA022720230601209000
B0219363317540S14800613EA022770231801709000
B0219413317552S14800593EA022780232401109000
B0219463317506S14800582EA022860232901009000
B0219513317484S14800634EA022920233401409000
B0219563317510S14800619EA022950233801009000
B0220013317485S14800590EA023030234601009000
B0220063317433S14800613EA022990234800909000
B0220113317415S14800675EA023040235101009000
B0220163317443S14800694EA022990234801309000
B0220213317456S14800668EA023080235200709000
B0220263317425S14800648EA023140235801209000
B0220313317385S14800696EA023170235900809000
B0220363317389S14800737EA023240236701109000
B0220413317395S14800710EA023290237601009000
B0220463317349S14800721EA023360238301109000
B0220513317336S14800779EA023420238801009000
B0220563317363S14800784EA023430239201009000
B0221013317364S14800753EA023470239500909000
B0221063317332S14800732EA023520240001009000
B0221113317293S14800761EA023530240200709000
B0221163317294S14800811EA023580240600709000
B0221213317316S14800816EA023610241000809000
B0221263317318S14800785EA023590240900609000
B0221313317295S14800751EA023560240800509000
B0221363317255S14800754EA023450240200809000
B0221413317226S14800805EA023440239700509000
B0221463317227S14800860EA023480239700909000
B0221513317243S14800858EA023530240001609000
B0221563317211S14800839EA023490240001109000
B0222013317173S14800878EA023450239700909000
B0222063317172S14800938EA023470239600609000
B0222113317193S14800963EA023470239600709000
B0222163317209S14800955EA023480239800609000
B0222213317206S14800925EA023410239500509000
B0222263317183S14800894EA023360239000709000
B0222313317149S14800872EA023310238500609000
B0222363317120S14800843EA023250238000609000
B0222413317094S14800804EA023280237800509000
B0222463317065S14800771EA023230237500609000
B0222513317048S14800733EA023140236800909000
B0222563317068S14800709EA023030235800609000
B0223013317102S14800712EA022890234300509000
B0223063317133S14800714EA022760232700509000
B0223113317164S14800704EA022610231200509000
B0223163317188S14800680EA022570230100509000
B0223213317206S14800651EA022500229300409000
B0223263317228S14800626EA022360228400409000
B0223313317255S14800610EA022250227400409000
B0223363317283S14800618EA022150226300409000
B0223413317311S14800639EA022010224700409000
B0223463317333S14800670EA021930223700509000
B0223513317355S14800695EA021880223000409000
B0223563317380S14800709EA021790222400409000
B0224013317407S14800728EA021720221800409000
B0224063317429S14800756EA021700221200609000
B0224113317445S14800781EA021660220800509000
B0224163317461S14800783EA021600220300809000
B0224213317478S14800770EA021570220000409000
B0224263317494S14800767EA021480219700509000
B0224313317516S14800772EA021410219100509000
B0224363317531S14800773EA021290218200609000
B0224413317547S14800761EA021220217300409000
B0224463317561S14800750EA021160216400509000
B0224513317579S14800742EA021080215300709000
B0224563317601S14800733EA020980214200409000
B0225013317626S14800725EA020870212900609000
B0225063317650S14800714EA020740211600409000
B0225113317676S14800711EA020550209800309000
B0225163317703S14800717EA020400208100409000
B0225213317730S14800724EA020280206800409000
B0225263317750S14800728EA020140205200709000
B0225313317774S14800730EA020020203600809000
B0225363317800S14800739EA019860202100509000
B0225413317825S14800748EA019840201300709000
B0225463317845S14800747EA019790200700509000
F0225510206121719242529
B0225513317867S14800748EA019740200400408000
F022556020506121719242529
B0225563317895S14800761EA019640199900409000
B0226013317927S14800783EA019670199800409000
B0226063317956S14800799EA019750200300409000
B0226113317986S14800815EA019780200700509000
B0226163318015S14800833EA019740200800309000
B0226213318040S14800857EA019740200800309000
B0226263318069S14800881EA019710200600309000
B0226313318096S14800908EA019700200400409000
B0226363318125S14800928EA019690200200409000
B0226413318153S14800939EA019690200200509000
B0226463318184S14800941EA019650199900609000
B0226513318194S14800909EA019590199500709000
B0226563318175S14800870EA019530199000509000
B0227013318137S14800842EA019590198900509000
B0227063318093S14800839EA019630199200609000
B0227113318072S14800883EA019630199400809000
B0227163318091S14800916EA019640199600809000
B0227213318117S14800909EA019710200400809000
B0227263318113S14800872EA019740200600709000
F0227310205061217192429
B0227313318072S14800856EA019810201301008000
F022736020506121719242529
B0227363318044S14800890EA019840201500709000
B0227413318057S14800917EA019810201501109000
B0227463318068S14800883EA019860201800609000
B0227513318057S14800844EA019900202300609000
B0227563318015S14800829EA019940202600709000
B0228013317974S14800856EA019900202400409000
B0228063317951S14800899EA019930202600709000
B0228113317949S14800947EA019940202800709000
B0228163317961S14800989EA019950203000609000
B0228213317984S14801023EA019970203100409000
B0228263318015S14801027EA020000203400709000
B0228313318027S14800996EA019990203500709000
B0228363318003S14800961EA020020203600609000
B0228413317956S14800957EA020050203700709000
B0228463317916S14800984EA020090204100409000
B0228513317907S14801031EA020130204500609000
B0228563317931S14801055EA020140204700709000
B0229013317953S14801039EA020160204900709000
B0229063317934S14801006EA020180205200809000
B0229113317888S14801007EA020200205300809000
B0229163317874S14801050EA020240205500809000
B0229213317896S14801077EA020220205700909000
B0229263317927S14801084EA020260205900709000
B0229313317957S14801090EA020270206100609000
B0229363317986S14801104EA020280206300609000
B0229413318012S14801124EA020370207000409000
B0229463318036S14801151EA020440207800409000
B0229513318059S14801176EA020540208700609000
B0229563318080S14801168EA020700209900809000
B0230013318045S14801162EA020910211701009000
B0230063318040S14801203EA021060213901409000
B0230113318060S14801193EA021250216301209000
B0230163318020S14801191EA021470218501109000
B0230213318020S14801248EA021600220201209000
B0230263318047S14801237EA021830222501509000
B0230313318011S14801230EA022070224901109000
B0230363318005S14801275EA022250226901109000
F0230410205061217242529
B0230413318029S14801271EA022480229201008000
F023046020506121719242529
B0230463318004S14801240EA022750232101109000
B0230513317969S14801275EA022950234601409000
B0230563317992S14801301EA023120236301309000
B0231013317995S14801274EA023390238601409000
B0231063317953S14801274EA023640241100909000
B0231113317952S14801322EA023810243301009000
B0231163317977S14801325EA024010245501109000
B0231213317978S14801289EA024210247600909000
B0231263317929S14801275EA024320248901009000
B0231313317891S14801312EA024450250100909000
B0231363317899S14801362EA024610251401209000
B0231413317916S14801361EA024810253201109000
B0231463317877S14801333EA024870254200909000
B0231513317823S14801354EA024970255300709000
B0231563317787S14801398EA025090256400809000
B0232013317786S14801454EA025230257600709000
B0232063317806S14801484EA025420259600909000
B0232113317808S14801465EA025630261701109000
B0232163317763S14801474EA025800263400909000
B0232213317756S14801537EA025970265401309000
B0232263317774S14801565EA026090266800809000
B0232313317783S14801547EA026250268500709000
B0232363317749S14801530EA026430270500909000
B0232413317703S14801562EA026550271800909000
B0232463317702S14801615EA026680273101009000
B0232513317720S14801613EA026810274301309000
B0232563317706S14801582EA026940275900709000
B0233013317660S14801570EA027090277300909000
B0233063317614S14801607EA027190278400709000
B0233113317604S14801664EA027240278900909000
B0233163317623S14801691EA027270279100809000
B0233213317644S14801684EA027350279500609000
B0233263317646S14801657EA027440280000609000
B0233313317612S14801634EA027520280900609000
B0233363317559S14801640EA027610282000509000
B0233413317517S14801682EA027610282400709000
B0233463317508S14801747EA027590282400709000
B0233513317520S14801789EA027670282900809000
B0233563317545S14801816EA027720283500809000
B0234013317566S14801815EA027820284300709000
B0234063317563S14801788EA027860284800609000
B0234113317531S14801759EA027910285400509000
B0234163317482S14801749EA027930285800609000
B0234213317432S14801772EA027900285800609000
B0234263317389S14801826EA027860285400509000
B0234313317374S14801890EA027850285100509000
B0234363317382S14801939EA027770284600909000
B0234413317406S14801948EA027680283500709000
B0234463317419S14801930EA027730283500609000
B0234513317417S14801904EA027760283900409000
B0234563317395S14801878EA027760284000409000
B0235013317351S14801867EA027720283700809000
B0235063317303S14801896EA027630282900609000
B0235113317271S14801954EA027560282300709000
B0235163317263S14802013EA027530281800709000
B0235213317274S14802046EA027500281600809000
B0235263317294S14802042EA027470281200709000
B0235313317297S14802018EA027440280900409000
B0235363317297S14801990EA027370280500309000
B0235413317301S14801960EA027310279900409000
B0235463317299S14801931EA027250279300409000
B0235513317294S14801900EA027190278700309000
B0235563317289S14801870EA027110278100409000
B0236013317287S14801840EA027060277500409000
B0236063317280S14801808EA026950276600409000
B0236113317278S14801774EA026930276100409000
B0236163317282S14801744EA026960276000309000
B0236213317283S14801714EA027010276100309000
B0236263317283S14801685EA027030276300309000
B0236313317292S14801661EA027020276400409000
B0236363317309S14801643EA027010276500309000
B0236413317327S14801630EA027000276400609000
B0236463317341S14801610EA027070276500709000
B0236513317361S14801595EA027050276600509000
B0236563317380S14801582EA027100276800409000
B0237013317397S14801571EA027110277000409000
B0237063317417S14801558EA027030276900509000
B0237113317440S14801549EA026990276600509000
B0237163317464S14801537EA026990276500509000
B0237213317490S14801523EA026970276300509000
B0237263317517S14801513EA026890275900409000
B0237313317544S14801509EA026860275400409000
B0237363317577S14801517EA026760274600509000
B0237413317612S14801510EA026680273500509000
B0237463317640S14801496EA026650272900609000
B0237513317674S14801495EA026630272600409000
B0237563317709S14801498EA026610272100509000
B0238013317745S14801511EA026550271600509000
B0238063317776S14801535EA026530271300409000
B0238113317808S14801559EA026520271100409000
B0238163317841S14801575EA026490270700409000
B0238213317873S14801589EA026460270500409000
B0238263317901S14801587EA026370269900409000
B0238313317913S14801569EA026320269200609000
B0238363317917S14801548EA026250268500309000
B0238413317918S14801522EA026150267500309000
B0238463317918S14801494EA026080266700309000
B0238513317926S14801468EA026030266100309000
B0238563317936S14801441EA025990265700409000
B0239013317944S14801411EA025930265100309000
B0239063317961S14801389EA025870264600309000
B0239113317988S14801405EA025790264001109000
B0239163317986S14801461EA025690263301109000
B0239213317969S14801515EA025680263000509000
B0239263317944S14801564EA025660262500409000
B0239313317914S14801612EA025630262100409000
B0239363317880S14801661EA025560261500409000
B0239413317844S14801702EA025530261100409000
B0239463317807S14801745EA025470260500409000
B0239513317772S14801789EA025390259700309000
B0239563317735S14801816EA025330259200609000
B0240013317691S14801824EA025220258100809000
B0240063317651S14801838EA025160257200709000
B0240113317613S14801853EA025130256600609000
B0240163317578S14801875EA025050256100609000
B0240213317545S14801899EA024950255300709000
B0240263317513S14801932EA024800254300609000
B0240313317470S14801944EA024570251900709000
B0240363317419S14801931EA024410249400709000
B0240413317373S14801923EA024310247800609000
B0240463317329S14801917EA024140246000609000
B0240513317287S14801916EA023990244400509000
B0240563317242S14801914EA023880243300709000
F0241010205061217192429
B0241013317196S14801916EA023830242700608000
F024106020506121719242529
B0241063317152S14801918EA023830242800609000
B0241113317109S14801917EA023850243100509000
B0241163317066S14801921EA023890243700509000
B0241213317027S14801942EA023950244100409000
B0241263317021S14801984EA023970244300809000
B0241313317045S14802003EA023980244600809000
B0241363317060S14801974EA023920244500709000
B0241413317056S14801934EA023950244500509000
B0241463317047S14801895EA023980244700409000
B0241513317022S14801866EA023990244800809000
B0241563316980S14801884EA023960244600709000
B0242013316942S14801918EA023930244300509000
B0242063316906S14801960EA023950244400509000
B0242113316887S14802004EA024020244700609000
B0242163316906S14802020EA024080245201109000
B0242213316905S14801983EA024100245601109000
B0242263316857S14801977EA024140245900909000
B0242313316824S14802014EA024150246200709000
B0242363316834S14802048EA024180246501009000
B0242413316857S14802033EA024250246801109000
B0242463316832S14801996EA024320247601009000
B0242513316792S14802006EA024310248100809000
B0242563316779S14802051EA024340248101009000
B0243013316794S14802079EA024370248300609000
B0243063316819S14802073EA024380248600709000
B0243113316820S14802035EA024430248900809000
B0243163316785S14802007EA024460249500709000
B0243213316738S14802008EA024500250100609000
F0243260205061217192425
B0243263316702S14802041EA024500250400508000
F024331020506121719242529
B0243313316678S14802078EA024530250500409000
B0243363316674S14802120EA024520250500709000
B0243413316696S14802131EA024590250900709000
B0243463316694S14802099EA024630251200709000
B0243513316651S14802092EA024610251300909000
B0243563316614S14802121EA024610251200709000
B0244013316575S14802156EA024630251300709000
B0244063316577S14802194EA024700251601409000
B0244113316598S14802176EA024700251900909000
B0244163316570S14802141EA024720252200909000
B0244213316530S14802161EA024750252401109000
B0244263316533S14802204EA024770252700809000
B0244313316557S14802211EA024780253000609000
B0244363316561S14802178EA024760252800709000
B0244413316524S14802146EA024700252400709000
B0244463316477S14802138EA024680252100609000
B0244513316434S14802158EA024690251900409000
B0244563316402S14802200EA024680251900509000
B0245013316390S14802251EA024580251200709000
B0245063316365S14802299EA024400249800709000
B0245113316343S14802351EA024230248100809000
B0245163316328S14802400EA024100246200509000
B0245213316308S14802454EA023940244600309000
B0245263316276S14802505EA023830243300409000
B0245313316242S14802551EA023700242100509000
B0245363316203S14802602EA023560240800609000
B0245413316167S14802652EA023460239500609000
B0245463316135S14802701EA023410238600609000
B0245513316095S14802745EA023350237800409000
B0245563316047S14802782EA023280237200409000
B0246013315999S14802812EA023300236900609000
B0246063315949S14802839EA023260236600609000
B0246113315897S14802866EA023280236700509000
B0246163315850S14802899EA023390237600709000
B0246213315829S14802950EA023490238901009000
B0246263315844S14802979EA023570240201109000
B0246313315850S14802949EA023630240800909000
B0246363315807S14802934EA023750242001009000
B0246413315776S14802976EA023790242401109000
B0246463315789S14803015EA023790242500909000
B0246513315805S14802993EA023890242900709000
B0246563315774S14802968EA023970243801109000
B0247013315728S14802987EA024060244900609000
B0247063315713S14803036EA024120245700809000
B0247113315728S14803055EA024150246201009000
B0247163315729S14803017EA024200246500709000
B0247213315701S14802980EA024260247100809000
B0247263315655S14802968EA024390248400709000
B0247313315631S14803005EA024400248701009000
B0247363315644S14803043EA024460249300809000
B0247413315669S14803040EA024540250000609000
F0247460205061219242529
B0247463315672S14803009EA024580250500908000
B0247513315633S14802983EA024600251000908000
B0247563315587S14802991EA024670251700608000
B0248013315550S14803026EA024720252300508000
B0248063315524S14803070EA024760252700608000
B0248113315514S14803120EA024750252800608000
B0248163315520S14803167EA024800253200708000
F02482102061219242529
B0248213315536S14803200EA024820253401107000
F0248260205061219242529
B0248263315556S14803189EA024910253901308000
B0248313315533S14803161EA025010254600908000
B0248363315490S14803179EA025080255301308000
B0248413315485S14803238EA025140256200708000
B0248463315498S14803280EA025190257000808000
B0248513315519S14803271EA025230257301508000
B0248563315490S14803242EA025280257701308000
B0249013315438S14803258EA025410258400908000
B0249063315389S14803302EA025370258500708000
B0249113315351S14803353EA025320258300808000
B0249163315325S14803414EA025320258300708000
B0249213315309S14803476EA025300258300608000
B0249263315295S14803542EA025270258000508000
B0249313315284S14803603EA025330258400608000
B0249363315269S14803663EA025420259100608000
B0249413315249S14803723EA025470259700508000
B0249463315258S14803769EA025580260601208000
B0249513315262S14803748EA025730261601408000
B0249563315217S14803765EA025780262601508000
B0250013315215S14803831EA025860263600808000
B0250063315231S14803870EA025910264401008000
B0250113315240S14803849EA025910264401608000
B0250163315225S14803815EA026100265600908000
B0250213315184S14803820EA026200267001108000
B0250263315181S14803874EA026310268301408000
B0250313315205S14803882EA026470269601508000
B0250363315172S14803867EA026580270901108000
B0250413315161S14803921EA026670271801608000
F02504602050612242529
B0250463315182S14803912EA026780273101407000
F0250510205061219242529
B0250513315154S14803881EA026840274200808000
B0250563315108S14803879EA026950275000808000
B0251013315074S14803921EA027030276001208000
B0251063315089S14803958EA027090276601208000
B0251113315097S14803938EA027180277101308000
B0251163315051S14803926EA027270277800808000
B0251213315005S14803951EA027350278701208000
B0251263315004S14804002EA027320279201608000
B0251313315035S14804024EA027360279400908000
B0251363315045S14804008EA027410279701308000
B0251413315006S14803992EA027450280000808000
B0251463314951S14804003EA027420280100908000
B0251513314919S14804058EA027440280200908000
B0251563314902S14804119EA027440280200808000
B0252013314881S14804180EA027430280300508000
B0252063314845S14804239EA027400280200508000
B0252113314813S14804291EA027350279700608000
B0252163314773S14804348EA027170278400608000
B0252213314732S14804401EA027070277200608000
B0252263314692S14804457EA026940276000608000
B0252313314656S14804514EA026890275100508000
B0252363314622S14804570EA026830274300708000
B0252413314585S14804623EA026730273200408000
B0252463314546S14804676EA026640272300408000
B0252513314511S14804729EA026580271400508000
B0252563314473S14804781EA026460270400608000
B0253013314431S14804834EA026330269200508000
B0253063314395S14804888EA026270268300508000
B0253113314357S14804943EA026160267200608000
B0253163314322S14804997EA026110266700608000
B0253213314289S14805045EA026070266000508000
B0253263314256S14805092EA026080265700408000
B0253313314223S14805138EA026110265800508000
B0253363314188S14805186EA026130266100608000
B0253413314154S14805237EA026100266400908000
B0253463314119S14805288EA025960265900708000
B0253513314081S14805333EA025850264801008000
B0253563314040S14805368EA025760263800808000
B0254013313997S14805393EA025620262300708000
B0254063313956S14805412EA025620261500708000
B0254113313913S14805436EA025570260900608000
B0254163313872S14805471EA025510260300608000
B0254213313834S14805513EA025480259900508000
B0254263313794S14805555EA025430259500608000
B0254313313746S14805596EA025310258500708000
B0254363313703S14805637EA025230257600708000
B0254413313658S14805684EA025080256700508000
F02544602050612192429
B0254463313615S14805726EA025040256100607000
F0254510205061219242529
B0254513313573S14805768EA025020255900508000
B0254563313535S14805806EA025070256000708000
B0255013313498S14805844EA025050255800508000
F02550602050612192429
B0255063313461S14805880EA025040255900607000
F0255110205061219242529
B0255113313417S14805913EA024970255400708000
B0255163313371S14805942EA024900254700808000
B0255213313323S14805976EA024810253700508000
B0255263313274S14806011EA024690252600508000
B0255313313226S14806039EA024630251700408000
B0255363313177S14806063EA024700251200508000
B0255413313127S14806087EA024700251100608000
B0255463313077S14806120EA024640251000608000
B0255513313029S14806156EA024610250800608000
B0255563312982S14806197EA024580250600708000
B0256013312934S14806235EA024570250300708000
B0256063312886S14806274EA024490249900708000
B0256113312838S14806312EA024450249500408000
B0256163312793S14806353EA024400249100508000
B0256213312746S14806396EA024280248300508000
B0256263312695S14806430EA024170247200608000
B0256313312642S14806460EA024040245600508000
B0256363312590S14806494EA023870243800508000
B0256413312533S14806527EA023800242200608000
B0256463312477S14806560EA023700241100608000
B0256513312424S14806596EA023600240000608000
B0256563312371S14806633EA023480238800608000
B0257013312313S14806672EA023300237200708000
B0257063312255S14806710EA023150235800608000
B0257113312199S14806754EA022930233800608000
B0257163312143S14806796EA022700231400608000
B0257213312096S14806837EA022580229400708000
B0257263312040S14806881EA022200227000808000
B0257313311986S14806929EA022030224700708000
B0257363311941S14806975EA021990223400608000
B0257413311891S14807014EA022000223000608000
B0257463311842S14807048EA021940222500708000
B0257513311792S14807080EA021880222200708000
B0257563311749S14807110EA021900222200708000
B0258013311708S14807143EA021870222000708000
B0258063311659S14807172EA021720221400708000
B0258113311614S14807193EA021620220400608000
B0258163311565S14807223EA021550219700608000
B0258213311515S14807259EA021500219000508000
B0258263311468S14807290EA021670219000708000
B0258313311421S14807294EA021960221001208000
B0258363311434S14807264EA022150223201608000
B0258413311463S14807296EA022390226701308000
B0258463311434S14807325EA022550229201608000
B0258513311398S14807288EA022810232001508000
B0258563311420S14807268EA022960234402008000
B0259013311424S14807327EA023110235800908000
B0259063311392S14807370EA023290237001008000
B0259113311359S14807358EA023530239301708000
B0259163311383S14807326EA023600240801208000
B0259213311417S14807349EA023800242401308000
B0259263311397S14807392EA023790243101308000
B0259313311342S14807396EA023960243901408000
B0259363311334S14807365EA024180245401808000
B0259413311349S14807397EA024290247001108000
B0259463311316S14807436EA024470249001008000
B0259513311276S14807450EA024590250601208000
B0259563311262S14807415EA024730252201208000
B0300013311295S14807407EA024780252901508000
B0300063311311S14807453EA024840253601108000
B0300113311309S14807501EA025010254700908000
B0300163311283S14807552EA025100255700808000
B0300213311228S14807552EA025300257501308000
B0300263311227S14807526EA025530259201608000
B0300313311247S14807567EA025670261501708000
B0300363311196S14807595EA025860263401408000
B0300413311169S14807560EA026030265401608000
B0300463311202S14807564EA026180267301608000
B0300513311195S14807622EA026270268601708000
B0300563311151S14807647EA026390269601208000
B0301013311110S14807627EA026480270600808000
B0301063311090S14807594EA026620271900908000
B0301113311109S14807584EA026740273301108000
B0301163311130S14807627EA026890274601108000
B0301213311106S14807684EA027100276401208000
B0301263311058S14807682EA027240278301408000
B0301313311059S14807645EA027320279201408000
B0301363311086S14807645EA027510280901008000
B0301413311093S14807690EA027670282401108000
B0301463311056S14807730EA027790283901408000
B0301513311013S14807715EA027910285201008000
B0301563311000S14807680EA027950285600908000
B0302013311015S14807653EA027890285201308000
B0302063311037S14807699EA027870285201508000
B0302113311034S14807762EA027970285600808000
B0302163311024S14807816EA028130286700908000
B0302213310981S14807836EA028220287901208000
B0302263310961S14807806EA028240288701308000
B0302313310993S14807800EA028290289101408000
B0302363311017S14807840EA028330289601008000
B0302413311013S14807898EA028450290400808000
B0302463310982S14807942EA028560291400908000
B0302513310936S14807950EA028570292000808000
B0302563310914S14807926EA028610292301408000
B0303013310945S14807936EA028600292501608000
B0303063310936S14808004EA028580292501408000
B0303113310893S14808043EA028620292401108000
B0303163310848S14808085EA028650292700908000
B0303213310801S14808131EA028660293100808000
B0303263310757S14808174EA028710293500708000
B0303313310709S14808220EA028660293700608000
B0303363310668S14808275EA028630293400608000
B0303413310629S14808338EA028510292500708000
B0303463310593S14808401EA028410291400608000
B0303513310554S14808467EA028320290300608000
B0303563310519S14808529EA028290289300808000
B0304013310486S14808594EA028230288500708000
B0304063310452S14808659EA028200288200508000
B0304113310419S14808724EA028150287700508000
B0304163310384S14808785EA028060286700808000
B0304213310348S14808843EA027980285800508000
B0304263310308S14808902EA027870284900608000
B0304313310271S14808954EA027840284400608000
B0304363310225S14808999EA027750283700508000
B0304413310175S14809045EA027650282800708000
B0304463310129S14809092EA027600281900508000
B0304513310083S14809137EA027550281100608000
B0304563310032S14809183EA027430280200508000
B0305013309978S14809232EA027370279300408000
B0305063309926S14809282EA027300278400608000
B0305113309875S14809336EA027210277500808000
B0305163309822S14809397EA027030276000708000
B0305213309772S14809453EA026880274300608000
B0305263309720S14809508EA026790272900708000
B0305313309669S14809561EA026730272100708000
B0305363309613S14809613EA026640271400708000
B0305413309554S14809663EA026570270900608000
B0305463309497S14809714EA026520270200908000
B0305513309443S14809764EA026440269500808000
B0305563309389S14809811EA026370269000708000
B0306013309334S14809862EA026320268500508000
B0306063309276S14809914EA026250267900608000
B0306113309217S14809959EA026180267300808000
B0306163309160S14810001EA026150266800508000
B0306213309098S14810038EA026050266000608000
B0306263309036S14810075EA025970265200408000
B0306313308972S14810116EA025780263700808000
B0306363308909S14810156EA025660262300808000
B0306413308852S14810196EA025560260800508000
B0306463308797S14810237EA025450259600508000
B0306513308744S14810283EA025390258800508000
B0306563308693S14810330EA025380258600508000
B0307013308641S14810377EA025420258700508000
B0307063308588S14810427EA025510259200708000
B0307113308543S14810487EA025590259800708000
B0307163308492S14810540EA025560260100708000
B0307213308441S14810591EA025530259900808000
B0307263308396S14810650EA025430259300808000
B0307313308350S14810711EA025370258900808000
B0307363308310S14810765EA025270258300808000
B0307413308268S14810817EA025270257800708000
B0307463308223S14810863EA025180257300708000
B0307513308181S14810908EA025260257200608000
B0307563308137S14810956EA025300257400708000
B0308013308094S14811008EA025310257700908000
B0308063308056S14811068EA025380258300908000
B0308113308025S14811119EA025470259200608000
B0308163307994S14811174EA025540260100708000
F03082102050612192425
B0308213307960S14811229EA025610260800807000
F0308260205061219242529
B0308263307927S14811286EA025590261000908000
B0308313307898S14811349EA025560261000708000
B0308363307869S14811410EA025540260800808000
B0308413307838S14811473EA025490260200808000
B0308463307799S14811531EA025450259800708000
B0308513307748S14811571EA025330259100808000
B0308563307697S14811601EA025300258200608000
B0309013307642S14811632EA025190257000608000
B0309063307589S14811669EA025080256100408000
B0309113307536S14811712EA024980255300608000
B0309163307485S14811761EA024830253900708000
B0309213307440S14811815EA024680252300608000
B0309263307395S14811875EA024500250500608000
B0309313307354S14811939EA024370248800708000
B0309363307316S14812004EA024280247400508000
B0309413307282S14812068EA024220246700808000
B0309463307246S14812129EA024180246200708000
B0309513307209S14812191EA024100245700708000
B0309563307167S14812253EA024020244900608000
B0310013307128S14812313EA023890244100608000
B0310063307080S14812370EA023750242900608000
B0310113307032S14812421EA023650241500608000
B0310163306986S14812474EA023540240100608000
B0310213306940S14812525EA023390238700608000
B0310263306893S14812580EA023270237200608000
B0310313306846S14812637EA023120235700508000
B0310363306804S14812698EA023030234500608000
F03104102050612192425
B0310413306767S14812759EA022970233600707000
F0310460205061219242529
B0310463306731S14812819EA022840232600608000
B0310513306687S14812875EA022640230900808000
B0310563306638S14812925EA022490229300708000
B0311013306589S14812978EA022320227200608000
B0311063306539S14813033EA022130225300608000
B0311113306490S14813085EA021920223200708000
B0311163306437S14813127EA021730221000508000
B0311213306385S14813173EA021610219400508000
B0311263306333S14813223EA021470217900608000
B0311313306285S14813276EA021380216800508000
B0311363306236S14813329EA021310216000508000
B0311413306186S14813376EA021300215800708000
B0311463306134S14813423EA021170214800708000
B0311513306079S14813478EA021040213800708000
B0311563306031S14813538EA020920212500508000
B0312013305982S14813597EA020800211300508000
B0312063305930S14813654EA020670210000508000
B0312113305878S14813712EA020510208400608000
B0312163305827S14813766EA020390206900608000
B0312213305777S14813822EA020260205500508000
B0312263305725S14813878EA020090204000608000
B0312313305675S14813937EA019920202200508000
B0312363305629S14814001EA019820200700608000
B0312413305589S14814066EA019730199400508000
B0312463305549S14814135EA019590198100708000
B0312513305507S14814203EA019460196900608000
B0312563305469S14814273EA019320195500708000
B0313013305431S14814342EA019190194200608000
B0313063305393S14814412EA019050192800708000
B0313113305359S14814480EA018970191800608000
B0313163305321S14814542EA018870190700608000
B0313213305282S14814602EA018740189700608000
B0313263305245S14814667EA018620188500708000
B0313313305212S14814731EA018580188000508000
B0313363305179S14814796EA018500187300908000
B0313413305150S14814863EA018430186500608000
B0313463305124S14814932EA018360185800508000
B0313513305098S14815003EA018250185000808000
B0313563305074S14815079EA018120183700708000
B0314013305053S14815151EA018000182500608000
B0314063305034S14815225EA017790180400808000
B0314113305018S14815293EA017780179300908000
B0314163305000S14815356EA017770179201008000
B0314213304974S14815416EA017780179300808000
B0314263304943S14815474EA017960180400808000
B0314313304899S14815526EA018150182001608000
B0314363304856S14815510EA018300184201308000
B0314413304860S14815485EA018490185901208000
B0314463304880S14815511EA018810188701908000
B0314513304843S14815544EA019000191401708000
B0314563304815S14815513EA019200193901208000
B0315013304832S14815496EA019440196801008000
B0315063304862S14815516EA019580198601408000
B0315113304842S14815572EA019860200901508000
B0315163304796S14815556EA020020202901408000
B0315213304812S14815552EA020240205402008000
B0315263304786S14815602EA020430207601208000
B0315313304724S14815604EA020660209501508000
B0315363304722S14815575EA020840211802008000
B0315413304737S14815627EA021040213601408000
B0315463304680S14815653EA021270216101308000
B0315513304652S14815620EA021480218201408000
B0315563304677S14815630EA021670220001508000
B0316013304668S14815686EA021930222701408000
B0316063304615S14815710EA022060224601308000
B0316113304591S14815676EA022170225901108000
B0316163304616S14815670EA022390227701208000
B0316213304625S14815711EA022650229901708000
B0316263304578S14815724EA022800232001708000
B0316313304578S14815694EA022980233901708000
B0316363304589S14815731EA023110235401308000
B0316413304545S14815777EA023150235801008000
B0316463304492S14815779EA023160236101008000
B0316513304460S14815745EA023230236600608000
B0316563304447S14815703EA023370237700708000
B0317013304463S14815695EA023490238901408000
B0317063304465S14815742EA023670240501008000
B0317113304420S14815775EA023820242201708000
B0317163304378S14815743EA023910243701208000
B0317213304394S14815718EA024040244901408000
B0317263304399S14815755EA024200246401008000
B0317313304344S14815768EA024240247001508000
B0317363304320S14815721EA024380248101108000
B0317413304334S14815700EA024490249501008000
B0317463304340S14815739EA024560250601308000
B0317513304308S14815786EA024580251201008000
B0317563304262S14815826EA024640251400608000
B0318013304217S14815866EA024710251800808000
B0318063304186S14815921EA024650251500808000
B0318113304152S14815973EA024540250600808000
B0318163304112S14816020EA024400249400708000
B0318213304065S14816070EA024220247900608000
B0318263304017S14816112EA024190246700508000
B0318313303970S14816160EA024130246000508000
B0318363303925S14816209EA024040245200608000
B0318413303882S14816257EA024000244400508000
B0318463303842S14816307EA023910243500508000
B0318513303804S14816364EA023820242600708000
B0318563303766S14816417EA023780242100808000
B0319013303726S14816469EA023700241400608000
B0319063303686S14816523EA023600240500708000
B0319113303650S14816577EA023540239700708000
B0319163303614S14816633EA023460238800608000
B0319213303579S14816691EA023370237900708000
B0319263303547S14816749EA023320237100608000
B0319313303517S14816802EA023290236500708000
B0319363303486S14816859EA023230235900608000
B0319413303452S14816915EA023140235200608000
B0319463303413S14816972EA023030234300608000
B0319513303371S14817023EA022970233600608000
B0319563303321S14817075EA022800232500708000
B0320013303274S14817131EA022640231000708000
F03200602050612242529
B0320063303228S14817189EA022490229400707000
F0320110205061219242529
B0320113303184S14817248EA022360228000608000
B0320163303143S14817313EA022220226600908000
B0320213303104S14817376EA022120225100908000
B0320263303066S14817444EA021980223500808000
B0320313303026S14817509EA021870222300608000
B0320363302987S14817573EA021770221200808000
B0320413302948S14817637EA021650220100508000
B0320463302908S14817701EA021540218900508000
B0320513302864S14817769EA021380217400708000
B0320563302823S14817835EA021240216000608000
B0321013302786S14817897EA021110214300708000
B0321063302748S14817962EA020990213100608000
B0321113302707S14818024EA020870211900508000
B0321163302664S14818085EA020730210600408000
B0321213302619S14818149EA020580208900508000
B0321263302572S14818211EA020480207800708000
B0321313302528S14818271EA020390206800608000
B0321363302485S14818331EA020290205600508000
B0321413302444S14818392EA020190204600508000
B0321463302406S14818455EA020090203600408000
B0321513302372S14818517EA020040202900708000
B0321563302337S14818578EA019930201800708000
B0322013302304S14818642EA019860201000808000
B0322063302269S14818702EA019780200200908000
B0322113302237S14818768EA019690199400508000
B0322163302204S14818832EA019620198700508000
B0322213302177S14818895EA019580198100708000
B0322263302151S14818960EA019480197300608000
B0322313302130S14819031EA019420196600508000
B0322363302110S14819100EA019390196100608000
B0322413302087S14819167EA019450196100808000
B0322463302060S14819229EA019490196700808000
B0322513302034S14819289EA019470196901008000
B0322563302013S14819357EA019370196100808000
B0323013301991S14819428EA019250194900808000
B0323063301972S14819501EA019150193800708000
B0323113301949S14819576EA019050192800508000
B0323163301920S14819651EA018970191900808000
B0323213301889S14819728EA018820190800508000
B0323263301861S14819804EA018730189600608000
B0323313301832S14819879EA018620188400708000
B0323363301806S14819961EA018530187500808000
B0323413301781S14820035EA018480186900708000
B0323463301756S14820108EA018390186000708000
B0323513301731S14820178EA018290185000608000
B0323563301685S14820236EA018180183800708000
B0324013301616S14820266EA018010182300808000
B0324063301543S14820278EA017870180700708000
B0324113301472S14820285EA017740179300608000
B0324163301398S14820283EA017600177700608000
B0324213301334S14820284EA017620176701008000
B0324263301280S14820285EA017570176300908000
B0324313301231S14820273EA017530176400708000
B0324363301186S14820254EA017530176400708000
F03244102050612242529
B0324413301148S14820222EA017510176400707000
F0324460205061219242529
B0324463301121S14820194EA017620176800708000
B0324513301086S14820168EA017730177500708000
B0324563301073S14820137EA017770178201208000
B0325013301093S14820138EA017780178601208000
B0325063301113S14820153EA017860179501108000
B0325113301136S14820170EA017910180100908000
B0325163301155S14820216EA017980180901308000
B0325213301131S14820276EA018010181501308000
B0325263301082S14820267EA018120182301408000
B0325313301087S14820255EA018220183101708000
B0325363301087S14820307EA018240183701508000
B0325413301042S14820335EA018310184401308000
B0325463300995S14820324EA018410185701108000
B0325513300999S14820302EA018500186401408000
B0325563301013S14820342EA018590187001508000
B0326013300969S14820388EA018670188101008000
F03260602050612192529
B0326063300921S14820368EA018760189001207000
F0326110205061219242529
B0326113300933S14820354EA018920190101608000
B0326163300939S14820405EA018980191201408000
B0326213300889S14820454EA019130192301308000
B0326263300856S14820429EA019190193401408000
B0326313300879S14820421EA019330195001308000
B0326363300881S14820475EA019400196101408000
B0326413300828S14820510EA019510197001508000
B0326463300795S14820481EA019600198101008000
B0326513300811S14820471EA019720199201408000
B0326563300824S14820524EA019750200001208000
B0327013300773S14820557EA019820200601408000
B0327063300729S14820537EA019960201601108000
B0327113300745S14820533EA020010202501608000
B0327163300750S14820597EA020060203201308000
B0327213300701S14820633EA020160204101408000
B0327263300679S14820603EA020250204801408000
B0327313300700S14820615EA020300205601408000
B0327363300695S14820675EA020400206501308000
B0327413300652S14820716EA020480207401208000
B0327463300601S14820717EA020580208600808000
B0327513300565S14820699EA020650209300408000
B0327563300555S14820676EA020690209800608000
B0328013300573S14820674EA020720210100608000
B0328063300596S14820696EA020760210400708000
B0328113300608S14820743EA020810210900808000
B0328163300593S14820802EA020870211300708000
B0328213300560S14820852EA020860211500508000
B0328263300513S14820895EA020800211300708000
B0328313300456S14820910EA020790211300808000
B0328363300406S14820901EA020900212000808000
B0328413300366S14820879EA020950212500808000
B0328463300369S14820853EA020980212701408000
B0328513300389S14820885EA020990212901508000
B0328563300373S14820946EA021030213401308000
B0329013300333S14820989EA021140214101208000
B0329063300294S14820970EA021130214601008000
B0329113300306S14820957EA021110214501408000
B0329163300316S14821005EA021100214601208000
B0329213300302S14821068EA021090214500608000
B0329263300287S14821132EA021120214500508000
B0329313300244S14821166EA021140214501308000
B0329363300243S14821142EA021090214501808000
B0329413300247S14821210EA021020214301308000
B0329463300200S14821268EA021080214101008000
F032951020506121920242529
B0329513300146S14821314EA021100214000809000
B0329563300096S14821354EA021110214200609000
B0330013300045S14821396EA021070214000609000
B0330063259998S14821437EA020990213300409000
B0330113259950S14821484EA020890212400509000
B0330163259903S14821530EA020800211300509000
B0330213259858S14821577EA020680210000409000
B0330263259813S14821631EA020520208500509000
B0330313259775S14821688EA020390207000409000
B0330363259743S14821747EA020280205800509000
B0330413259713S14821809EA020170204600509000
B0330463259677S14821870EA020020203200509000
B0330513259637S14821929EA019920201800609000
B0330563259598S14821986EA019830200700509000
B0331013259558S14822039EA019680199500509000
B0331063259517S14822091EA019570198300409000
B0331113259475S14822146EA019440196900509000
B0331163259436S14822199EA019350195800509000
B0331213259393S14822249EA019220194400509000
B0331263259348S14822296EA019110193200509000
B0331313259298S14822342EA018980191900509000
B0331363259249S14822389EA018820190400509000
B0331413259199S14822433EA018700189000509000
B0331463259144S14822475EA018560187600709000
B0331513259097S14822518EA018480186500409000
B0331563259054S14822576EA018360185400609000
B0332013259018S14822630EA018310184400709000
B0332063258975S14822684EA018150183300509000
B0332113258927S14822734EA018040182000609000
B0332163258877S14822782EA017940181000509000
B0332213258829S14822830EA017840180000409000
B0332263258778S14822880EA017690178800509000
B0332313258724S14822912EA017640177800709000
B0332363258670S14822946EA017460176300509000
B0332413258618S14822987EA017300174700509000
B0332463258564S14823028EA017180173400409000
B0332513258502S14823059EA016990171600809000
B0332563258438S14823081EA016840169700609000
B0333013258375S14823100EA016640167700609000
B0333063258311S14823114EA016480165900309000
B0333113258242S14823127EA016360164400609000
B0333163258175S14823143EA016250163200409000
B0333213258109S14823160EA016090161900609000
B0333263258043S14823178EA015940160100609000
B0333313257979S14823200EA015770158300609000
B0333363257918S14823225EA015740157100609000
B0333413257863S14823253EA015600156100709000
B0333463257806S14823279EA015510155300709000
B0333513257745S14823300EA015460154700409000
B0333563257686S14823325EA015390154100609000
B0334013257625S14823350EA015340153600609000
B0334063257562S14823376EA015280152900409000
B0334113257499S14823402EA015200151900609000
B0334163257438S14823422EA015090151100609000
B0334213257372S14823444EA014980150100609000
B0334263257302S14823474EA014940149200709000
B0334313257235S14823511EA015010149500609000
B0334363257172S14823561EA015060150200609000
B0334413257114S14823618EA015080150700609000
B0334463257073S14823683EA015120151300709000
B0334513257045S14823755EA015230152200509000
B0334563257026S14823827EA015380153500409000
B0335013256986S14823871EA015430154300809000
B0335063256955S14823854EA015290154201209000
B0335113256964S14823826EA015300154000709000
B0335163256956S14823793EA015250153700509000
B0335213256943S14823762EA015320153800509000
B0335263256924S14823729EA015410154400509000
B0335313256906S14823696EA015540155600509000
B0335363256896S14823659EA015650156600809000
B0335413256911S14823672EA015810158001009000
B0335463256874S14823715EA015860158901409000
B0335513256835S14823685EA015960159800809000
F0335560205061220242529
B0335563256830S14823657EA016060160801108000
F033601020506121920242529
B0336013256846S14823658EA016140161600809000
B0336063256836S14823708EA016240162801409000
B0336113256782S14823716EA016300163701109000
B0336163256780S14823689EA016380164201109000
B0336213256797S14823701EA016460165100809000
B0336263256785S14823759EA016560166101409000
B0336313256731S14823783EA016660167101209000
B0336363256720S14823753EA016680167801209000
B0336413256742S14823771EA016790168800709000
B0336463256751S14823815EA016900169901409000
B0336513256699S14823860EA017040171001409000
B0336563256658S14823837EA017130172101009000
B0337013256664S14823821EA017220173000809000
B0337063256676S14823854EA017290173800909000
B0337113256639S14823914EA017440175101109000
B0337163256588S14823906EA017490176200909000
B0337213256595S14823893EA017510176500809000
B0337263256610S14823920EA017600177200709000
B0337313256617S14823959EA017700178100509000
B0337363256630S14824002EA017820179300609000
B0337413256643S14824039EA017980180600609000
B0337463256616S14824087EA018110182201209000
B0337513256555S14824080EA018280184001009000
B0337563256546S14824058EA018360185501109000
B0338013256566S14824091EA018510187001109000
B0338063256527S14824143EA018610188201109000
B0338113256468S14824126EA018700188901009000
B0338163256446S14824092EA018700189000609000
B0338213256464S14824081EA018690188900809000
B0338263256484S14824098EA018890189900509000
B0338313256491S14824129EA018960190900409000
B0338363256484S14824178EA019010191800809000
B0338413256454S14824225EA019050192300609000
B0338463256396S14824250EA019050192601109000
B0338513256347S14824226EA019130192900709000
B0338563256331S14824192EA019240193800509000
B0339013256337S14824162EA019180194200709000
B0339063256356S14824158EA019210194400609000
B0339113256374S14824158EA019300194800509000
B0339163256389S14824155EA019330194900609000
B0339213256390S14824189EA019320195200909000
B0339263256355S14824241EA019340195500709000
B0339313256301S14824265EA019370195800809000
B0339363256255S14824242EA019390196200809000
B0339413256264S14824218EA019360196100909000
B0339463256283S14824239EA019400196300709000
B0339513256284S14824286EA019340196100509000
B0339563256271S14824340EA019400196300409000
B0340013256258S14824390EA019290195900409000
B0340063256242S14824446EA019270195500709000
B0340113256222S14824507EA019270195200709000
B0340163256192S14824564EA019290195300709000
B0340213256144S14824595EA019350195700709000
B0340263256104S14824578EA019400196300809000
B0340313256115S14824558EA019430196500909000
B0340363256142S14824584EA019470196700709000
B0340413256163S14824628EA019470196900509000
B0340463256178S14824672EA019510197200409000
B0340513256203S14824704EA019530197500509000
B0340563256228S14824728EA019650198400509000
B0341013256236S14824770EA019750199301509000
B0341063256203S14824760EA019770199901209000
B0341113256226S14824755EA019820200400809000
B0341163256253S14824779EA019930201500709000
B0341213256278S14824806EA020080203000609000
B0341263256301S14824830EA020260204700709000
B0341313256311S14824872EA020380206500709000
B0341363256276S14824927EA020440207601009000
B0341413256222S14824939EA020520208601009000
B0341463256187S14824912EA020560209100509000
F0341510506121920242529
B0341513256185S14824883EA020660209700708000
F034156020506121920242529
B0341563256196S14824860EA020810210600809000
B0342013256215S14824867EA020900211500709000
B0342063256214S14824929EA021000212800709000
B0342113256211S14824976EA021030213700709000
B0342163256228S14825001EA021070214200509000
B0342213256247S14825012EA021010214200609000
B0342263256286S14825028EA020890213500509000
B0342313256325S14825043EA020960213300509000
B0342363256359S14825053EA021180214100609000
B0342413256384S14825052EA021340215600609000
B0342463256393S14825028EA021470217100509000
B0342513256357S14825007EA021510218000909000
B0342563256306S14825007EA021730219801009000
B0343013256289S14825050EA021900222200909000
B0343063256304S14825033EA022080224101209000
B0343113256253S14825022EA022270226001709000
B0343163256241S14825071EA022420228101009000
B0343213256253S14825051EA022590229701109000
F0343260205061219202425
B0343263256197S14825040EA022740231401708000
F034331020506121920242529
B0343313256163S14825098EA022800232601309000
B0343363256174S14825150EA022870233200809000
B0343413256181S14825202EA022910233900609000
B0343463256200S14825228EA023050234601009000
B0343513256202S14825194EA023120235101009000
B0343563256162S14825161EA023190236100909000
B0344013256115S14825167EA023360237301609000
B0344063256109S14825222EA023400238200809000
B0344113256135S14825229EA023480238601009000
B0344163256107S14825196EA023580239301409000
B0344213256060S14825221EA023660240701209000
B0344263256048S14825277EA023710241600709000
B0344313256072S14825306EA023730241900909000
B0344363256080S14825279EA023760242001209000
B0344413256027S14825262EA023740242101109000
B0344463255972S14825289EA023790242500609000
B0344513255921S14825323EA023850243000609000
B0344563255868S14825363EA023900243700609000
B0345013255824S14825404EA023940244300409000
B0345063255769S14825444EA023850243800509000
B0345113255711S14825478EA023780242800709000
B0345163255648S14825504EA023660241700509000
B0345213255583S14825529EA023580240800809000
B0345263255519S14825556EA023450239500809000
B0345313255456S14825586EA023430238400509000
B0345363255398S14825622EA023440238200709000
B0345413255342S14825660EA023440238200409000
B0345463255292S14825708EA023410238000409000
B0345513255248S14825757EA023480238100509000
B0345563255202S14825802EA023420238100609000
B0346013255158S14825856EA023280237200609000
B0346063255107S14825904EA023090235700509000
B0346113255050S14825947EA022870233300509000
B0346163254990S14825988EA022650230900609000
B0346213254930S14826028EA022520228900609000
B0346263254874S14826071EA022380227400509000
B0346313254814S14826114EA022290226100609000
B0346363254759S14826161EA022120224600409000
B0346413254710S14826207EA021980223100509000
B0346463254658S14826255EA021690221100609000
B0346513254601S14826299EA021480218700609000
B0346563254552S14826336EA021350216900409000
B0347013254510S14826383EA021150214800509000
B0347063254462S14826430EA020960212800409000
B0347113254408S14826471EA020780210800609000
B0347163254349S14826515EA020650209100409000
B0347213254287S14826561EA020440207100509000
B0347263254230S14826604EA020330205500509000
B0347313254175S14826650EA020080203400509000
B0347363254119S14826697EA019840200900509000
B0347413254065S14826743EA019580198200509000
B0347463254005S14826783EA019340195500409000
B0347513253945S14826823EA019170193000509000
B0347563253893S14826872EA019160192300609000
B0348013253842S14826925EA019100191700609000
B0348063253791S14826973EA019070191500609000
B0348113253743S14827025EA019000191201009000
B0348163253693S14827078EA018900190400509000
B0348213253644S14827129EA018780189500509000
B0348263253596S14827182EA018720188700509000
B0348313253555S14827241EA018680188200509000
B0348363253502S14827299EA018500187100609000
B0348413253445S14827350EA018450186300609000
B0348463253385S14827403EA018370185500509000
B0348513253325S14827459EA018370185300509000
B0348563253269S14827515EA018400185300509000
B0349013253216S14827573EA018320185100509000
B0349063253169S14827630EA018270184500609000
B0349113253120S14827690EA018200184000409000
B0349163253074S14827752EA018170183600509000
B0349213253029S14827818EA018010182600609000
B0349263252989S14827886EA018000181900409000
B0349313252957S14827951EA017900181200909000
B0349363252907S14828006EA017740179600609000
B0349413252855S14828060EA017790179100609000
B0349463252799S14828111EA017780178800609000
B0349513252750S14828167EA017810178900609000
B0349563252703S14828215EA017820179400509000
B0350013252664S14828265EA017940180300509000
B0350063252633S14828323EA018070181700709000
B0350113252599S14828378EA018160183000709000
B0350163252602S14828428EA018190183700609000
B0350213252624S14828465EA018180183800509000
B0350263252647S14828470EA018050183200809000
B0350313252639S14828443EA018020182800709000
B0350363252599S14828426EA017960182200809000
B0350413252545S14828440EA017960181700809000
B0350463252494S14828445EA018040182100709000
B0350513252439S14828454EA018160182800609000
B0350563252418S14828510EA018300184000709000
B0351013252441S14828534EA018390185501509000
B0351063252421S14828498EA018450186601209000
B0351113252376S14828499EA018580188000909000
B0351163252340S14828542EA018620188800709000
B0351213252335S14828599EA018680189300509000
B0351263252351S14828650EA018790190200709000
B0351313252370S14828643EA018930190701209000
B0351363252326S14828626EA019100192401409000
B0351413252289S14828675EA019230194201209000
B0351463252299S14828736EA019310195400709000
B0351513252330S14828757EA019350196200909000
B0351563252350S14828745EA019380196400709000
B0352013252330S14828715EA019380196400709000
B0352063252293S14828705EA019550197100909000
B0352113252248S14828722EA019650198400809000
B0352163252235S14828782EA019830200200709000
B0352213252259S14828829EA019900201400909000
B0352263252272S14828810EA020000202301209000
B0352313252246S14828785EA020080203300709000
B0352363252211S14828778EA020300204900809000
B0352413252170S14828782EA020400206500709000
B0352463252151S14828837EA020420207301009000
B0352513252153S14828900EA020530208200509000
B0352563252175S14828959EA020630209200509000
B0353013252202S14828981EA020700210000709000
B0353063252210S14828960EA020620209700609000
B0353113252190S14828933EA020580209400609000
B0353163252154S14828921EA020680209800609000
B0353213252117S14828917EA020790210600609000
B0353263252076S14828937EA020830211400809000
B0353313252032S14828965EA020860212000609000
B0353363251991S14829005EA020960212800709000
B0353413251990S14829069EA021120214000909000
B0353463252016S14829083EA021230215400909000
B0353513252018S14829061EA021290216100609000
B0353563252003S14829038EA021400217000609000
B0354013251959S14829032EA021480218001009000
B0354063251909S14829048EA021610219300809000
B0354113251872S14829093EA021750220600609000
B0354163251875S14829150EA021880222100809000
B0354213251900S14829165EA022020223700709000
B0354263251893S14829145EA022110224700609000
B0354313251852S14829133EA022200225900909000
B0354363251805S14829165EA022280226800609000
B0354413251781S14829223EA022410228200809000
B0354463251789S14829275EA022510229400609000
B0354513251811S14829282EA022610230200709000
B0354563251799S14829259EA022680230601009000
B0355013251764S14829243EA022760231400609000
B0355063251711S14829262EA022810231900609000
B0355113251671S14829311EA022890233000409000
B0355163251643S14829367EA022980233800509000
B0355213251644S14829423EA023020234200609000
B0355263251669S14829443EA023000234300609000
B0355313251688S14829425EA023030234200609000
B0355363251677S14829400EA023100234600709000
B0355413251644S14829378EA023160235300509000
B0355463251594S14829374EA023190235900609000
B0355513251543S14829372EA023320236900609000
B0355563251489S14829385EA023450238200709000
B0356013251469S14829437EA023580239701109000
B0356063251494S14829460EA023670241100709000
F0356110205121920242529
B0356113251500S14829437EA023750241700708000
F035616020506121920242529
B0356163251473S14829410EA023830242400709000
B0356213251425S14829397EA023860243000809000
B0356263251372S14829421EA023980243800509000
B0356313251330S14829464EA024090245100409000
B0356363251319S14829521EA024170246200709000
B0356413251340S14829536EA024280247401409000
B0356463251337S14829506EA024360248100809000
B0356513251350S14829511EA024400248501209000
B0356563251328S14829572EA024460249200909000
B0357013251277S14829602EA024500249600609000
B0357063251229S14829593EA024550250100509000
B0357113251214S14829564EA024620250700709000
B0357163251232S14829577EA024670251101209000
B0357213251220S14829649EA024660251500909000
B0357263251186S14829710EA024700251900609000
B0357313251146S14829767EA024720252000509000
B0357363251104S14829824EA024690251600509000
B0357413251059S14829879EA024550250800509000
B0357463251018S14829935EA024420249500409000
B0357513250981S14829989EA024320248400409000
B0357563250938S14830039EA024200247200409000
B0358013250899S14830092EA024130246100409000
B0358063250861S14830149EA024030245100409000
B0358113250818S14830202EA023930243900309000
B0358163250775S14830258EA023790242600409000
B0358213250733S14830319EA023690241300409000
B0358263250690S14830380EA023550239900409000
B0358313250648S14830441EA023460238700409000
F0358360205061219202425
B0358363250610S14830502EA023380237700408000
F035841020506121920242529
B0358413250570S14830563EA023290236800409000
B0358463250527S14830617EA023210235900409000
B0358513250482S14830672EA023030234600409000
B0358563250436S14830733EA022860233100509000
B0359013250393S14830794EA022730231700509000
B0359063250354S14830862EA022550230100509000
B0359113250313S14830922EA022460228800409000
B0359163250268S14830982EA022240227000409000
B0359213250221S14831041EA022080225200509000
B0359263250173S14831099EA021920223200509000
B0359313250126S14831156EA021800221700609000
B0359363250079S14831214EA021640219900609000
B0359413250030S14831271EA021480218100409000
B0359463249980S14831330EA021310216300409000
B0359513249930S14831392EA021110214400409000
B0359563249884S14831456EA021010212900509000
B0400013249838S14831516EA020860211700609000
B0400063249790S14831573EA020770210500509000
B0400113249744S14831630EA020620209100509000
B0400163249708S14831688EA020510207900409000
B0400213249668S14831743EA020390206600509000
B0400263249616S14831777EA020350205700509000
B0400313249561S14831807EA020220204400409000
B0400363249506S14831847EA019990202700509000
B0400413249456S14831899EA019710199900609000
B0400463249409S14831970EA019390196500609000
B0400513249365S14832043EA019200193900609000
B0400563249326S14832111EA019030191900609000
B0401013249292S14832177EA018820189800409000
B0401063249256S14832233EA018670188100509000
B0401113249218S14832291EA018450186100509000
B0401163249177S14832354EA018270184100409000
B0401213249139S14832423EA018020182000509000
B0401263249099S14832495EA017780179300509000
B0401313249063S14832561EA017620177200509000
B0401363249023S14832623EA017440175300509000
B0401413248977S14832689EA017240173200409000
B0401463248932S14832756EA017080171600409000
B0401513248891S14832823EA016970170200409000
B0401563248852S14832887EA016870169100609000
B0402013248813S14832947EA016700167600409000
B0402063248771S14833011EA016560166000409000
B0402113248732S14833074EA016400164600409000
B0402163248691S14833137EA016310163400409000
B0402213248646S14833196EA016180162200509000
B0402263248599S14833258EA015990160500509000
B0402313248554S14833324EA015850158900609000
B0402363248511S14833391EA015700157400309000
B0402413248469S14833453EA015620156200509000
B0402463248425S14833519EA015480155000409000
B0402513248381S14833585EA015360153800409000
B0402563248341S14833650EA015210152300509000
B0403013248299S14833714EA015070151000609000
B0403063248261S14833771EA014960149900409000
B0403113248224S14833832EA014720148000609000
B0403163248192S14833899EA014520145800509000
B0403213248152S14833964EA014350143600509000
B0403263248117S14834025EA014210141700609000
B0403313248082S14834084EA014080140100509000
B0403363248046S14834142EA013990139100509000
B0403413248005S14834200EA013800137600509000
B0403463247965S14834259EA013740136500409000
B0403513247928S14834321EA013620135400409000
B0403563247890S14834386EA013440133800609000
F0404010205061220242529
B0404013247849S14834449EA013250131900508000
B0404063247805S14834513EA012980129500708000
B0404113247765S14834578EA012770126900608000
B0404163247724S14834646EA012550124400408000
B0404213247683S14834714EA012370122200708000
B0404263247642S14834783EA012150120000608000
B0404313247605S14834846EA012000118000708000
B0404363247566S14834914EA011770115700608000
B0404413247523S14834986EA011590113800608000
B0404463247482S14835057EA011490112400808000
B0404513247447S14835122EA011560112000608000
B0404563247416S14835176EA011650112700808000
B0405013247385S14835225EA011770114200708000
B0405063247357S14835279EA011830115400608000
B0405113247327S14835334EA011810116200608000
B0405163247284S14835391EA011790116500808000
B0405213247240S14835444EA011870117100908000
B0405263247193S14835494EA011950117500808000
B0405313247149S14835538EA011980118000708000
B0405363247124S14835597EA012060118400408000
B0405413247121S14835654EA012090119000508000
B0405463247140S14835675EA012180119600908000
B0405513247149S14835658EA012230120000908000
B0405563247146S14835628EA012260120400608000
B0406013247135S14835596EA012350121000808000
B0406063247093S14835579EA012450122001008000
B0406113247053S14835619EA012530123301108000
B0406163247067S14835654EA012580124301208000
B0406213247069S14835634EA012700125501008000
B0406263247028S14835623EA012820126600908000
B0406313246987S14835656EA012870127601008000
B0406363246985S14835710EA012900127901008000
B0406413247009S14835729EA012950128200708000
B0406463247033S14835725EA013030128701008000
B0406513247046S14835703EA013170129800908000
B0406563247033S14835677EA013310130701308000
B0407013246987S14835687EA013410132401308000
B0407063246975S14835736EA013500133700808000
B0407113246993S14835759EA013640135101208000
B0407163246990S14835735EA013740136201308000
B0407213246948S14835720EA013860137300908000
B0407263246910S14835758EA013920138401008000
B0407313246916S14835808EA014040139400908000
B0407363246936S14835807EA014240140601208000
F040741020506122024252931
B0407413246895S14835794EA014360142101109000
B0407463246854S14835833EA014530144400909000
B0407513246855S14835885EA014630146000609000
B0407563246874S14835904EA014770147500909000
B0408013246872S14835883EA014880148901009000
B0408063246826S14835865EA015010150100809000
B0408113246780S14835880EA015170151900709000
B0408163246780S14835927EA015230152801109000
B0408213246804S14835924EA015370153900909000
B0408263246820S14835906EA015490154901009000
B0408313246806S14835874EA015550155801309000
B0408363246757S14835864EA015630156600809000
B0408413246712S14835903EA015680157301009000
B0408463246690S14835961EA015740158000709000
B0408513246677S14836025EA015910159200509000
B0408563246671S14836086EA015990160400809000
B0409013246698S14836119EA016050161100609000
B0409063246722S14836124EA015930160900809000
B0409113246725S14836100EA015830160001109000
B0409163246698S14836067EA015800159300609000
B0409213246656S14836040EA015860159000809000
B0409263246607S14836026EA016020159900809000
B0409313246568S14836062EA016040160601209000
B0409363246572S14836109EA016140160800709000
B0409413246589S14836107EA016270161901109000
B0409463246555S14836085EA016440163601109000
B0409513246503S14836102EA016470164901109000
B0409563246480S14836160EA016470165300809000
B0410013246480S14836221EA016570166100609000
B0410063246499S14836249EA016670167100909000
B0410113246505S14836227EA016730168001009000
B0410163246464S14836214EA016860169000909000
B0410213246425S14836256EA017010170601009000
B0410263246425S14836315EA017130172400609000
B0410313246446S14836347EA017170173500709000
B0410363246465S14836341EA017050172600609000
B0410413246464S14836309EA016940171300709000
B0410463246423S14836282EA016920170600909000
B0410513246366S14836291EA017040170800609000
B0410563246314S14836311EA017110171700409000
B0411013246271S14836349EA017160172300509000
B0411063246240S14836404EA017160172800709000
B0411113246234S14836466EA017230173300509000
B0411163246228S14836521EA017290174000409000
B0411213246219S14836580EA017340174500609000
B0411263246190S14836629EA017270174400809000
B0411313246147S14836672EA017140174000609000
B0411363246096S14836705EA017140173300509000
B0411413246039S14836739EA016960171800809000
B0411463245972S14836774EA016830169700809000
B0411513245904S14836808EA016610167600509000
B0411563245837S14836844EA016420165400709000
B0412013245770S14836881EA016270163500709000
B0412063245703S14836921EA016110161700409000
B0412113245641S14836954EA015990160200709000
B0412163245576S14836983EA015890159200709000
B0412213245517S14837001EA015890158800609000
B0412263245465S14837019EA016020159400709000
B0412313245435S14837053EA016010159901109000
B0412363245453S14837083EA015970159800709000
B0412413245484S14837077EA016030160401109000
B0412463245491S14837051EA016070160900709000
B0412513245478S14837007EA015960160700709000
B0412563245450S14836969EA015960160500709000
B0413013245401S14836971EA015980160400609000
B0413063245359S14836992EA015960160200509000
B0413113245321S14837016EA015950160100509000
B0413163245283S14837050EA015870159600409000
B0413213245264S14837091EA015850159001009000
B0413263245239S14837138EA015870159001009000
B0413313245190S14837165EA015900159500609000
B0413363245140S14837176EA015820159300609000
B0413413245095S14837205EA015750158600709000
B0413463245063S14837253EA015720158000809000
B0413513245047S14837308EA015740157800609000
B0413563245045S14837355EA015770158000809000
B0414013245037S14837412EA015820158400609000
B0414063245029S14837466EA015950159500509000
B0414113245023S14837520EA016080160900609000
B0414163244991S14837563EA016110161900909000
B0414213244953S14837534EA016110162300909000
B0414263244945S14837493EA016240163001009000
B0414313244967S14837493EA016340163901209000
B0414363244979S14837543EA016420164700709000
B0414413244954S14837600EA016420165000809000
B0414463244913S14837643EA016470165500709000
B0414513244861S14837669EA016410165300809000
B0414563244810S14837688EA016290164600509000
B0415013244759S14837701EA016230163900409000
B0415063244700S14837705EA016110162800409000
B0415113244642S14837698EA015960161400609000
B0415163244579S14837682EA015820159500609000
B0415213244512S14837667EA015620157300609000
B0415263244445S14837651EA015460155400509000
B0415313244386S14837632EA015350153700509000
B0415363244332S14837600EA015290152200609000
B0415413244277S14837577EA015210151200709000
B0415463244215S14837561EA015170150600609000
B0415513244156S14837541EA015140150300609000
B0415563244102S14837515EA014920149300909000
B0416013244047S14837495EA014840148401109000
B0416063243994S14837475EA014760147900809000
B0416113243941S14837451EA014640146600609000
B0416163243894S14837431EA014570145901109000
B0416213243843S14837410EA014490145100509000
B0416263243785S14837413EA014420144300409000
B0416313243731S14837449EA014380143600509000
B0416363243687S14837497EA014390143500309000
B0416413243651S14837546EA014440143900409000
B0416463243621S14837597EA014460144300409000
B0416513243595S14837650EA014550145000709000
B0416563243574S14837701EA014670146100509000
B0417013243557S14837754EA014730147000509000
F0417060205061220252931
B0417063243539S14837809EA014840148000708000
F041711020506122024252931
B0417113243528S14837858EA014840148600609000
B0417163243522S14837910EA014790148600509000
B0417213243498S14837958EA014660147500609000
B0417263243460S14837985EA014550145901109000
B0417313243441S14837953EA014350144100909000
B0417363243444S14837917EA014300143100809000
B0417413243453S14837886EA014200142200709000
B0417463243468S14837863EA014250141600909000
B0417513243485S14837846EA014260141600909000
B0417563243502S14837822EA014340142200809000
B0418013243517S14837795EA014440143200709000
B0418063243494S14837758EA014520144101009000
B0418113243448S14837780EA014540144801209000
B0418163243450S14837819EA014600145400609000
B0418213243474S14837827EA014700146100709000
B0418263243483S14837802EA014750146701109000
B0418313243435S14837782EA014810147501209000
B0418363243385S14837814EA014840148100609000
B0418413243373S14837859EA014900148600509000
B0418463243392S14837873EA014920148801109000
B0418513243370S14837840EA014990149301409000
B0418563243315S14837859EA015040149800909000
B0419013243305S14837905EA015060150301209000
B0419063243326S14837918EA015160150700509000
B0419113243325S14837895EA015210151401209000
B0419163243271S14837898EA015220151901009000
B0419213243258S14837949EA015300152900709000
B0419263243281S14837967EA015350153501009000
B0419313243282S14837950EA015470154401509000
B0419363243233S14837949EA015500155001009000
B0419413243202S14838002EA015620155900809000
B0419463243215S14838026EA015660156701409000
B0419513243210S14837993EA015730157401309000
B0419563243166S14837976EA015820158200709000
B0420013243121S14838006EA015890159000809000
B0420063243108S14838055EA015990160100709000
B0420113243129S14838067EA016070160900909000
B0420163243130S14838038EA016100161301109000
B0420213243080S14838023EA016130161801309000
B0420263243021S14838052EA016240162700609000
B0420313243003S14838102EA016390164101109000
B0420363243013S14838097EA016550165501509000
B0420413242964S14838109EA016670167101209000
B0420463242973S14838156EA016780168501009000
F04205102050612202124252931
B0420513242988S14838143EA016920169801210000
B0420563242933S14838133EA016990170701010000
B0421013242898S14838178EA017140172001110000
B0421063242921S14838174EA017170173000710000
B0421113242901S14838138EA017280173901210000
B0421163242847S14838149EA017420175101010000
B0421213242841S14838188EA017520176100910000
B0421263242845S14838170EA017630176901510000
B0421313242795S14838183EA017760178500910000
B0421363242799S14838224EA017820179300610000
B0421413242819S14838226EA017940180500810000
B0421463242785S14838199EA018060181501110000
B0421513242737S14838230EA018190183300710000
B0421563242738S14838273EA018280184601210000
B0422013242751S14838260EA018400185801010000
B0422063242698S14838246EA018500186601110000
B0422113242663S14838295EA018630187800910000
B0422163242682S14838318EA018730189001010000
B0422213242654S14838291EA018770189401210000
B0422263242607S14838322EA018930190501010000
B0422313242623S14838352EA019010191601210000
B0422363242621S14838330EA019090192501210000
B0422413242569S14838328EA019210193700610000
B0422463242533S14838373EA019250194500610000
B0422513242538S14838415EA019330195000510000
B0422563242551S14838406EA019350195501010000
B0423013242514S14838372EA019400195800910000
B0423063242464S14838381EA019470196600710000
B0423113242452S14838426EA019510197000810000
B0423163242468S14838422EA019560197600510000
B0423213242465S14838388EA019620198100510000
B0423263242471S14838364EA019740198800510000
B0423313242485S14838346EA019780199600710000
B0423363242500S14838331EA019870200400710000
B0423413242511S14838312EA020140202000810000
B0423463242465S14838305EA020400204501010000
B0423513242442S14838348EA020620208301110000
B0423563242465S14838351EA020830211300810000
B0424013242437S14838321EA021080214101110000
B0424063242388S14838351EA021300216600910000
B0424113242394S14838400EA021470218501110000
B0424163242406S14838383EA021720220700910000
B0424213242355S14838373EA021920222701110000
B0424263242328S14838424EA022170225401010000
B0424313242355S14838437EA022330227100810000
B0424363242333S14838405EA022540229001010000
B0424413242275S14838402EA022800231800910000
B0424463242256S14838447EA022950234000710000
B0424513242278S14838453EA023090235200710000
B0424563242273S14838427EA023290236900910000
B0425013242218S14838411EA023440238601010000
B0425063242177S14838446EA023570240000710000
B0425113242188S14838482EA023590240900810000
B0425163242216S14838479EA023690241400910000
B0425213242234S14838457EA023860242700510000
B0425263242247S14838434EA023970243900410000
B0425313242220S14838406EA023960244100810000
B0425363242172S14838416EA024020244500510000
B0425413242135S14838458EA024170245400510000
B0425463242140S14838488EA024340246801010000
B0425513242146S14838462EA024490248501210000
B0425563242095S14838464EA024670251100910000
B0426013242088S14838507EA024830253001010000
B0426063242098S14838485EA024950254601110000
B0426113242047S14838484EA025070256000910000
B0426163242045S14838536EA025230257201010000
B0426213242069S14838516EA025310258401210000
B0426263242031S14838467EA025430259400710000
B0426313241981S14838456EA025680261600810000
B0426363241969S14838492EA025820263200910000
B0426413241993S14838472EA025920264901010000
B0426463241976S14838421EA026090266400810000
B0426513241951S14838383EA026210267800610000
B0426563241908S14838398EA026300268900810000
B0427013241895S14838449EA026410270000510000
B0427063241909S14838479EA026550271300410000
B0427113241932S14838463EA026620272400910000
B0427163241923S14838423EA026760273400610000
B0427213241885S14838400EA026820274300810000
B0427263241843S14838433EA026930275100610000
B0427313241815S14838477EA027030276200410000
B0427363241785S14838521EA027110277100410000
B0427413241754S14838563EA027150277800310000
B0427463241729S14838604EA027160278100410000
B0427513241711S14838644EA027190278100410000
B0427563241693S14838694EA027140277800310000
B0428013241670S14838744EA027260278000410000
B0428063241645S14838797EA027270278400410000
B0428113241620S14838850EA027320279200310000
B0428163241604S14838903EA027320279500510000
B0428213241605S14838961EA027240279000410000
F042826020506122021252931
B0428263241599S14839023EA027120278100409000
F04283102050612202124252931
B0428313241588S14839084EA027060277000310000
B0428363241573S14839148EA026950275700310000
B0428413241553S14839213EA026830274500310000
B0428463241526S14839281EA026750273500310000
B0428513241500S14839348EA026690272700310000
B0428563241478S14839414EA026660272300310000
B0429013241466S14839477EA026630271900310000
B0429063241456S14839545EA026480271200310000
F042911020506122024252931
B0429113241437S14839615EA026420270400409000
F04291602050612202124252931
B0429163241413S14839684EA026340269500310000
B0429213241383S14839748EA026280268800310000
B0429263241349S14839810EA026210267900310000
B0429313241315S14839875EA026130267100310000
B0429363241283S14839938EA026090266600410000
B0429413241251S14839999EA026010265800310000
B0429463241221S14840054EA026010265700410000
B0429513241186S14840107EA025890264700510000
B0429563241152S14840161EA025810263800410000
B0430013241122S14840213EA025700262800410000
B0430063241091S14840273EA025600261600410000
B0430113241061S14840331EA025540260700310000
B0430163241033S14840389EA025440259900310000
B0430213241006S14840448EA025370259100310000
B0430263240979S14840512EA025300258400310000
B0430313240951S14840572EA025360258500410000
B0430363240928S14840623EA025460259300410000
B0430413240899S14840676EA025450259700410000
B0430463240863S14840730EA025480260000510000
B0430513240832S14840781EA025390259800510000
B0430563240807S14840845EA025290258900510000
