AFLY00Bn 0100731
HFDTE301217
HFFXA010
HFPLTPILOT:MICHAEL CASSELLS
HFCM2CREW2:NKN
HFGTYGLIDERTYPE:NKN             
HFGIDGLIDERID:NKN             
HFDTM100GPSDATUM:WGS84
HFRFWFIRMWAREVERSION: 2.00.00
HFRHWHARDWAREVERSION:1.00
HFFTYFRTYPE:Flytec Element Track
HFGPS:FASTRAX,IT430,48
HFPRSPRESSALTSENSOR:INTERSEMA,MS5401BM,12000
HFALGALTGPS:GEO
HFALPALTPRESSURE:ISA
HFTZNUTCOFFSET: 11.00h
I033638FXA3940SIU4143TAS
C301217020338301217006100
C3321372S14756016E TAKEOFF
C3321372S14756016E START  BMI023           00000000010000000000360000AREA
C3158788S14800210E FINISH TRANG            00000000010000000000360000AREA
C3158788S14800210E LANDING
F034332020506121920242529
B0343323321347S14756032EA002800023000409000
F034402020506121920242529
B0344023321347S14756033EA002790023000509000
F034432020506121920242529
B0344323321347S14756033EA002800023000609000
F034502020506121920242529
B0345023321347S14756033EA002800023000609000
F034532020506121920242529
B0345323321346S14756033EA002800023000709000
F034602020506121920242529
B0346023321349S14756029EA002810023000609000
F034632020506121920242529
B0346323321349S14756028EA002810023000409000
F034702020506121920242529
B0347023321349S14756029EA002800023000409000
F034732020506121920242529
B0347323321349S14756029EA002810023000509000
E034759STA
E034759ATS1007.4
LFLYA1 00230
B0347593321358S14756008EA002800023100309000
B0348043321374S14755972EA002840023200509000
B0348093321392S14755937EA002950023600509000
B0348143321411S14755903EA003080024800509000
B0348193321425S14755866EA003200026500609000
B0348243321438S14755830EA003390028400509000
B0348293321449S14755788EA003590030600709000
B0348343321467S14755745EA003780032600909000
B0348393321485S14755711EA003960034700609000
B0348443321498S14755684EA004050036400809000
B0348493321502S14755662EA004170037800609000
B0348543321506S14755638EA004300039100709000
B0348593321510S14755613EA004380040100709000
B0349043321519S14755592EA004550041200509000
B0349093321534S14755575EA004760042800509000
B0349143321547S14755550EA004780043900609000
B0349193321566S14755531EA004790044200609000
B0349243321581S14755511EA004830044400509000
B0349293321600S14755498EA004990045300609000
B0349343321624S14755487EA005130046300609000
B0349393321652S14755483EA005190047600709000
B0349443321685S14755489EA005350049200509000
B0349493321720S14755501EA005420050200409000
B0349543321756S14755520EA005470051100509000
B0349593321791S14755529EA005530051800309000
B0350043321825S14755537EA005580052400409000
B0350093321859S14755552EA005610052700409000
B0350143321893S14755568EA005660053000409000
B0350193321926S14755575EA005720053600309000
B0350243321960S14755586EA005750054100409000
B0350293321992S14755590EA005770054400409000
B0350343322020S14755587EA005820054700409000
B0350393322047S14755578EA005840055100409000
B0350443322079S14755573EA005850055300409000
B0350493322114S14755572EA005870055500309000
B0350543322148S14755570EA005930055900409000
B0350593322184S14755563EA005990056500309000
B0351043322220S14755560EA006120057400409000
B0351093322258S14755562EA006320059300409000
B0351143322298S14755570EA006500061600409000
B0351193322342S14755572EA006660063600509000
B0351243322385S14755582EA006780065400409000
B0351293322422S14755590EA006980067100409000
B0351343322456S14755594EA007090068700409000
B0351393322491S14755601EA007150069500509000
B0351443322519S14755600EA007220070100609000
B0351493322546S14755594EA007310070800409000
B0351543322568S14755581EA007350071400409000
B0351593322586S14755565EA007450072000509000
B0352043322606S14755552EA007550072900509000
B0352093322623S14755535EA007700074100409000
F0352140205061220242529
B0352143322638S14755517EA007870075600808000
F035219020506121920242529
B0352193322652S14755504EA008040077500609000
B0352243322668S14755488EA008170079300409000
B0352293322686S14755469EA008260080700609000
B0352343322710S14755455EA008360081900409000
B0352393322744S14755458EA008450082400509000
B0352443322778S14755478EA008540083400409000
B0352493322816S14755510EA008590083900309000
B0352543322845S14755568EA008670084700409000
B0352593322850S14755641EA008690085200509000
B0353043322854S14755702EA008600084800509000
B0353093322852S14755766EA008500083600409000
B0353143322823S14755822EA008330082200609000
B0353193322781S14755848EA008210080700609000
B0353243322743S14755851EA008130079500409000
B0353293322712S14755846EA008070078900409000
B0353343322677S14755840EA007990078000409000
B0353393322640S14755833EA007910077200409000
B0353443322605S14755825EA007800076200409000
B0353493322570S14755814EA007700075300409000
B0353543322538S14755805EA007650074600409000
B0353593322508S14755794EA007640074400409000
B0354043322477S14755785EA007630074100409000
B0354093322446S14755768EA007580073900709000
B0354143322413S14755747EA007540073400509000
F0354190205061219202425
B0354193322383S14755725EA007580073300408000
F035424020506121920242529
B0354243322350S14755707EA007560073200709000
B0354293322318S14755749EA007490072701009000
B0354343322324S14755801EA007450072301009000
B0354393322348S14755809EA007500072400709000
B0354443322327S14755791EA007540072601209000
B0354493322283S14755823EA007550073101109000
B0354543322285S14755869EA007610073400909000
B0354593322283S14755854EA007650073601109000
B0355043322236S14755854EA007680074201209000
B0355093322203S14755903EA007650074200809000
B0355143322197S14755960EA007630073900709000
B0355193322210S14756005EA007690074200609000
B0355243322227S14756006EA007710074400509000
B0355293322238S14755990EA007750074700509000
B0355343322245S14755972EA007800074900509000
B0355393322209S14755973EA007760075201309000
B0355443322177S14756026EA007690074901109000
B0355493322191S14756061EA007690074600709000
B0355543322203S14756055EA007710074700609000
B0355593322208S14756041EA007630074500509000
B0356043322218S14756030EA007550074000409000
B0356093322218S14756014EA007470073400409000
B0356143322200S14755993EA007390072400509000
B0356193322175S14755974EA007340071600509000
B0356243322154S14755950EA007300071200409000
B0356293322142S14755930EA007250070900309000
B0356343322131S14755910EA007200070300409000
B0356393322116S14755890EA007180069900409000
B0356443322099S14755869EA007240069900309000
B0356493322084S14755848EA007200069800509000
B0356543322070S14755827EA007180069700409000
B0356593322060S14755811EA007180069600409000
B0357043322051S14755789EA007110069300409000
B0357093322039S14755769EA007110069200409000
B0357143322019S14755752EA007100068900309000
B0357193321998S14755737EA007070068700409000
B0357243321973S14755723EA007050068400309000
B0357293321947S14755706EA007050068300409000
B0357343321925S14755692EA007060068300409000
B0357393321902S14755676EA007120068500309000
B0357443321873S14755658EA007160068700409000
B0357493321843S14755638EA007210069100409000
B0357543321817S14755618EA007290069600409000
B0357593321788S14755597EA007330070100709000
B0358043321759S14755578EA007480071200509000
B0358093321726S14755606EA007620072901209000
B0358143321741S14755627EA007680074200909000
B0358193321740S14755608EA007780075400809000
B0358243321694S14755605EA007930076801009000
B0358293321671S14755659EA008100078701009000
B0358343321695S14755679EA008200080000809000
B0358393321692S14755661EA008370081700609000
B0358443321648S14755658EA008530083301209000
B0358493321621S14755712EA008730085201109000
B0358543321642S14755740EA008860086901009000
B0358593321611S14755729EA008930088101109000
B0359043321565S14755766EA009100089701109000
B0359093321580S14755803EA009120090201109000
B0359143321582S14755778EA009260090600709000
B0359193321550S14755765EA009410091602009000
B0359243321527S14755821EA009550093401109000
B0359293321554S14755837EA009680095500509000
B0359343321549S14755820EA009880097500709000
B0359393321507S14755842EA009950098801309000
B0359443321513S14755895EA010100100101009000
B0359493321539S14755908EA010290102200709000
B0359543321525S14755896EA010370103300709000
B0359593321479S14755915EA010440104101009000
B0400043321457S14755976EA010600105600709000
B0400093321472S14756012EA010770107400809000
B0400143321446S14756005EA010890108600909000
B0400193321400S14756042EA011050110200909000
B0400243321384S14756095EA011170111500909000
B0400293321411S14756116EA011220112200709000
B0400343321430S14756109EA011370113400409000
B0400393321423S14756093EA011490114500609000
B0400443321390S14756075EA011650115900509000
B0400493321350S14756107EA011760117301309000
B0400543321360S14756158EA011920119000909000
B0400593321382S14756165EA012100121100609000
B0401043321398S14756153EA012260122900509000
B0401093321374S14756141EA012420124501009000
B0401143321342S14756192EA012510126001109000
B0401193321331S14756256EA012690127600609000
B0401243321348S14756295EA012940129501009000
B0401293321332S14756280EA013110131601309000
B0401343321288S14756313EA013310133901209000
B0401393321289S14756375EA013460135800909000
B0401443321314S14756391EA013570137000509000
B0401493321331S14756375EA013690138300609000
B0401543321336S14756355EA013850139400509000
B0401593321309S14756344EA013940140701009000
B0402043321272S14756339EA014060141900509000
B0402093321229S14756364EA014230143501009000
B0402143321204S14756421EA014430145600709000
B0402193321221S14756447EA014590147300909000
B0402243321203S14756430EA014730148801009000
B0402293321166S14756468EA014940151101009000
B0402343321178S14756516EA015130153000809000
B0402393321195S14756513EA015320154900709000
B0402443321166S14756501EA015470156401109000
B0402493321123S14756540EA015740159100709000
B0402543321121S14756590EA015940161600909000
B0402593321138S14756588EA016160163801009000
B0403043321104S14756574EA016400166201209000
B0403093321061S14756596EA016620168700709000
B0403143321034S14756652EA016800170900709000
B0403193321037S14756713EA016950172400709000
B0403243321064S14756736EA017140174300609000
B0403293321079S14756721EA017300175800509000
B0403343321060S14756694EA017580177800609000
B0403393321023S14756702EA017780180501309000
B0403443321006S14756754EA017990183000809000
B0403493321024S14756785EA018190185200809000
B0403543321030S14756763EA018370187100809000
B0403593321009S14756736EA018560189100509000
B0404043320972S14756732EA018610189900909000
B0404093320934S14756768EA018640190300609000
F0404140205061219202529
B0404143320919S14756823EA018690190600608000
F040419020506121920242529
B0404193320913S14756887EA018890191500809000
B0404243320888S14756937EA019090193401009000
B0404293320846S14756924EA019240195000709000
B0404343320832S14756897EA019270196000809000
B0404393320853S14756901EA019230196000809000
B0404443320875S14756946EA019330196400809000
B0404493320887S14756992EA019490197600909000
B0404543320859S14757036EA019600198901309000
B0404593320815S14757018EA019680200000809000
B0405043320828S14757011EA019780201401309000
B0405093320825S14757073EA019900202701009000
B0405143320775S14757091EA019990204101009000
B0405193320756S14757069EA020060205001309000
B0405243320778S14757064EA020100205400909000
B0405293320795S14757110EA020160205900709000
B0405343320767S14757160EA020200206200709000
B0405393320721S14757168EA020270206800709000
B0405443320693S14757142EA020280207100709000
B0405493320706S14757127EA020260207000609000
B0405543320732S14757126EA020210206500509000
B0405593320761S14757142EA020240206400509000
B0406043320787S14757167EA020210206200509000
B0406093320792S14757211EA020130205700709000
B0406143320760S14757256EA020080204900909000
B0406193320714S14757274EA020150205100809000
B0406243320673S14757303EA020170205300509000
B0406293320646S14757350EA020210205900409000
B0406343320649S14757399EA020220206100609000
B0406393320671S14757425EA020190206100609000
B0406443320694S14757423EA020150206000509000
B0406493320702S14757397EA020160205900409000
B0406543320699S14757369EA020130205800509000
B0406593320670S14757347EA020050205200609000
B0407043320628S14757357EA019930203900809000
B0407093320593S14757401EA019860202900409000
B0407143320577S14757456EA019840202400509000
B0407193320560S14757513EA019840202200409000
B0407243320548S14757567EA019800202000309000
B0407293320549S14757622EA019770201800409000
B0407343320551S14757671EA019780201800509000
B0407393320573S14757704EA019690201000509000
B0407443320597S14757688EA019610200200609000
B0407493320588S14757655EA019530199400709000
B0407543320567S14757627EA019540199200609000
B0407593320541S14757605EA019520199000509000
B0408043320501S14757589EA019430198300609000
B0408093320460S14757570EA019300197600409000
B0408143320420S14757545EA019110196200609000
B0408193320377S14757530EA018900194000509000
B0408243320341S14757513EA018730191800409000
B0408293320305S14757496EA018670190400509000
B0408343320270S14757479EA018600189600409000
B0408393320236S14757467EA018560189000709000
B0408443320202S14757455EA018480188300409000
B0408493320174S14757439EA018430187700409000
B0408543320145S14757423EA018360187100309000
B0408593320114S14757411EA018300186500409000
B0409043320080S14757399EA018210185700509000
B0409093320045S14757390EA018120184600309000
B0409143320012S14757376EA018030183600309000
B0409193319984S14757358EA017940182800309000
B0409243319955S14757339EA017880182100509000
B0409293319921S14757318EA017810181500309000
B0409343319890S14757299EA017770180900309000
B0409393319859S14757280EA017710180300309000
B0409443319824S14757267EA017670179800509000
B0409493319790S14757251EA017640179500309000
B0409543319757S14757234EA017620179300409000
B0409593319723S14757217EA017540178700309000
B0410043319685S14757203EA017470177900409000
B0410093319640S14757189EA017310176400409000
B0410143319596S14757171EA017150174700409000
F0410190205061220242529
B0410193319557S14757147EA016990173000508000
B0410243319521S14757129EA016880171500808000
B0410293319479S14757116EA016730170000508000
B0410343319437S14757108EA016630168900508000
B0410393319395S14757100EA016530167900608000
B0410443319352S14757090EA016440167100508000
B0410493319309S14757079EA016360166300708000
B0410543319266S14757072EA016360165900708000
B0410593319224S14757064EA016290165500508000
B0411043319183S14757059EA016260165200608000
B0411093319148S14757049EA016210164700408000
B0411143319114S14757033EA016090163900508000
B0411193319076S14757018EA015970162700708000
B0411243319043S14757000EA015830161300608000
B0411293319013S14756976EA015690160000608000
B0411343318987S14756952EA015560158600508000
B0411393318964S14756933EA015470157500408000
B0411443318947S14756919EA015390156600608000
B0411493318920S14756909EA015310155600608000
B0411543318897S14756899EA015300155200508000
B0411593318878S14756888EA015230154600708000
B0412043318853S14756874EA015150154000708000
B0412093318829S14756860EA015130153600608000
B0412143318810S14756845EA015150153400608000
F041219020506122024252931
B0412193318788S14756830EA015140153400509000
B0412243318771S14756819EA015180153600509000
B0412293318751S14756804EA015290154200509000
B0412343318730S14756788EA015430155500609000
B0412393318713S14756769EA015480156500409000
B0412443318695S14756749EA015570157600709000
B0412493318674S14756735EA015670158600609000
B0412543318664S14756717EA015710159300409000
B0412593318659S14756700EA015770159900609000
B0413043318668S14756683EA015800160300909000
B0413093318681S14756678EA015820160800609000
B0413143318695S14756676EA015880161100709000
B0413193318710S14756675EA015960161600709000
B0413243318725S14756673EA016060162300609000
B0413293318740S14756671EA016150163000509000
B0413343318760S14756677EA016180163500509000
B0413393318773S14756724EA016210164000809000
B0413443318747S14756787EA016320165001009000
B0413493318707S14756843EA016520166600609000
B0413543318665S14756859EA016650168500709000
B0413593318665S14756837EA016740170101609000
B0414043318689S14756854EA016860171600609000
B0414093318702S14756909EA017020173100909000
B0414143318682S14756977EA017190174801009000
B0414193318635S14757000EA017360176601009000
B0414243318620S14756977EA017450178001109000
B0414293318644S14756985EA017580179201009000
B0414343318654S14757043EA017790181001109000
B0414393318618S14757093EA017870182201109000
B0414443318580S14757082EA018000183400709000
B0414493318572S14757062EA018100184201109000
B0414543318594S14757079EA018050184200909000
B0414593318600S14757144EA018260184901009000
B0415043318590S14757212EA018370185900809000
B0415093318549S14757260EA018510187600909000
B0415143318532S14757319EA018630189400609000
B0415193318553S14757349EA018720190700709000
B0415243318562S14757338EA018890192100809000
B0415293318548S14757317EA019080194000609000
B0415343318511S14757327EA019250195701209000
B0415393318509S14757388EA019400197600909000
B0415443318533S14757393EA019540198800909000
B0415493318513S14757380EA019710200301009000
B0415543318477S14757420EA019850202001409000
B0415593318487S14757471EA019980203600909000
B0416043318495S14757463EA020100205201009000
B0416093318450S14757475EA020210206300809000
B0416143318425S14757532EA020340207700809000
B0416193318434S14757590EA020470208900609000
B0416243318464S14757612EA020540209800509000
B0416293318485S14757615EA020680210900609000
B0416343318461S14757608EA020700211301109000
B0416393318416S14757606EA020780211800809000
B0416443318376S14757602EA020920212800709000
B0416493318335S14757591EA020900213500709000
B0416543318299S14757574EA020820213200609000
B0416593318268S14757559EA020710212100809000
B0417043318236S14757544EA020610210900709000
B0417093318205S14757529EA020530209900609000
B0417143318173S14757514EA020460209100409000
B0417193318145S14757498EA020370208300409000
B0417243318117S14757484EA020330207800509000
B0417293318089S14757470EA020310207500409000
B0417343318062S14757457EA020270207200309000
B0417393318036S14757439EA020230206700409000
F0417440205122024252931
B0417443318011S14757423EA020220206500508000
F041749020506122024252931
B0417493317984S14757409EA020180206200509000
B0417543317955S14757395EA020170206000509000
B0417593317926S14757379EA020130205700509000
B0418043317898S14757364EA020130205600409000
B0418093317872S14757346EA020080205300509000
B0418143317844S14757333EA020070204900409000
B0418193317813S14757323EA019930204100709000
B0418243317792S14757304EA019840203100409000
B0418293317773S14757286EA019790202300609000
B0418343317751S14757270EA019660201000409000
B0418393317728S14757255EA019500199300509000
B0418443317705S14757241EA019390197700409000
B0418493317680S14757232EA019260196400509000
B0418543317656S14757220EA019100194800409000
B0418593317632S14757207EA018970193300509000
B0419043317602S14757192EA018800191800509000
B0419093317572S14757180EA018710190600409000
B0419143317544S14757169EA018600189400509000
B0419193317518S14757162EA018530188600409000
B0419243317491S14757156EA018460187800509000
B0419293317465S14757147EA018400187300509000
B0419343317437S14757140EA018360186800609000
B0419393317409S14757133EA018320186400409000
B0419443317387S14757126EA018280186100409000
B0419493317358S14757119EA018190185400509000
B0419543317322S14757113EA018110184500609000
B0419593317285S14757109EA018040183700609000
B0420043317250S14757102EA017950182900609000
B0420093317220S14757096EA017900182300409000
B0420143317189S14757087EA017780181300509000
B0420193317152S14757080EA017670180200609000
B0420243317111S14757076EA017650179600609000
B0420293317071S14757076EA017700179700709000
B0420343317029S14757077EA017740180000509000
B0420393316992S14757072EA017740180200509000
B0420443316956S14757058EA017630179700709000
B0420493316921S14757044EA017540179000609000
B0420543316888S14757033EA017500178300509000
B0420593316855S14757024EA017420177500509000
B0421043316819S14757014EA017330176600609000
B0421093316782S14757003EA017310176000509000
B0421143316750S14756995EA017440176500709000
B0421193316719S14756988EA017570177900609000
B0421243316676S14756986EA017690179000509000
B0421293316636S14756980EA017750180300509000
B0421343316586S14756982EA017820181000609000
B0421393316536S14756997EA017860181500809000
B0421443316489S14757018EA017830181600409000
B0421493316441S14757024EA017890181800409000
B0421543316400S14757026EA018020182700509000
B0421593316356S14757029EA018170183900809000
B0422043316325S14757017EA018270185401209000
B0422093316347S14757011EA018360186701009000
B0422143316372S14757046EA018460187800809000
B0422193316364S14757110EA018530188700609000
B0422243316326S14757150EA018630189900809000
B0422293316293S14757148EA018680190600509000
B0422343316294S14757129EA018740191000909000
B0422393316320S14757131EA018800191400809000
B0422443316346S14757140EA018890191900409000
B0422493316371S14757152EA019000192800309000
B0422543316395S14757183EA019070193700509000
B0422593316398S14757250EA019160194800909000
B0423043316355S14757289EA019210195501109000
B0423093316328S14757265EA019270196200909000
B0423143316347S14757282EA019270196301309000
B0423193316320S14757341EA019300196500809000
B0423243316271S14757347EA019300196701009000
B0423293316223S14757352EA019350196900709000
B0423343316194S14757337EA019390197401109000
B0423393316215S14757336EA019400197500809000
B0423443316239S14757355EA019390197600609000
B0423493316260S14757372EA019430197700509000
B0423543316284S14757390EA019390197700409000
B0423593316308S14757410EA019390197700409000
B0424043316330S14757432EA019430197800409000
B0424093316352S14757451EA019390197600609000
B0424143316358S14757511EA019350197400909000
B0424193316315S14757558EA019350197101009000
B0424243316270S14757559EA019330196900809000
B0424293316259S14757543EA019300196800909000
B0424343316260S14757538EA019270196800609000
B0424393316269S14757532EA019260196700509000
B0424443316280S14757525EA019250196600609000
B0424493316288S14757518EA019290196600509000
B0424543316294S14757509EA019290196600509000
B0424593316301S14757492EA019250196400409000
B0425043316301S14757475EA019260196300609000
B0425093316273S14757465EA019300196500609000
B0425143316238S14757512EA019250196201109000
B0425193316238S14757580EA019340196700709000
B0425243316259S14757610EA019380197201109000
B0425293316248S14757602EA019360197100809000
B0425343316209S14757636EA019340196900709000
B0425393316200S14757699EA019400197300609000
B0425443316220S14757744EA019430197700709000
B0425493316246S14757769EA019390197700309000
B0425543316271S14757784EA019330197300509000
B0425593316296S14757806EA019250196600409000
B0426043316319S14757831EA019160195800309000
B0426093316342S14757860EA019080194800609000
B0426143316370S14757879EA019050194200409000
B0426193316395S14757909EA019040193900509000
B0426243316421S14757936EA019000193500609000
B0426293316448S14757951EA018950193300709000
B0426343316471S14757969EA018970193200509000
B0426393316497S14758002EA018950193000509000
B0426443316520S14758031EA018950193000409000
B0426493316543S14758057EA019060193300509000
B0426543316573S14758086EA019200194400409000
B0426593316598S14758097EA019350196000909000
B0427043316571S14758105EA019500197601009000
B0427093316535S14758164EA019600199400609000
B0427143316538S14758227EA019780201201109000
B0427193316557S14758234EA020010203701209000
B0427243316515S14758250EA020160206001409000
B0427293316508S14758319EA020320207700909000
B0427343316530S14758338EA020530209701009000
B0427393316495S14758341EA020690211301009000
B0427443316465S14758398EA020860213101009000
B0427493316486S14758443EA021000214701009000
B0427543316509S14758446EA021150216200809000
B0427593316531S14758446EA021310217700509000
B0428043316545S14758439EA021290218501109000
F04280902050612202124252931
B0428093316508S14758445EA021240218000910000
B0428143316485S14758513EA021210217200710000
B0428193316487S14758584EA021330217900510000
B0428243316507S14758647EA021470219200510000
B0428293316541S14758679EA021580220500710000
B0428343316570S14758686EA021670221500610000
B0428393316603S14758701EA021730222300710000
B0428443316634S14758712EA021730222400610000
B0428493316668S14758727EA021640222100410000
B0428543316701S14758761EA021640221800510000
B0428593316731S14758778EA021610221500710000
B0429043316760S14758792EA021620221200310000
B0429093316785S14758797EA021550220700710000
B0429143316806S14758795EA021460220000310000
B0429193316828S14758795EA021380219200410000
B0429243316847S14758792EA021270218000410000
B0429293316855S14758781EA021160216700310000
B0429343316859S14758771EA021090215800310000
B0429393316866S14758759EA020970214700310000
B0429443316877S14758750EA020860213600410000
B0429493316886S14758738EA020770212400510000
B0429543316890S14758720EA020670211300310000
B0429593316897S14758704EA020550210200310000
B0430043316910S14758693EA020430209000610000
B0430093316925S14758681EA020330207800410000
B0430143316933S14758664EA020230206700410000
B0430193316938S14758648EA020200206200510000
B0430243316946S14758632EA020190206000410000
B0430293316954S14758621EA020240206300410000
B0430343316957S14758606EA020240206400410000
F043039020512202124252931
B0430393316961S14758591EA020270206600409000
F04304402050612202124252931
B0430443316963S14758575EA020290206900310000
B0430493316958S14758557EA020350207300310000
B0430543316955S14758542EA020380207700210000
B0430593316968S14758528EA020410208100410000
B0431043316991S14758526EA020440208400610000
B0431093317021S14758534EA020410208400510000
B0431143317042S14758532EA020400208300310000
B0431193317059S14758521EA020400208200210000
B0431243317075S14758510EA020410208300410000
B0431293317091S14758495EA020440208400410000
B0431343317094S14758477EA020430208500310000
B0431393317084S14758455EA020400208400310000
B0431443317065S14758433EA020350208000310000
B0431493317047S14758412EA020320207700310000
B0431543317034S14758390EA020290207300310000
B0431593317021S14758366EA020320207200410000
B0432043317005S14758342EA020270206900310000
B0432093316987S14758322EA020210206600610000
B0432143316968S14758301EA020210206400410000
B0432193316948S14758281EA020190206200410000
B0432243316945S14758257EA020190206200410000
B0432293316958S14758239EA020160206000410000
B0432343316975S14758232EA020170205800610000
B0432393316987S14758222EA020130205600410000
B0432443317002S14758207EA020120205500310000
B0432493317021S14758203EA020110205300610000
B0432543317040S14758202EA020100205200510000
B0432593317060S14758200EA020110205300510000
B0433043317081S14758199EA020100205100510000
B0433093317101S14758194EA020100205200210000
B0433143317120S14758193EA020080205100410000
B0433193317143S14758201EA020090205100410000
B0433243317167S14758205EA020050204900710000
B0433293317182S14758199EA020030204700310000
B0433343317171S14758190EA019980204200510000
B0433393317135S14758192EA019980203900610000
B0433443317095S14758208EA019940203700510000
B0433493317055S14758226EA019950203700410000
B0433543317027S14758220EA019930203500310000
B0433593317013S14758204EA019930203500410000
B0434043317003S14758188EA019830203300610000
B0434093316979S14758182EA019670202100810000
B0434143316937S14758197EA019480200100510000
B0434193316894S14758208EA019470198800510000
B0434243316854S14758217EA019370197600610000
B0434293316812S14758232EA019320196600610000
B0434343316770S14758244EA019250195800410000
B0434393316725S14758258EA019150195000510000
B0434443316682S14758270EA019050194000510000
B0434493316638S14758278EA018950192900410000
B0434543316594S14758286EA018810191900310000
B0434593316550S14758295EA018750191200610000
B0435043316501S14758310EA018660190200610000
B0435093316455S14758325EA018590189500310000
B0435143316411S14758342EA018510188600610000
B0435193316370S14758363EA018400187500310000
B0435213316353S14758374EA018340187000510000
B0435223316344S14758381EA018310186700610000
E043523TPC
B0435233316335S14758388EA018280186400510000
B0435243316325S14758395EA018250186200310000
B0435253316317S14758401EA018230185800310000
B0435263316308S14758407EA018200185500310000
B0435273316299S14758413EA018180185200310000
B0435283316291S14758418EA018160185000610000
B0435293316282S14758422EA018140184700510000
B0435343316235S14758444EA018020183400310000
B0435393316182S14758476EA017980182500510000
B0435443316132S14758516EA018070183100510000
B0435493316088S14758553EA018100183600410000
B0435543316054S14758606EA018080183900310000
F043559020506122024252931
B0435593316034S14758673EA018120184400309000
F04360402050612202124252931
B0436043316008S14758740EA018140184800410000
B0436093315980S14758810EA018260185900410000
B0436143315952S14758882EA018380187100210000
B0436193315909S14758925EA018440187900610000
B0436243315875S14758922EA018460188100510000
B0436293315870S14758905EA018470188300410000
B0436343315883S14758899EA018530188500710000
B0436393315907S14758902EA018530188600710000
B0436443315928S14758900EA018630189200610000
B0436493315942S14758895EA018650189700310000
B0436543315955S14758893EA018620189700610000
B0436593315958S14758884EA018540189400610000
B0437043315940S14758868EA018460188800610000
B0437093315899S14758874EA018480188300610000
B0437143315854S14758906EA018400187600510000
B0437193315819S14758965EA018370187000410000
B0437243315803S14759032EA018440187300410000
B0437293315788S14759098EA018490187900410000
B0437343315773S14759167EA018550188700310000
B0437393315747S14759240EA018580189300310000
B0437443315726S14759317EA018640189800310000
B0437493315713S14759391EA018710190500410000
B0437543315689S14759464EA018800191300310000
B0437593315642S14759509EA018890192200610000
B0438043315596S14759520EA018980193200510000
B0438093315586S14759513EA019050194000910000
B0438143315601S14759569EA019150194800910000
B0438193315568S14759644EA019230195800910000
B0438243315521S14759659EA019280196500810000
B0438293315507S14759645EA019360197200710000
B0438343315517S14759654EA019430197700910000
B0438393315525S14759724EA019520198400610000
B0438443315489S14759784EA019610199401010000
B0438493315450S14759780EA019670200500610000
B0438543315462S14759786EA019750201200610000
B0438593315472S14759850EA019830202000610000
B0439043315437S14759917EA019920202901110000
B0439093315391S14759931EA020010204200610000
B0439143315396S14759933EA020040204801110000
B0439193315412S14759999EA020130205400510000
B0439243315403S14800076EA020200206100410000
B0439293315366S14800139EA020240206700510000
B0439343315319S14800156EA020230207000710000
B0439393315295S14800139EA020300207400810000
B0439443315287S14800128EA020330207700510000
B0439493315275S14800113EA020440208300710000
B0439543315261S14800097EA020500208900310000
B0439593315252S14800083EA020510209300410000
B0440043315239S14800072EA020500209400310000
B0440093315215S14800061EA020470209400410000
B0440143315178S14800047EA020470209200710000
B0440193315141S14800033EA020470209200410000
B0440243315105S14800014EA020460209000510000
B0440293315066S14759996EA020450208900410000
B0440343315026S14759974EA020430208800610000
B0440393314985S14759959EA020500209000410000
B0440443314944S14759946EA020440209000610000
B0440493314900S14759930EA020320208100710000
B0440543314861S14759913EA020250207200410000
B0440593314824S14759897EA020220206600710000
B0441043314791S14759890EA020190206200710000
B0441093314759S14759881EA020090205400410000
B0441143314728S14759868EA019990204500610000
B0441193314695S14759855EA019920203500610000
B0441243314659S14759845EA019820202600610000
B0441293314623S14759836EA019720201400410000
B0441343314586S14759826EA019570199800410000
B0441393314552S14759817EA019500198700410000
B0441443314522S14759812EA019420197800710000
B0441493314486S14759804EA019280196500510000
B0441543314452S14759793EA019190195400610000
B0441593314415S14759781EA019080194300410000
B0442043314380S14759770EA019000193300510000
B0442093314346S14759755EA018860192000310000
B0442143314310S14759735EA018740190800410000
B0442193314278S14759717EA018700190100410000
B0442243314248S14759702EA018600189300410000
B0442293314217S14759691EA018540188600310000
B0442343314184S14759678EA018410187800210000
B0442393314155S14759666EA018370187200310000
B0442443314123S14759654EA018240186300610000
B0442493314088S14759637EA018180185400310000
B0442543314057S14759623EA018120184500410000
B0442593314026S14759609EA018060183800410000
B0443043313997S14759594EA017940182900410000
B0443093313974S14759576EA017880182200310000
B0443143313955S14759559EA017790181300310000
B0443193313931S14759539EA017720180500410000
B0443243313910S14759517EA017680179800310000
B0443293313897S14759496EA017620179300410000
B0443343313877S14759471EA017550178700310000
B0443393313853S14759444EA017550178400310000
B0443443313831S14759423EA017640178800310000
B0443493313815S14759409EA017650179100310000
B0443543313790S14759394EA017650179300310000
B0443593313766S14759386EA017740179900310000
F044404020512202124252931
B0444043313742S14759385EA017830180700409000
F04440902050612202124252931
B0444093313706S14759390EA017910181900410000
B0444143313675S14759391EA017970182900310000
B0444193313646S14759390EA018020183400310000
B0444243313620S14759383EA018030183600410000
B0444293313596S14759375EA018000183600410000
B0444343313575S14759366EA018080184000510000
B0444393313562S14759357EA018150184900410000
B0444443313543S14759344EA018200185200410000
B0444493313523S14759329EA018260185600310000
B0444543313508S14759309EA018320186100410000
B0444593313502S14759290EA018390186900410000
B0445043313493S14759275EA018540188100410000
B0445093313458S14759294EA018660189501210000
B0445143313460S14759357EA018750190900710000
B0445193313484S14759370EA018900192400810000
B0445243313473S14759367EA019100194000610000
B0445293313446S14759413EA019220195500810000
B0445343313467S14759458EA019400197600710000
B0445393313466S14759455EA019590199400910000
B0445443313425S14759484EA019790201700810000
B0445493313431S14759540EA019960203700910000
B0445543313431S14759534EA020160205900910000
B0445593313390S14759559EA020340207900810000
B0446043313395S14759617EA020530209900810000
B0446093313408S14759621EA020720211701110000
B0446143313362S14759640EA020880213301210000
B0446193313356S14759703EA021070215200810000
B0446243313377S14759710EA021210216600910000
B0446293313345S14759703EA021420218400910000
B0446343313316S14759758EA021570220500910000
B0446393313340S14759787EA021690222101210000
B0446443313341S14759772EA021850223500710000
B0446493313318S14759756EA021980224800610000
B0446543313283S14759797EA022150226200910000
B0446593313308S14759826EA022300227600910000
B0447043313305S14759813EA022430229200510000
B0447093313267S14759821EA022450229400910000
B0447143313228S14759839EA022550230300410000
B0447193313195S14759829EA022560230800410000
B0447243313171S14759811EA022550230900410000
B0447293313145S14759793EA022500230600410000
F044734020506122021252931
B0447343313114S14759777EA022410229900409000
B0447393313081S14759762EA022380229400709000
B0447443313048S14759758EA022340228800409000
B0447493313015S14759752EA022290228300409000
B0447543312978S14759750EA022180227400809000
B0447593312940S14759747EA022130226800409000
B0448043312904S14759739EA022030226000409000
B0448093312869S14759727EA021930224800609000
B0448143312836S14759712EA021830223700509000
B0448193312801S14759700EA021710222400509000
B0448243312766S14759684EA021650221300609000
B0448293312734S14759672EA021570220500609000
B0448343312698S14759659EA021520219800609000
F0448390205122021252931
B0448393312666S14759652EA021490219600508000
B0448443312631S14759640EA021450219300608000
B0448493312600S14759626EA021410218900508000
B0448543312575S14759613EA021360218600608000
B0448593312555S14759602EA021310218200608000
B0449043312530S14759592EA021220217600608000
B0449093312501S14759583EA021180217000408000
B0449143312473S14759569EA021140216500608000
B0449193312440S14759554EA021110216100608000
B0449243312409S14759541EA021110215900608000
B0449293312379S14759526EA021040215400508000
B0449343312347S14759516EA021000214900608000
B0449393312316S14759507EA020940214300608000
B0449443312286S14759496EA020910213800408000
B0449493312258S14759485EA020880213500608000
B0449543312224S14759480EA020790212900608000
B0449593312185S14759469EA020710212100708000
B0450043312149S14759458EA020650211300608000
B0450093312112S14759449EA020550210400608000
B0450143312074S14759439EA020430209200608000
B0450193312036S14759428EA020370208300608000
B0450243312002S14759421EA020290207300608000
B0450293311968S14759416EA020200206200508000
B0450343311930S14759408EA020110205200608000
B0450393311891S14759402EA019980203900608000
B0450443311852S14759396EA019870202700608000
B0450493311818S14759387EA019800201700708000
B0450543311780S14759380EA019640200400708000
B0450593311733S14759370EA019520199000608000
B0451043311689S14759361EA019400197700608000
B0451093311650S14759357EA019390197000808000
B0451143311608S14759354EA019280196100608000
B0451193311567S14759348EA019180195100508000
B0451243311526S14759340EA019090194100608000
B0451293311487S14759333EA019020193300508000
B0451343311448S14759331EA018880192400608000
B0451393311405S14759326EA018750191300708000
B0451443311360S14759321EA018630190100708000
B0451493311317S14759313EA018550189000608000
B0451543311280S14759309EA018480188200608000
B0451593311244S14759304EA018390187300508000
B0452043311206S14759298EA018300186400508000
B0452093311168S14759295EA018250185700508000
B0452143311132S14759294EA018180185200508000
B0452193311096S14759292EA018120184500508000
B0452243311062S14759289EA018040183800508000
B0452293311028S14759286EA017960183100508000
B0452343310997S14759280EA017880182200608000
B0452393310970S14759270EA017790181300508000
B0452443310950S14759260EA017700180500608000
B0452493310933S14759245EA017610179600608000
B0452543310917S14759234EA017560179000508000
B0452593310895S14759223EA017430177800508000
B0453043310874S14759209EA017300176500708000
B0453093310854S14759192EA017160174900708000
B0453143310837S14759173EA017040173500608000
B0453193310819S14759157EA016970172600608000
B0453243310802S14759146EA016920172000608000
B0453293310785S14759131EA016770170800708000
B0453343310770S14759109EA016620169100608000
B0453393310762S14759094EA016530167900708000
B0453443310753S14759080EA016400166600608000
B0453493310742S14759063EA016260165100708000
B0453543310729S14759048EA016130163600708000
B0453593310712S14759034EA016070162600808000
B0454043310693S14759013EA015920161300708000
B0454093310677S14758994EA015840160300708000
B0454143310663S14758978EA015800159700608000
B0454193310648S14758969EA015720159100708000
B0454243310627S14758959EA015630158200608000
B0454293310607S14758949EA015590157700708000
B0454343310576S14758938EA015600157500708000
B0454393310546S14758932EA015570157400708000
B0454443310522S14758924EA015570157300608000
B0454493310496S14758917EA015550157400608000
B0454543310475S14758914EA015630157700908000
B0454593310452S14758912EA015670158000608000
B0455043310424S14758908EA015710158600808000
B0455093310398S14758906EA015700158800608000
B0455143310375S14758900EA015730159100608000
F04551902122021252931
B0455193310357S14758892EA015740159200607000
F0455240205122021252931
B0455243310334S14758886EA015750159400708000
B0455293310314S14758879EA015810159700708000
B0455343310298S14758867EA015840160100708000
B0455393310278S14758852EA015880160400708000
B0455443310263S14758839EA015960161100808000
B0455493310252S14758824EA016070162200808000
B0455543310248S14758807EA016140163100508000
B0455593310243S14758792EA016220164100708000
B0456043310237S14758776EA016380165200708000
B0456093310234S14758762EA016500166600708000
B0456143310226S14758746EA016540167500808000
B0456193310185S14758766EA016590168201208000
B0456243310150S14758821EA016760169200708000
B0456293310162S14758868EA016920170801208000
B0456343310153S14758860EA017090172301308000
B0456393310118S14758896EA017270174301108000
B0456443310135S14758940EA017370176401308000
B0456493310146S14758937EA017560178201208000
B0456543310110S14758968EA017690179701008000
B0456593310126S14759009EA017850181201108000
B0457043310122S14759005EA017960182701408000
B0457093310077S14759025EA018090184201108000
B0457143310059S14759082EA018210185600808000
B0457193310077S14759138EA018340187000508000
B0457243310100S14759167EA018500188300808000
B0457293310097S14759156EA018510188901508000
B0457343310075S14759144EA018560189400808000
B0457393310049S14759133EA018560189400808000
B0457443310020S14759123EA018610189600608000
B0457493309995S14759110EA018620189700708000
B0457543309966S14759098EA018670190000608000
B0457593309930S14759102EA018640190001208000
B0458043309920S14759163EA018560189601008000
B0458093309943S14759208EA018670189900808000
B0458143309969S14759233EA018740190500508000
B0458193309997S14759260EA018780191000608000
B0458243310026S14759279EA018780191300608000
B0458293310051S14759282EA018750191200508000
B0458343310076S14759286EA018690191000608000
B0458393310097S14759288EA018630190600708000
B0458443310113S14759291EA018600190400508000
B0458493310117S14759287EA018580190000908000
B0458543310100S14759285EA018510189601008000
B0458593310066S14759296EA018440189000808000
B0459043310027S14759314EA018340188000808000
B0459093309983S14759334EA018290187000708000
B0459143309942S14759357EA018280186500608000
B0459193309903S14759376EA018250186200408000
B0459243309866S14759389EA018230185800708000
B0459293309823S14759420EA018180185300708000
B0459343309781S14759440EA018190185100408000
B0459393309742S14759459EA018220185300408000
B0459443309701S14759481EA018250185600608000
B0459493309665S14759501EA018340186100608000
B0459543309627S14759529EA018420187000808000
B0459593309588S14759563EA018540188000408000
B0500043309565S14759620EA018660189300608000
B0500093309583S14759662EA018820190900908000
B0500143309581S14759654EA019000192601508000
B0500193309544S14759684EA019100194101108000
B0500243309565S14759742EA019230195501108000
B0500293309585S14759740EA019370197101408000
B0500343309552S14759746EA019500198501208000
B0500393309539S14759811EA019600199700908000
B0500443309564S14759851EA019690200801308000
B0500493309585S14759848EA019780201701108000
B0500543309572S14759834EA019890202900908000
B0500593309540S14759836EA019970203900908000
B0501043309505S14759840EA020040204800708000
B0501093309472S14759872EA020100205400708000
B0501143309476S14759932EA020140205800908000
B0501193309508S14759961EA020240206400808000
B0501243309519S14759953EA020330207301208000
B0501293309490S14759957EA020360208000908000
B0501343309451S14759979EA020420208600408000
B0501393309414S14800005EA020440209000708000
B0501443309374S14800025EA020450209300708000
B0501493309332S14800037EA020370208900508000
B0501543309292S14800043EA020390208500808000
B0501593309257S14800055EA020390208500608000
B0502043309218S14800062EA020320207900708000
B0502093309177S14800060EA020260207300708000
B0502143309133S14800055EA020250206800708000
B0502193309088S14800054EA020210206400708000
B0502243309044S14800050EA020170205900708000
B0502293309002S14800046EA020170205800708000
B0502343308959S14800045EA020110205500708000
B0502393308917S14800042EA020050205100508000
B0502443308873S14800035EA019990204400608000
B0502493308835S14800033EA019900203600708000
B0502543308791S14800029EA019710202100608000
B0502593308750S14800024EA019580200400708000
B0503043308710S14800024EA019450198800708000
B0503093308672S14800018EA019250196800708000
B0503143308628S14800014EA019060194600708000
B0503193308579S14800013EA018880192500608000
B0503243308529S14800015EA018700190600608000
B0503293308489S14800007EA018590188900708000
B0503343308451S14800010EA018460187600608000
B0503393308408S14800020EA018330186300608000
B0503443308365S14800028EA018190185000708000
B0503493308322S14800028EA018070183700508000
B0503543308279S14800024EA017980182700608000
B0503593308239S14800019EA017920182000608000
B0504043308199S14800011EA017900181800608000
B0504093308162S14800006EA017850181700708000
B0504143308126S14800004EA017810181500408000
B0504193308092S14800004EA017730180900608000
B0504243308056S14800006EA017710180300608000
B0504293308019S14800006EA017630179800508000
B0504343307980S14800011EA017560179200608000
B0504393307941S14800018EA017570178900608000
B0504443307904S14800026EA017590179000608000
B0504493307867S14800031EA017560178800608000
B0504543307828S14800033EA017570178800608000
B0504593307795S14800033EA017580178900608000
B0505043307761S14800031EA017540178700708000
B0505093307727S14800025EA017550178600608000
B0505143307695S14800018EA017460178100508000
B0505193307669S14800004EA017320177000608000
B0505243307632S14800012EA017260176300808000
B0505293307586S14800031EA017210175500608000
B0505343307538S14800042EA017180175000508000
B0505393307489S14800052EA017150174400608000
B0505443307438S14800064EA017160174200708000
B0505493307388S14800086EA017120174100708000
B0505543307337S14800102EA017110173900508000
B0505593307287S14800115EA017020173300808000
B0506043307237S14800125EA016960172600508000
B0506093307189S14800132EA016910172100608000
B0506143307144S14800137EA016840171500608000
B0506193307101S14800140EA016840171200608000
B0506243307058S14800145EA016760170700608000
B0506293307015S14800145EA016680170000608000
B0506343306974S14800144EA016570169000608000
B0506393306931S14800142EA016440167700608000
B0506443306888S14800139EA016360166600708000
B0506493306846S14800143EA016350166200608000
B0506543306805S14800150EA016360166200708000
B0506593306766S14800155EA016370166200608000
B0507043306724S14800157EA016320165800408000
B0507093306691S14800148EA016310165600608000
B0507143306660S14800135EA016280165300508000
B0507193306625S14800123EA016290165300608000
B0507243306591S14800109EA016280165200608000
B0507293306556S14800097EA016220165000608000
B0507343306525S14800091EA016220165000708000
B0507393306489S14800088EA016200164700608000
B0507443306456S14800083EA016180164400508000
B0507493306425S14800076EA016100163600508000
B0507543306388S14800067EA016000162800808000
B0507593306343S14800063EA015980162400708000
B0508043306296S14800059EA015900161900708000
B0508093306237S14800063EA015870161200808000
B0508143306184S14800070EA015860160800508000
B0508193306133S14800069EA015700159800608000
B0508243306085S14800064EA015570158500608000
B0508293306031S14800060EA015430157100508000
B0508343305984S14800056EA015360155800708000
B0508393305931S14800064EA015260154600608000
B0508443305875S14800073EA015130153200508000
B0508493305817S14800074EA015010152100808000
B0508543305758S14800076EA015030151500808000
B0508593305709S14800072EA015020151300808000
B0509043305660S14800080EA014930150900908000
B0509093305608S14800107EA014790150200808000
B0509143305561S14800129EA014660149100808000
B0509193305509S14800154EA014540147600608000
B0509243305457S14800177EA014510146800708000
B0509293305402S14800205EA014610146700608000
B0509343305352S14800230EA014660147100408000
B0509393305302S14800274EA014670147100908000
B0509443305258S14800314EA014790148101008000
B0509493305210S14800328EA014840149101508000
B0509543305178S14800312EA015010150601008000
B0509593305145S14800296EA015160152500908000
B0510043305109S14800346EA015290154101308000
B0510093305126S14800396EA015390155801308000
B0510143305127S14800387EA015430156201108000
B0510193305109S14800371EA015520157401108000
B0510243305070S14800367EA015570158100808000
B0510293305028S14800372EA015660158800808000
B0510343304982S14800388EA015730159500608000
B0510393304944S14800438EA015770160000808000
B0510443304935S14800509EA015800160400508000
B0510493304936S14800577EA015840161000708000
B0510543304952S14800630EA015870161500708000
B0510593304979S14800662EA015930162000708000
B0511043305000S14800673EA016040162700708000
B0511093304976S14800671EA016140163401208000
B0511143304944S14800724EA016180163901308000
B0511193304957S14800775EA016330164901308000
B0511243304950S14800772EA016440165801508000
B0511293304905S14800810EA016500166801208000
B0511343304902S14800881EA016670168101108000
B0511393304919S14800900EA016760169701308000
B0511443304889S14800891EA016870171001208000
B0511493304841S14800917EA016980172401208000
B0511543304816S14800983EA017100173700808000
B0511593304835S14801019EA017150174601508000
B0512043304852S14801007EA017290175200808000
B0512093304850S14801002EA017410176200908000
B0512143304806S14801025EA017540177401208000
B0512193304785S14801087EA017660178601208000
B0512243304807S14801108EA017760180201308000
B0512293304789S14801096EA017880181701008000
B0512343304750S14801125EA018020183101008000
B0512393304748S14801192EA018130184201308000
B0512443304776S14801213EA018180185001108000
B0512493304795S14801215EA018250185800808000
B0512543304788S14801211EA018270186101108000
B0512593304751S14801207EA018380187100908000
B0513043304715S14801207EA018450187800808000
B0513093304673S14801207EA018560188500708000
B0513143304630S14801210EA018660189500608000
B0513193304581S14801236EA018790190700708000
B0513243304571S14801296EA018800191401008000
B0513293304592S14801333EA018860191900808000
B0513343304615S14801343EA018950192401008000
B0513393304627S14801340EA019040193001208000
B0513443304595S14801340EA019200193701408000
B0513493304566S14801398EA019340195001208000
B0513543304585S14801437EA019440196701208000
B0513593304588S14801426EA019540198201108000
B0514043304563S14801412EA019720200600808000
B0514093304524S14801424EA019860202600708000
B0514143304477S14801477EA019940203900908000
B0514193304472S14801553EA020120205400808000
B0514243304493S14801593EA020220206701008000
B0514293304485S14801578EA020350207701208000
B0514343304440S14801615EA020500208901608000
B0514393304435S14801687EA020690210501408000
B0514443304459S14801707EA020790212401008000
B0514493304445S14801698EA020910213501508000
B0514543304404S14801703EA021090215400808000
B0514593304358S14801741EA021140216600908000
B0515043304345S14801815EA021230217501108000
B0515093304369S14801865EA021320218200908000
B0515143304394S14801902EA021410219100608000
B0515193304416S14801917EA021460219800808000
B0515243304424S14801911EA021530220100808000
B0515293304421S14801894EA021660220500708000
B0515343304409S14801875EA021820221700708000
B0515393304372S14801872EA021990223401008000
B0515443304340S14801935EA022160225401308000
B0515493304356S14801972EA022290227601308000
B0515543304322S14801964EA022440229501108000
B0515593304274S14802003EA022580231201508000
B0516043304260S14802078EA022710232400908000
B0516093304278S14802114EA022840233801108000
B0516143304276S14802103EA022920234501108000
B0516193304252S14802091EA023080236000808000
B0516243304219S14802094EA023040236201108000
B0516293304184S14802162EA022960235901008000
B0516343304176S14802245EA022970235601008000
B0516393304181S14802316EA023140236300708000
B0516443304198S14802366EA023200237100808000
B0516493304228S14802385EA023250237700708000
B0516543304256S14802411EA023350238700508000
B0516593304274S14802425EA023460239600708000
B0517043304255S14802421EA023510240500808000
B0517093304215S14802427EA023630241400708000
B0517143304183S14802425EA023660242100808000
B0517193304157S14802414EA023660242400708000
B0517243304125S14802399EA023620242300708000
B0517293304090S14802379EA023580241900508000
B0517343304056S14802360EA023530241500608000
B0517393304016S14802342EA023510241200708000
B0517443303975S14802330EA023600241500608000
B0517493303934S14802321EA023700242400608000
B0517543303888S14802323EA023750243000608000
B0517593303840S14802331EA023820243600508000
B0518043303790S14802339EA023880244400508000
B0518093303745S14802329EA023930245000708000
B0518143303705S14802310EA023970245400708000
B0518193303661S14802293EA023950245400508000
B0518243303619S14802269EA023950245400708000
B0518293303572S14802249EA023990245500608000
B0518343303528S14802232EA024090246100508000
B0518393303487S14802222EA023970246000508000
B0518443303437S14802221EA023860245300608000
B0518493303395S14802213EA023770244100708000
B0518543303353S14802209EA023630242700608000
B0518593303306S14802204EA023520241300508000
B0519043303261S14802191EA023440240200608000
B0519093303217S14802175EA023370239300608000
B0519143303174S14802158EA023280238400508000
B0519193303131S14802143EA023210237700608000
B0519243303084S14802135EA023160237200608000
B0519293303037S14802115EA023080236500608000
B0519343302995S14802092EA023030235900608000
B0519393302956S14802068EA023040235700708000
B0519443302919S14802053EA023090235901108000
B0519493302878S14802045EA023180236500808000
B0519543302834S14802033EA023200236900708000
B0519593302790S14802025EA023270237500608000
B0520043302742S14802023EA023290237900708000
B0520093302692S14802025EA023240237900508000
B0520143302646S14802024EA023230237800608000
B0520193302601S14802019EA023200237500508000
B0520243302554S14802011EA023110237000608000
B0520293302506S14801995EA023050236200608000
B0520343302462S14801983EA023000235700608000
B0520393302421S14801972EA022990235200708000
B0520443302375S14801970EA022950234900608000
B0520493302333S14801965EA022930234600508000
B0520543302293S14801958EA022860234300608000
B0520593302252S14801948EA022810233700608000
B0521043302212S14801942EA022790233300608000
B0521093302176S14801938EA022750233000508000
B0521143302137S14801927EA022630232200608000
B0521193302094S14801914EA022540231100608000
B0521243302052S14801902EA022470230100608000
B0521293302011S14801893EA022430229400608000
B0521343301969S14801886EA022380228800508000
B0521393301927S14801881EA022330228400608000
B0521443301890S14801876EA022280227900608000
B0521493301851S14801871EA022180227200708000
B0521543301811S14801863EA022110226500608000
B0521593301774S14801856EA022070225900608000
B0522043301735S14801854EA022000225300408000
B0522093301696S14801847EA021950224700508000
B0522143301661S14801836EA021910224100508000
B0522193301625S14801825EA021960224000608000
B0522243301591S14801824EA022010224500608000
B0522293301554S14801831EA022040224900608000
B0522343301518S14801838EA022030225000608000
B0522393301480S14801836EA021890224200708000
B0522443301444S14801835EA021890223800508000
B0522493301413S14801837EA021850223300608000
B0522543301378S14801837EA021740222400708000
B0522593301344S14801842EA021720222000708000
B0523043301310S14801845EA021590221100708000
B0523093301275S14801850EA021540220400608000
B0523143301248S14801847EA021440219600708000
B0523193301209S14801863EA021350218800808000
B0523243301165S14801888EA021370218500508000
B0523293301126S14801897EA021420218600708000
B0523343301084S14801912EA021480219400508000
B0523393301044S14801921EA021510219800608000
B0523443301005S14801927EA021540220000808000
B0523493300964S14801934EA021560220200608000
B0523543300925S14801936EA021620220600508000
B0523593300885S14801935EA021620220600508000
B0524043300845S14801932EA021640220800508000
B0524093300805S14801928EA021670221200408000
B0524143300768S14801922EA021740221800708000
B0524193300730S14801914EA021740222100508000
B0524243300691S14801910EA021760222500508000
B0524293300649S14801910EA021790222800408000
B0524343300609S14801905EA021800222900608000
B0524393300577S14801887EA021810223000608000
B0524443300547S14801869EA021880223300708000
B0524493300515S14801849EA021950223700508000
B0524543300487S14801830EA022050224800608000
B0524593300462S14801810EA022120225600508000
B0525043300434S14801792EA022160226100608000
B0525093300403S14801771EA022220226700608000
B0525143300375S14801753EA022290227300508000
B0525193300334S14801744EA022330227800508000
B0525243300291S14801735EA022420228400508000
B0525293300248S14801725EA022550229600508000
B0525343300209S14801713EA022700231400608000
B0525393300164S14801743EA022830232900908000
B0525443300185S14801778EA022930234201308000
B0525493300172S14801758EA023070235701408000
B0525543300123S14801786EA023120236601508000
B0525593300105S14801853EA023170237301308000
B0526043300124S14801898EA023290238001708000
B0526093300139S14801884EA023350238701208000
B0526143300126S14801859EA023460239500808000
B0526193300107S14801836EA023490240100408000
B0526243300091S14801810EA023460240100608000
B0526293300070S14801786EA023410239900608000
B0526343300050S14801765EA023380239600508000
B0526393300023S14801752EA023260238900508000
B0526443300006S14801729EA023130237800908000
B0526493259995S14801699EA023140236900708000
B0526543259979S14801675EA023020236000808000
B0526593259964S14801640EA022900234600508000
B0527043259948S14801604EA022790233400508000
B0527093259930S14801570EA022700232300708000
B0527143259903S14801536EA022630231300708000
B0527193259876S14801501EA022550230400708000
B0527243259852S14801478EA022510229900608000
B0527293259822S14801457EA022380229200608000
B0527343259791S14801435EA022310228200508000
B0527393259764S14801411EA022220227300608000
B0527443259738S14801387EA022120226300608000
B0527493259714S14801369EA022060225600608000
B0527543259690S14801347EA021970224700608000
B0527593259668S14801325EA021880223800508000
B0528043259647S14801302EA021790223000608000
B0528093259633S14801282EA021740222600508000
B0528143259621S14801265EA021690222200508000
B0528193259608S14801248EA021630221600308000
B0528243259592S14801234EA021550220900608000
B0528293259570S14801219EA021470220000408000
B0528343259549S14801205EA021370219200608000
B0528393259526S14801187EA021280218200608000
B0528443259513S14801171EA021200217400908000
B0528493259495S14801156EA021030215800908000
B0528543259474S14801142EA020860214100808000
B0528593259457S14801126EA020740212400708000
B0529043259445S14801110EA020610211000408000
B0529093259434S14801094EA020460209400608000
B0529143259417S14801079EA020320207900408000
B0529193259397S14801060EA020190206300508000
F052924020512152021252931
B0529243259385S14801039EA020060204800409000
B0529293259375S14801012EA019990203600609000
B0529343259355S14800984EA019920203000509000
B0529393259336S14800957EA019890202600609000
B0529443259313S14800931EA019790201900509000
B0529493259284S14800909EA019730201300409000
B0529543259257S14800885EA019690200900409000
B0529593259231S14800862EA019650200500409000
B0530043259207S14800838EA019610200200409000
B0530093259189S14800813EA019570199900509000
B0530143259174S14800789EA019610199800509000
B0530193259149S14800773EA019640200100509000
B0530243259120S14800752EA019750200900509000
B0530293259096S14800736EA019980203600609000
B0530343259070S14800719EA020130205700509000
B0530393259027S14800741EA020320207401009000
B0530443259002S14800803EA020360208600609000
B0530493259004S14800868EA020430209300709000
B0530543259023S14800925EA020580210600809000
B0530593259046S14800949EA020790211900509000
B0531043259019S14800956EA020980213701109000
B0531093259007S14801015EA021100215101009000
B0531143259032S14801024EA021270217001209000
B0531193259006S14801011EA021440219000909000
B0531243258965S14801041EA021580220801209000
B0531293258954S14801117EA021710222501009000
B0531343258970S14801170EA021860224100609000
B0531393258983S14801178EA021960225101009000
B0531443258974S14801159EA022040225800809000
B0531493258958S14801141EA022190227000709000
B0531543258930S14801132EA022360228500709000
B0531593258892S14801124EA022440229400609000
B0532043258877S14801101EA022550230600509000
B0532093258869S14801084EA022620231600509000
B0532143258847S14801074EA022590231900809000
B0532193258809S14801065EA022580231700609000
B0532243258771S14801052EA022570231500709000
B0532293258737S14801038EA022650231700509000
B0532343258699S14801027EA022740232400409000
B0532393258656S14801018EA022840233300509000
B0532443258615S14801012EA022980234800609000
B0532493258573S14801022EA023040235900709000
B0532543258550S14801005EA023090236600509000
B0532593258533S14800985EA023200237500609000
B0533043258526S14800965EA023350238800409000
B0533093258512S14800944EA023540240300509000
B0533143258497S14800922EA023590241600509000
B0533193258466S14800905EA023570242200309000
B0533243258427S14800903EA023640242600409000
B0533293258400S14800897EA023610242600609000
B0533343258382S14800887EA023580242300609000
B0533393258345S14800884EA023420241500509000
B0533443258310S14800878EA023370240600709000
B0533493258274S14800863EA023240238700809000
B0533543258242S14800849EA023160237400709000
B0533593258208S14800837EA023020236000609000
B0534043258169S14800821EA022870234400509000
B0534093258131S14800804EA022740233000509000
B0534143258096S14800788EA022650231800509000
B0534193258061S14800773EA022570230800509000
B0534243258024S14800761EA022490229900409000
B0534293257986S14800747EA022400228900509000
B0534343257952S14800730EA022320228200509000
B0534393257920S14800710EA022260227500509000
B0534443257890S14800692EA022210227000309000
B0534493257860S14800672EA022150226600409000
B0534543257831S14800652EA022080226100209000
B0534593257800S14800631EA022040225700309000
B0535043257769S14800611EA022020225400309000
B0535093257738S14800593EA021990225100309000
B0535143257705S14800576EA021950224700409000
B0535193257673S14800562EA021920224300509000
B0535243257641S14800545EA021870223800409000
B0535293257611S14800531EA021800223300509000
B0535343257580S14800519EA021700222400609000
B0535393257549S14800501EA021620221300509000
B0535443257522S14800482EA021530220400409000
B0535493257494S14800462EA021430219400309000
B0535543257466S14800440EA021330218300409000
B0535593257438S14800423EA021230217300509000
B0536043257407S14800401EA021070215700509000
B0536093257380S14800375EA020960214400309000
B0536143257351S14800353EA020840213100509000
B0536193257318S14800333EA020700211600409000
B0536243257280S14800316EA020560210000309000
B0536293257247S14800296EA020450208700409000
B0536343257217S14800276EA020330207400409000
B0536393257187S14800255EA020170205800409000
B0536443257156S14800229EA020060204400509000
B0536493257128S14800204EA019950203400509000
B0536543257101S14800180EA019870202500409000
B0536593257078S14800159EA019800201700409000
B0537043257054S14800139EA019710200700509000
B0537093257023S14800120EA019610199800409000
B0537143256991S14800101EA019560199100509000
B0537193256959S14800086EA019520198700509000
B0537243256927S14800072EA019460198100509000
B0537293256896S14800059EA019390197500509000
B0537343256864S14800045EA019280196600509000
B0537393256835S14800031EA019180195600509000
B0537443256804S14800020EA019030194200509000
B0537493256777S14800006EA018920192800409000
B0537543256749S14759993EA018810191700409000
B0537593256720S14759978EA018740190800409000
B0538043256689S14759962EA018670190100409000
B0538093256657S14759946EA018620189500509000
B0538143256625S14759929EA018500188500609000
B0538193256586S14759914EA018380187400609000
B0538243256554S14759899EA018280186300409000
B0538293256521S14759885EA018130184800509000
B0538343256486S14759871EA018050183700609000
B0538393256457S14759862EA018010183200309000
B0538443256434S14759852EA018000183200509000
B0538493256408S14759842EA017960182900509000
B0538543256388S14759828EA017990183000609000
B0538593256375S14759821EA018010183100509000
B0539043256360S14759812EA018010183100409000
B0539093256339S14759803EA017980183100509000
B0539143256291S14759819EA017920182600709000
B0539193256243S14759851EA017950182600809000
B0539243256196S14759873EA018000183100409000
B0539293256151S14759888EA018060183700609000
B0539343256105S14759907EA018070184000309000
B0539393256063S14759915EA018060184100509000
B0539443256032S14759901EA018090184200409000
B0539493256014S14759889EA018200185100509000
B0539543256005S14759873EA018280186100609000
B0539593256009S14759857EA018330186700409000
B0540043256016S14759846EA018370187200309000
B0540093256013S14759828EA018290187000609000
B0540143256010S14759821EA018220186700509000
B0540193256007S14759807EA018050185800609000
B0540243255998S14759795EA017920184600709000
B0540293255985S14759779EA017810182700609000
B0540343255975S14759771EA017700181300409000
B0540393255960S14759757EA017570179700509000
B0540443255944S14759738EA017490178300509000
F05404902051215182021252931
B0540493255932S14759719EA017420177300310000
B0540543255923S14759696EA017340176400410000
B0540593255916S14759676EA017240175700310000
B0541043255907S14759656EA017110174500410000
B0541093255896S14759635EA016920173000410000
B0541143255885S14759615EA016910172200310000
B0541193255875S14759595EA016850171500310000
B0541243255870S14759569EA016740170400610000
B0541293255866S14759544EA016670169500310000
B0541343255856S14759525EA016610168800310000
B0541393255846S14759508EA016480167900410000
B0541443255839S14759494EA016360166800510000
B0541493255823S14759462EA016330165600610000
F0541540205121518202125262931
B0541543255802S14759434EA016360165700411000
B0541593255784S14759408EA016370165900411000
B0542043255757S14759387EA016400166200311000
B0542093255732S14759367EA016410166500311000
B0542143255712S14759345EA016430166500311000
B0542193255695S14759325EA016420166500311000
B0542243255672S14759302EA016420166600311000
B0542293255651S14759284EA016430166700311000
B0542343255624S14759265EA016460166800211000
B0542393255594S14759249EA016400166500411000
B0542443255566S14759227EA016350165900311000
B0542493255536S14759211EA016260165400511000
B0542543255505S14759195EA016240164900311000
B0542593255476S14759184EA016230164600411000
B0543043255439S14759174EA016120163700411000
B0543093255407S14759160EA015940162300411000
B0543143255383S14759145EA015780160400311000
B0543193255356S14759132EA015570158200411000
B0543243255322S14759118EA015410156300311000
B0543293255277S14759105EA015270154600511000
B0543343255240S14759091EA015250153800411000
B0543393255206S14759077EA015190153500311000
B0543443255171S14759063EA015110152800511000
B0543493255141S14759048EA015030152000211000
B0543543255115S14759027EA014910150700311000
B0543593255090S14759008EA014850149900311000
B0544043255069S14758990EA014760149100311000
B0544093255052S14758971EA014640148100311000
B0544143255025S14758952EA014540147000211000
B0544193254994S14758941EA014480146200311000
B0544243254955S14758929EA014380145200511000
F054429020512131518202125262931
B0544293254919S14758916EA014310144400312000
B0544343254883S14758900EA014170143100412000
B0544393254849S14758882EA014100142000212000
B0544443254823S14758862EA013990140900412000
B0544493254792S14758838EA013820139200612000
B0544543254763S14758813EA013720138100312000
B0544593254735S14758791EA013630137200412000
B0545043254700S14758775EA013540136100512000
B0545093254662S14758759EA013430135000412000
B0545143254625S14758741EA013320134000412000
B0545193254595S14758719EA013240133100212000
B0545243254567S14758700EA013170132200212000
B0545293254542S14758681EA013080131400212000
B0545343254520S14758667EA013020130800212000
B0545393254501S14758651EA012900129700212000
B0545443254482S14758635EA012810128700312000
B0545493254459S14758620EA012730127800412000
B0545543254438S14758601EA012640126900212000
B0545593254421S14758582EA012570126100312000
B0546043254396S14758566EA012490125400312000
B0546093254370S14758548EA012390124400212000
B0546143254350S14758530EA012310123600212000
B0546193254337S14758507EA012270123100212000
B0546243254312S14758487EA012200122500512000
B0546293254287S14758467EA012150121900312000
B0546343254263S14758445EA012100121200212000
B0546393254239S14758423EA012020120500212000
B0546443254216S14758398EA011920119500212000
B0546493254198S14758377EA011870118900312000
B0546543254182S14758359EA011760118100212000
B0546593254166S14758340EA011650116900212000
B0547043254147S14758321EA011540115600212000
B0547093254127S14758300EA011390114000212000
B0547143254104S14758278EA011220112400212000
B0547193254086S14758260EA011140111300312000
B0547243254072S14758240EA011020110000212000
B0547293254055S14758219EA010890108700312000
B0547343254037S14758198EA010740107100212000
B0547393254019S14758173EA010610105500212000
B0547443253992S14758155EA010510104300312000
B0547493253955S14758146EA010410103300312000
B0547543253913S14758140EA010320102300312000
B0547593253872S14758137EA010220101300312000
F0548040512131518202125262931
B0548043253832S14758130EA010090100100511000
F054809020512131518202125262931
B0548093253797S14758113EA009950098600212000
B0548143253771S14758089EA009790097000412000
B0548193253748S14758062EA009690095800212000
B0548243253731S14758037EA009600094700212000
B0548293253716S14758007EA009470093400212000
B0548343253706S14757974EA009400092400212000
B0548393253699S14757945EA009260091300312000
B0548443253684S14757915EA009130089900312000
B0548493253650S14757892EA009010088500412000
B0548543253605S14757884EA008870086800312000
B0548593253551S14757880EA008690085100312000
B0549043253495S14757879EA008510083300412000
B0549093253442S14757868EA008470082000512000
B0549143253398S14757857EA008470081900712000
B0549193253351S14757855EA008390081500412000
B0549243253306S14757853EA008290080900312000
B0549293253259S14757853EA008200079900312000
B0549343253216S14757848EA008070078800312000
B0549393253175S14757839EA007980077900312000
B0549443253137S14757832EA007900077000212000
B0549493253097S14757834EA007790076000312000
B0549543253051S14757837EA007660074600312000
B0549593253003S14757848EA007560073300312000
B0550043252954S14757855EA007450072100312000
B0550093252904S14757864EA007410071200312000
B0550143252853S14757880EA007320070300212000
B0550193252801S14757897EA007250069600312000
B0550243252749S14757907EA007150068800412000
B0550293252699S14757911EA007110068100312000
B0550343252651S14757915EA007060067600312000
B0550393252603S14757920EA006990067100512000
B0550443252554S14757926EA006910066300312000
B0550493252505S14757934EA006820065500512000
B0550543252456S14757944EA006710064600412000
B0550593252405S14757953EA006620063600312000
B0551043252355S14757950EA006540062700312000
B0551093252304S14757950EA006440061700412000
B0551143252250S14757941EA006370060700412000
B0551193252202S14757933EA006310060000412000
B0551243252156S14757931EA006320059600412000
B0551293252110S14757938EA006300059500312000
B0551343252063S14757970EA006320059700412000
B0551393252019S14758007EA006320059900412000
B0551443251980S14758055EA006310060000312000
B0551493251943S14758101EA006260060000312000
B0551543251914S14758157EA006230059700312000
B0551593251890S14758208EA006210059400312000
B0552043251865S14758264EA006120058600412000
B0552093251830S14758318EA006060057900312000
B0552143251789S14758360EA006070057400212000
B0552193251744S14758396EA006030057100312000
B0552243251697S14758420EA005950056500412000
B0552293251651S14758432EA005860055700412000
B0552343251604S14758434EA005770055000412000
B0552393251558S14758443EA005760054400312000
B0552443251514S14758469EA005770054200412000
B0552493251467S14758481EA005720054100312000
B0552543251442S14758459EA005730053800312000
B0552593251434S14758438EA005650053400412000
B0553043251411S14758428EA005490052500512000
B0553093251364S14758461EA005280050500712000
B0553143251329S14758522EA005110048100412000
B0553193251295S14758577EA005070046600612000
B0553243251266S14758633EA005000045700412000
B0553293251228S14758680EA004960045200312000
B0553343251180S14758694EA004910044800512000
F0553390512131518202125262931
B0553393251156S14758667EA004790044300711000
F055344020512131518202125262931
B0553443251138S14758641EA004760043900612000
B0553493251087S14758659EA004670043100512000
B0553543251055S14758715EA004580041800712000
B0553593251037S14758780EA004470040700312000
B0554043251035S14758842EA004350039500412000
B0554093251048S14758896EA004270038300312000
B0554143251063S14758944EA004270037800412000
B0554193251076S14758989EA004300037800412000
B0554243251097S14759018EA004180037500412000
B0554293251119S14759045EA004060036600512000
B0554343251115S14759103EA004000035700512000
B0554393251089S14759157EA003890034700412000
B0554443251049S14759195EA003750033200412000
B0554493251001S14759206EA003630031500512000
B0554543250973S14759178EA003570030200612000
B0554593250981S14759149EA003500029500612000
B0555043250998S14759123EA003410028900412000
B0555093251004S14759092EA003370028300412000
B0555143251013S14759061EA003320027900312000
B0555193251020S14759031EA003280027400412000
B0555243251028S14759006EA003230027000412000
B0555293251034S14758997EA003240026800312000
B0555343251039S14759002EA003240026700312000
B0555393251039S14759001EA003230026700312000
B0555443251039S14759001EA003240026700312000
B0555493251041S14758999EA003230026700312000
B0555543251043S14758998EA003230026700212000
B0555593251045S14758995EA003230026700212000
B0556043251048S14758991EA003230026700212000
B0556093251051S14758989EA003230026700312000
B0556143251053S14758988EA003240026700212000
B0556193251055S14758985EA003230026700212000
B0556243251056S14758984EA003230026700312000
B0556293251056S14758984EA003240026700212000
B0556343251055S14758985EA003240026700212000
B0556393251055S14758985EA003230026700312000
B0556443251055S14758985EA003240026700312000
B0556493251055S14758985EA003240026700312000
GF1819F909B56DE79B6701AA4FD094F5383F29615C5A586D34C0997EDC41EF8E3
