AFLY00C6 0100750
HFDTE301217
HFFXA010
HFPLTPILOT:PETER_ BURKITT  
HFCM2CREW2:NKN
HFGTYGLIDERTYPE:RX5             
HFGIDGLIDERID:003             
HFDTM100GPSDATUM:WGS84
HFRFWFIRMWAREVERSION: 1.1.04 EN
HFRHWHARDWAREVERSION:1.00
HFFTYFRTYPE:Flytec ,Element
HFGPS:FASTRAX,IT430,48
HFPRSPRESSALTSENSOR:INTERSEMA,MS5401BM,12000
HFALGALTGPS:GEO
HFALPALTPRESSURE:ISA
HFTZNUTCOFFSET: 11.00h
I033638FXA3940SIU4143TAS
C301217001451301217010100
C3321372S14756016E TAKEOFF
C3321372S14756016E START  BMI023           00000000010000000000360000AREA
C3158788S14800210E FINISH TRANG            00000000010000000000360000AREA
C3158788S14800210E LANDING
F0336380205061219242529
B0336383321366S14756058EA002810023500608000
F0337080205061219242529
B0337083321366S14756058EA002820023500508000
F0337380205061219242529
B0337383321367S14756052EA002820023500508000
F0338080205061219242529
B0338083321368S14756052EA002820023500408000
F0338380205061219242529
B0338383321368S14756052EA002820023500408000
F033905020506121920242529
B0339053321368S14756052EA002830023500609000
F033935020506121920242529
B0339353321368S14756052EA002820023400309000
F034005020506121920242529
B0340053321368S14756052EA002820023400409000
F034035020506121920242529
B0340353321369S14756050EA002820023300409000
E034056STA
E034056ATS1007.2
LFLYA1 00239
B0340563321385S14756022EA002970023200609000
B0341013321404S14755988EA003140023600809000
B0341063321418S14755962EA003260024500809000
B0341113321435S14755945EA003430026200809000
B0341163321448S14755925EA003490027900809000
B0341213321460S14755905EA003610029200709000
B0341263321474S14755883EA003660030400609000
B0341313321488S14755865EA003760031700709000
B0341363321504S14755846EA003860032700609000
B0341413321522S14755828EA003910033500609000
B0341463321537S14755812EA003980034800709000
B0341513321553S14755793EA004090036000609000
B0341563321571S14755772EA004200037200509000
B0342013321586S14755748EA004350038400609000
B0342063321601S14755720EA004460039800709000
B0342113321612S14755695EA004570041300609000
B0342163321622S14755675EA004710042900409000
B0342213321630S14755650EA004790043900709000
B0342263321642S14755625EA004920044800509000
B0342313321655S14755597EA004990045800609000
B0342363321665S14755565EA005100046700509000
B0342413321676S14755533EA005200047700509000
B0342463321687S14755506EA005330049200609000
F0342510205061219202429
B0342513321703S14755481EA005430050400608000
F034256020506121920242529
B0342563321724S14755462EA005600051900509000
B0343013321750S14755451EA005790053400509000
B0343063321778S14755445EA005920054900609000
B0343113321805S14755438EA006020056500509000
B0343163321831S14755433EA006140057800509000
B0343213321861S14755433EA006290059200609000
B0343263321895S14755445EA006410060400509000
B0343313321932S14755464EA006460061100509000
B0343363321969S14755479EA006490061800609000
B0343413322011S14755496EA006510062100409000
B0343463322054S14755522EA006570062700509000
B0343513322095S14755554EA006690063300409000
B0343563322134S14755587EA006750064500509000
B0344013322175S14755620EA006830065300509000
B0344063322214S14755661EA006880066000509000
B0344113322250S14755712EA006960066600409000
B0344163322287S14755762EA007060067600509000
B0344213322322S14755819EA007190068800309000
B0344263322357S14755873EA007370070400509000
B0344313322385S14755922EA007620072800609000
B0344363322413S14755962EA007930076000609000
B0344413322442S14755997EA008180079500909000
B0344463322474S14756018EA008530083000709000
B0344513322510S14756042EA008790085800509000
B0344563322551S14756081EA008920087800509000
B0345013322582S14756137EA009090089400509000
B0345063322602S14756202EA009170090400509000
B0345113322608S14756276EA009280091500409000
B0345163322589S14756351EA009390092300809000
B0345213322549S14756416EA009510093300309000
B0345263322495S14756459EA009710094900509000
F0345310205061219242529
B0345313322442S14756473EA009870096700608000
F034536020506121920242529
B0345363322397S14756479EA009760097200709000
B0345413322379S14756454EA009760097100709000
B0345463322394S14756447EA009770096900409000
B0345513322412S14756475EA009820096900609000
B0345563322416S14756541EA009720096000309000
B0346013322396S14756606EA009710095800609000
B0346063322356S14756649EA009760096300309000
B0346113322313S14756651EA009840097500409000
B0346163322308S14756631EA009940098300309000
B0346213322329S14756646EA009970098500509000
B0346263322344S14756695EA009960098400409000
B0346313322351S14756755EA009930098200309000
B0346363322344S14756819EA009940098300409000
B0346413322325S14756880EA010020099200509000
B0346463322291S14756916EA010080099600309000
B0346513322267S14756899EA010110100300709000
B0346563322273S14756880EA010240102100409000
B0347013322298S14756893EA010280102400709000
B0347063322303S14756952EA010220101700909000
B0347113322275S14757011EA010240101700709000
B0347163322231S14757041EA010370103300409000
B0347213322198S14757030EA010500104700509000
B0347263322208S14757014EA010610105700609000
B0347313322237S14757046EA010620105800509000
B0347363322248S14757108EA010590105400409000
B0347413322254S14757175EA010700106300409000
B0347463322242S14757234EA010810107400809000
B0347513322201S14757253EA010900108800309000
B0347563322193S14757236EA011000110000809000
B0348013322214S14757239EA011110111000709000
B0348063322233S14757282EA011190111700709000
B0348113322230S14757346EA011280112500409000
B0348163322213S14757404EA011350113100709000
B0348213322171S14757439EA011310113000509000
B0348263322144S14757426EA011430114300709000
B0348313322154S14757411EA011500114800509000
B0348363322176S14757445EA011650115700709000
B0348413322155S14757503EA011650116001009000
B0348463322111S14757526EA011720116900409000
B0348513322087S14757514EA011820118100709000
B0348563322082S14757491EA011880118800409000
B0349013322103S14757493EA011970119600309000
B0349063322123S14757536EA012040120500509000
B0349113322113S14757600EA012100121200609000
B0349163322076S14757654EA012150121500509000
B0349213322031S14757661EA012230122600509000
B0349263322018S14757640EA012360123800909000
B0349313322039S14757637EA012450124800509000
B0349363322051S14757685EA012520125800509000
B0349413322019S14757740EA012560126400409000
B0349463321972S14757752EA012670127600309000
B0349513321945S14757736EA012800128900609000
B0349563321958S14757724EA012820129200609000
B0350013321982S14757760EA012890129500709000
B0350063321963S14757818EA012950130401109000
B0350113321917S14757825EA013050131400509000
B0350163321905S14757800EA013120132000909000
B0350213321921S14757793EA013150132200409000
B0350263321948S14757803EA013120132100409000
B0350313321978S14757827EA013090131600509000
B0350363321995S14757883EA013010130900409000
B0350413321995S14757946EA012970130500409000
B0350463321967S14758001EA012900129800709000
B0350513321920S14758008EA012850129100509000
B0350563321909S14757984EA012830128800409000
B0351013321924S14757978EA012730128300709000
B0351063321953S14758007EA012650127500609000
B0351113321955S14758068EA012530126000609000
B0351163321919S14758114EA012460124900609000
B0351213321871S14758118EA012350124100309000
B0351263321840S14758104EA012310123800609000
B0351313321816S14758088EA012260123300509000
B0351363321790S14758072EA012200122900309000
B0351413321765S14758053EA012150122400509000
B0351463321733S14758036EA012050121400609000
B0351513321700S14758024EA012000120700309000
B0351563321667S14758010EA011910119800309000
B0352013321639S14757984EA011890119400509000
B0352063321608S14757964EA011940119400309000
B0352113321576S14757943EA011970119700509000
B0352163321546S14757928EA012010120100309000
B0352213321515S14757915EA011980120000309000
B0352263321485S14757897EA011880119400409000
B0352313321452S14757888EA011830118700309000
B0352363321413S14757880EA011730117900309000
B0352413321375S14757872EA011660117100409000
B0352463321338S14757863EA011610116400309000
B0352513321296S14757851EA011480115500409000
B0352563321250S14757840EA011390114200309000
B0353013321208S14757828EA011320113200309000
B0353063321166S14757816EA011190112100309000
B0353113321130S14757798EA011070110800309000
B0353163321095S14757779EA010970109500309000
B0353213321058S14757758EA010840108100309000
B0353263321019S14757739EA010690106600309000
B0353313320980S14757726EA010590105300209000
B0353363320939S14757716EA010510104300409000
B0353413320903S14757705EA010430103300509000
B0353463320860S14757701EA010350102400309000
B0353513320815S14757712EA010320102100309000
F0353560205061220242529
B0353563320770S14757728EA010350102300408000
F035401020506121920242529
B0354013320724S14757750EA010410102900309000
B0354063320675S14757772EA010500104100309000
B0354113320636S14757764EA010560105100509000
B0354163320640S14757737EA010630105700709000
B0354213320665S14757760EA010740106900709000
B0354263320673S14757817EA010820107700309000
B0354313320647S14757877EA010870108500909000
B0354363320602S14757913EA011030110200609000
B0354413320574S14757901EA011110110900709000
B0354463320592S14757896EA011190111800609000
B0354513320623S14757940EA011340113600509000
B0354563320625S14758006EA011420114100709000
B0355013320613S14758077EA011460114300809000
B0355063320568S14758120EA011450114400609000
B0355113320539S14758101EA011510115000909000
B0355163320553S14758087EA011610116100609000
B0355213320575S14758126EA011730117200809000
B0355263320564S14758193EA011720117000709000
B0355313320515S14758226EA011720117000409000
B0355363320478S14758214EA011750117800709000
B0355413320462S14758189EA011810118300609000
B0355463320465S14758164EA011910119300509000
B0355513320489S14758163EA012000120100309000
B0355563320501S14758221EA012080120900309000
B0356013320461S14758269EA012070121000709000
B0356063320429S14758250EA012130121300709000
B0356113320433S14758220EA012230122400609000
B0356163320450S14758214EA012340123500409000
B0356213320469S14758265EA012380123900709000
B0356263320437S14758326EA012450124700809000
B0356313320394S14758327EA012500125400509000
B0356363320385S14758305EA012540125800609000
B0356413320407S14758309EA012620126600609000
B0356463320423S14758366EA012710127300509000
B0356513320393S14758435EA012760128000809000
B0356563320345S14758456EA012830128700309000
B0357013320316S14758444EA012860128800709000
B0357063320312S14758420EA012900129100709000
B0357113320333S14758415EA012940129700409000
B0357163320363S14758449EA013050130900609000
B0357213320358S14758520EA013160132001309000
B0357263320313S14758543EA013200132500509000
B0357313320295S14758525EA013230133100709000
B0357363320311S14758514EA013320134200309000
B0357413320337S14758540EA013470135400709000
B0357463320343S14758597EA013530135800409000
B0357513320311S14758654EA013530136200609000
B0357563320268S14758668EA013620137300409000
B0358013320252S14758649EA013690138000509000
B0358063320266S14758637EA013770138700509000
B0358113320289S14758671EA013820139200609000
B0358163320288S14758735EA013800138700709000
B0358213320260S14758796EA013770138600509000
B0358263320220S14758824EA013830139200309000
B0358313320182S14758820EA013840139400309000
B0358363320159S14758804EA013900140000609000
B0358413320164S14758784EA013950140400509000
B0358463320189S14758793EA013990141000709000
B0358513320205S14758846EA014000141400409000
B0358563320186S14758909EA013980140900809000
B0359013320138S14758938EA013920140500409000
B0359063320104S14758930EA013940140500409000
B0359113320073S14758918EA014020141400309000
B0359163320050S14758902EA014110142300509000
B0359213320057S14758887EA014180143000609000
B0359263320086S14758902EA014100142500909000
B0359313320112S14758957EA014140143100409000
B0359363320089S14759014EA014230143700509000
B0359413320048S14759021EA014270144400409000
B0359463320032S14759005EA014390145400609000
B0359513320053S14759003EA014300144800609000
B0359563320077S14759055EA014250144100809000
B0400013320069S14759122EA014320144300809000
B0400063320029S14759163EA014320144400409000
B0400113319993S14759167EA014350144700309000
B0400163319964S14759155EA014320144500609000
B0400213319929S14759146EA014240144000309000
B0400263319887S14759153EA014270144200509000
B0400313319845S14759154EA014290144200309000
B0400363319804S14759153EA014340144500309000
B0400413319768S14759144EA014320144700309000
B0400463319743S14759127EA014330144800609000
B0400513319729S14759104EA014320144700409000
B0400563319711S14759084EA014290144400609000
B0401013319681S14759068EA014210143700509000
B0401063319645S14759061EA014100142600409000
B0401113319610S14759056EA014000141400309000
B0401163319575S14759046EA013880140200209000
B0401213319540S14759039EA013790139100209000
B0401263319500S14759039EA013700138100309000
B0401313319457S14759044EA013630137300309000
B0401363319417S14759043EA013540136500309000
B0401413319369S14759047EA013460135700309000
B0401463319318S14759060EA013390134900309000
B0401513319267S14759073EA013310134000309000
B0401563319220S14759081EA013240133100309000
B0402013319173S14759082EA013120132200309000
B0402063319131S14759085EA013050131100309000
B0402113319088S14759090EA012900129600309000
B0402163319040S14759096EA012700127900309000
B0402213318994S14759103EA012560126400309000
F0402260205061220242529
B0402263318948S14759107EA012430124900408000
F040231020506121920242529
B0402313318897S14759110EA012270123100309000
B0402363318850S14759118EA012120121200309000
B0402413318803S14759125EA011930119200309000
B0402463318751S14759142EA011810117700509000
B0402513318701S14759147EA011630116000309000
B0402563318650S14759163EA011610115200409000
B0403013318595S14759185EA011510114300409000
B0403063318544S14759204EA011490113900509000
B0403113318494S14759216EA011520114200309000
B0403163318445S14759237EA011560114900409000
B0403213318397S14759264EA011560115400409000
B0403263318351S14759288EA011570115700309000
B0403313318302S14759313EA011480115100509000
B0403363318251S14759348EA011350113900409000
B0403413318204S14759367EA011230112700309000
B0403463318155S14759387EA011090110800509000
B0403513318106S14759398EA010950109200309000
B0403563318067S14759395EA010900108200609000
B0404013318031S14759394EA010870107800309000
B0404063317994S14759392EA010840107700309000
B0404113317953S14759392EA010760107100309000
B0404163317907S14759393EA010680106500309000
B0404213317857S14759404EA010670106300209000
B0404263317813S14759414EA010630105900309000
B0404313317767S14759420EA010510105000409000
B0404363317722S14759438EA010470104200309000
B0404413317676S14759443EA010360103200309000
B0404463317635S14759445EA010370102800309000
B0404513317603S14759437EA010330102300309000
B0404563317575S14759428EA010340102300309000
B0405013317543S14759418EA010240101800309000
B0405063317507S14759414EA010170101100309000
B0405113317466S14759411EA010050099900209000
B0405163317431S14759407EA010010099300309000
B0405213317394S14759398EA009880098400309000
B0405263317355S14759393EA009870097900309000
B0405313317318S14759389EA009870097700209000
B0405363317279S14759394EA009850097400309000
B0405413317241S14759397EA009780096900209000
B0405463317204S14759398EA009770096600309000
B0405513317164S14759404EA009740096300309000
B0405563317118S14759417EA009670095800309000
B0406013317074S14759432EA009650095400209000
B0406063317028S14759448EA009610095100309000
B0406113316978S14759464EA009540094600309000
B0406163316931S14759482EA009510094000309000
B0406213316886S14759494EA009470093500309000
B0406263316838S14759504EA009370092800309000
B0406273316830S14759505EA009370092800309000
E040628TPC
B0406283316821S14759507EA009370092700309000
B0406293316812S14759508EA009360092500309000
B0406303316803S14759509EA009340092400309000
B0406313316793S14759509EA009310092100309000
B0406323316783S14759510EA009290091900309000
B0406333316773S14759510EA009270091800309000
B0406363316746S14759514EA009250091400409000
B0406413316698S14759517EA009090089900509000
B0406463316647S14759551EA008970088400609000
B0406513316606S14759594EA008920087600409000
B0406563316562S14759634EA008830086600509000
B0407013316513S14759667EA008700085300709000
B0407063316462S14759699EA008530083500509000
B0407113316410S14759728EA008320081500309000
B0407163316360S14759750EA008200079800309000
B0407213316308S14759772EA008110078600409000
B0407263316258S14759801EA008030077800309000
B0407313316207S14759826EA007980077300409000
B0407363316156S14759859EA007900076900409000
B0407413316108S14759898EA007870076300409000
B0407463316057S14759937EA007750075300509000
B0407513316008S14759967EA007660074300409000
B0407563315956S14759998EA007540073000409000
B0408013315904S14800025EA007370071300309000
B0408063315851S14800043EA007180069500309000
B0408113315799S14800050EA007090068100309000
B0408163315743S14800061EA006980066800409000
B0408213315690S14800073EA006910065500309000
B0408263315638S14800076EA006800064600309000
B0408313315586S14800064EA006640063800309000
B0408363315538S14800057EA006570063200309000
B0408413315489S14800047EA006530062700309000
B0408463315447S14800036EA006490062200609000
B0408513315412S14800019EA006460062100509000
B0408563315384S14759994EA006330061000409000
B0409013315345S14759974EA006300060400309000
B0409063315321S14759949EA006160058900409000
B0409113315297S14759922EA006060057500409000
B0409163315262S14759891EA005920056400709000
B0409213315232S14759869EA005920056000309000
B0409263315214S14759845EA005860055700709000
B0409313315193S14759827EA005830055300509000
B0409363315171S14759805EA005850054900409000
B0409413315165S14759786EA005830054800709000
B0409463315185S14759810EA005790054300709000
B0409513315194S14759873EA005700053600409000
B0409563315167S14759937EA005690052900909000
B0410013315119S14759943EA005600052700509000
B0410063315109S14759924EA005650053101009000
B0410113315129S14759941EA005630052800609000
B0410163315135S14800005EA005550052000409000
B0410213315117S14800069EA005540051700709000
F0410260205061220242529
B0410263315074S14800113EA005500051300508000
B0410313315029S14800128EA005480051300608000
B0410363315000S14800113EA005430050700708000
B0410413314971S14800097EA005410050700408000
B0410463314938S14800083EA005360050500708000
B0410513314903S14800072EA005370050400308000
B0410563314881S14800043EA005370050200508000
B0411013314872S14800017EA005410050300408000
B0411063314870S14759993EA005530050800708000
B0411113314880S14759980EA005670051800808000
B0411163314886S14800034EA005790053001108000
B0411213314840S14800062EA005840054001008000
B0411263314821S14800036EA005970056101208000
B0411313314838S14800052EA006040057300708000
B0411363314825S14800112EA006120057901008000
B0411413314779S14800123EA006230058700908000
B0411463314767S14800097EA006300059700908000
B0411513314788S14800107EA006320059900708000
B0411563314800S14800157EA006340060100508000
B0412013314779S14800223EA006420061000608000
B0412063314732S14800236EA006520062100808000
B0412113314731S14800221EA006600062900808000
B0412163314742S14800268EA006680063600808000
B0412213314710S14800326EA006760064000808000
B0412263314673S14800314EA006870065501108000
B0412313314681S14800306EA006940066500708000
B0412363314693S14800350EA007000067300708000
F041241020506122024252931
B0412413314667S14800409EA007090068300509000
B0412463314624S14800410EA007170069000809000
B0412513314629S14800400EA007280069900509000
B0412563314642S14800449EA007320070700509000
B0413013314618S14800506EA007440072100309000
B0413063314575S14800512EA007520073201009000
B0413113314563S14800482EA007560073300809000
B0413163314586S14800501EA007580073300809000
B0413213314600S14800558EA007610074000609000
B0413263314575S14800612EA007750075101109000
B0413313314543S14800598EA007810075800909000
B0413363314561S14800593EA007920076600709000
B0413413314584S14800630EA007940077000609000
B0413463314582S14800701EA007950077100409000
B0413513314552S14800761EA008050078000609000
B0413563314503S14800765EA008060078400709000
B0414013314483S14800741EA008180079700709000
B0414063314497S14800739EA008270080500709000
B0414113314506S14800797EA008330081300509000
B0414163314468S14800836EA008460082200809000
B0414213314438S14800825EA008560083400809000
B0414263314441S14800809EA008620084100809000
B0414313314462S14800846EA008600084500809000
B0414363314452S14800910EA008660085100309000
B0414413314412S14800955EA008780085700409000
B0414463314363S14800965EA008840086400409000
B0414513314341S14800941EA008930087800509000
B0414563314348S14800929EA009020088900509000
F0415010205061220242529
B0415013314361S14800972EA008960088500708000
F041506020506122024252931
B0415063314332S14801026EA009040089000909000
B0415113314288S14801027EA009150089900609000
B0415163314277S14800999EA009180090300709000
B0415213314296S14801013EA009130090100809000
B0415263314300S14801073EA009100090000409000
B0415313314293S14801142EA009170090400309000
B0415363314286S14801203EA009280091000509000
B0415413314241S14801231EA009250091000609000
B0415463314218S14801201EA009270091401009000
B0415513314221S14801183EA009390092300509000
B0415563314235S14801225EA009460093200809000
B0416013314205S14801273EA009550093800609000
B0416063314163S14801265EA009610094800609000
B0416113314162S14801244EA009690095300709000
B0416163314184S14801264EA009660095501009000
B0416213314208S14801305EA009710096200909000
B0416263314226S14801346EA009740096200509000
B0416313314214S14801408EA009800096600409000
B0416363314170S14801429EA009830096801009000
B0416413314147S14801406EA009800096900709000
B0416463314154S14801389EA009860097300409000
B0416513314172S14801377EA009730097000609000
B0416563314194S14801380EA009670096400609000
B0417013314224S14801389EA009490095200709000
B0417063314245S14801393EA009560095100609000
B0417113314262S14801389EA009640095400409000
B0417163314281S14801408EA009730096300409000
B0417213314277S14801463EA009850097200509000
B0417263314233S14801486EA009880097700609000
B0417313314224S14801468EA009980098401009000
B0417363314246S14801490EA010070099500709000
B0417413314240S14801548EA010090099900409000
B0417463314200S14801596EA010110100100809000
B0417513314148S14801614EA010160100900509000
B0417563314116S14801602EA010210101300809000
B0418013314119S14801585EA010260101500509000
B0418063314139S14801591EA010250101500509000
B0418113314159S14801623EA010220101100709000
B0418163314153S14801686EA010250100900809000
B0418213314108S14801731EA010270101400409000
B0418263314066S14801727EA010310102000709000
B0418313314052S14801706EA010350102500309000
B0418363314067S14801700EA010300102200509000
B0418413314095S14801717EA010270101800409000
B0418463314123S14801751EA010210101500509000
B0418513314152S14801772EA010170101000509000
B0418563314167S14801765EA010230101200709000
B0419013314170S14801746EA010300101800409000
B0419063314165S14801727EA010400103000409000
B0419113314162S14801706EA010530104400409000
B0419163314160S14801684EA010660106000509000
B0419213314166S14801670EA010760107300509000
B0419263314189S14801698EA010790107800909000
B0419313314170S14801765EA010810107600609000
B0419363314124S14801782EA010940108700609000
B0419413314104S14801761EA011020110000809000
B0419463314117S14801750EA011060110200709000
B0419513314141S14801791EA011080110800609000
B0419563314129S14801853EA011120111100409000
B0420013314084S14801895EA011200112000509000
B0420063314048S14801887EA011290112900609000
B0420113314036S14801865EA011370113600609000
B0420163314050S14801857EA011410113900309000
B0420213314073S14801889EA011410114200509000
B0420263314082S14801944EA011460114600409000
B0420313314085S14802005EA011500114900509000
B0420363314065S14802063EA011560115400409000
B0420413314018S14802083EA011640116200609000
B0420463313998S14802056EA011680116600709000
B0420513314010S14802050EA011730117000509000
B0420563314025S14802091EA011730117100609000
B0421013314007S14802154EA011800117900809000
B0421063313963S14802192EA011880118600309000
B0421113313920S14802185EA011930119300809000
B0421163313916S14802166EA012020120100709000
B0421213313935S14802184EA012080120500809000
F0421260205061220242529
B0421263313937S14802245EA012100121100708000
F042131020506122024252931
B0421313313911S14802306EA012170121800409000
B0421363313861S14802320EA012230122800609000
B0421413313847S14802298EA012310123700409000
B0421463313864S14802294EA012360124000509000
B0421513313887S14802327EA012440125000609000
B0421563313878S14802391EA012510125600509000
B0422013313830S14802413EA012570126200709000
B0422063313805S14802392EA012660127200709000
B0422113313813S14802375EA012740127600409000
B0422163313842S14802385EA012750128200409000
B0422213313850S14802439EA012810128800409000
B0422263313817S14802494EA012810128600409000
B0422313313765S14802504EA012840129200709000
B0422363313728S14802499EA012960130200609000
B0422413313719S14802477EA013000130900509000
B0422463313738S14802466EA013050131200609000
B0422513313765S14802466EA013060131300509000
B0422563313791S14802504EA013050131300509000
B0423013313786S14802566EA012990130600409000
B0423063313745S14802617EA012970130300709000
B0423113313696S14802638EA013010130800309000
B0423163313654S14802641EA013080131500409000
B0423213313617S14802631EA013120132000409000
B0423263313585S14802616EA013150132200509000
B0423313313553S14802594EA013070131300509000
B0423363313515S14802584EA012940130000509000
B0423413313481S14802570EA012830128800309000
B0423463313437S14802560EA012770128000509000
B0423513313392S14802560EA012660127100409000
B0423563313350S14802558EA012560126000409000
B0424013313302S14802558EA012450124900609000
B0424063313260S14802567EA012400124200409000
B0424113313223S14802561EA012320123500509000
B0424163313193S14802543EA012260122800409000
B0424213313159S14802524EA012170121900609000
B0424263313126S14802508EA012110121300309000
B0424313313097S14802485EA012020120400509000
B0424363313059S14802473EA011950119800309000
B0424413313011S14802472EA011870119000409000
B0424463312957S14802475EA011720117900509000
B0424513312902S14802500EA011660116800309000
B0424563312851S14802524EA011640116200409000
B0425013312796S14802541EA011530115400309000
B0425063312744S14802573EA011480114600509000
B0425113312698S14802603EA011440114100409000
B0425163312649S14802624EA011290112800509000
B0425213312595S14802654EA011170111900609000
B0425263312547S14802679EA011090110900409000
B0425313312501S14802714EA010990109600409000
B0425363312455S14802757EA010900108500409000
B0425413312405S14802784EA010760107300409000
B0425463312354S14802807EA010650106000409000
B0425513312298S14802830EA010520104700509000
B0425563312254S14802860EA010470103900409000
B0426013312205S14802886EA010340102700509000
B0426063312153S14802900EA010280101900509000
B0426113312102S14802914EA010230101300309000
B0426163312052S14802920EA010150100600309000
B0426213312003S14802924EA010050099700309000
B0426263311952S14802928EA009950098600409000
B0426313311899S14802940EA009830097300409000
B0426363311842S14802957EA009700095900409000
B0426413311790S14802969EA009650095100309000
B0426463311747S14802975EA009570094200409000
B0426513311692S14802982EA009400092600309000
B0426563311642S14802989EA009330091800609000
B0427013311598S14802988EA009190090300609000
B0427063311556S14802993EA009050088800309000
B0427113311505S14803007EA008860087100409000
B0427163311461S14803020EA008740085500409000
B0427213311409S14803032EA008550083900309000
B0427263311354S14803055EA008390082100309000
B0427313311303S14803083EA008210080300409000
B0427363311251S14803110EA008120078900509000
B0427413311194S14803123EA007980077700509000
B0427463311152S14803127EA007980077600909000
B0427513311110S14803118EA007960077400409000
B0427563311072S14803112EA007950077300509000
B0428013311056S14803087EA007860076900709000
B0428063311065S14803084EA007770076100809000
F04281102050612202124252931
B0428113311077S14803138EA007610074000410000
B0428163311051S14803205EA007490072700310000
B0428213311012S14803261EA007470072300510000
B0428263310967S14803302EA007400071600610000
B0428313310919S14803335EA007350070700410000
B0428363310866S14803366EA007290070000510000
B0428413310824S14803409EA007230069400410000
B0428463310775S14803448EA007120068600410000
B0428513310727S14803476EA007040067700410000
B0428563310673S14803502EA006900066700410000
B0429013310623S14803527EA006810065500410000
B0429063310567S14803549EA006720064500310000
B0429113310508S14803570EA006690064000410000
B0429163310455S14803589EA006610063600610000
B0429213310402S14803608EA006520062800410000
B0429263310350S14803635EA006420061600510000
B0429313310297S14803670EA006350060800410000
B0429363310242S14803698EA006260059900510000
B0429413310184S14803721EA006180059000410000
B0429463310128S14803744EA006060058000310000
B0429513310079S14803762EA006000057000410000
B0429563310028S14803778EA005960056100410000
B0430013309983S14803794EA005920055500410000
B0430063309940S14803797EA005900055700610000
B0430113309904S14803789EA005880055600310000
B0430163309881S14803767EA005850055500510000
B0430213309870S14803743EA005830055200510000
B0430263309853S14803728EA005830055100210000
B0430313309823S14803716EA005760054500310000
B0430363309781S14803722EA005750054200210000
B0430413309740S14803728EA005730054000210000
B0430463309701S14803729EA005730053900210000
B0430513309667S14803722EA005710053800210000
B0430563309631S14803718EA005670053500310000
B0431013309588S14803720EA005600053000310000
B0431063309544S14803718EA005520052100510000
B0431113309501S14803722EA005500051600510000
B0431163309456S14803729EA005460051300310000
B0431213309409S14803739EA005340050600310000
B0431263309360S14803749EA005260049600310000
B0431313309312S14803762EA005210048800310000
B0431363309266S14803775EA005140048200310000
B0431413309221S14803790EA005080047700210000
B0431463309175S14803801EA005030047000410000
B0431513309123S14803815EA004930045900410000
B0431563309077S14803837EA004930045300310000
B0432013309031S14803851EA004870044600410000
B0432063308984S14803854EA004770043800310000
B0432113308935S14803857EA004690043000310000
B0432163308880S14803869EA004570041900310000
B0432213308827S14803880EA004520041100410000
B0432263308777S14803889EA004450040300410000
B0432313308720S14803908EA004380039500310000
B0432363308663S14803923EA004290038500410000
B0432413308605S14803934EA004170037400510000
B0432463308543S14803950EA004050036200410000
B0432513308480S14803976EA003910034700310000
B0432563308421S14804017EA003840033500610000
B0433013308380S14804067EA003880033400610000
B0433063308348S14804117EA003950034200310000
B0433113308320S14804176EA003900034300310000
B0433163308314S14804230EA003910034300310000
B0433213308335S14804267EA003790033200310000
B0433263308347S14804255EA003780033000710000
B0433313308309S14804236EA003660032200810000
B0433363308256S14804273EA003610031100410000
B0433413308210S14804277EA003590030700810000
B0433463308206S14804235EA003460029500710000
B0433513308229S14804212EA003340028200410000
B0433563308252S14804184EA003250027100510000
B0434013308268S14804171EA003230026500410000
B0434063308272S14804170EA003210026400410000
B0434113308273S14804170EA003220026400410000
B0434163308273S14804170EA003210026400310000
B0434213308273S14804170EA003220026400310000
B0434263308273S14804170EA003210026400410000
B0434313308274S14804170EA003220026400410000
B0434363308277S14804171EA003220026400310000
B0434413308280S14804173EA003220026300310000
B0434463308282S14804175EA003220026400510000
B0434513308285S14804176EA003220026500310000
B0434563308288S14804178EA003220026500410000
B0435013308291S14804179EA003230026600210000
B0435063308293S14804181EA003230026700210000
B0435113308296S14804183EA003230026700310000
B0435163308299S14804183EA003230026600210000
B0435213308302S14804183EA003230026700210000
B0435263308305S14804186EA003230026600210000
B0435313308308S14804188EA003240026600210000
B0435363308311S14804188EA003240026600210000
B0435413308315S14804189EA003240026600210000
B0435463308317S14804191EA003240026600310000
B0435513308318S14804192EA003240026600310000
B0435563308320S14804194EA003240026600310000
B0436013308322S14804196EA003240026700510000
B0436063308323S14804199EA003240026600210000
B0436113308327S14804198EA003240026700310000
B0436163308329S14804198EA003230026600210000
B0436213308329S14804198EA003230026700210000
B0436263308329S14804198EA003230026700310000
B0436313308329S14804198EA003230026700310000
B0436363308329S14804198EA003230026700210000
B0436413308329S14804198EA003230026700310000
B0436463308329S14804198EA003230026700310000
B0436513308329S14804198EA003230026700310000
B0436563308329S14804198EA003230026700210000
B0437013308329S14804198EA003230026700210000
B0437063308329S14804198EA003230026700310000
B0437113308329S14804198EA003230026700310000
B0437163308329S14804198EA003230026700410000
B0437213308329S14804198EA003230026700410000
G6B1C18AE795AAA9A7947F07EE59184B211DC15628804CFDA6B9E19576DE2699F
