AFLY0Qvo 0103528
HFDTE301217
HFFXA010
HFPLTPILOT:TONY            
HFCM2CREW2:NKN
HFGTYGLIDERTYPE:RXMoyes         
HFGIDGLIDERID:NKN             
HFDTM100GPSDATUM:WGS84
HFRFWFIRMWAREVERSION: 1.04.17
HFRHWHARDWAREVERSION:1.00
HFFTYFRTYPE:Flytec Element Track
HFGPS:FASTRAX,IT430,48
HFPRSPRESSALTSENSOR:INTERSEMA,MS5401BM,12000
HFALGALTGPS:GEO
HFALPALTPRESSURE:ISA
HFTZNUTCOFFSET: 11.00h
I033638FXA3940SIU4143TAS
C301217000527301217004700
C3321372S14756016E TAKEOFF
C3321372S14756016E START  BMI023           00000000010000000000360000AREA
C3158788S14800210E FINISH TRANG            00000000010000000000360000AREA
C3158788S14800210E LANDING
F0308320205061219242529
B0308323321343S14756031EA002670022800708000
F0309020205061219242529
B0309023321343S14756031EA002670022800508000
F0309320205061219242529
B0309323321345S14756031EA002670022900408000
F0310020205061219242529
B0310023321345S14756031EA002670022900408000
F0310320205061219242529
B0310323321345S14756031EA002680022900508000
F0311020205061219242529
B0311023321347S14756030EA002680022800608000
F0311320205061219242529
B0311323321349S14756029EA002680022900508000
F0312020205061219242529
B0312023321349S14756029EA002680022900408000
F0312320205061219242529
B0312323321349S14756029EA002680022900408000
E031303STA
E031303ATS1008.6
LFLYA1 00228
B0313033321367S14756013EA002700022800808000
B0313043321372S14756009EA002740022900808000
B0313053321377S14756004EA002760022900808000
B0313063321382S14755998EA002770023001008000
B0313073321387S14755993EA002810023100808000
B0313083321393S14755987EA002840023300908000
B0313093321398S14755981EA002890023500708000
B0313103321403S14755974EA002910023700908000
B0313113321408S14755968EA002940024000808000
B0313123321412S14755963EA002970024400808000
B0313133321417S14755958EA002970024700808000
B0313143321422S14755953EA003000025000808000
B0313153321426S14755947EA003040025300908000
B0313163321431S14755941EA003060025700808000
B0313173321436S14755935EA003090026000808000
B0313183321441S14755928EA003110026400708000
B0313193321446S14755922EA003140026700708000
B0313203321450S14755915EA003150027000708000
B0313213321454S14755909EA003140027100708000
B0313223321459S14755901EA003140027400708000
B0313233321463S14755894EA003160027800908000
B0313243321467S14755888EA003180028000908000
B0313253321472S14755882EA003180028200908000
B0313263321476S14755876EA003190028500608000
B0313273321479S14755870EA003230028700608000
B0313283321483S14755865EA003260029000608000
B0313293321486S14755859EA003300029200608000
B0313303321489S14755854EA003340029500608000
B0313313321492S14755848EA003350029800708000
B0313323321495S14755843EA003370030000908000
B0313333321498S14755837EA003390030200808000
B0313343321501S14755831EA003410030500608000
B0313353321503S14755825EA003450030700608000
B0313363321505S14755819EA003460031000808000
B0313373321507S14755814EA003500031400808000
B0313383321509S14755808EA003530031800808000
B0313393321511S14755803EA003590032100708000
B0313403321513S14755797EA003620032500608000
B0313413321514S14755791EA003640032800908000
B0313423321516S14755785EA003680033200708000
B0313433321519S14755780EA003700033500608000
B0313443321520S14755774EA003740033900708000
B0313453321523S14755768EA003770034200708000
B0313463321525S14755762EA003800034500608000
B0313473321527S14755756EA003830034800708000
B0313483321529S14755751EA003850035100608000
B0313493321532S14755745EA003890035500708000
B0313503321535S14755740EA003920035900608000
B0313513321538S14755735EA003940036200708000
B0313523321542S14755731EA003950036500808000
B0313533321546S14755726EA003940036600908000
B0313543321550S14755722EA003960036800908000
B0313553321554S14755718EA003980037000808000
B0313563321558S14755714EA004000037200808000
B0313573321562S14755710EA004020037400708000
B0313583321567S14755707EA004050037500708000
B0313593321571S14755703EA004080037700608000
B0314003321577S14755699EA004090038000608000
B0314013321582S14755695EA004090038100808000
B0314023321588S14755691EA004100038100808000
B0314033321593S14755688EA004100038300808000
B0314043321599S14755685EA004130038500708000
B0314053321604S14755683EA004150038700808000
B0314063321609S14755680EA004200038900708000
B0314073321614S14755678EA004240039200808000
B0314083321619S14755676EA004270039600908000
B0314093321624S14755674EA004300039801008000
B0314103321630S14755672EA004330040001008000
B0314113321636S14755670EA004340040200808000
B0314123321641S14755668EA004350040200908000
B0314133321646S14755666EA004360040400908000
B0314143321652S14755664EA004370040600708000
B0314153321657S14755662EA004360040700808000
B0314163321663S14755660EA004340040700708000
B0314173321669S14755658EA004340040800908000
B0314183321674S14755656EA004330040900808000
B0314193321679S14755655EA004340041000808000
B0314203321685S14755653EA004350041000808000
B0314213321690S14755652EA004340040900908000
B0314223321695S14755651EA004330040801008000
B0314233321700S14755650EA004330040700908000
B0314243321706S14755648EA004330040600708000
B0314253321711S14755646EA004300040600708000
B0314263321716S14755644EA004300040500908000
B0314273321721S14755643EA004300040500608000
B0314283321727S14755643EA004320040500808000
B0314293321733S14755642EA004310040500808000
B0314303321739S14755642EA004310040400908000
B0314313321745S14755641EA004340040500708000
B0314323321751S14755641EA004350040500808000
B0314333321758S14755640EA004350040500908000
B0314343321764S14755640EA004340040400908000
B0314353321771S14755639EA004300040300908000
B0314363321778S14755638EA004310040400908000
B0314373321786S14755637EA004330040400808000
B0314383321793S14755636EA004310040400708000
B0314393321799S14755636EA004320040400808000
B0314403321805S14755635EA004360040401008000
B0314413321811S14755636EA004390040501008000
B0314423321818S14755637EA004410040701108000
B0314433321824S14755638EA004450040801008000
B0314443321831S14755640EA004490041000808000
B0314453321837S14755642EA004520041200908000
B0314463321844S14755644EA004550041400608000
B0314473321851S14755645EA004580041700708000
B0314483321859S14755646EA004600042000708000
B0314493321867S14755647EA004620042300708000
B0314503321874S14755647EA004620042600708000
B0314513321882S14755648EA004640042900708000
B0314523321888S14755648EA004690043200708000
B0314533321895S14755649EA004720043600808000
B0314543321902S14755650EA004770044000808000
B0314553321908S14755650EA004810044400708000
B0314563321915S14755651EA004850044700708000
B0314573321922S14755652EA004880045100708000
B0314583321930S14755652EA004900045400708000
B0314593321938S14755652EA004920045700808000
B0315003321947S14755652EA004930045900708000
B0315013321954S14755651EA004940046100708000
B0315023321962S14755649EA004940046300708000
B0315033321969S14755648EA004950046500808000
B0315043321976S14755646EA004960046600708000
B0315053321983S14755643EA004950046701008000
B0315063321989S14755641EA004960046801008000
B0315073321995S14755638EA004970046900908000
B0315083322001S14755636EA004980047101008000
B0315093322007S14755633EA005000047300808000
B0315103322012S14755630EA005030047500808000
B0315113322017S14755627EA005040047700908000
B0315123322022S14755624EA005060047900808000
B0315133322027S14755621EA005090048201008000
B0315143322033S14755618EA005120048400808000
B0315153322038S14755615EA005140048600708000
B0315163322044S14755611EA005170048800708000
B0315173322050S14755607EA005190049000708000
B0315183322056S14755603EA005210049200708000
B0315193322062S14755599EA005220049400708000
B0315203322068S14755595EA005230049600708000
B0315213322074S14755591EA005250049900708000
B0315223322080S14755588EA005290050200808000
B0315233322087S14755585EA005310050500708000
B0315243322094S14755583EA005340050800808000
B0315253322101S14755581EA005380051200808000
B0315263322108S14755580EA005420051600808000
B0315273322115S14755580EA005480051900708000
B0315283322122S14755580EA005530052401008000
B0315293322129S14755581EA005610052901008000
B0315303322138S14755582EA005670053501108000
B0315313322146S14755584EA005730054200908000
B0315323322155S14755587EA005810055001008000
B0315333322163S14755590EA005870055801008000
B0315343322171S14755595EA005930056500808000
B0315353322179S14755600EA005980057201108000
B0315363322187S14755606EA006030057801008000
B0315373322194S14755612EA006100058501008000
B0315383322201S14755618EA006150059200908000
B0315393322207S14755625EA006210059800708000
B0315403322213S14755633EA006240060400908000
B0315413322218S14755641EA006270061000908000
F03154202061219242529
B0315423322222S14755650EA006290061601007000
F0315430205061219242529
B0315433322226S14755659EA006310062000808000
F03154402061219242529
B0315443322229S14755669EA006310062300907000
F0315450205061219242529
B0315453322230S14755680EA006310062400908000
B0315463322229S14755691EA006290062301008000
B0315473322227S14755703EA006270062001208000
B0315483322224S14755716EA006260061801008000
B0315493322221S14755728EA006250061601008000
B0315503322217S14755740EA006240061300908000
F03155102061219242529
B0315513322213S14755753EA006220061100907000
B0315523322208S14755765EA006210060901007000
F0315530205061219242529
B0315533322201S14755776EA006200060700108000
B0315543322193S14755785EA006190060600108000
F03155502061219242529
B0315553322184S14755793EA006180060500907000
F0315560205061219242529
B0315563322174S14755798EA006170060300808000
B0315573322164S14755800EA006160060200608000
B0315583322154S14755800EA006150060100608000
B0315593322146S14755798EA006150060000808000
B0316003322139S14755793EA006160060000908000
B0316013322134S14755787EA006180060100808000
B0316023322130S14755782EA006200060301108000
B0316033322126S14755777EA006220060300908000
B0316043322122S14755770EA006230060401008000
B0316053322119S14755763EA006240060400808000
B0316063322117S14755756EA006250060600708000
B0316073322114S14755750EA006280060700808000
B0316083322111S14755744EA006320061101008000
B0316093322106S14755739EA006370061400708000
B0316103322100S14755735EA006410061800608000
B0316113322092S14755732EA006450062100708000
B0316123322084S14755732EA006490062500708000
B0316133322074S14755733EA006540062900808000
B0316143322065S14755736EA006580063301008000
B0316153322056S14755742EA006630063901108000
B0316163322049S14755751EA006670064401108000
B0316173322043S14755761EA006720064901108000
B0316183322038S14755772EA006760065401008000
B0316193322035S14755782EA006790065900708000
B0316203322035S14755793EA006830066200808000
B0316213322037S14755804EA006850066500708000
B0316223322041S14755812EA006880066900708000
B0316233322046S14755818EA006920067301008000
B0316243322052S14755822EA006950067800808000
B0316253322059S14755823EA007010068400908000
B0316263322064S14755822EA007060069001008000
B0316273322067S14755818EA007110069600908000
B0316283322069S14755813EA007160070201008000
B0316293322068S14755806EA007230070800908000
B0316303322067S14755800EA007280071400808000
B0316313322065S14755795EA007330072100908000
B0316323322062S14755789EA007400072600808000
B0316333322058S14755784EA007440073200808000
B0316343322052S14755779EA007480073600808000
B0316353322045S14755775EA007520074100808000
B0316363322036S14755774EA007550074600708000
B0316373322027S14755775EA007590075101008000
B0316383322018S14755779EA007630075601108000
B0316393322009S14755787EA007670075900808000
B0316403322003S14755797EA007700076300708000
B0316413321998S14755808EA007740076600808000
B0316423321996S14755820EA007770076900708000
B0316433321995S14755831EA007810077200908000
B0316443321997S14755842EA007840077600908000
B0316453321999S14755852EA007880078000808000
B0316463322003S14755860EA007910078300708000
B0316473322008S14755867EA007940078700708000
B0316483322013S14755872EA007970079000708000
B0316493322019S14755876EA008000079400608000
B0316503322025S14755877EA008040079900708000
B0316513322031S14755877EA008080080400508000
B0316523322035S14755874EA008130081000708000
B0316533322037S14755870EA008180081500508000
B0316543322037S14755864EA008230081900508000
B0316553322032S14755860EA008270082100708000
B0316563322024S14755858EA008320082400808000
B0316573322015S14755859EA008360082701008000
B0316583322005S14755865EA008400083101208000
B0316593321995S14755873EA008430083401108000
B0317003321989S14755885EA008450083701108000
B0317013321984S14755898EA008480084200808000
B0317023321982S14755911EA008520084700908000
B0317033321981S14755923EA008560085100708000
B0317043321982S14755934EA008600085500908000
B0317053321985S14755945EA008640085900908000
B0317063321989S14755956EA008680086401008000
B0317073321994S14755965EA008750087001008000
B0317083321998S14755973EA008810087700908000
B0317093322003S14755979EA008870088400808000
B0317103322008S14755984EA008930088900708000
B0317113322014S14755986EA008970089500808000
B0317123322019S14755985EA009010090000908000
B0317133322023S14755982EA009050090400808000
B0317143322023S14755976EA009090090900908000
B0317153322020S14755970EA009120091300908000
B0317163322015S14755965EA009160091600708000
B0317173322008S14755960EA009190091900908000
B0317183321999S14755959EA009230092300908000
B0317193321990S14755960EA009270092700908000
B0317203321980S14755964EA009310093001108000
B0317213321971S14755971EA009340093301108000
B0317223321963S14755981EA009370093701208000
B0317233321956S14755994EA009390094001208000
B0317243321952S14756008EA009430094301108000
B0317253321949S14756022EA009470094801108000
B0317263321948S14756035EA009530095401008000
B0317273321947S14756047EA009600096200908000
B0317283321948S14756058EA009660096901008000
B0317293321949S14756068EA009720097300908000
B0317303321953S14756074EA009750097601308000
B0317313321959S14756078EA009760097801308000
B0317323321966S14756078EA009780098001108000
B0317333321972S14756076EA009840098301208000
B0317343321976S14756073EA009870098801208000
B0317353321977S14756068EA009930099401208000
B0317363321977S14756062EA009980100000908000
B0317373321974S14756057EA010020100300808000
B0317383321970S14756052EA010050100601008000
B0317393321964S14756048EA010080100901008000
B0317403321956S14756045EA010110101301008000
B0317413321947S14756044EA010140101601008000
B0317423321938S14756046EA010170101901008000
B0317433321928S14756049EA010200102300808000
B0317443321919S14756055EA010230102600808000
B0317453321911S14756064EA010250102900908000
B0317463321904S14756074EA010280103200808000
B0317473321898S14756085EA010310103400908000
B0317483321894S14756098EA010330103700808000
B0317493321891S14756111EA010360104000708000
B0317503321889S14756123EA010400104400808000
B0317513321887S14756135EA010440104801008000
B0317523321886S14756147EA010490105200808000
B0317533321886S14756158EA010520105500708000
B0317543321886S14756170EA010540105800708000
B0317553321887S14756180EA010550105900708000
B0317563321891S14756189EA010560106200708000
B0317573321896S14756197EA010580106500508000
B0317583321902S14756202EA010610106800608000
B0317593321907S14756205EA010640107100708000
B0318003321913S14756206EA010660107300508000
B0318013321918S14756205EA010680107500508000
B0318023321922S14756203EA010720107800708000
B0318033321924S14756200EA010750108201008000
B0318043321925S14756195EA010810108601008000
B0318053321923S14756191EA010860109000808000
B0318063321919S14756186EA010890109300608000
B0318073321911S14756185EA010910109600608000
B0318083321901S14756186EA010920109800808000
B0318093321891S14756191EA010940110100808000
B0318103321882S14756201EA010970110501208000
B0318113321876S14756214EA011000110901208000
B0318123321872S14756228EA011050111400908000
B0318133321871S14756241EA011090111600808000
B0318143321871S14756253EA011110111901108000
B0318153321874S14756265EA011140112201108000
B0318163321878S14756275EA011160112501008000
B0318173321882S14756284EA011190112800908000
B0318183321887S14756292EA011200113000708000
B0318193321893S14756298EA011200113001008000
B0318203321900S14756303EA011200113100708000
B0318213321906S14756305EA011200113300808000
B0318223321911S14756306EA011240113600908000
B0318233321916S14756304EA011300113900808000
B0318243321918S14756301EA011320114000508000
B0318253321918S14756297EA011330114100708000
B0318263321914S14756293EA011350114301008000
B0318273321906S14756289EA011370114501008000
B0318283321899S14756287EA011400114701208000
B0318293321890S14756290EA011440114901108000
B0318303321881S14756298EA011470115001208000
B0318313321876S14756313EA011490115301508000
B0318323321875S14756327EA011510115501208000
B0318333321877S14756341EA011540116001208000
B0318343321882S14756352EA011570116501308000
B0318353321888S14756361EA011600116901108000
B0318363321894S14756369EA011630117101108000
B0318373321901S14756374EA011640117200908000
B0318383321907S14756376EA011640117300808000
B0318393321913S14756377EA011660117400808000
B0318403321918S14756378EA011670117500908000
B0318413321922S14756377EA011660117500608000
B0318423321925S14756374EA011610117400908000
B0318433321923S14756368EA011570117301108000
B0318443321916S14756362EA011520117101208000
B0318453321906S14756356EA011500117101308000
B0318463321896S14756354EA011510117001108000
B0318473321886S14756355EA011530117101008000
B0318483321876S14756358EA011580117201008000
B0318493321867S14756362EA011610117300708000
B0318503321859S14756367EA011640117400908000
B0318513321850S14756376EA011660117500908000
B0318523321842S14756387EA011660117600908000
B0318533321836S14756399EA011670117801108000
B0318543321830S14756411EA011690118000908000
B0318553321825S14756423EA011720118400908000
B0318563321821S14756435EA011750118600808000
B0318573321819S14756447EA011770118800708000
B0318583321820S14756459EA011780118800908000
B0318593321822S14756471EA011770118700808000
B0319003321828S14756480EA011760118600908000
B0319013321835S14756487EA011750118501008000
B0319023321841S14756490EA011740118400908000
B0319033321847S14756488EA011730118400808000
B0319043321851S14756484EA011730118400808000
B0319053321853S14756478EA011730118400708000
B0319063321852S14756472EA011740118500708000
B0319073321849S14756466EA011740118600708000
B0319083321844S14756461EA011750118600808000
B0319093321837S14756458EA011780118700808000
B0319103321829S14756456EA011810118900708000
B0319113321821S14756455EA011840119100708000
B0319123321812S14756456EA011860119400708000
B0319133321803S14756457EA011880119600708000
B0319143321794S14756459EA011910119900708000
B0319153321785S14756463EA011930120100608000
B0319163321776S14756468EA011930120200608000
B0319173321767S14756475EA011930120300708000
B0319183321760S14756485EA011920120300808000
B0319193321754S14756496EA011920120400708000
B0319203321748S14756509EA011920120400808000
B0319213321744S14756521EA011920120400708000
B0319223321741S14756534EA011930120400708000
B0319233321738S14756547EA011930120500608000
B0319243321737S14756560EA011930120500708000
B0319253321735S14756573EA011940120500508000
B0319263321734S14756586EA011940120600608000
B0319273321733S14756599EA011950120600608000
B0319283321733S14756612EA011960120800608000
B0319293321732S14756625EA011980120900508000
B0319303321732S14756637EA012010121100508000
B0319313321733S14756649EA012060121400608000
B0319323321733S14756661EA012090121700508000
B0319333321735S14756673EA012120122000508000
B0319343321738S14756683EA012140122200508000
B0319353321742S14756693EA012160122400608000
B0319363321747S14756700EA012190122700708000
B0319373321753S14756703EA012220123000708000
B0319383321759S14756703EA012240123200708000
B0319393321763S14756700EA012240123300908000
B0319403321760S14756693EA012230123401008000
B0319413321754S14756687EA012230123600808000
B0319423321746S14756684EA012240123900908000
B0319433321737S14756684EA012260124100808000
B0319443321727S14756686EA012280124300808000
B0319453321718S14756690EA012300124500808000
B0319463321709S14756695EA012320124700808000
B0319473321701S14756702EA012340124900608000
B0319483321693S14756710EA012370125200708000
B0319493321686S14756720EA012390125400708000
B0319503321679S14756730EA012410125700608000
B0319513321675S14756742EA012440126000608000
B0319523321671S14756754EA012460126300808000
B0319533321671S14756767EA012480126500708000
B0319543321672S14756779EA012490126700708000
B0319553321676S14756790EA012510127100808000
B0319563321681S14756799EA012550127400608000
B0319573321686S14756805EA012580127800608000
B0319583321692S14756808EA012610128100608000
B0319593321696S14756808EA012630128300508000
B0320003321699S14756804EA012640128400608000
B0320013321699S14756799EA012630128400908000
B0320023321696S14756793EA012640128400808000
B0320033321691S14756787EA012650128500808000
B0320043321685S14756783EA012670128600808000
B0320053321678S14756781EA012700128701108000
B0320063321667S14756784EA012740128801108000
B0320073321657S14756789EA012750128901108000
B0320083321649S14756799EA012770129001108000
B0320093321642S14756811EA012790129101208000
B0320103321639S14756825EA012810129201008000
B0320113321638S14756838EA012830129500908000
B0320123321640S14756851EA012860129901008000
B0320133321644S14756862EA012890130201208000
B0320143321649S14756870EA012920130501108000
B0320153321654S14756875EA012960131001208000
B0320163321660S14756877EA012980131200808000
B0320173321664S14756876EA012990131300608000
B0320183321666S14756872EA012990131400608000
B0320193321665S14756867EA012980131400708000
B0320203321663S14756862EA012970131400608000
B0320213321660S14756856EA012980131500508000
B0320223321658S14756851EA012990131500608000
B0320233321655S14756845EA013010131700908000
B0320243321651S14756839EA013030131900808000
B0320253321646S14756834EA013050132000708000
B0320263321639S14756832EA013070132200708000
B0320273321630S14756830EA013080132400508000
B0320283321622S14756831EA013090132600808000
B0320293321612S14756835EA013090132700908000
B0320303321603S14756840EA013100132800808000
B0320313321595S14756848EA013100132800908000
B0320323321588S14756859EA013100132901008000
B0320333321582S14756870EA013100132901008000
B0320343321577S14756883EA013100132800808000
B0320353321574S14756896EA013100132800908000
B0320363321572S14756910EA013100132900908000
B0320373321571S14756924EA013110133000708000
B0320383321572S14756938EA013130133200708000
B0320393321573S14756951EA013150133500808000
B0320403321575S14756964EA013180133700708000
B0320413321579S14756975EA013200134000708000
B0320423321582S14756986EA013230134300608000
B0320433321587S14756995EA013250134500708000
B0320443321592S14757003EA013270134700508000
B0320453321597S14757012EA013300135000608000
B0320463321602S14757019EA013320135200408000
B0320473321607S14757027EA013340135300508000
B0320483321613S14757034EA013330135400608000
B0320493321619S14757039EA013330135400708000
B0320503321625S14757042EA013320135400808000
B0320513321630S14757044EA013320135301208000
B0320523321634S14757043EA013310135201308000
B0320533321636S14757040EA013310135201108000
B0320543321635S14757036EA013300135200908000
B0320553321632S14757031EA013290135200908000
B0320563321628S14757026EA013300135200908000
B0320573321623S14757021EA013310135200908000
B0320583321619S14757018EA013330135300808000
B0320593321613S14757014EA013370135300808000
B0321003321608S14757010EA013400135500808000
B0321013321603S14757005EA013420135600708000
B0321023321599S14757000EA013430135700508000
B0321033321595S14756994EA013430135800608000
B0321043321591S14756988EA013410135800608000
B0321053321587S14756981EA013390135700608000
B0321063321583S14756975EA013380135700608000
B0321073321578S14756969EA013380135800508000
B0321083321572S14756965EA013390135700608000
B0321093321567S14756960EA013390135700608000
B0321103321562S14756955EA013380135600608000
B0321113321559S14756951EA013380135600508000
B0321123321557S14756946EA013370135500508000
B0321133321555S14756941EA013360135400508000
B0321143321555S14756936EA013360135400808000
B0321153321557S14756931EA013360135500908000
B0321163321559S14756928EA013380135500808000
B0321173321562S14756926EA013400135600708000
B0321183321567S14756925EA013410135700808000
B0321193321572S14756926EA013420135900708000
B0321203321578S14756928EA013430136100708000
B0321213321584S14756931EA013460136400708000
B0321223321590S14756935EA013480136600708000
B0321233321597S14756938EA013500136800708000
B0321243321603S14756941EA013510137100808000
B0321253321609S14756942EA013530137300608000
B0321263321615S14756941EA013550137600708000
B0321273321619S14756940EA013570137800708000
B0321283321623S14756937EA013590137900708000
B0321293321625S14756933EA013610138200708000
B0321303321625S14756928EA013630138300708000
B0321313321624S14756924EA013640138500808000
B0321323321618S14756920EA013650138600608000
B0321333321610S14756919EA013650138700608000
B0321343321600S14756922EA013650138800908000
B0321353321591S14756928EA013660138801308000
B0321363321582S14756938EA013670138801208000
B0321373321576S14756950EA013680138901208000
B0321383321571S14756965EA013690139101208000
B0321393321569S14756980EA013700139300908000
B0321403321570S14756995EA013720139600808000
B0321413321572S14757008EA013750139800808000
B0321423321576S14757019EA013770140100908000
B0321433321581S14757028EA013800140401108000
B0321443321586S14757035EA013840140700908000
B0321453321593S14757038EA013870140900908000
B0321463321598S14757038EA013880141100708000
B0321473321602S14757036EA013890141200808000
B0321483321605S14757032EA013900141200908000
B0321493321606S14757028EA013900141201008000
B0321503321604S14757023EA013910141401108000
B0321513321600S14757018EA013930141500708000
B0321523321595S14757014EA013950141600708000
B0321533321589S14757011EA013950141600808000
B0321543321582S14757011EA013950141701008000
B0321553321573S14757012EA013940141700908000
B0321563321563S14757014EA013920141600608000
B0321573321553S14757016EA013900141600608000
B0321583321543S14757019EA013880141500708000
B0321593321534S14757021EA013870141400608000
B0322003321525S14757023EA013860141400608000
B0322013321515S14757024EA013850141200608000
B0322023321506S14757025EA013830141200608000
B0322033321498S14757025EA013820141100408000
B0322043321489S14757026EA013810141000408000
B0322053321480S14757026EA013800140900508000
B0322063321472S14757027EA013770140700508000
B0322073321464S14757027EA013750140500508000
B0322083321455S14757026EA013710140300508000
B0322093321448S14757025EA013690140100508000
B0322103321441S14757023EA013690139900508000
B0322113321435S14757019EA013680139700708000
B0322123321431S14757014EA013670139500808000
B0322133321427S14757009EA013650139300508000
B0322143321425S14757003EA013620139100608000
B0322153321423S14756997EA013610139000508000
B0322163321422S14756991EA013590138800608000
B0322173321421S14756984EA013590138800508000
B0322183321420S14756978EA013590138700408000
B0322193321420S14756972EA013590138500708000
B0322203321421S14756966EA013580138300808000
B0322213321422S14756960EA013560138100608000
B0322223321423S14756954EA013530137800708000
B0322233321424S14756948EA013500137600508000
B0322243321425S14756941EA013490137400408000
B0322253321427S14756935EA013480137200408000
B0322263321428S14756929EA013470137100708000
B0322273321430S14756923EA013480137100708000
B0322283321433S14756917EA013480137100708000
B0322293321435S14756912EA013500137200708000
B0322303321438S14756909EA013530137300808000
B0322313321441S14756905EA013560137400708000
B0322323321444S14756902EA013580137500908000
B0322333321446S14756898EA013600137700808000
B0322343321448S14756895EA013620137900608000
B0322353321449S14756892EA013660138200608000
B0322363321449S14756890EA013680138400408000
B0322373321450S14756887EA013710138700608000
B0322383321451S14756884EA013740139000708000
B0322393321453S14756881EA013760139300608000
B0322403321456S14756879EA013780139600708000
B0322413321458S14756876EA013810139900708000
B0322423321461S14756874EA013830140100608000
B0322433321464S14756872EA013850140300708000
B0322443321468S14756871EA013860140600708000
B0322453321473S14756871EA013880140800708000
B0322463321478S14756873EA013890140900908000
B0322473321485S14756877EA013900141000908000
B0322483321490S14756884EA013900141100808000
B0322493321495S14756894EA013900141100708000
B0322503321499S14756907EA013900141200608000
B0322513321500S14756920EA013900141200608000
B0322523321499S14756934EA013910141201008000
B0322533321494S14756950EA013910141301308000
B0322543321487S14756964EA013900141301108000
B0322553321477S14756974EA013900141301208000
B0322563321466S14756980EA013900141401208000
B0322573321455S14756981EA013930141501508000
B0322583321446S14756981EA013980141600808000
B0322593321438S14756979EA014020141700908000
B0323003321433S14756975EA014050141901108000
B0323013321431S14756968EA014070142101108000
B0323023321431S14756963EA014100142501308000
B0323033321434S14756960EA014120142701208000
B0323043321437S14756959EA014140142801208000
B0323053321443S14756961EA014140143001108000
B0323063321450S14756966EA014130143201108000
B0323073321456S14756974EA014130143301108000
B0323083321462S14756984EA014130143400808000
B0323093321465S14756997EA014140143400708000
B0323103321466S14757011EA014140143600608000
B0323113321466S14757025EA014150143700608000
B0323123321464S14757040EA014160143800708000
B0323133321460S14757055EA014160143800608000
B0323143321453S14757067EA014160144000608000
B0323153321445S14757079EA014170144100608000
B0323163321436S14757087EA014200144400908000
B0323173321427S14757093EA014250144701108000
B0323183321418S14757097EA014290144900908000
B0323193321409S14757099EA014310145100708000
B0323203321399S14757099EA014310145200708000
B0323213321390S14757098EA014310145300608000
B0323223321382S14757095EA014320145300508000
B0323233321376S14757089EA014310145400508000
B0323243321374S14757082EA014320145500708000
B0323253321375S14757077EA014340145700908000
B0323263321378S14757073EA014380146100808000
B0323273321383S14757072EA014420146400708000
B0323283321389S14757075EA014440146500508000
B0323293321395S14757081EA014450146600608000
B0323303321400S14757091EA014450146700608000
B0323313321404S14757103EA014460146800508000
B0323323321406S14757117EA014470146900508000
B0323333321406S14757132EA014480147000508000
B0323343321403S14757146EA014480147100508000
B0323353321397S14757161EA014490147400608000
B0323363321390S14757173EA014510147600708000
B0323373321381S14757183EA014540147900508000
B0323383321372S14757192EA014570148100608000
B0323393321362S14757197EA014580148200508000
B0323403321351S14757198EA014580148200508000
B0323413321341S14757197EA014580148300408000
B0323423321332S14757193EA014580148400608000
B0323433321326S14757188EA014600148500608000
B0323443321321S14757183EA014630148700808000
B0323453321317S14757177EA014650148900608000
B0323463321314S14757171EA014660149000508000
B0323473321312S14757165EA014670149100508000
B0323483321311S14757160EA014690149300608000
B0323493321313S14757156EA014720149500808000
B0323503321316S14757154EA014740149801108000
B0323513321322S14757154EA014750149900908000
B0323523321330S14757159EA014740149800808000
B0323533321336S14757169EA014730149800908000
B0323543321340S14757182EA014720149801108000
B0323553321341S14757196EA014720149900708000
B0323563321339S14757211EA014740150100608000
B0323573321335S14757225EA014750150200708000
B0323583321328S14757237EA014760150300608000
B0323593321319S14757247EA014770150400708000
F03240002051219242529
B0324003321310S14757254EA014790150600707000
F0324010205061219242529
B0324013321300S14757258EA014820150800708000
B0324023321291S14757259EA014830150900608000
B0324033321282S14757257EA014840150900508000
B0324043321274S14757254EA014840150900508000
B0324053321268S14757248EA014830150900608000
B0324063321263S14757242EA014830150900508000
B0324073321259S14757235EA014840151000708000
B0324083321257S14757229EA014850151200708000
B0324093321255S14757223EA014870151400708000
B0324103321253S14757218EA014890151600708000
B0324113321252S14757213EA014900151700608000
B0324123321251S14757207EA014890151800508000
B0324133321250S14757202EA014860151700908000
B0324143321250S14757196EA014830151701008000
B0324153321249S14757190EA014820151600908000
B0324163321247S14757185EA014810151500608000
B0324173321245S14757181EA014810151500508000
B0324183321243S14757177EA014810151400508000
B0324193321240S14757173EA014790151300508000
B0324203321238S14757167EA014760151200708000
B0324213321235S14757161EA014710151000908000
B0324223321232S14757154EA014660150700508000
B0324233321229S14757146EA014620150300508000
F03242402051219242529
B0324243321226S14757138EA014580150000407000
F0324250205061219242529
B0324253321222S14757130EA014540149600508000
B0324263321217S14757122EA014490149300608000
B0324273321213S14757114EA014460148900608000
B0324283321209S14757106EA014450148600608000
B0324293321206S14757098EA014440148400508000
B0324303321203S14757091EA014420148000608000
B0324313321201S14757084EA014420147700608000
B0324323321199S14757076EA014410147500508000
B0324333321196S14757069EA014400147100508000
B0324343321193S14757062EA014370146900508000
B0324353321189S14757054EA014340146700608000
B0324363321185S14757047EA014320146400608000
B0324373321181S14757039EA014300146100708000
B0324383321176S14757032EA014280145900408000
B0324393321172S14757025EA014270145700408000
B0324403321167S14757018EA014250145500508000
B0324413321162S14757011EA014250145300408000
B0324423321157S14757004EA014240145100508000
B0324433321152S14756998EA014210144900608000
B0324443321147S14756991EA014200144800708000
B0324453321142S14756985EA014190144600608000
B0324463321138S14756978EA014170144500408000
B0324473321133S14756971EA014170144400608000
B0324483321129S14756964EA014170144200608000
B0324493321125S14756957EA014160144000508000
B0324503321121S14756950EA014150143900608000
B0324513321117S14756944EA014160143900608000
B0324523321114S14756937EA014160143800608000
B0324533321111S14756930EA014170143900608000
B0324543321108S14756923EA014180143800608000
B0324553321105S14756915EA014170143800508000
B0324563321102S14756907EA014150143700508000
B0324573321098S14756899EA014120143600508000
B0324583321094S14756890EA014100143500608000
B0324593321091S14756881EA014070143400608000
B0325003321087S14756873EA014050143100608000
B0325013321084S14756864EA014030142900708000
B0325023321079S14756855EA014000142800608000
B0325033321075S14756847EA013980142600508000
B0325043321070S14756839EA013960142500508000
B0325053321064S14756833EA013940142100608000
B0325063321059S14756826EA013930141900708000
B0325073321053S14756819EA013910141700808000
B0325083321047S14756812EA013890141500608000
B0325093321041S14756805EA013860141200608000
B0325103321034S14756798EA013840141000708000
B0325113321028S14756791EA013820140800408000
B0325123321023S14756785EA013810140600508000
B0325133321017S14756778EA013810140500608000
B0325143321011S14756771EA013800140300508000
B0325153321005S14756764EA013780140200408000
B0325163320998S14756759EA013760140000508000
B0325173320991S14756753EA013730139900508000
B0325183320984S14756749EA013710139800408000
B0325193320978S14756743EA013700139700508000
B0325203320972S14756737EA013690139500608000
B0325213320968S14756730EA013680139300808000
B0325223320964S14756722EA013650139000908000
B0325233320960S14756715EA013620138800708000
B0325243320957S14756708EA013600138500708000
B0325253320953S14756700EA013590138400608000
B0325263320950S14756692EA013550138200508000
B0325273320945S14756684EA013530138000508000
B0325283320940S14756676EA013520137900508000
B0325293320935S14756668EA013520137800508000
B0325303320929S14756660EA013520137600508000
B0325313320925S14756652EA013510137500508000
B0325323320922S14756644EA013520137400608000
B0325333320920S14756636EA013530137300608000
B0325343320918S14756628EA013560137200508000
B0325353320915S14756621EA013570137200508000
B0325363320911S14756614EA013540137100708000
B0325373320905S14756608EA013500137100608000
B0325383320899S14756603EA013480137000608000
B0325393320893S14756597EA013480136900608000
B0325403320887S14756591EA013450136700608000
B0325413320880S14756584EA013430136600808000
B0325423320875S14756577EA013400136400608000
B0325433320869S14756570EA013360136100508000
B0325443320863S14756563EA013330136000508000
B0325453320858S14756557EA013320135900608000
B0325463320852S14756550EA013330135800608000
B0325473320847S14756543EA013350135800608000
B0325483320843S14756537EA013380135800608000
B0325493320839S14756533EA013380135900708000
B0325503320835S14756529EA013400135900708000
B0325513320830S14756524EA013420136000808000
B0325523320826S14756520EA013430136000708000
B0325533320821S14756517EA013430136100808000
B0325543320817S14756513EA013440136300808000
B0325553320812S14756510EA013460136400808000
B0325563320808S14756507EA013480136500608000
B0325573320803S14756505EA013510136700608000
B0325583320798S14756503EA013540137000608000
B0325593320792S14756502EA013570137300808000
B0326003320785S14756503EA013610137700808000
B0326013320776S14756507EA013640138000708000
B0326023320767S14756513EA013660138300808000
B0326033320758S14756522EA013680138500908000
B0326043320751S14756535EA013700138801108000
B0326053320746S14756551EA013710138900808000
B0326063320744S14756567EA013710139200908000
B0326073320745S14756582EA013710139201008000
B0326083320749S14756595EA013730139200708000
B0326093320754S14756607EA013750139301008000
B0326103320760S14756615EA013770139501208000
B0326113320767S14756619EA013790139801108000
B0326123320774S14756621EA013800140000608000
B0326133320780S14756621EA013800140000708000
B0326143320784S14756618EA013800140100708000
B0326153320786S14756614EA013810140000808000
B0326163320783S14756611EA013830140100908000
B0326173320779S14756609EA013870140300708000
B0326183320773S14756608EA013910140700808000
B0326193320765S14756609EA013950141001008000
B0326203320756S14756611EA013960141200708000
B0326213320746S14756615EA013970141300908000
B0326223320736S14756622EA013970141600908000
B0326233320726S14756630EA013970141800708000
B0326243320718S14756641EA014000141900808000
B0326253320712S14756654EA014020142101008000
B0326263320709S14756668EA014030142201008000
B0326273320709S14756685EA014030142301208000
B0326283320712S14756700EA014030142301008000
B0326293320717S14756712EA014040142401108000
B0326303320723S14756722EA014050142701208000
B0326313320730S14756730EA014070142901108000
B0326323320737S14756735EA014090143200908000
B0326333320745S14756738EA014100143300808000
B0326343320751S14756738EA014110143400608000
B0326353320756S14756736EA014110143400608000
B0326363320760S14756733EA014110143400608000
B0326373320763S14756729EA014120143500708000
B0326383320763S14756724EA014140143600808000
B0326393320762S14756719EA014170143900708000
B0326403320759S14756715EA014190144100708000
B0326413320754S14756711EA014210144300608000
B0326423320748S14756708EA014210144300608000
B0326433320740S14756706EA014210144300508000
B0326443320731S14756705EA014200144300608000
B0326453320722S14756705EA014190144300508000
B0326463320711S14756707EA014190144300708000
B0326473320701S14756711EA014200144400808000
B0326483320690S14756717EA014230144400908000
B0326493320681S14756727EA014240144500908000
B0326503320673S14756739EA014260144600908000
B0326513320666S14756752EA014280144800908000
B0326523320660S14756766EA014300144900908000
B0326533320656S14756782EA014310145001008000
B0326543320654S14756798EA014310145101108000
B0326553320655S14756813EA014310145201208000
B0326563320658S14756828EA014310145301208000
B0326573320664S14756839EA014310145401408000
B0326583320672S14756847EA014330145701408000
B0326593320679S14756852EA014350146001208000
B0327003320687S14756854EA014360146101008000
B0327013320694S14756855EA014360146100608000
B0327023320699S14756853EA014350146100708000
B0327033320703S14756849EA014370146301108000
B0327043320705S14756846EA014400146500908000
B0327053320707S14756843EA014430146801008000
B0327063320706S14756840EA014450146900908000
B0327073320705S14756838EA014450147000708000
B0327083320702S14756835EA014440147000508000
B0327093320697S14756831EA014410147000408000
B0327103320691S14756826EA014390146900508000
B0327113320686S14756822EA014380146900508000
B0327123320682S14756818EA014390146900508000
B0327133320679S14756813EA014390146900508000
B0327143320678S14756809EA014400146900508000
B0327153320676S14756805EA014400146900708000
B0327163320675S14756800EA014390146800508000
B0327173320675S14756797EA014390146800508000
B0327183320676S14756793EA014380146700508000
B0327193320677S14756789EA014370146700708000
B0327203320679S14756785EA014350146600708000
B0327213320681S14756782EA014340146400708000
B0327223320683S14756778EA014320146200708000
B0327233320686S14756775EA014300146100708000
B0327243320688S14756772EA014300145900608000
B0327253320692S14756769EA014270145700708000
B0327263320696S14756766EA014260145500708000
B0327273320700S14756763EA014250145200608000
B0327283320704S14756761EA014220145000608000
B0327293320709S14756759EA014190144700508000
B0327303320715S14756757EA014170144500708000
B0327313320720S14756756EA014140144300708000
B0327323320725S14756755EA014130144200808000
B0327333320731S14756754EA014130144100708000
B0327343320737S14756754EA014130144100508000
B0327353320742S14756754EA014130144000508000
B0327363320748S14756755EA014120143900508000
B0327373320755S14756756EA014110143700708000
B0327383320762S14756758EA014090143500708000
B0327393320769S14756758EA014060143300708000
B0327403320775S14756758EA014040143100608000
B0327413320782S14756758EA014030143000608000
B0327423320788S14756757EA014030142900608000
B0327433320793S14756756EA014020142800608000
B0327443320798S14756755EA014010142700608000
B0327453320803S14756752EA013990142500708000
B0327463320809S14756749EA013960142300908000
B0327473320813S14756745EA013940142100708000
B0327483320817S14756740EA013920141900508000
B0327493320821S14756734EA013900141800708000
B0327503320825S14756729EA013900141700708000
B0327513320829S14756724EA013910141700708000
B0327523320833S14756719EA013900141600708000
B0327533320837S14756714EA013890141400708000
B0327543320841S14756708EA013880141300808000
B0327553320845S14756702EA013870141200808000
B0327563320848S14756696EA013870141200908000
B0327573320851S14756690EA013890141200708000
B0327583320854S14756684EA013910141200708000
B0327593320857S14756678EA013930141300708000
B0328003320860S14756673EA013940141400708000
B0328013320864S14756668EA013940141500808000
B0328023320867S14756663EA013950141500808000
B0328033320871S14756658EA013940141500808000
B0328043320875S14756653EA013930141500808000
B0328053320881S14756648EA013910141500908000
B0328063320887S14756643EA013900141400908000
B0328073320893S14756638EA013880141301008000
B0328083320899S14756634EA013860141200908000
B0328093320905S14756630EA013870141200908000
B0328103320912S14756626EA013900141300808000
B0328113320918S14756623EA013930141500808000
B0328123320923S14756620EA013970141701008000
B0328133320928S14756616EA014000142000908000
B0328143320932S14756612EA014030142301008000
B0328153320932S14756606EA014040142600808000
B0328163320929S14756601EA014060142800808000
B0328173320922S14756598EA014060142900808000
B0328183320914S14756597EA014070142901008000
B0328193320905S14756604EA014070142901208000
B0328203320897S14756615EA014080143001608000
B0328213320892S14756631EA014090143101708000
B0328223320890S14756646EA014100143201408000
B0328233320890S14756660EA014100143101308000
B0328243320892S14756674EA014090143101308000
B0328253320897S14756688EA014090143101208000
B0328263320902S14756699EA014090143201308000
B0328273320908S14756709EA014120143501208000
B0328283320914S14756718EA014160143801108000
B0328293320922S14756725EA014190144100908000
B0328303320930S14756729EA014210144400808000
B0328313320938S14756732EA014220144600608000
B0328323320946S14756732EA014230144700608000
B0328333320953S14756730EA014240144900808000
B0328343320958S14756726EA014260145100808000
B0328353320961S14756720EA014290145300908000
B0328363320961S14756715EA014300145400908000
B0328373320958S14756709EA014300145400808000
B0328383320952S14756703EA014300145400708000
B0328393320946S14756699EA014300145600608000
B0328403320938S14756695EA014310145800608000
B0328413320930S14756694EA014320145900608000
B0328423320921S14756694EA014340146000508000
B0328433320911S14756697EA014350146100508000
B0328443320902S14756702EA014360146200608000
B0328453320893S14756710EA014380146300908000
B0328463320885S14756719EA014400146400908000
B0328473320879S14756729EA014430146601008000
B0328483320875S14756739EA014470146801008000
B0328493320871S14756751EA014480146900908000
B0328503320867S14756763EA014480147000808000
B0328513320865S14756776EA014460147100808000
B0328523320864S14756791EA014430147100808000
B0328533320863S14756807EA014410147100708000
B0328543320862S14756822EA014410147200808000
B0328553320860S14756837EA014420147300808000
B0328563320855S14756850EA014430147300708000
B0328573320849S14756861EA014440147400708000
B0328583320843S14756871EA014440147300708000
B0328593320836S14756880EA014440147300708000
B0329003320829S14756889EA014460147400708000
B0329013320822S14756897EA014470147500708000
B0329023320815S14756905EA014480147500708000
B0329033320808S14756913EA014480147500708000
B0329043320801S14756922EA014480147600608000
B0329053320794S14756931EA014480147600708000
B0329063320786S14756940EA014490147600608000
B0329073320779S14756949EA014500147700608000
B0329083320773S14756960EA014530147700708000
B0329093320768S14756973EA014560147900808000
B0329103320764S14756986EA014590148000708000
B0329113320762S14756999EA014610148200908000
B0329123320764S14757011EA014630148401208000
B0329133320770S14757022EA014650148601208000
B0329143320776S14757030EA014680148901208000
B0329153320785S14757034EA014700149101108000
B0329163320793S14757034EA014710149401008000
B0329173320799S14757031EA014710149500608000
B0329183320801S14757024EA014710149600608000
B0329193320800S14757017EA014710149700508000
B0329203320797S14757011EA014720149900508000
B0329213320792S14757007EA014740150000708000
B0329223320784S14757005EA014760150100808000
B0329233320776S14757005EA014790150400708000
B0329243320767S14757007EA014820150600808000
B0329253320758S14757010EA014850150900908000
B0329263320751S14757018EA014890151201108000
B0329273320745S14757029EA014920151401308000
B0329283320743S14757043EA014950151601408000
B0329293320744S14757058EA014970151901108000
B0329303320748S14757071EA014980152301308000
B0329313320753S14757083EA015010152701108000
B0329323320760S14757093EA015050153201208000
B0329333320767S14757100EA015090153500908000
B0329343320774S14757104EA015110153800808000
B0329353320781S14757105EA015120153900808000
B0329363320787S14757102EA015110154000408000
B0329373320791S14757096EA015110154000608000
B0329383320793S14757089EA015120154100808000
B0329393320791S14757083EA015130154200808000
B0329403320787S14757076EA015140154300708000
B0329413320782S14757072EA015150154500608000
B0329423320776S14757069EA015180154600808000
B0329433320769S14757068EA015230154800708000
B0329443320763S14757071EA015270155000708000
B0329453320756S14757076EA015300155101008000
B0329463320749S14757085EA015320155301308000
B0329473320746S14757096EA015330155501108000
B0329483320747S14757111EA015330155701108000
B0329493320752S14757127EA015360156301208000
B0329503320759S14757138EA015390156701308000
B0329513320766S14757147EA015420157200908000
B0329523320775S14757152EA015440157500808000
B0329533320783S14757153EA015460157800808000
B0329543320790S14757151EA015470157900608000
B0329553320794S14757146EA015490158100608000
B0329563320797S14757141EA015500158100608000
B0329573320797S14757134EA015500158200608000
B0329583320795S14757127EA015500158200608000
B0329593320792S14757121EA015510158300608000
B0330003320788S14757116EA015520158400708000
B0330013320782S14757111EA015540158600608000
B0330023320777S14757107EA015550158700508000
B0330033320771S14757105EA015570158800608000
B0330043320764S14757104EA015620159000608000
B0330053320757S14757104EA015640159100708000
B0330063320749S14757107EA015650159300608000
B0330073320740S14757111EA015660159500808000
B0330083320732S14757118EA015670159800808000
B0330093320725S14757127EA015690160100808000
B0330103320719S14757137EA015720160400708000
B0330113320714S14757148EA015750160700808000
B0330123320710S14757160EA015780160900808000
B0330133320707S14757172EA015800161200808000
B0330143320707S14757186EA015790161300808000
B0330153320712S14757200EA015770161200908000
B0330163320721S14757213EA015760161201108000
B0330173320730S14757224EA015790161301108000
B0330183320741S14757231EA015830161601308000
B0330193320749S14757229EA015860161801208000
B0330203320755S14757221EA015870161901008000
B0330213320758S14757213EA015880162201108000
B0330223320760S14757205EA015900162501108000
B0330233320759S14757198EA015930162901208000
B0330243320757S14757191EA015970163401008000
B0330253320753S14757186EA016000163701008000
B0330263320747S14757183EA016010164001008000
B0330273320738S14757184EA016010164301008000
B0330283320729S14757189EA016010164501208000
B0330293320721S14757197EA016020164800908000
B0330303320714S14757208EA016050164901208000
B0330313320708S14757220EA016090165101108000
B0330323320705S14757232EA016130165300908000
B0330333320702S14757244EA016160165500908000
B0330343320701S14757257EA016170165701008000
B0330353320702S14757271EA016180165801008000
B0330363320704S14757284EA016170165901008000
B0330373320708S14757298EA016190166000808000
B0330383320712S14757312EA016200166200908000
B0330393320717S14757324EA016240166501008000
B0330403320723S14757335EA016280166800708000
B0330413320729S14757345EA016300167000508000
B0330423320736S14757354EA016320167200808000
B0330433320744S14757360EA016330167300908000
B0330443320753S14757364EA016330167400908000
B0330453320761S14757365EA016350167500808000
B0330463320769S14757364EA016360167600708000
B0330473320776S14757360EA016370167600508000
B0330483320781S14757354EA016380167700408000
B0330493320785S14757348EA016390167700608000
B0330503320787S14757341EA016400167800608000
B0330513320787S14757334EA016400167700608000
B0330523320786S14757327EA016390167700808000
B0330533320784S14757320EA016380167700508000
B0330543320781S14757313EA016380167700508000
B0330553320777S14757308EA016400167700408000
B0330563320774S14757303EA016420167800508000
B0330573320772S14757298EA016440167800508000
B0330583320769S14757292EA016430167800508000
B0330593320765S14757286EA016420167800508000
B0331003320761S14757279EA016400167800508000
B0331013320758S14757273EA016400167900508000
B0331023320755S14757266EA016410167900508000
B0331033320753S14757260EA016410167900508000
B0331043320752S14757254EA016420167900608000
B0331053320752S14757247EA016420167900508000
B0331063320752S14757241EA016420167900808000
B0331073320752S14757235EA016420167900708000
B0331083320752S14757229EA016420167900508000
B0331093320752S14757223EA016430167900408000
B0331103320753S14757217EA016430167900408000
B0331113320754S14757210EA016420167900508000
B0331123320755S14757204EA016420167800508000
B0331133320756S14757197EA016410167700408000
B0331143320758S14757189EA016400167600408000
B0331153320758S14757182EA016400167600408000
B0331163320758S14757174EA016400167600508000
B0331173320759S14757167EA016420167600508000
B0331183320759S14757160EA016440167800608000
B0331193320759S14757153EA016460167800508000
B0331203320759S14757147EA016470168000508000
B0331213320759S14757141EA016490168100508000
B0331223320760S14757136EA016530168400708000
B0331233320760S14757130EA016570168700708000
B0331243320761S14757125EA016600169000808000
B0331253320762S14757120EA016620169300708000
B0331263320762S14757115EA016640169500608000
B0331273320762S14757108EA016660169700508000
B0331283320762S14757102EA016670169900608000
B0331293320762S14757095EA016680170100608000
B0331303320762S14757089EA016700170300708000
B0331313320761S14757082EA016730170600608000
B0331323320761S14757075EA016750170700608000
B0331333320761S14757067EA016770171000608000
B0331343320761S14757059EA016790171200608000
B0331353320759S14757052EA016810171500608000
B0331363320757S14757044EA016820171700608000
B0331373320754S14757037EA016820171800508000
B0331383320750S14757029EA016820171900608000
B0331393320746S14757022EA016820172000608000
B0331403320741S14757015EA016830172100408000
B0331413320737S14757009EA016860172200408000
B0331423320733S14757002EA016890172300408000
B0331433320730S14756995EA016910172400508000
B0331443320726S14756989EA016950172700808000
B0331453320720S14756984EA016980173200808000
B0331463320713S14756980EA017010173500508000
B0331473320704S14756979EA017030173700508000
B0331483320694S14756980EA017060174000908000
B0331493320683S14756985EA017060174201108000
B0331503320673S14756993EA017060174401308000
B0331513320667S14757006EA017060174601508000
B0331523320666S14757023EA017070174701408000
B0331533320668S14757039EA017080174801208000
B0331543320672S14757052EA017090175001208000
B0331553320678S14757064EA017110175200808000
B0331563320684S14757073EA017130175300708000
B0331573320691S14757081EA017140175500908000
B0331583320698S14757087EA017150175600808000
B0331593320706S14757092EA017160175600808000
B0332003320713S14757097EA017170175800808000
B0332013320720S14757102EA017200175900908000
B0332023320727S14757105EA017240176100808000
B0332033320734S14757106EA017260176200808000
B0332043320740S14757104EA017250176200808000
B0332053320743S14757099EA017230176100908000
B0332063320743S14757091EA017210176100908000
B0332073320741S14757084EA017230176201008000
B0332083320737S14757079EA017290176201008000
B0332093320729S14757075EA017330176401108000
B0332103320718S14757074EA017340176500908000
B0332113320708S14757075EA017350176600908000
B0332123320696S14757081EA017340176701108000
B0332133320686S14757092EA017330176701308000
B0332143320681S14757108EA017330176801208000
B0332153320678S14757124EA017360177001208000
B0332163320676S14757139EA017400177301208000
B0332173320676S14757153EA017430177601108000
B0332183320676S14757166EA017450177801008000
B0332193320677S14757180EA017460178101008000
B0332203320678S14757194EA017470178201108000
B0332213320678S14757209EA017460178400608000
B0332223320677S14757223EA017470178600808000
B0332233320675S14757238EA017490178800908000
B0332243320672S14757252EA017520179200808000
B0332253320669S14757265EA017550179400708000
B0332263320664S14757279EA017570179600708000
B0332273320659S14757292EA017570179700708000
B0332283320654S14757305EA017570179800608000
B0332293320651S14757319EA017580179900608000
B0332303320649S14757333EA017590180000708000
B0332313320647S14757348EA017590180100608000
B0332323320647S14757363EA017610180200708000
B0332333320648S14757377EA017630180400608000
B0332343320649S14757392EA017630180500608000
B0332353320653S14757405EA017640180400708000
B0332363320658S14757418EA017640180400708000
B0332373320664S14757428EA017650180500708000
B0332383320671S14757436EA017660180700808000
B0332393320679S14757440EA017660180700508000
B0332403320687S14757441EA017640180500608000
B0332413320695S14757437EA017610180400808000
B0332423320699S14757432EA017610180400908000
B0332433320701S14757426EA017660180401008000
B0332443320701S14757420EA017710180700908000
B0332453320700S14757415EA017760180900908000
B0332463320697S14757410EA017790181000808000
B0332473320695S14757404EA017800181100708000
B0332483320692S14757398EA017800181200708000
B0332493320688S14757392EA017800181300608000
B0332503320685S14757386EA017810181400608000
B0332513320682S14757380EA017830181600608000
B0332523320679S14757374EA017850181800508000
B0332533320675S14757369EA017870182000508000
B0332543320671S14757363EA017880182200408000
B0332553320668S14757357EA017900182300508000
B0332563320664S14757351EA017910182500508000
B0332573320660S14757345EA017920182700508000
B0332583320657S14757339EA017950182900508000
B0332593320654S14757334EA017970183200508000
B0333003320650S14757328EA017990183300708000
B0333013320646S14757323EA018000183500708000
B0333023320640S14757318EA018000183600708000
B0333033320633S14757314EA018010183800408000
B0333043320624S14757312EA018030184000408000
B0333053320614S14757313EA018040184200508000
B0333063320604S14757316EA018050184300708000
B0333073320593S14757323EA018060184400808000
B0333083320584S14757333EA018070184500908000
B0333093320577S14757346EA018090184601208000
B0333103320572S14757360EA018080184701208000
B0333113320571S14757374EA018070184701308000
B0333123320574S14757388EA018070184801408000
B0333133320579S14757399EA018070184900908000
B0333143320586S14757408EA018070185001108000
B0333153320593S14757415EA018090185101108000
B0333163320600S14757419EA018110185301008000
B0333173320608S14757422EA018140185600908000
B0333183320614S14757422EA018170185900908000
B0333193320620S14757421EA018180186100508000
B0333203320624S14757418EA018190186100508000
B0333213320627S14757413EA018200186200708000
B0333223320630S14757408EA018200186200708000
B0333233320631S14757403EA018200186200608000
B0333243320632S14757397EA018200186200408000
B0333253320632S14757391EA018200186300508000
B0333263320632S14757386EA018220186300508000
B0333273320631S14757380EA018240186400508000
B0333283320629S14757374EA018250186400408000
B0333293320627S14757367EA018240186400408000
B0333303320626S14757360EA018250186400408000
B0333313320624S14757354EA018250186500508000
B0333323320622S14757348EA018260186600608000
B0333333320620S14757342EA018260186600608000
B0333343320617S14757335EA018250186600408000
B0333353320614S14757328EA018230186600408000
B0333363320609S14757320EA018200186600508000
B0333373320605S14757312EA018180186500608000
B0333383320600S14757304EA018160186400508000
B0333393320595S14757296EA018160186200508000
B0333403320592S14757288EA018130186000508000
B0333413320589S14757280EA018110185800708000
B0333423320586S14757271EA018090185600608000
B0333433320583S14757263EA018060185500508000
B0333443320581S14757255EA018050185300508000
B0333453320579S14757247EA018040185100708000
B0333463320577S14757240EA018040184900608000
B0333473320575S14757232EA018030184800408000
B0333483320573S14757224EA017990184600508000
B0333493320570S14757216EA017950184400508000
B0333503320567S14757208EA017940184100508000
B0333513320563S14757199EA017920183900508000
B0333523320560S14757191EA017890183700508000
B0333533320557S14757183EA017880183400708000
B0333543320553S14757175EA017870183300508000
B0333553320549S14757167EA017850183100408000
B0333563320544S14757160EA017830183000408000
B0333573320540S14757154EA017820182800408000
B0333583320536S14757147EA017820182700408000
B0333593320532S14757141EA017820182600608000
B0334003320528S14757134EA017820182400608000
B0334013320524S14757127EA017800182300608000
B0334023320521S14757120EA017780182000608000
B0334033320517S14757112EA017770181800608000
B0334043320513S14757105EA017760181600608000
B0334053320508S14757098EA017750181400508000
B0334063320504S14757091EA017720181200408000
B0334073320499S14757084EA017700181100408000
B0334083320494S14757077EA017690181000408000
B0334093320490S14757071EA017680180900508000
B0334103320485S14757065EA017680180800508000
B0334113320479S14757059EA017670180700508000
B0334123320474S14757052EA017660180700508000
B0334133320468S14757046EA017680180700608000
B0334143320463S14757040EA017700180800508000
B0334153320458S14757034EA017730180800608000
B0334163320453S14757028EA017730180900408000
B0334173320449S14757022EA017720180900408000
B0334183320444S14757016EA017720180900408000
B0334193320439S14757010EA017710180900408000
B0334203320435S14757002EA017700180800408000
B0334213320431S14756995EA017680180800408000
B0334223320427S14756987EA017680180800408000
B0334233320423S14756978EA017680180800608000
B0334243320419S14756970EA017680180900608000
B0334253320415S14756961EA017700180900608000
B0334263320411S14756953EA017710180900408000
B0334273320407S14756945EA017700180900408000
B0334283320403S14756938EA017680180900408000
B0334293320399S14756930EA017670180900408000
B0334303320395S14756922EA017660180900408000
B0334313320392S14756914EA017650180800608000
B0334323320390S14756905EA017630180600708000
B0334333320388S14756896EA017620180600608000
B0334343320387S14756887EA017610180500508000
B0334353320387S14756878EA017610180600608000
B0334363320386S14756870EA017620180600508000
B0334373320385S14756862EA017620180500708000
B0334383320385S14756855EA017630180500608000
B0334393320384S14756847EA017630180500608000
B0334403320383S14756839EA017620180400608000
B0334413320382S14756831EA017610180400708000
B0334423320381S14756823EA017600180300708000
B0334433320379S14756815EA017590180100708000
B0334443320378S14756807EA017570180000708000
B0334453320377S14756799EA017560179800608000
B0334463320375S14756791EA017540179700408000
B0334473320373S14756783EA017530179600308000
B0334483320371S14756775EA017530179500508000
B0334493320369S14756767EA017510179400608000
B0334503320367S14756758EA017500179200408000
B0334513320365S14756750EA017460179100408000
B0334523320362S14756741EA017440178900408000
B0334533320360S14756733EA017430178700408000
B0334543320357S14756725EA017410178500508000
B0334553320355S14756717EA017390178200508000
B0334563320353S14756709EA017380178000408000
B0334573320351S14756701EA017360177800608000
B0334583320349S14756693EA017350177700508000
B0334593320346S14756686EA017340177500408000
B0335003320344S14756680EA017330177300508000
B0335013320342S14756673EA017310177200508000
B0335023320340S14756666EA017300177000508000
B0335033320337S14756659EA017280176800508000
B0335043320334S14756652EA017250176500508000
B0335053320331S14756644EA017230176300408000
B0335063320327S14756637EA017200176100508000
B0335073320323S14756630EA017180175900508000
B0335083320318S14756623EA017160175700508000
B0335093320313S14756617EA017140175500508000
B0335103320308S14756611EA017120175200508000
B0335113320303S14756604EA017100175000508000
B0335123320299S14756597EA017090174800508000
B0335133320294S14756590EA017060174500408000
B0335143320289S14756584EA017040174400408000
B0335153320284S14756578EA017030174200408000
B0335163320280S14756572EA017020174100408000
B0335173320275S14756566EA017010174000408000
B0335183320271S14756560EA017000173900408000
B0335193320266S14756554EA016980173800408000
B0335203320262S14756549EA016970173700408000
B0335213320257S14756543EA016970173600408000
B0335223320253S14756538EA016970173500408000
B0335233320250S14756533EA016960173400408000
B0335243320246S14756527EA016940173300408000
B0335253320243S14756522EA016930173100308000
B0335263320239S14756517EA016910173000408000
B0335273320236S14756511EA016890172800508000
B0335283320233S14756505EA016870172600408000
B0335293320231S14756499EA016850172400508000
B0335303320228S14756493EA016830172200508000
B0335313320225S14756487EA016810171900708000
B0335323320220S14756481EA016780171600508000
B0335333320215S14756475EA016730171300508000
B0335343320210S14756469EA016700171000508000
B0335353320203S14756464EA016690170800508000
B0335363320197S14756459EA016680170700508000
B0335373320191S14756455EA016670170500508000
B0335383320185S14756450EA016640170200508000
B0335393320179S14756445EA016620169900408000
B0335403320173S14756440EA016600169700508000
B0335413320168S14756435EA016570169400408000
B0335423320164S14756429EA016550169200508000
B0335433320160S14756424EA016530169000408000
B0335443320156S14756418EA016520168700608000
B0335453320152S14756412EA016500168400608000
B0335463320149S14756405EA016470168100708000
B0335473320145S14756398EA016430167900508000
B0335483320142S14756391EA016400167600508000
B0335493320139S14756384EA016380167300508000
B0335503320136S14756377EA016370167100408000
B0335513320133S14756370EA016350166900408000
B0335523320130S14756363EA016330166600308000
B0335533320127S14756356EA016300166400408000
B0335543320123S14756349EA016270166200408000
B0335553320120S14756342EA016250165900308000
B0335563320116S14756335EA016210165600308000
B0335573320112S14756328EA016190165400308000
B0335583320109S14756321EA016160165200408000
B0335593320105S14756314EA016160165000708000
B0336003320101S14756308EA016150164900708000
B0336013320097S14756301EA016150164800508000
B0336023320094S14756295EA016140164600408000
B0336033320091S14756289EA016130164500508000
B0336043320088S14756282EA016140164400408000
B0336053320085S14756276EA016130164300408000
B0336063320082S14756270EA016120164200408000
B0336073320080S14756264EA016110164100408000
B0336083320078S14756258EA016080164000408000
B0336093320075S14756251EA016040163800608000
B0336103320073S14756244EA016000163600408000
B0336113320071S14756236EA015940163200408000
B0336123320070S14756227EA015900162800508000
B0336133320068S14756219EA015870162500608000
B0336143320066S14756212EA015850162300708000
B0336153320063S14756204EA015840162000408000
B0336163320060S14756197EA015800161800408000
B0336173320056S14756190EA015760161500508000
B0336183320051S14756184EA015720161200508000
B0336193320046S14756177EA015700160900608000
B0336203320041S14756171EA015680160600608000
B0336213320037S14756164EA015660160200408000
B0336223320032S14756158EA015620159700708000
B0336233320027S14756152EA015580159300708000
B0336243320022S14756146EA015540159000608000
B0336253320015S14756141EA015500158500408000
B0336263320008S14756136EA015470158100408000
B0336273320000S14756131EA015450157800508000
B0336283319993S14756126EA015430157500408000
B0336293319984S14756121EA015410157300408000
B0336303319976S14756117EA015380157100408000
B0336313319968S14756114EA015370157000508000
B0336323319960S14756111EA015360156900508000
B0336333319952S14756107EA015360156800408000
B0336343319945S14756104EA015360156700408000
B0336353319938S14756100EA015340156400408000
B0336363319930S14756097EA015320156300408000
B0336373319923S14756093EA015290156100408000
B0336383319915S14756089EA015270156000408000
B0336393319908S14756086EA015270155900408000
B0336403319900S14756082EA015260155700408000
B0336413319892S14756078EA015240155500408000
B0336423319884S14756074EA015230155300808000
B0336433319876S14756070EA015190155100508000
B0336443319868S14756066EA015180155000508000
B0336453319860S14756063EA015180154900408000
B0336463319853S14756059EA015170154700408000
B0336473319845S14756055EA015150154500408000
B0336483319838S14756051EA015140154400408000
B0336493319831S14756047EA015130154200308000
B0336503319823S14756043EA015120154100308000
B0336513319816S14756040EA015100153900308000
B0336523319808S14756036EA015080153800408000
B0336533319801S14756033EA015070153600308000
B0336543319794S14756029EA015050153500308000
B0336553319787S14756025EA015040153300308000
B0336563319780S14756021EA015030153200408000
B0336573319774S14756017EA015030153100508000
B0336583319768S14756012EA015020152900508000
B0336593319762S14756008EA015010152800408000
B0337003319756S14756002EA015000152700308000
B0337013319749S14755997EA014970152600408000
B0337023319742S14755991EA014960152400508000
B0337033319736S14755985EA014950152200408000
B0337043319729S14755978EA014930152000508000
B0337053319723S14755972EA014910151900408000
B0337063319717S14755965EA014890151700408000
B0337073319711S14755959EA014900151600408000
B0337083319706S14755953EA014900151500408000
B0337093319701S14755946EA014880151300508000
B0337103319696S14755939EA014870151200408000
B0337113319692S14755932EA014850151000508000
B0337123319687S14755925EA014840150800508000
B0337133319683S14755918EA014810150700408000
B0337143319678S14755910EA014790150600408000
B0337153319673S14755903EA014780150500408000
B0337163319668S14755896EA014770150400408000
B0337173319663S14755889EA014780150300408000
B0337183319659S14755881EA014770150200408000
B0337193319654S14755874EA014760150100508000
B0337203319650S14755866EA014750150000408000
B0337213319646S14755859EA014720149800408000
B0337223319642S14755851EA014700149600408000
B0337233319638S14755843EA014680149400408000
B0337243319634S14755834EA014630149200408000
B0337253319630S14755827EA014610149100608000
F03372602061219242529
B0337263319626S14755819EA014600148900607000
F0337270205061219242529
B0337273319622S14755812EA014590148700408000
B0337283319619S14755805EA014580148600508000
B0337293319615S14755799EA014580148500408000
B0337303319611S14755793EA014560148300408000
B0337313319608S14755787EA014530148100408000
B0337323319604S14755780EA014510147900408000
B0337333319599S14755773EA014490147700408000
B0337343319596S14755766EA014470147600408000
B0337353319592S14755759EA014450147300508000
B0337363319589S14755752EA014430147000408000
B0337373319585S14755745EA014400146800608000
B0337383319582S14755738EA014390146500708000
B0337393319579S14755731EA014380146300708000
B0337403319576S14755724EA014360146000408000
B0337413319572S14755717EA014340145800408000
B0337423319568S14755711EA014320145600408000
B0337433319564S14755705EA014310145400308000
B0337443319560S14755698EA014290145300308000
B0337453319555S14755692EA014280145100408000
B0337463319551S14755686EA014260144900408000
B0337473319546S14755680EA014240144800308000
B0337483319542S14755674EA014230144700308000
B0337493319537S14755668EA014230144500408000
B0337503319533S14755662EA014210144400408000
B0337513319529S14755655EA014190144200408000
B0337523319525S14755648EA014180144000408000
B0337533319522S14755641EA014150143800408000
B0337543319520S14755633EA014130143600408000
B0337553319517S14755625EA014110143400508000
B0337563319516S14755618EA014090143200608000
B0337573319514S14755611EA014090143000508000
B0337583319512S14755604EA014070142900408000
B0337593319511S14755597EA014070142700408000
B0338003319509S14755591EA014060142500508000
B0338013319506S14755584EA014030142300608000
B0338023319503S14755576EA014000142100308000
B0338033319500S14755569EA013970141900408000
B0338043319496S14755561EA013940141800308000
B0338053319493S14755554EA013930141600408000
B0338063319490S14755548EA013900141400408000
B0338073319486S14755542EA013890141300508000
B0338083319484S14755535EA013870141100408000
B0338093319481S14755529EA013850140900408000
B0338103319479S14755522EA013830140700408000
B0338113319478S14755516EA013800140500408000
B0338123319477S14755509EA013770140300608000
B0338133319476S14755502EA013750140000408000
B0338143319476S14755495EA013730139600608000
B0338153319477S14755488EA013700139300608000
B0338163319479S14755482EA013660138900408000
B0338173319481S14755475EA013620138600508000
B0338183319483S14755468EA013600138200708000
B0338193319485S14755461EA013570137900508000
B0338203319487S14755454EA013550137600508000
B0338213319489S14755448EA013510137200708000
B0338223319490S14755441EA013480136900508000
B0338233319492S14755434EA013460136600508000
B0338243319494S14755427EA013430136200508000
B0338253319496S14755420EA013410135900608000
B0338263319499S14755413EA013370135600408000
B0338273319501S14755406EA013330135400708000
B0338283319503S14755399EA013310135000508000
B0338293319505S14755393EA013280134800508000
B0338303319507S14755386EA013270134500608000
B0338313319510S14755380EA013250134300708000
B0338323319512S14755373EA013230134100708000
B0338333319514S14755367EA013220134000708000
B0338343319516S14755361EA013200133700708000
B0338353319518S14755354EA013170133400408000
B0338363319520S14755347EA013140133200608000
F033837020506121920242529
B0338373319521S14755340EA013130133000309000
B0338383319523S14755333EA013130132900509000
B0338393319525S14755327EA013130132700509000
B0338403319527S14755321EA013120132500509000
B0338413319529S14755315EA013090132400509000
B0338423319530S14755309EA013060132200509000
B0338433319532S14755302EA013040132000509000
B0338443319534S14755296EA013030131900509000
B0338453319536S14755289EA013030131800509000
B0338463319538S14755283EA013020131600509000
B0338473319540S14755276EA013000131500509000
B0338483319542S14755270EA012990131400409000
B0338493319545S14755264EA012990131300509000
B0338503319547S14755258EA012980131200509000
B0338513319550S14755251EA012950131000509000
B0338523319552S14755245EA012940130900509000
B0338533319555S14755239EA012930130800509000
B0338543319557S14755234EA012930130700509000
B0338553319560S14755228EA012930130700409000
B0338563319562S14755223EA012940130600309000
B0338573319564S14755218EA012950130700309000
B0338583319566S14755212EA012960130700409000
B0338593319567S14755207EA012970130800409000
B0339003319568S14755201EA012960130800409000
B0339013319569S14755195EA012960130800409000
B0339023319570S14755189EA012950130900409000
B0339033319571S14755183EA012940130900409000
B0339043319573S14755176EA012940130900509000
B0339053319575S14755170EA012950130900509000
B0339063319578S14755165EA012940131000409000
B0339073319580S14755160EA012940131000409000
B0339083319583S14755154EA012940131000409000
B0339093319585S14755149EA012960131000409000
B0339103319587S14755144EA012960131100409000
B0339113319589S14755139EA012970131100409000
B0339123319591S14755134EA012970131200409000
B0339133319593S14755130EA012990131300409000
B0339143319595S14755125EA013000131400609000
B0339153319596S14755121EA013020131500609000
B0339163319598S14755117EA013040131700509000
B0339173319599S14755113EA013050131900609000
B0339183319600S14755108EA013070132100609000
B0339193319602S14755104EA013110132300509000
B0339203319604S14755100EA013150132500609000
B0339213319606S14755096EA013180132800609000
B0339223319609S14755093EA013220133100409000
B0339233319612S14755089EA013240133500309000
B0339243319615S14755085EA013270133900309000
B0339253319617S14755082EA013280134200409000
B0339263319621S14755078EA013290134500309000
B0339273319624S14755076EA013330134800309000
B0339283319628S14755074EA013370135300409000
B0339293319632S14755074EA013420135800309000
B0339303319637S14755074EA013460136300309000
B0339313319642S14755077EA013490136700409000
B0339323319648S14755083EA013530137100409000
B0339333319654S14755091EA013550137400409000
B0339343319659S14755103EA013560137500409000
B0339353319663S14755118EA013550137500609000
B0339363319664S14755133EA013560137500809000
B0339373319661S14755149EA013590137900909000
B0339383319654S14755163EA013630138300809000
B0339393319646S14755175EA013670138700809000
B0339403319638S14755184EA013690139100909000
B0339413319629S14755189EA013680139300909000
B0339423319620S14755189EA013670139600909000
B0339433319613S14755185EA013680139700809000
B0339443319610S14755181EA013710139900709000
B0339453319609S14755177EA013730140200909000
B0339463319611S14755174EA013780140500809000
B0339473319614S14755173EA013810140800509000
B0339483319616S14755171EA013860141200509000
B0339493319616S14755169EA013890141500709000
B0339503319614S14755167EA013900141700609000
B0339513319606S14755167EA013880141700809000
B0339523319595S14755172EA013870141700809000
B0339533319585S14755181EA013870141801009000
B0339543319575S14755193EA013880141700909000
B0339553319571S14755211EA013900141500909000
B0339563319571S14755230EA013920141500809000
B0339573319574S14755248EA013930141600709000
B0339583319580S14755263EA013950141900809000
B0339593319586S14755276EA013980142300809000
B0340003319593S14755285EA014020142700709000
B0340013319600S14755291EA014060143100609000
B0340023319606S14755295EA014080143400509000
B0340033319612S14755298EA014080143500409000
B0340043319618S14755298EA014080143500509000
B0340053319623S14755296EA014080143600509000
B0340063319627S14755293EA014090143600509000
B0340073319629S14755289EA014100143600409000
B0340083319631S14755285EA014110143700409000
B0340093319632S14755281EA014130143800609000
B0340103319632S14755276EA014150144000509000
B0340113319630S14755273EA014180144100609000
B0340123319628S14755270EA014210144300609000
B0340133319625S14755267EA014250144500609000
B0340143319621S14755265EA014280144700509000
B0340153319615S14755264EA014310145000609000
B0340163319607S14755265EA014340145300609000
B0340173319598S14755268EA014360145500609000
B0340183319589S14755274EA014370145700709000
B0340193319579S14755281EA014370145800909000
B0340203319570S14755290EA014350145801009000
B0340213319563S14755303EA014320145801009000
B0340223319560S14755320EA014300145701109000
B0340233319561S14755338EA014280145600709000
B0340243319565S14755354EA014290145600609000
B0340253319571S14755368EA014300145700609000
B0340263319578S14755377EA014310145900609000
B0340273319586S14755382EA014320145900509000
B0340283319594S14755385EA014330146100409000
B0340293319600S14755386EA014350146200409000
B0340303319605S14755386EA014380146500409000
B0340313319609S14755385EA014400146600409000
B0340323319612S14755383EA014410146800409000
B0340333319614S14755381EA014410146800409000
B0340343319617S14755377EA014420146900409000
B0340353319621S14755373EA014420146900509000
B0340363319624S14755369EA014440147000509000
B0340373319628S14755366EA014470147000509000
B0340383319630S14755363EA014510147200809000
B0340393319633S14755360EA014560147500909000
B0340403319634S14755357EA014600147900809000
B0340413319634S14755353EA014650148300709000
B0340423319634S14755350EA014670148500609000
B0340433319634S14755346EA014690148800709000
B0340443319635S14755342EA014710149100609000
B0340453319635S14755338EA014730149300709000
B0340463319635S14755334EA014750149600609000
B0340473319635S14755330EA014770149900509000
B0340483319636S14755327EA014800150200509000
B0340493319636S14755323EA014820150500509000
B0340503319636S14755318EA014850150700609000
B0340513319636S14755313EA014850150900609000
B0340523319636S14755307EA014850151000609000
B0340533319636S14755301EA014850151200609000
B0340543319638S14755295EA014870151300509000
B0340553319640S14755289EA014870151400609000
B0340563319644S14755284EA014890151500309000
B0340573319647S14755278EA014930151700409000
B0340583319648S14755274EA014950152000509000
B0340593319648S14755269EA014980152300809000
B0341003319646S14755264EA015020152701009000
B0341013319644S14755259EA015070153000809000
B0341023319642S14755255EA015110153400609000
B0341033319639S14755251EA015140153700409000
B0341043319634S14755247EA015160153900409000
B0341053319627S14755244EA015160154100409000
B0341063319618S14755245EA015160154200409000
B0341073319609S14755248EA015180154300509000
B0341083319600S14755254EA015230154500909000
B0341093319591S14755262EA015270154801109000
B0341103319585S14755273EA015310155100709000
B0341113319581S14755286EA015350155400709000
B0341123319580S14755299EA015380155701009000
B0341133319586S14755311EA015370156001009000
B0341143319595S14755317EA015370156300909000
B0341153319604S14755317EA015380156700609000
B0341163319610S14755314EA015420157200509000
B0341173319614S14755310EA015450157600509000
B0341183319616S14755305EA015470157900709000
B0341193319614S14755299EA015480158200709000
B0341203319609S14755295EA015490158600609000
B0341213319602S14755295EA015530159000509000
B0341223319593S14755297EA015570159300609000
B0341233319585S14755303EA015610159700909000
B0341243319577S14755314EA015630159901109000
B0341253319574S14755328EA015640160101209000
B0341263319575S14755344EA015660160100709000
B0341273319581S14755359EA015670160200709000
B0341283319588S14755370EA015690160300609000
B0341293319596S14755379EA015720160600609000
B0341303319604S14755386EA015770160800509000
B0341313319612S14755390EA015810161301009000
B0341323319618S14755391EA015830161600509000
B0341333319622S14755390EA015860161800809000
B0341343319621S14755384EA015870161901009000
B0341353319613S14755379EA015870162101009000
B0341363319601S14755379EA015890162401009000
B0341373319590S14755384EA015930162601009000
B0341383319579S14755391EA015970163001109000
B0341393319573S14755402EA016020163201409000
B0341403319569S14755415EA016050163501309000
B0341413319565S14755430EA016080163801209000
B0341423319563S14755446EA016100164101009000
B0341433319562S14755462EA016120164500509000
B0341443319562S14755478EA016150164900509000
B0341453319564S14755493EA016200165200409000
B0341463319566S14755508EA016230165600509000
B0341473319570S14755520EA016250165900609000
B0341483319577S14755527EA016270166300809000
B0341493319584S14755527EA016280166500509000
B0341503319590S14755524EA016300166800509000
B0341513319593S14755519EA016330167100409000
B0341523319593S14755514EA016360167500609000
B0341533319590S14755510EA016400167700509000
B0341543319585S14755506EA016430168000609000
B0341553319578S14755503EA016450168200709000
B0341563319569S14755504EA016480168500809000
B0341573319559S14755506EA016510168801109000
B0341583319549S14755512EA016540169101009000
B0341593319540S14755520EA016590169401109000
B0342003319532S14755531EA016630169700809000
B0342013319527S14755545EA016650169900809000
B0342023319526S14755561EA016660170100709000
B0342033319527S14755576EA016680170400609000
B0342043319531S14755590EA016700170700509000
B0342053319537S14755603EA016730171000509000
B0342063319543S14755613EA016750171200509000
B0342073319550S14755621EA016790171600809000
B0342083319556S14755628EA016830172000509000
B0342093319562S14755630EA016860172400409000
B0342103319567S14755629EA016880172600409000
B0342113319569S14755626EA016890172800609000
B0342123319566S14755621EA016890173000809000
B0342133319558S14755617EA016900173100809000
B0342143319548S14755615EA016940173300709000
B0342153319538S14755617EA016980173700709000
B0342163319528S14755623EA017030174000709000
B0342173319519S14755631EA017060174301009000
B0342183319510S14755642EA017080174500809000
B0342193319506S14755657EA017100174701209000
B0342203319504S14755674EA017100174800809000
B0342213319508S14755693EA017110175000809000
B0342223319513S14755707EA017130175300909000
B0342233319522S14755711EA017150175600909000
B0342243319531S14755711EA017170175800709000
B0342253319537S14755710EA017200176000609000
B0342263319542S14755706EA017220176200509000
B0342273319544S14755702EA017240176400409000
B0342283319545S14755697EA017250176600509000
B0342293319544S14755692EA017290176900509000
B0342303319541S14755688EA017320177300509000
B0342313319536S14755684EA017350177600509000
B0342323319530S14755682EA017380177900509000
B0342333319522S14755681EA017400178200509000
B0342343319513S14755682EA017430178500409000
B0342353319504S14755684EA017480178900509000
B0342363319494S14755689EA017510179200409000
B0342373319485S14755696EA017530179500609000
B0342383319477S14755708EA017540179600609000
B0342393319472S14755723EA017540179701109000
B0342403319470S14755740EA017530179901109000
B0342413319474S14755756EA017540180000809000
B0342423319482S14755767EA017560180000709000
B0342433319489S14755776EA017580180000709000
B0342443319497S14755783EA017620180300509000
B0342453319504S14755786EA017660180500609000
B0342463319510S14755787EA017680180800509000
B0342473319515S14755785EA017700180900509000
B0342483319519S14755782EA017720181100409000
B0342493319522S14755778EA017740181200509000
B0342503319525S14755775EA017770181500409000
B0342513319526S14755771EA017810181800409000
B0342523319528S14755768EA017850182100409000
B0342533319529S14755764EA017870182300409000
B0342543319529S14755760EA017880182500509000
B0342553319528S14755754EA017900182700509000
B0342563319527S14755748EA017920183000509000
B0342573319526S14755743EA017950183300509000
B0342583319525S14755737EA018000183600409000
B0342593319526S14755732EA018040183800509000
B0343003319527S14755726EA018060184000309000
B0343013319529S14755721EA018060184100309000
B0343023319532S14755716EA018060184300309000
B0343033319535S14755711EA018080184500409000
B0343043319537S14755707EA018110184800409000
B0343053319539S14755703EA018130185000409000
B0343063319542S14755699EA018150185100409000
B0343073319544S14755693EA018160185200409000
B0343083319546S14755687EA018150185300509000
B0343093319548S14755681EA018150185400509000
B0343103319550S14755673EA018160185500409000
B0343113319551S14755666EA018180185700409000
B0343123319552S14755658EA018180185700409000
B0343133319553S14755650EA018180185800409000
B0343143319553S14755642EA018180185900409000
B0343153319554S14755634EA018190186000509000
B0343163319554S14755627EA018210186100409000
B0343173319556S14755619EA018220186200409000
B0343183319557S14755611EA018230186300409000
B0343193319558S14755603EA018200186300509000
B0343203319561S14755594EA018180186300509000
B0343213319564S14755587EA018160186100609000
B0343223319569S14755580EA018160186000409000
B0343233319575S14755574EA018130185800309000
B0343243319581S14755570EA018120185600309000
B0343253319586S14755565EA018090185500309000
B0343263319590S14755560EA018060185300409000
B0343273319595S14755556EA018030185100409000
B0343283319600S14755551EA018000184800409000
B0343293319605S14755546EA017980184600409000
B0343303319610S14755541EA017960184300409000
B0343313319615S14755535EA017930183900409000
B0343323319620S14755529EA017890183600409000
B0343333319624S14755522EA017860183300409000
B0343343319629S14755516EA017840183000409000
B0343353319633S14755509EA017830182800309000
B0343363319636S14755503EA017830182600409000
B0343373319639S14755497EA017820182300409000
B0343383319641S14755490EA017790182100409000
B0343393319644S14755484EA017770181900609000
B0343403319647S14755478EA017760181600609000
B0343413319649S14755472EA017740181400609000
B0343423319652S14755466EA017730181100609000
B0343433319654S14755459EA017700180800609000
B0343443319656S14755452EA017670180700609000
B0343453319659S14755445EA017660180400609000
B0343463319661S14755437EA017670180300609000
B0343473319662S14755429EA017680180300509000
B0343483319664S14755421EA017700180400509000
B0343493319666S14755413EA017720180400509000
B0343503319667S14755404EA017730180600709000
B0343513319668S14755396EA017730180700709000
B0343523319669S14755388EA017760180900709000
B0343533319670S14755381EA017790181000609000
B0343543319671S14755373EA017800181100609000
B0343553319672S14755366EA017790181200709000
B0343563319673S14755358EA017780181200609000
B0343573319674S14755351EA017760181200609000
B0343583319674S14755344EA017770181200509000
B0343593319675S14755337EA017780181300609000
B0344003319676S14755330EA017770181300609000
F0344010205061920242529
B0344013319676S14755323EA017750181300408000
F034402020506121920242529
B0344023319678S14755316EA017740181300509000
B0344033319680S14755310EA017750181400609000
B0344043319682S14755304EA017760181400309000
B0344053319685S14755297EA017750181400309000
B0344063319687S14755291EA017780181400309000
B0344073319689S14755285EA017780181400409000
B0344083319691S14755279EA017790181500409000
B0344093319692S14755273EA017820181700709000
B0344103319693S14755266EA017850181900609000
B0344113319693S14755260EA017860182000609000
B0344123319693S14755253EA017850182000509000
B0344133319694S14755245EA017830182100509000
B0344143319695S14755238EA017830182000609000
B0344153319697S14755230EA017840182100609000
B0344163319699S14755223EA017860182200709000
B0344173319700S14755216EA017870182300609000
B0344183319702S14755210EA017870182400609000
B0344193319703S14755202EA017870182500509000
B0344203319704S14755195EA017880182500409000
B0344213319706S14755187EA017890182600409000
B0344223319707S14755180EA017890182700409000
B0344233319710S14755172EA017910182800509000
B0344243319712S14755164EA017930182800509000
B0344253319715S14755156EA017940182800509000
B0344263319718S14755149EA017940182900609000
B0344273319722S14755141EA017980183000709000
B0344283319725S14755134EA018010183100709000
B0344293319729S14755127EA018040183300609000
B0344303319733S14755121EA018040183400609000
B0344313319736S14755115EA018050183500409000
B0344323319740S14755109EA018080183800509000
B0344333319743S14755103EA018110184000509000
B0344343319745S14755098EA018140184300409000
B0344353319748S14755092EA018190184800509000
F0344360205061219242529
B0344363319751S14755088EA018250185200708000
F034437020506121920242529
B0344373319754S14755084EA018290185700309000
B0344383319756S14755079EA018330186500409000
B0344393319759S14755075EA018370187200409000
B0344403319762S14755071EA018400187700409000
B0344413319765S14755067EA018440188200409000
B0344423319766S14755063EA018460188600409000
B0344433319768S14755058EA018470188900409000
B0344443319769S14755052EA018440189000409000
B0344453319769S14755046EA018440189100709000
B0344463319769S14755040EA018440189200709000
B0344473319768S14755034EA018480189300709000
B0344483319767S14755028EA018490189400709000
B0344493319765S14755022EA018480189400609000
B0344503319762S14755016EA018470189400509000
B0344513319758S14755010EA018470189400409000
B0344523319753S14755004EA018470189400509000
B0344533319748S14754999EA018490189400409000
B0344543319742S14754993EA018500189500509000
B0344553319734S14754989EA018530189600509000
B0344563319726S14754986EA018560189900509000
B0344573319717S14754985EA018610190200509000
B0344583319706S14754987EA018640190600509000
B0344593319695S14754990EA018640190800909000
B0345003319684S14754997EA018620190801109000
B0345013319674S14755008EA018620190801109000
B0345023319667S14755023EA018650190801209000
B0345033319661S14755037EA018670191001109000
B0345043319657S14755052EA018680191101109000
B0345053319655S14755067EA018700191400609000
B0345063319655S14755080EA018740191700509000
B0345073319657S14755094EA018760192000609000
B0345083319660S14755106EA018790192200709000
B0345093319665S14755116EA018810192500709000
B0345103319671S14755125EA018860192800609000
B0345113319677S14755133EA018880193000509000
B0345123319684S14755140EA018910193200509000
B0345133319691S14755145EA018910193300509000
B0345143319698S14755147EA018900193400509000
B0345153319705S14755148EA018900193400509000
B0345163319711S14755149EA018900193400509000
B0345173319717S14755148EA018900193300509000
B0345183319722S14755145EA018880193300409000
B0345193319727S14755141EA018870193200409000
B0345203319732S14755137EA018890193200409000
B0345213319735S14755134EA018910193300409000
B0345223319738S14755129EA018930193400409000
B0345233319739S14755124EA018940193400409000
B0345243319739S14755118EA018930193500709000
B0345253319737S14755113EA018940193500709000
B0345263319736S14755108EA019000193600509000
B0345273319733S14755105EA019050193800409000
B0345283319730S14755102EA019080194000409000
B0345293319726S14755099EA019120194200509000
B0345303319722S14755095EA019140194300409000
B0345313319717S14755090EA019150194400409000
B0345323319713S14755084EA019150194500509000
B0345333319708S14755079EA019150194700509000
B0345343319703S14755073EA019160194900509000
B0345353319699S14755068EA019180195100509000
B0345363319694S14755064EA019210195400409000
B0345373319690S14755059EA019240195600509000
B0345383319685S14755053EA019240195600509000
B0345393319681S14755046EA019240195800409000
B0345403319677S14755039EA019230195900409000
B0345413319672S14755031EA019230196000509000
B0345423319667S14755024EA019250196200409000
B0345433319662S14755018EA019260196400509000
B0345443319658S14755011EA019270196500409000
B0345453319653S14755005EA019270196600409000
B0345463319649S14754997EA019280196600409000
B0345473319645S14754989EA019260196700409000
B0345483319643S14754982EA019260196700509000
B0345493319641S14754975EA019260196800709000
B0345503319639S14754968EA019250196700709000
B0345513319637S14754960EA019230196700709000
B0345523319636S14754952EA019210196600709000
B0345533319634S14754944EA019170196400709000
B0345543319633S14754936EA019150196200609000
B0345553319632S14754928EA019130195900709000
B0345563319631S14754919EA019120195600709000
B0345573319629S14754910EA019060195300509000
B0345583319626S14754901EA019030195100509000
B0345593319622S14754892EA018980194600509000
B0346003319619S14754882EA018930194200509000
B0346013319615S14754874EA018890193700509000
B0346023319611S14754865EA018870193300509000
B0346033319606S14754858EA018800193000509000
B0346043319601S14754851EA018780192600509000
B0346053319596S14754844EA018760192300409000
B0346063319591S14754837EA018760192000409000
B0346073319587S14754829EA018750191700509000
B0346083319582S14754822EA018750191600609000
B0346093319578S14754816EA018740191400609000
B0346103319574S14754809EA018750191500809000
B0346113319570S14754802EA018760191600709000
B0346123319566S14754796EA018760191500609000
B0346133319562S14754789EA018750191300609000
B0346143319557S14754781EA018720191100609000
B0346153319552S14754773EA018690190900409000
B0346163319546S14754766EA018650190700409000
B0346173319540S14754759EA018620190500409000
B0346183319534S14754753EA018620190400409000
B0346193319528S14754747EA018620190200409000
B0346203319523S14754741EA018600190100409000
B0346213319517S14754736EA018590190000409000
B0346223319511S14754731EA018570189800309000
B0346233319504S14754726EA018540189700309000
B0346243319498S14754720EA018520189500409000
B0346253319491S14754714EA018500189300409000
B0346263319485S14754708EA018490189100409000
B0346273319479S14754702EA018470188900409000
B0346283319472S14754697EA018450188700409000
B0346293319465S14754692EA018420188500309000
B0346303319458S14754686EA018400188200309000
B0346313319452S14754681EA018380188000309000
B0346323319446S14754676EA018360187800409000
B0346333319439S14754670EA018320187500409000
B0346343319433S14754664EA018290187300409000
F0346350205061220242529
B0346353319427S14754658EA018270187100608000
B0346363319422S14754651EA018250186900708000
B0346373319416S14754645EA018240186600708000
B0346383319411S14754638EA018210186400708000
B0346393319405S14754631EA018160186100608000
B0346403319399S14754626EA018120185900708000
B0346413319394S14754620EA018120185700508000
B0346423319388S14754614EA018120185500508000
B0346433319383S14754608EA018100185300708000
B0346443319377S14754602EA018070185100708000
B0346453319372S14754596EA018030184700808000
B0346463319366S14754590EA018000184400708000
B0346473319361S14754583EA017980184200808000
B0346483319355S14754576EA017960184000608000
B0346493319350S14754570EA017960183800708000
B0346503319345S14754563EA017970183600708000
B0346513319340S14754557EA017970183500608000
B0346523319336S14754552EA017970183400608000
B0346533319331S14754545EA017960183300808000
B0346543319326S14754539EA017950183200808000
B0346553319321S14754533EA017940183100708000
B0346563319316S14754527EA017930183000608000
B0346573319312S14754521EA017930182900708000
B0346583319307S14754515EA017930182800708000
B0346593319303S14754509EA017920182700608000
B0347003319299S14754502EA017900182600408000
B0347013319294S14754496EA017870182500408000
B0347023319290S14754489EA017860182400608000
B0347033319286S14754482EA017840182300608000
B0347043319282S14754474EA017820182100608000
B0347053319278S14754467EA017790182000608000
B0347063319273S14754460EA017770181700608000
B0347073319268S14754453EA017740181500608000
B0347083319263S14754446EA017730181400608000
B0347093319259S14754438EA017730181300708000
B0347103319254S14754431EA017720181100608000
B0347113319250S14754424EA017720181000508000
B0347123319246S14754417EA017720180900508000
B0347133319242S14754410EA017720180800508000
B0347143319239S14754403EA017720180800608000
B0347153319235S14754396EA017710180700608000
B0347163319231S14754389EA017700180700708000
B0347173319228S14754383EA017710180600508000
F034718020506121920242529
B0347183319224S14754376EA017710180600509000
F0347190205061220242529
B0347193319220S14754370EA017710180500508000
B0347203319217S14754364EA017700180500408000
B0347213319213S14754357EA017690180400408000
B0347223319209S14754351EA017680180400508000
B0347233319205S14754344EA017670180300508000
B0347243319201S14754337EA017650180200608000
B0347253319197S14754331EA017640180200608000
B0347263319192S14754324EA017650180100608000
B0347273319187S14754317EA017650180000608000
B0347283319181S14754310EA017650180000608000
B0347293319177S14754304EA017650180100508000
B0347303319173S14754299EA017670180100608000
B0347313319170S14754293EA017670180100708000
B0347323319168S14754288EA017670180100608000
B0347333319167S14754283EA017670180100708000
B0347343319166S14754278EA017660180200708000
B0347353319166S14754273EA017660180200408000
B0347363319165S14754268EA017710180200408000
B0347373319161S14754262EA017690180200808000
F034738020506121920242529
B0347383319154S14754257EA017650180200109000
F0347390205061220242529
B0347393319145S14754253EA017640180301008000
B0347403319137S14754249EA017660180301108000
B0347413319130S14754245EA017680180300908000
B0347423319124S14754241EA017690180300908000
B0347433319117S14754235EA017680180300908000
B0347443319112S14754229EA017670180300808000
B0347453319107S14754222EA017660180300808000
B0347463319102S14754215EA017650180200808000
B0347473319098S14754209EA017640180200908000
B0347483319095S14754202EA017630180200908000
B0347493319091S14754195EA017640180200708000
B0347503319088S14754189EA017650180100808000
B0347513319084S14754183EA017630180100908000
B0347523319079S14754176EA017600180100808000
B0347533319075S14754169EA017590180000808000
B0347543319071S14754162EA017590180000808000
B0347553319067S14754156EA017600180000808000
B0347563319063S14754149EA017600180000708000
B0347573319059S14754142EA017590180000708000
B0347583319054S14754135EA017580179900708000
B0347593319050S14754128EA017570179900708000
B0348003319045S14754121EA017570179900708000
B0348013319041S14754114EA017570179900708000
B0348023319037S14754106EA017550179800508000
B0348033319034S14754099EA017550179700508000
B0348043319030S14754091EA017520179500508000
B0348053319026S14754082EA017490179400508000
B0348063319022S14754074EA017470179200508000
B0348073319018S14754065EA017450179000608000
B0348083319015S14754057EA017430178800708000
B0348093319010S14754049EA017410178600708000
B0348103319006S14754041EA017390178400608000
B0348113319002S14754034EA017390178300608000
B0348123318998S14754026EA017390178200608000
B0348133318995S14754019EA017390178100608000
B0348143318992S14754011EA017390178000708000
B0348153318989S14754003EA017390177900708000
B0348163318986S14753995EA017410177900608000
F034817020506121920242529
B0348173318984S14753987EA017430177900609000
B0348183318981S14753980EA017440177900609000
B0348193318979S14753973EA017430177800709000
B0348203318976S14753966EA017420177800409000
B0348213318973S14753959EA017400177700409000
B0348223318970S14753951EA017400177700609000
B0348233318968S14753943EA017390177600609000
B0348243318967S14753935EA017380177400609000
B0348253318966S14753928EA017360177300409000
B0348263318965S14753920EA017350177200409000
B0348273318964S14753913EA017340177200609000
B0348283318964S14753906EA017340177200609000
B0348293318964S14753899EA017350177100409000
B0348303318965S14753892EA017370177100409000
B0348313318965S14753884EA017360177000509000
B0348323318966S14753877EA017330176900509000
B0348333318967S14753869EA017310176900609000
B0348343318968S14753861EA017290176800709000
F0348350205061920242529
B0348353318969S14753852EA017280176700508000
F034836020506121920242529
B0348363318970S14753844EA017260176600509000
B0348373318972S14753835EA017250176500609000
B0348383318973S14753827EA017260176300609000
B0348393318974S14753819EA017250176300609000
B0348403318975S14753811EA017240176100609000
B0348413318976S14753803EA017220176100409000
B0348423318976S14753796EA017220176000609000
B0348433318977S14753788EA017240176000609000
B0348443318978S14753780EA017240176000609000
B0348453318980S14753773EA017260176000709000
B0348463318982S14753766EA017270176100609000
B0348473318984S14753759EA017280176100409000
B0348483318985S14753752EA017290176200309000
B0348493318986S14753745EA017300176300709000
B0348503318986S14753739EA017320176500709000
B0348513318987S14753733EA017350176600409000
B0348523318987S14753727EA017360176800409000
B0348533318988S14753722EA017380176900509000
B0348543318989S14753717EA017410177100609000
B0348553318990S14753712EA017410177200609000
B0348563318991S14753706EA017380177300509000
B0348573318990S14753701EA017360177300609000
B0348583318989S14753695EA017340177300709000
B0348593318987S14753689EA017320177200709000
B0349003318983S14753683EA017270177000809000
B0349013318978S14753677EA017230176700409000
B0349023318972S14753671EA017180176400409000
B0349033318965S14753666EA017140175800409000
B0349043318958S14753661EA017120175300409000
B0349053318950S14753656EA017100175000309000
B0349063318942S14753651EA017080174700409000
B0349073318933S14753648EA017050174500409000
B0349083318924S14753644EA017020174200409000
B0349093318915S14753641EA016990173900409000
B0349103318906S14753639EA016970173600409000
B0349113318896S14753636EA016960173300409000
B0349123318887S14753633EA016940173000409000
B0349133318878S14753631EA016920172800409000
B0349143318869S14753628EA016890172600309000
B0349153318861S14753626EA016870172400309000
B0349163318853S14753622EA016850172100409000
B0349173318844S14753619EA016810171800509000
B0349183318836S14753614EA016790171500509000
B0349193318828S14753610EA016750171200309000
B0349203318819S14753605EA016720170900309000
B0349213318811S14753601EA016690170600409000
B0349223318803S14753597EA016670170400509000
B0349233318795S14753593EA016670170200509000
B0349243318788S14753588EA016680170100509000
B0349253318781S14753584EA016670169900509000
B0349263318774S14753579EA016700169700509000
B0349273318768S14753575EA016710169600509000
B0349283318761S14753571EA016750169700509000
B0349293318754S14753568EA016760169800509000
B0349303318747S14753565EA016770170000509000
B0349313318739S14753564EA016780170200509000
B0349323318731S14753562EA016790170400509000
B0349333318722S14753561EA016790170500509000
B0349343318712S14753559EA016800170600509000
B0349353318703S14753556EA016820170700509000
B0349363318695S14753552EA016850171000509000
B0349373318687S14753549EA016880171200509000
B0349383318679S14753545EA016880171400509000
B0349393318673S14753541EA016890171700509000
B0349403318667S14753536EA016920171900409000
B0349413318661S14753531EA016930172200709000
B0349423318656S14753526EA016940172400709000
B0349433318651S14753520EA016930172500509000
B0349443318646S14753513EA016900172600409000
B0349453318640S14753506EA016890172600409000
B0349463318634S14753500EA016870172500409000
B0349473318627S14753493EA016840172400409000
B0349483318620S14753488EA016810172300309000
B0349493318613S14753482EA016800172100409000
B0349503318605S14753478EA016800172000409000
B0349513318596S14753475EA016780171800409000
B0349523318586S14753472EA016750171600409000
B0349533318576S14753470EA016720171300409000
B0349543318566S14753468EA016700171000409000
B0349553318556S14753467EA016690170800409000
B0349563318546S14753465EA016680170500409000
B0349573318536S14753463EA016660170300409000
B0349583318526S14753462EA016630170000409000
B0349593318516S14753460EA016600169800409000
B0350003318506S14753459EA016570169500409000
B0350013318496S14753457EA016540169200409000
B0350023318485S14753456EA016510168900409000
B0350033318475S14753454EA016490168600409000
F0350040205061220242529
B0350043318465S14753453EA016460168300708000
F0350050205121920242529
B0350053318455S14753452EA016430168000308000
B0350063318444S14753450EA016390167700408000
B0350073318434S14753448EA016360167400408000
F035008020506121920242529
B0350083318424S14753446EA016340167200409000
