AFLY00Bn 0100731
HFDTE050118
HFFXA010
HFPLTPILOT:MICHAEL CASSELLS
HFCM2CREW2:NKN
HFGTYGLIDERTYPE:NKN             
HFGIDGLIDERID:NKN             
HFDTM100GPSDATUM:WGS84
HFRFWFIRMWAREVERSION: 2.00.00
HFRHWHARDWAREVERSION:1.00
HFFTYFRTYPE:Flytec Element Track
HFGPS:FASTRAX,IT430,48
HFPRSPRESSALTSENSOR:INTERSEMA,MS5401BM,12000
HFALGALTGPS:GEO
HFALPALTPRESSURE:ISA
HFTZNUTCOFFSET: 11.00h
I033638FXA3940SIU4143TAS
C040118232737050118006902
C3321372S14756016E TAKEOFF
C3321372S14756016E START  BMI023           00000000005000000000360000AREA
C3227913S14859358E TURN   WELLIN           00000000040000000000360000AREA
C3211699S14745731E TURN   BUMF             00000000050000000000360000AREA
C3243740S14812666E FINISH PEAKHI           00000000000400000000360000AREA
C3243740S14812666E LANDING
F012138020612171924
B0121383321349S14756035EA002140023400906000
F01220802061217192428
B0122083321349S14756035EA002140023400507000
F012238020612171924
B0122383321349S14756037EA002140023300706000
F012308020612171924
B0123083321348S14756038EA002140023201206000
F012338020612171924
B0123383321349S14756037EA002140023301206000
F012408020612171924
B0124083321347S14756036EA002140023300906000
F012438020612171924
B0124383321346S14756035EA002140023000606000
F012508020612171924
B0125083321346S14756034EA002140022900706000
F012538020612171924
B0125383321346S14756034EA002140022900806000
E012606STA
E012606ATS1015.0
LFLYA1 00228
B0126063321334S14756004EA002130022900706000
B0126113321316S14755957EA002190023100706000
B0126163321293S14755915EA002320023501006000
B0126213321269S14755875EA002330023901206000
B0126263321242S14755834EA002400024501406000
B0126313321219S14755803EA002560025601006000
B0126363321191S14755772EA002650026700906000
B0126413321162S14755740EA002720028101106000
B0126463321136S14755705EA002750028800906000
B0126513321105S14755671EA002760029700906000
B0126563321072S14755638EA002890030200806000
B0127013321040S14755607EA002990030701006000
B0127063321003S14755583EA003010031101106000
B0127113320963S14755566EA003090031800906000
B0127163320918S14755553EA003120032600906000
B0127213320868S14755547EA003120032801006000
B0127263320817S14755547EA003330033501006000
B0127313320768S14755558EA003490034601406000
B0127363320724S14755585EA003530035600906000
B0127413320688S14755625EA003550036301106000
B0127463320653S14755672EA003580037001006000
B0127513320629S14755729EA003630037501206000
B0127563320627S14755791EA003710038401306000
B0128013320637S14755851EA003790039200906000
B0128063320659S14755909EA003760039601206000
B0128113320689S14755962EA003750040101006000
B0128163320728S14756006EA003750040200906000
B0128213320768S14756046EA003780040600806000
B0128263320808S14756086EA003840041101106000
B0128313320852S14756118EA003920041700906000
B0128363320900S14756139EA004050042701106000
B0128413320951S14756161EA004050042900806000
B0128463321003S14756183EA004050043200806000
B0128513321054S14756203EA004110043701006000
B0128563321107S14756218EA004250044300906000
B0129013321160S14756222EA004400045400906000
B0129063321214S14756227EA004600046800906000
B0129113321267S14756221EA004830048501306000
B0129163321319S14756201EA004930050201306000
B0129213321363S14756173EA004980051601106000
B0129263321402S14756143EA005050053001106000
B0129313321442S14756112EA005100054201206000
F0129360206121924
B0129363321482S14756075EA005100054601105000
F012941020612171924
B0129413321522S14756036EA005090054700106000
B0129463321568S14756007EA005070054700206000
B0129513321620S14755995EA005090054701106000
B0129563321677S14756003EA005070054701106000
B0130013321728S14756025EA005100054601006000
B0130063321774S14756062EA005140054801006000
B0130113321809S14756117EA005180055000706000
B0130163321822S14756183EA005310055500806000
B0130213321811S14756243EA005520056501306000
B0130263321778S14756284EA005520057501306000
B0130313321740S14756320EA005520058001106000
B0130363321704S14756352EA005590058500906000
B0130413321668S14756379EA005520058600806000
B0130463321626S14756402EA005510058600906000
B0130513321584S14756414EA005540058700806000
B0130563321541S14756426EA005460058700906000
B0131013321498S14756435EA005440058300706000
B0131063321451S14756441EA005390057800806000
B0131113321400S14756443EA005450058000906000
B0131163321352S14756442EA005560058400906000
B0131213321304S14756445EA005810059901206000
B0131263321257S14756444EA006030061701306000
B0131313321207S14756442EA006110063000906000
B0131363321160S14756435EA006180064300806000
B0131413321114S14756430EA006140065000906000
B0131463321075S14756417EA006130065201106000
B0131513321033S14756399EA006060065101106000
B0131563320990S14756381EA006090065300806000
B0132013320955S14756358EA006140065300906000
B0132063320924S14756322EA006190065401006000
B0132113320902S14756276EA006310066201206000
B0132163320872S14756236EA006520067100806000
B0132213320838S14756203EA006620068000906000
B0132263320798S14756182EA006840069301206000
B0132313320761S14756173EA007130071401206000
B0132363320742S14756198EA007240073901406000
B0132413320766S14756251EA007350075702106000
B0132463320814S14756269EA007420077701306000
B0132513320841S14756245EA007440079001606000
B0132563320842S14756214EA007490079601006000
B0133013320845S14756184EA007450079601106000
B0133063320846S14756148EA007370079701306000
B0133113320848S14756108EA007410079701206000
B0133163320840S14756082EA007500080000906000
B0133213320822S14756074EA007520080101306000
B0133263320795S14756107EA007490079901006000
B0133313320777S14756160EA007550080301106000
B0133363320763S14756211EA007770081301106000
B0133413320789S14756232EA007900082301406000
B0133463320792S14756200EA007960082802006000
B0133513320760S14756217EA008170083601806000
B0133563320789S14756251EA008290084801606000
B0134013320808S14756220EA008440085601806000
B0134063320781S14756210EA008490087001806000
B0134113320743S14756211EA008520088101906000
B0134163320713S14756244EA008610089301606000
B0134213320698S14756303EA008650090501406000
B0134263320690S14756358EA008660091301206000
B0134313320706S14756410EA008710092001206000
B0134363320740S14756441EA008820093001306000
B0134413320783S14756429EA008830093701606000
B0134463320812S14756399EA008880094101006000
B0134513320836S14756367EA008950094501206000
B0134563320850S14756333EA009050095000906000
B0135013320831S14756318EA009140095402006000
B0135063320804S14756359EA009170096001506000
B0135113320805S14756406EA009290096901706000
B0135163320843S14756442EA009290097701306000
B0135213320870S14756491EA009370098701406000
B0135263320914S14756512EA009400099401406000
B0135313320934S14756481EA009470099501406000
B0135363320920S14756455EA009520099800906000
B0135413320898S14756453EA009600100401406000
B0135463320878S14756486EA009690101401206000
B0135513320858S14756522EA009840102501206000
B0135563320881S14756560EA009940103601506000
B0136013320906S14756534EA010000104201806000
B0136063320886S14756518EA010150105001506000
B0136113320862S14756536EA010260106501206000
B0136163320861S14756580EA010310107601306000
B0136213320893S14756621EA010370109001306000
B0136263320934S14756643EA010450110001406000
B0136313320960S14756616EA010470110602106000
B0136363320931S14756599EA010470110801706000
B0136413320900S14756604EA010610111301206000
B0136463320875S14756635EA010670112101306000
B0136513320861S14756682EA010700112601006000
B0136563320854S14756738EA010780113500906000
B0137013320842S14756787EA010980115001006000
B0137063320856S14756830EA011140116701506000
B0137113320884S14756806EA011220118301906000
B0137163320851S14756805EA011340119802106000
B0137213320829S14756848EA011530121601406000
B0137263320861S14756865EA011620123001906000
B0137313320893S14756836EA011740124300806000
B0137363320916S14756800EA011830125301106000
B0137413320903S14756776EA011980126302006000
B0137463320895S14756830EA012070127201806000
B0137513320919S14756866EA012220128401606000
B0137563320951S14756837EA012350129701706000
B0138013320934S14756807EA012460130401806000
B0138063320906S14756838EA012490131301606000
B0138113320906S14756890EA012640132801606000
F01381602061217192425
B0138163320938S14756921EA012800134901607000
B0138213320978S14756907EA012920136701007000
B0138263320988S14756864EA013010138001207000
B0138313320968S14756836EA013130139400707000
B0138363320936S14756851EA013220140400807000
B0138413320924S14756898EA013320141200607000
B0138463320931S14756944EA013490142700607000
B0138513320965S14756959EA013600144401507000
B0138563320995S14756927EA013770145900807000
B0139013320988S14756896EA013970147801107000
B0139063320974S14756935EA014140149401507000
B0139113321014S14756944EA014360152001407000
B0139163321012S14756914EA014540154201307000
B0139213321006S14756952EA014680155802307000
B0139263321045S14756974EA014870158801807000
B0139313321062S14756934EA015000160301307000
B0139363321040S14756907EA015170161801007000
B0139413321024S14756940EA015320163201007000
B0139463321057S14756955EA015530164902107000
B0139513321063S14756916EA015680166601707000
B0139563321033S14756929EA015810167801007000
B0140013321042S14756978EA015960169301707000
B0140063321082S14756978EA016170171201207000
B0140113321076S14756939EA016320173201707000
B0140163321047S14756960EA016450174400907000
B0140213321055S14757000EA016620175701107000
B0140263321096S14756995EA016830177501907000
B0140313321092S14756964EA016970179202407000
B0140363321057S14756964EA017120180901007000
B0140413321032S14756990EA017240182500807000
B0140463321036S14757030EA017480184501007000
B0140513321071S14757011EA017650186702107000
B0140563321066S14756971EA017790188701507000
B0141013321037S14756965EA017920190100807000
B0141063321028S14757002EA018050191300707000
B0141113321044S14757041EA018160192601007000
B0141163321084S14757055EA018250194001107000
B0141213321127S14757045EA018410195501007000
B0141263321146S14757010EA018570197101607000
B0141313321122S14757005EA018680198401207000
B0141363321130S14757052EA018800199401607000
B0141413321170S14757057EA018950201101307000
B0141463321179S14757013EA019080202201507000
B0141513321152S14756999EA019200203200807000
B0141563321144S14757039EA019310204101507000
B0142013321187S14757055EA019430205901307000
B0142063321219S14757019EA019550207101207000
B0142113321221S14756974EA019660208401107000
B0142163321193S14756971EA019700209401007000
B0142213321177S14757007EA019760210000807000
B0142263321164S14757046EA019840210600607000
B0142313321156S14757086EA019960211401107000
B0142363321191S14757099EA020070212301707000
B0142413321210S14757052EA020130213001407000
B0142463321192S14757012EA020210214101107000
B0142513321162S14757007EA020300214700807000
B0142563321166S14757043EA020370215201807000
B0143013321213S14757055EA020420216201407000
B0143063321253S14757032EA020490217001207000
B0143113321274S14756987EA020550217501007000
B0143163321291S14756938EA020610218000807000
B0143213321296S14756890EA020680218701007000
B0143263321293S14756844EA020710219201007000
B0143313321281S14756808EA020650219401107000
B0143363321254S14756814EA020590219300707000
B0143413321240S14756838EA020550219100607000
B0143463321245S14756881EA020500218800607000
B0143513321253S14756923EA020490218400507000
B0143563321258S14756965EA020490218100507000
B0144013321267S14757007EA020450217700407000
B0144063321275S14757049EA020410217400407000
B0144113321281S14757092EA020400217100507000
B0144163321289S14757129EA020420217000407000
B0144213321293S14757169EA020470217300407000
B0144263321295S14757209EA020540217700507000
B0144313321297S14757255EA020610218300407000
B0144363321302S14757303EA020700219000507000
B0144413321310S14757349EA020810220100407000
B0144463321319S14757391EA020960221400507000
B0144513321331S14757434EA021080222900807000
B0144563321350S14757479EA021180224200707000
B0145013321372S14757523EA021240225400907000
B0145063321394S14757565EA021270226000807000
B0145113321421S14757610EA021240226301207000
B0145163321454S14757651EA021230226201207000
B0145213321479S14757694EA021290226401107000
B0145263321501S14757742EA021350226601107000
B0145313321521S14757793EA021410227001107000
B0145363321534S14757845EA021550228100607000
B0145413321546S14757897EA021680229401007000
B0145463321565S14757950EA021780230600907000
B0145513321586S14758003EA021930232000807000
B0145563321618S14758043EA022040233401207000
B0146013321648S14758023EA022090234501407000
B0146063321643S14757992EA022190235300707000
B0146113321625S14757972EA022250236200707000
B0146163321597S14757963EA022310236800907000
B0146213321566S14757958EA022410237400607000
B0146263321538S14757951EA022500238300507000
B0146313321515S14757939EA022560238800507000
B0146363321492S14757928EA022580239100507000
B0146413321469S14757917EA022600239400707000
B0146463321450S14757910EA022600239500507000
B0146513321428S14757904EA022610239600507000
B0146563321403S14757898EA022670239900507000
B0147013321374S14757895EA022790240600507000
B0147063321343S14757912EA022880241100807000
B0147113321353S14757964EA023050242202207000
B0147163321380S14757947EA023180243401507000
B0147213321350S14757947EA023290244401307000
B0147263321344S14757997EA023460246301807000
B0147313321383S14757992EA023620249101607000
B0147363321374S14757976EA023760251001207000
B0147413321349S14758013EA023950252701107000
B0147463321383S14758045EA024110255001907000
B0147513321400S14758018EA024290256801507000
B0147563321370S14758010EA024460258601207000
B0148013321366S14758060EA024580260301707000
B0148063321407S14758082EA024730261801807000
B0148113321424S14758050EA024880263102007000
B0148163321394S14758047EA025040264301207000
B0148213321384S14758099EA025160265601407000
B0148263321422S14758130EA025290267501607000
B0148313321443S14758106EA025390268701507000
B0148363321423S14758086EA025540269801107000
B0148413321395S14758101EA025690271000807000
B0148463321378S14758154EA025790272200807000
B0148513321381S14758217EA025950273600907000
B0148563321418S14758256EA026100275501707000
B0149013321454S14758249EA026180276900807000
B0149063321467S14758224EA026240278000807000
B0149113321454S14758208EA026320278701307000
B0149163321426S14758242EA026390279200907000
B0149213321413S14758301EA026560280100807000
B0149263321436S14758358EA026690281701507000
B0149313321474S14758351EA026750282901807000
B0149363321476S14758326EA026760283301107000
B0149413321464S14758304EA026780283600907000
B0149463321434S14758296EA026870283900707000
B0149513321408S14758340EA026980284300907000
B0149563321430S14758388EA027070285101807000
B0150013321466S14758379EA027120286101507000
B0150063321488S14758359EA027190286901207000
B0150113321489S14758333EA027260287401607000
B0150163321456S14758330EA027300287900807000
B0150213321423S14758368EA027350288500807000
B0150263321394S14758411EA027440289300707000
B0150313321379S14758465EA027490290100707000
B0150363321395S14758519EA027530290701307000
B0150413321433S14758540EA027500290801307000
B0150463321458S14758526EA027480290601307000
B0150513321461S14758504EA027480290600807000
B0150563321453S14758482EA027470290600707000
B0151013321443S14758460EA027480290700907000
B0151063321431S14758437EA027490290700507000
B0151113321408S14758423EA027510290700807000
B0151163321382S14758412EA027550291000607000
B0151213321355S14758401EA027570291200607000
B0151263321326S14758387EA027520291300807000
B0151313321310S14758368EA027410291200607000
B0151363321289S14758346EA027280290500707000
B0151413321260S14758326EA027260289801007000
B0151463321225S14758314EA027230289400707000
B0151513321192S14758297EA027150288600707000
B0151563321155S14758281EA027010287700707000
B0152013321124S14758258EA026950286900507000
B0152063321097S14758230EA026990286400907000
B0152113321082S14758199EA027090286400907000
B0152163321064S14758170EA027170286700607000
B0152213321027S14758165EA027180287000607000
B0152263320984S14758188EA027160287100907000
B0152313320942S14758201EA027100286900507000
B0152363320897S14758211EA027090286700607000
B0152413320861S14758248EA027120286600807000
B0152463320866S14758301EA027120286601407000
B0152513320895S14758339EA027090286601707000
B0152563320926S14758354EA027140287101407000
B0153013320958S14758354EA027170287300607000
B0153063320993S14758362EA027110287300707000
B0153113321026S14758372EA027090287001107000
B0153163321052S14758369EA027060286801107000
B0153213321078S14758356EA027020286501007000
B0153263321105S14758342EA027020286400807000
B0153313321136S14758344EA027110286500507000
B0153363321169S14758350EA027170286801007000
B0153413321182S14758323EA027290287601407000
B0153463321144S14758304EA027340288101107000
B0153513321107S14758335EA027380288800807000
B0153563321107S14758392EA027380289301607000
B0154013321127S14758442EA027420289801307000
B0154063321156S14758465EA027490290300707000
B0154113321177S14758448EA027480290401007000
B0154163321173S14758414EA027540290600707000
B0154213321169S14758379EA027560290801107000
B0154263321190S14758355EA027530291000807000
B0154313321224S14758348EA027430290901107000
B0154363321249S14758331EA027450290501107000
F0154410205061217192425
B0154413321269S14758303EA027450290400808000
B0154463321289S14758280EA027460290500708000
F015451020506121719242529
B0154513321315S14758259EA027420290100609000
B0154563321342S14758235EA027380289800309000
B0155013321365S14758207EA027400289800309000
B0155063321389S14758185EA027360289700809000
B0155113321414S14758161EA027300289400409000
B0155163321441S14758137EA027230288700409000
B0155213321469S14758116EA027140287600309000
B0155263321497S14758090EA027100287000409000
B0155313321531S14758077EA027010286100309000
B0155363321566S14758071EA026950285300309000
B0155413321600S14758066EA026870284400409000
B0155463321637S14758059EA026760283300409000
B0155513321668S14758059EA026690282300309000
B0155563321698S14758064EA026620281500309000
B0156013321725S14758060EA026650281300409000
B0156063321752S14758036EA026600281200509000
B0156113321781S14758021EA026600281200509000
B0156163321815S14758006EA026660281700409000
B0156213321851S14757983EA026740282600709000
B0156263321854S14757931EA026810283400909000
B0156313321820S14757915EA026850283800809000
B0156363321798S14757948EA026810283700509000
B0156413321791S14757986EA026740283000409000
B0156463321781S14758033EA026760282700509000
B0156513321787S14758075EA026850283200409000
B0156563321801S14758107EA026970284400609000
B0157013321836S14758077EA026990285300809000
B0157063321853S14758027EA027010285600609000
B0157113321840S14757974EA027040285800809000
B0157163321810S14757970EA027110286100709000
B0157213321822S14758006EA027140286400709000
B0157263321859S14757986EA027140286700809000
B0157313321863S14757932EA027110286600909000
B0157363321828S14757911EA027130286700809000
B0157413321792S14757930EA027170287000609000
B0157463321785S14757965EA027130286901409000
B0157513321813S14757984EA027110286600609000
B0157563321848S14757984EA027120286900409000
B0158013321878S14757960EA027130286900709000
B0158063321908S14757922EA027010286300809000
B0158113321895S14757876EA026920285001009000
B0158163321850S14757874EA026740282900909000
B0158213321820S14757902EA026650281500409000
B0158263321793S14757930EA026610280600509000
B0158313321771S14757966EA026580280300309000
B0158363321755S14757999EA026540280300409000
B0158413321738S14758037EA026520280200409000
B0158463321725S14758073EA026460279700309000
B0158513321713S14758111EA026380279000309000
B0158563321707S14758152EA026250277800309000
B0159013321705S14758189EA026120276500309000
B0159063321713S14758223EA026000275300309000
B0159113321720S14758261EA025910274200509000
B0159163321725S14758299EA025940273800309000
B0159213321729S14758337EA025950273900309000
B0159263321761S14758346EA025940274100909000
B0159313321781S14758305EA025910274101009000
B0159363321758S14758265EA025760273100609000
B0159413321720S14758237EA025710272400809000
B0159463321680S14758225EA025650271600509000
B0159513321644S14758239EA025560270800509000
B0159563321613S14758262EA025460269800509000
B0200013321590S14758291EA025330268800709000
B0200063321588S14758331EA025240267400609000
B0200113321617S14758358EA025090266001009000
B0200163321659S14758342EA024990264700709000
B0200213321681S14758298EA024900263500809000
B0200263321680S14758243EA024820262300509000
B0200313321674S14758187EA024700261300509000
B0200363321659S14758135EA024580260100409000
B0200413321644S14758080EA024360258400409000
B0200463321622S14758033EA024180256300609000
B0200513321590S14757996EA024020254500509000
B0200563321549S14757978EA023900252900309000
B0201013321505S14757973EA023780251500309000
B0201063321456S14757966EA023710250500709000
B0201113321411S14757964EA023620249700509000
B0201163321367S14757966EA023520249000709000
B0201213321323S14757973EA023410248000609000
B0201263321279S14757980EA023240246500609000
B0201313321235S14757987EA023200245700509000
B0201363321196S14757989EA023160245000509000
B0201413321151S14757986EA023050244200509000
B0201463321109S14757984EA023020243700409000
B0201513321066S14757983EA022960243200409000
B0201563321024S14757983EA023000243200609000
B0202013320983S14757985EA023000243300609000
B0202063320945S14757984EA022980243200409000
B0202113320907S14757978EA022960243000309000
B0202163320870S14757980EA023010243300609000
B0202213320836S14757988EA023010243500609000
B0202263320802S14757994EA022950243300409000
B0202313320765S14758006EA022910242800409000
B0202363320724S14758020EA022790241800509000
B0202413320687S14758013EA022680240600409000
B0202463320650S14757995EA022570239300709000
B0202513320612S14757985EA022520238300509000
B0202563320570S14757983EA022480237700609000
B0203013320530S14757981EA022540237800409000
B0203063320489S14757977EA022610238800309000
B0203113320451S14757971EA022730240200509000
B0203163320411S14757976EA022880241900609000
B0203213320398S14758023EA023050243600809000
B0203263320427S14758019EA023170245101309000
B0203313320395S14757994EA023330246701109000
B0203363320382S14758044EA023460248601009000
B0203413320414S14758035EA023560249701209000
B0203463320388S14758004EA023700250801409000
B0203513320373S14758043EA023900252401209000
B0203563320397S14758043EA023980253601209000
B0204013320370S14758032EA024060254800709000
B0204063320346S14758065EA024180255800709000
B0204113320341S14758114EA024290256900609000
B0204163320353S14758172EA024460258300709000
B0204213320391S14758204EA024610260000909000
B0204263320402S14758187EA024600260801209000
B0204313320363S14758215EA024700261300709000
B0204363320337S14758258EA024880262600609000
B0204413320323S14758307EA024900263300509000
B0204463320347S14758356EA024860263301309000
B0204513320385S14758354EA024870263400809000
B0204563320401S14758321EA025020263800609000
B0205013320391S14758307EA025080264801009000
B0205063320346S14758341EA025160265400809000
B0205113320339S14758403EA025180265800809000
B0205163320376S14758446EA025080265501109000
B0205213320415S14758444EA025100265300609000
B0205263320455S14758438EA025170265600409000
B0205313320492S14758430EA025260266300609000
B0205363320522S14758418EA025360267200309000
B0205413320537S14758394EA025450268100709000
B0205463320512S14758388EA025580269500909000
B0205513320480S14758412EA025610270300709000
B0205563320459S14758476EA025690270900509000
B0206013320479S14758535EA025760271900909000
B0206063320518S14758576EA025830273000809000
B0206113320557S14758608EA025930274000609000
B0206163320582S14758597EA026010275101409000
B0206213320562S14758576EA026060275800709000
B0206263320532S14758573EA026100276000509000
B0206313320506S14758564EA026170276400409000
B0206363320486S14758551EA026230276800409000
B0206413320480S14758525EA026120276700509000
B0206463320464S14758502EA026120276500809000
B0206513320434S14758484EA026080275900409000
B0206563320399S14758468EA026040275500409000
B0207013320372S14758446EA025970274900509000
B0207063320348S14758422EA025910274300409000
B0207113320320S14758400EA025870273600309000
B0207163320293S14758374EA025820273200509000
B0207213320277S14758351EA025850273000509000
B0207263320261S14758330EA025880273100509000
B0207313320241S14758314EA025830273000309000
B0207363320219S14758300EA025780272800409000
B0207413320201S14758284EA025780272600609000
B0207463320184S14758265EA025720272300609000
B0207513320163S14758251EA025670272000509000
B0207563320139S14758237EA025640271700409000
B0208013320112S14758222EA025650271600509000
B0208063320084S14758205EA025690271800409000
B0208113320061S14758177EA025780272400609000
B0208163320041S14758147EA025790272700409000
B0208213320021S14758119EA025820273000509000
B0208263320005S14758083EA025910273500409000
B0208313319977S14758080EA025960274000809000
B0208363319970S14758131EA025980274400709000
B0208413319998S14758160EA026110275301009000
B0208463320003S14758129EA026210276401109000
B0208513319969S14758140EA026290277700909000
B0208563319977S14758190EA026380278601509000
B0209013320005S14758178EA026470279601309000
B0209063319983S14758150EA026520280201109000
B0209113319946S14758165EA026550280900909000
B0209163319935S14758222EA026600281300509000
B0209213319951S14758264EA026670281800809000
B0209263319980S14758261EA026710282300809000
B0209313319986S14758228EA026750282500809000
B0209363319984S14758198EA026820283100609000
B0209413319976S14758166EA026830283400409000
B0209463319966S14758135EA026810283600609000
B0209513319964S14758093EA026830283700509000
B0209563319957S14758054EA026780283500809000
B0210013319943S14758016EA026780283400809000
B0210063319926S14757975EA026670282400609000
B0210113319923S14757933EA026580281700909000
B0210163319948S14757911EA026480280600609000
B0210213319976S14757893EA026350279000709000
B0210263320001S14757868EA026270277800809000
B0210313320023S14757838EA026250277000409000
B0210363320041S14757807EA026250276600309000
B0210413320057S14757779EA026200276400709000
B0210463320070S14757755EA026180276500509000
B0210513320081S14757725EA026110276000709000
B0210563320098S14757700EA026060275600409000
B0211013320115S14757677EA026000275100309000
B0211063320133S14757660EA025990274900509000
B0211113320131S14757629EA025890274200709000
B0211163320116S14757597EA025800273300609000
B0211213320107S14757563EA025670272100409000
B0211263320100S14757529EA025580271000409000
B0211313320088S14757492EA025430269300409000
B0211363320073S14757456EA025370268100409000
B0211413320063S14757419EA025250266900509000
B0211463320068S14757374EA025140265800509000
B0211513320079S14757329EA025130265300809000
B0211563320081S14757290EA025170265500409000
B0212013320083S14757260EA025120265500609000
B0212063320083S14757230EA025120265300309000
B0212113320085S14757201EA025150265400309000
B0212163320083S14757165EA025150265600509000
B0212213320090S14757130EA025230266100409000
B0212263320105S14757099EA025180266300609000
B0212313320111S14757071EA025030265600509000
B0212363320123S14757037EA024950264600409000
B0212413320119S14756999EA024880263700609000
B0212463320115S14756964EA024900263300409000
B0212513320118S14756928EA024860263000309000
B0212563320122S14756891EA024840262800309000
B0213013320127S14756852EA024800262400309000
B0213063320121S14756810EA024690261800309000
B0213113320106S14756773EA024650261200509000
B0213163320087S14756741EA024540260400609000
B0213213320065S14756711EA024490259600809000
B0213263320037S14756684EA024450259100509000
B0213313320009S14756658EA024380258200809000
B0213363319971S14756638EA024280257200509000
B0213413319930S14756614EA024170256200409000
B0213463319892S14756592EA024090255300509000
B0213513319857S14756574EA023990254100409000
B0213563319822S14756560EA023890253000409000
B0214013319787S14756547EA023780251800409000
B0214063319756S14756533EA023700250900509000
B0214113319726S14756514EA023610249800409000
B0214163319697S14756494EA023530248900409000
B0214213319670S14756471EA023470248300409000
B0214263319645S14756445EA023420247800409000
B0214313319622S14756418EA023370247500709000
B0214363319598S14756391EA023300246800509000
B0214413319574S14756362EA023220246100409000
B0214463319548S14756339EA023120245200509000
B0214513319522S14756322EA023020244500709000
B0214563319497S14756305EA023040244000609000
B0215013319475S14756282EA023060244300509000
B0215063319453S14756258EA023120244800509000
B0215113319430S14756240EA023170245400409000
B0215163319405S14756224EA023230245900509000
B0215213319379S14756205EA023260246300409000
B0215263319355S14756186EA023280246700409000
B0215313319332S14756164EA023280246800509000
B0215363319309S14756140EA023280246800409000
B0215413319284S14756114EA023310246900509000
B0215463319256S14756091EA023440247900609000
B0215513319230S14756070EA023530248900609000
B0215563319203S14756051EA023630250000609000
B0216013319177S14756031EA023720251100409000
B0216063319152S14756007EA023850252300409000
B0216113319131S14755977EA023940253500609000
B0216163319106S14755949EA024060254600509000
B0216213319079S14755923EA024240256200409000
B0216263319049S14755916EA024370257800809000
B0216313319044S14755958EA024500259100809000
B0216363319083S14755973EA024650260501009000
B0216413319080S14755937EA024810262101209000
B0216463319070S14755977EA024940263500909000
B0216513319106S14755980EA025100265301109000
B0216563319098S14755938EA025250267100809000
B0217013319074S14755968EA025350268300909000
B0217063319099S14756011EA025480269501109000
B0217113319140S14755992EA025600271001209000
B0217163319149S14755954EA025740272601209000
B0217213319116S14755952EA025870273900809000
B0217263319090S14755982EA025960274900509000
B0217313319094S14756018EA026090276100709000
B0217363319138S14756021EA026150276701309000
B0217413319177S14756006EA026280277900909000
B0217463319205S14755976EA026400279100509000
B0217513319190S14755946EA026520280301109000
B0217563319167S14755978EA026650281500809000
B0218013319188S14756019EA026750282601209000
B0218063319230S14756023EA026860284100909000
B0218113319262S14755999EA026940284900609000
B0218163319263S14755954EA027060285900909000
B0218213319244S14755921EA027140286700609000
B0218263319216S14755913EA027200287500509000
B0218313319189S14755939EA027230287900509000
B0218363319169S14755978EA027240288000409000
B0218413319158S14756023EA027290288300409000
B0218463319149S14756069EA027320288600509000
B0218513319154S14756116EA027350288900609000
B0218563319188S14756144EA027340288900909000
B0219013319224S14756127EA027350289000909000
B0219063319240S14756092EA027380289300409000
B0219113319241S14756052EA027430289600409000
B0219163319218S14756032EA027440289800809000
B0219213319192S14756066EA027480290100409000
B0219263319184S14756107EA027510290500609000
B0219313319194S14756154EA027510290500309000
B0219363319196S14756201EA027490290500309000
B0219413319199S14756249EA027490290500409000
F0219460205061217192425
B0219463319201S14756297EA027480290400408000
F021951020506121719242529
B0219513319213S14756344EA027470290300609000
B0219563319247S14756355EA027340289301109000
B0220013319273S14756323EA027270288400509000
B0220063319292S14756291EA027240287800809000
B0220113319303S14756253EA027270287600309000
B0220163319315S14756216EA027270287700409000
B0220213319322S14756179EA027240287600409000
B0220263319305S14756152EA027230287500309000
B0220313319280S14756135EA027250287600309000
B0220363319251S14756125EA027260287700509000
B0220413319218S14756129EA027240287700509000
B0220463319186S14756149EA027230287800609000
B0220513319162S14756185EA027220287700309000
B0220563319151S14756232EA027220287600409000
B0221013319164S14756280EA027210287500509000
B0221063319191S14756310EA027140287100609000
B0221113319230S14756321EA027080286400509000
B0221163319271S14756321EA027050286200409000
B0221213319311S14756324EA027020285900609000
B0221263319348S14756319EA026990285600409000
B0221313319373S14756294EA026940285200709000
F0221360205061217242529
B0221363319373S14756260EA026890284700608000
F022141020506121719242529
B0221413319353S14756235EA026860284400409000
B0221463319326S14756210EA026880284300409000
B0221513319299S14756195EA026950284700509000
B0221563319289S14756226EA026970284900909000
B0222013319326S14756249EA027030285400709000
B0222063319360S14756225EA027110286201009000
B0222113319352S14756189EA027150286700909000
B0222163319320S14756203EA027120286700909000
B0222213319306S14756247EA027090286600709000
B0222263319325S14756291EA027150286901209000
B0222313319367S14756301EA027200287500709000
B0222363319403S14756286EA027260287900609000
B0222413319424S14756251EA027320288500709000
B0222463319429S14756212EA027390288900409000
B0222513319404S14756201EA027290288600509000
B0222563319380S14756230EA027210287800609000
B0223013319391S14756277EA027220287200609000
B0223063319430S14756308EA027270287600709000
B0223113319474S14756318EA027350288700809000
B0223163319506S14756293EA027420289500609000
B0223213319500S14756260EA027470290001009000
B0223263319472S14756274EA027500290300809000
B0223313319468S14756323EA027560290700609000
B0223363319498S14756356EA027640291701009000
B0223413319534S14756340EA027730292800709000
B0223463319535S14756309EA027780293600809000
B0223513319509S14756318EA027790293701009000
B0223563319490S14756355EA027860294000509000
B0224013319483S14756400EA027940294600809000
B0224063319508S14756442EA028020295500909000
B0224113319550S14756447EA028070296300709000
B0224163319578S14756424EA028090296900809000
B0224213319586S14756391EA028090297000409000
B0224263319579S14756358EA028080296900509000
F0224310205061219242529
B0224313319574S14756322EA028070296800608000
F022436020506121719242529
B0224363319575S14756280EA028020296400309000
B0224413319576S14756236EA027980295900309000
B0224463319572S14756190EA027920295400309000
B0224513319564S14756153EA027970295200609000
B0224563319554S14756122EA027970295100409000
B0225013319547S14756088EA027950295000309000
B0225063319541S14756055EA027880294600409000
B0225113319531S14756016EA027660293300809000
B0225163319539S14755974EA027640292600409000
B0225213319552S14755940EA027650292400409000
B0225263319567S14755908EA027610292000309000
B0225313319582S14755875EA027630291800509000
B0225363319585S14755842EA027590291600509000
B0225413319595S14755811EA027480291000309000
B0225463319614S14755781EA027390290000609000
B0225513319628S14755747EA027250288700409000
B0225563319637S14755713EA027140287400309000
B0226013319644S14755675EA026990286000309000
B0226063319651S14755643EA026900284800309000
B0226113319657S14755610EA026800283600309000
B0226163319659S14755573EA026710282500309000
B0226213319662S14755536EA026650281600309000
B0226263319668S14755497EA026610281100309000
B0226313319677S14755444EA026570280600409000
B0226363319656S14755415EA026490280000909000
B0226413319624S14755427EA026350278700609000
B0226463319595S14755446EA026170277300509000
B0226513319582S14755484EA026150276300709000
B0226563319612S14755529EA026100275800909000
B0227013319658S14755559EA026080275600609000
B0227063319706S14755574EA026130276100509000
B0227113319753S14755574EA026120276400709000
B0227163319785S14755542EA026090276100509000
B0227213319775S14755513EA026060275700809000
B0227263319753S14755533EA026090275600709000
B0227313319763S14755583EA026120275800709000
B0227363319795S14755625EA026140276100709000
B0227413319836S14755640EA026060275800809000
B0227463319874S14755628EA025930274600509000
B0227513319907S14755602EA025820273300509000
B0227563319909S14755560EA025790272400509000
B0228013319899S14755527EA025750271900409000
B0228063319874S14755509EA025690271300509000
B0228113319845S14755516EA025670270900509000
B0228163319829S14755549EA025630270600509000
B0228213319842S14755595EA025610270400609000
B0228263319880S14755618EA025590270300809000
B0228313319925S14755628EA025600270400709000
B0228363319970S14755639EA025590270400809000
B0228413320017S14755651EA025560270200709000
B0228463320063S14755653EA025490269500709000
B0228513320104S14755637EA025440268900409000
B0228563320143S14755618EA025360268500409000
B0229013320183S14755619EA025310268000609000
B0229063320222S14755628EA025250267200609000
B0229113320261S14755637EA025130266301009000
B0229163320305S14755645EA025000265200809000
B0229213320343S14755678EA024890264101009000
B0229263320372S14755715EA024810263000609000
B0229313320393S14755757EA024690261800709000
B0229363320383S14755802EA024590260800709000
B0229413320352S14755832EA024520259700609000
B0229463320317S14755844EA024490259100709000
B0229513320283S14755854EA024500259001009000
B0229563320250S14755865EA024480258800709000
B0230013320212S14755868EA024490258800509000
B0230063320175S14755863EA024510258900709000
F0230110205061217192429
B0230113320137S14755861EA024520259100408000
F023016020506121719242529
B0230163320100S14755855EA024520259100509000
B0230213320065S14755861EA024440258700709000
B0230263320031S14755875EA024340257900509000
B0230313319995S14755885EA024220256700609000
B0230363319962S14755901EA024230256100609000
B0230413319928S14755907EA024210255900409000
B0230463319897S14755907EA024210255800609000
B0230513319864S14755915EA024170255500609000
B0230563319831S14755921EA024120255200509000
B0231013319800S14755938EA024000254600809000
B0231063319762S14755960EA023870253400709000
B0231113319720S14755955EA023760251900709000
B0231163319706S14755910EA023580250400909000
B0231213319710S14755864EA023560249401009000
B0231263319673S14755859EA023390247700909000
B0231313319633S14755877EA023280246300609000
F0231360205061219242529
B0231363319600S14755899EA023250245500808000
B0231413319565S14755922EA023190245000508000
B0231463319526S14755932EA023130244500708000
B0231513319489S14755941EA023130244400608000
B0231563319453S14755953EA023090244100708000
B0232013319422S14755972EA023090244000708000
B0232063319389S14755987EA023100244100608000
B0232113319355S14755988EA023100244300608000
B0232163319316S14755988EA023110244400708000
B0232213319278S14756008EA023160244800508000
B0232263319241S14756033EA023200245200708000
B0232313319202S14756041EA023250245600608000
B0232363319173S14756019EA023240245600708000
B0232413319157S14755986EA023260245800708000
B0232463319161S14755947EA023300246200808000
B0232513319175S14755916EA023300246300608000
B0232563319188S14755887EA023370246800508000
B0233013319206S14755862EA023450247400808000
B0233063319241S14755891EA023400247701608000
B0233113319232S14755957EA023430248000908000
B0233163319197S14755983EA023460248301008000
B0233213319165S14755975EA023500248500608000
B0233263319152S14755944EA023480248600908000
B0233313319163S14755919EA023510248500608000
B0233363319197S14755911EA023500248600508000
B0233413319237S14755921EA023530248900708000
B0233463319279S14755942EA023510249000708000
B0233513319318S14755969EA023480248900508000
B0233563319354S14755997EA023470248800608000
B0234013319391S14756020EA023460248600608000
B0234063319430S14756045EA023450248400708000
B0234113319463S14756080EA023440248200608000
B0234163319491S14756117EA023460248300608000
B0234213319521S14756158EA023390248100708000
B0234263319554S14756167EA023370247600808000
B0234313319585S14756166EA023330247200608000
B0234363319619S14756179EA023240246400808000
B0234413319654S14756193EA023170245700908000
B0234463319689S14756201EA023100244800708000
B0234513319725S14756213EA023080244400808000
B0234563319761S14756229EA023060243900808000
B0235013319795S14756247EA022970243300708000
B0235063319830S14756271EA022890242500608000
B0235113319863S14756299EA022800241500608000
B0235163319900S14756317EA022650240100708000
B0235213319940S14756339EA022470238400608000
B0235263319985S14756366EA022330236400908000
B0235313320023S14756392EA022270235300808000
B0235363320060S14756425EA022190234500708000
B0235413320100S14756460EA022120233500808000
B0235463320141S14756481EA022090233100708000
B0235513320185S14756492EA022140233200908000
B0235563320226S14756494EA022250234200708000
B0236013320261S14756484EA022250234800708000
B0236063320298S14756466EA022170234600608000
B0236113320340S14756449EA022150234300608000
B0236163320388S14756437EA022230234300808000
B0236213320424S14756422EA022360235500808000
B0236263320459S14756407EA022440236600708000
B0236313320498S14756394EA022530237800808000
B0236363320538S14756391EA022610238900708000
B0236413320580S14756390EA022780240400708000
B0236463320610S14756365EA022930242300908000
B0236513320600S14756334EA023030243601108000
B0236563320576S14756360EA023150244901208000
B0237013320586S14756403EA023350246801008000
B0237063320627S14756402EA023500248701008000
B0237113320640S14756364EA023610249901308000
B0237163320614S14756363EA023700251001408000
B0237213320615S14756404EA023840252100908000
B0237263320653S14756428EA023970253301108000
B0237313320677S14756401EA024020254201208000
B0237363320653S14756381EA024100254701108000
B0237413320622S14756391EA024190255500908000
B0237463320614S14756425EA024320256700908000
B0237513320650S14756427EA024440257801108000
B0237563320648S14756388EA024570258901208000
B0238013320617S14756392EA024680260401408000
B0238063320622S14756432EA024770261501008000
B0238113320660S14756431EA024890262901308000
B0238163320661S14756391EA024990263901008000
B0238213320629S14756401EA025070264801008000
B0238263320614S14756435EA025160265900608000
B0238313320612S14756474EA025210266500608000
B0238363320594S14756511EA025210266900508000
B0238413320569S14756546EA025230267000608000
B0238463320550S14756585EA025290267400608000
B0238513320529S14756628EA025310267700508000
B0238563320502S14756672EA025220267400508000
B0239013320479S14756714EA025220267300708000
B0239063320457S14756750EA025240267200608000
B0239113320432S14756796EA025160266600508000
B0239163320411S14756844EA025070265600708000
B0239213320398S14756895EA025060264800708000
B0239263320373S14756938EA025030264500608000
B0239313320345S14756979EA024970264000708000
B0239363320310S14757023EA024900263300708000
B0239413320273S14757065EA024860262900608000
B0239463320239S14757102EA024840262600608000
B0239513320206S14757133EA024850262600408000
B0239563320167S14757157EA024780262200408000
B0240013320127S14757182EA024750262000508000
B0240063320086S14757207EA024700261600508000
B0240113320048S14757239EA024680261200708000
B0240163320010S14757277EA024580260300808000
B0240213319972S14757312EA024420258800808000
B0240263319931S14757343EA024210256700608000
B0240313319885S14757366EA023970254200708000
B0240363319840S14757384EA023780251700708000
B0240413319792S14757405EA023560249100508000
B0240463319744S14757428EA023370246800308000
B0240513319694S14757455EA023140244600608000
B0240563319641S14757479EA022990242700508000
B0241013319601S14757500EA022970241400808000
B0241063319561S14757529EA022830240500608000
B0241113319523S14757548EA022860240100708000
B0241163319482S14757569EA022880240700908000
B0241213319441S14757594EA022910241200608000
B0241263319403S14757632EA022890241700708000
B0241313319357S14757671EA022830241700808000
B0241363319306S14757705EA022710240800808000
B0241413319253S14757736EA022600239800608000
B0241463319200S14757764EA022470238600608000
B0241513319143S14757785EA022270236800608000
B0241533319121S14757792EA022210236100508000
B0241543319110S14757796EA022170235700708000
E024155TPC
B0241553319099S14757799EA022130235200508000
B0241563319087S14757803EA022090234800608000
B0241573319076S14757806EA022060234400608000
B0241583319065S14757810EA022040234100408000
B0241593319054S14757815EA022030233800508000
B0242003319043S14757819EA022010233600508000
B0242013319033S14757824EA021990233200608000
B0242063318981S14757848EA021880231800608000
B0242113318928S14757867EA021780230600608000
B0242163318873S14757881EA021650229100608000
B0242213318821S14757891EA021580228100508000
B0242263318768S14757897EA021580227700808000
B0242313318722S14757909EA021570227600708000
B0242363318678S14757922EA021550227500708000
B0242413318635S14757942EA021520227400308000
B0242463318594S14757971EA021480227200608000
B0242513318552S14758005EA021420226800508000
B0242563318513S14758048EA021390226300608000
B0243013318474S14758093EA021360225900508000
B0243063318432S14758134EA021360225600608000
B0243113318388S14758175EA021330225300408000
B0243163318334S14758201EA021300225000908000
B0243213318290S14758236EA021190224500908000
B0243263318248S14758276EA021070223700808000
B0243313318201S14758313EA020990222700708000
B0243363318150S14758350EA020890221600708000
B0243413318106S14758389EA020900221100808000
B0243463318061S14758425EA020850220400608000
B0243513318013S14758464EA020760219600508000
B0243563317964S14758502EA020670218700608000
B0244013317913S14758537EA020500217400608000
B0244063317859S14758564EA020410216100508000
B0244113317808S14758592EA020320214900608000
B0244163317757S14758627EA020180213800708000
B0244213317703S14758658EA020040212300608000
B0244263317646S14758681EA019780210200708000
B0244313317588S14758701EA019560207800608000
B0244363317530S14758724EA019340205200608000
B0244413317476S14758756EA019210203000708000
B0244463317422S14758777EA019140201800508000
B0244513317371S14758803EA019100201000708000
B0244563317330S14758834EA019140201500808000
B0245013317292S14758862EA019190202100708000
B0245063317256S14758886EA019220202700508000
B0245113317217S14758908EA019210203000508000
B0245163317183S14758925EA019180203100508000
B0245213317153S14758938EA019150202800708000
B0245263317134S14758968EA019110202500608000
B0245313317132S14759006EA019030201800808000
B0245363317161S14759031EA018900200801108000
B0245413317198S14759028EA018810199800708000
B0245463317232S14759018EA018780199200708000
B0245513317264S14759019EA018740198800808000
B0245563317286S14759062EA018700198300708000
B0246013317275S14759116EA018660197700608000
B0246063317251S14759162EA018570196900508000
B0246113317219S14759196EA018480196000608000
B0246163317187S14759223EA018380195000708000
B0246213317155S14759246EA018290194000408000
B0246263317122S14759273EA018220193100608000
B0246313317087S14759305EA018100192300608000
B0246363317051S14759334EA018010191300608000
B0246413317013S14759361EA017890190100608000
B0246463316980S14759390EA017780189100708000
B0246513316953S14759422EA017710187800708000
B0246563316920S14759451EA017580186700608000
B0247013316891S14759480EA017480185400608000
B0247063316859S14759510EA017310183800608000
B0247113316825S14759533EA017200182500508000
B0247163316791S14759546EA017120181400408000
B0247213316755S14759558EA016960180200408000
B0247263316719S14759577EA016820178800608000
B0247313316688S14759599EA016690177100608000
B0247363316661S14759628EA016540175400508000
B0247413316641S14759671EA016400173800508000
B0247463316625S14759715EA016320172800608000
B0247513316606S14759758EA016220171800608000
B0247563316578S14759796EA016100170700608000
B0248013316548S14759830EA016010169700408000
B0248063316521S14759860EA015920168800608000
B0248113316485S14759889EA015790167800608000
B0248163316452S14759920EA015720166800408000
B0248213316416S14759951EA015610165800608000
B0248263316381S14759975EA015540164800508000
B0248313316341S14759998EA015410163800808000
B0248363316307S14800034EA015260162700608000
B0248413316271S14800066EA015100161000608000
B0248463316232S14800095EA014920159000708000
B0248513316202S14800125EA014810157200708000
B0248563316170S14800150EA014670155600508000
B0249013316134S14800172EA014540154200608000
B0249063316101S14800183EA014390152700608000
B0249113316060S14800195EA014210151000708000
B0249163316020S14800207EA014080149500508000
B0249213315979S14800215EA014000148400608000
B0249263315938S14800218EA013910147400508000
B0249313315896S14800225EA013800146600508000
B0249363315853S14800231EA013680145500608000
B0249413315810S14800235EA013580144400608000
B0249463315767S14800244EA013460143200708000
B0249513315729S14800256EA013380142300508000
B0249563315694S14800273EA013270141300608000
B0250013315658S14800298EA013160140200608000
B0250063315627S14800329EA013080139200608000
B0250113315596S14800362EA012980138100408000
B0250163315562S14800394EA012860136900608000
B0250213315526S14800420EA012750135800408000
B0250263315489S14800442EA012620134600608000
B0250313315453S14800465EA012540133500608000
B0250363315424S14800490EA012480132600608000
B0250413315399S14800520EA012400131600508000
B0250463315385S14800558EA012310130700508000
B0250513315371S14800602EA012160129600508000
B0250563315344S14800634EA012030128400608000
B0251013315311S14800650EA011910126800708000
B0251063315280S14800673EA011740125000608000
B0251113315251S14800710EA011580123100408000
B0251163315230S14800757EA011440121400408000
B0251213315211S14800807EA011310120000408000
B0251263315196S14800860EA011170118500508000
F02513102050612192429
B0251313315183S14800915EA011030117000607000
F0251360205061219242529
B0251363315170S14800970EA010860115300408000
B0251413315158S14801020EA010740113700708000
B0251463315140S14801073EA010530111900608000
B0251513315126S14801126EA010370110100508000
B0251563315117S14801178EA010230108500508000
B0252013315105S14801238EA010010106400808000
B0252063315097S14801302EA009820104000608000
B0252113315085S14801360EA009700102400508000
B0252163315076S14801418EA009610101500608000
B0252213315066S14801476EA009540100700808000
B0252263315057S14801528EA009470100200608000
B0252313315053S14801581EA009340099500808000
B0252363315049S14801630EA009320099000808000
B0252413315039S14801677EA009190098000708000
B0252463315018S14801716EA009110097100608000
B0252513314998S14801755EA009090096500708000
B0252563314983S14801794EA009080096100608000
B0253013314964S14801832EA009070095900608000
B0253063314941S14801867EA009050095800808000
B0253113314924S14801909EA008940095200808000
B0253163314902S14801947EA008830094300808000
B0253213314878S14801982EA008800093700808000
B0253263314860S14802017EA008780093300708000
B0253313314847S14802062EA008650092400708000
B0253363314828S14802104EA008610091800808000
B0253413314806S14802141EA008610091600708000
B0253463314786S14802173EA008600091400608000
B0253513314764S14802205EA008560091200608000
B0253563314737S14802242EA008460090600608000
B0254013314717S14802285EA008530090400708000
B0254063314693S14802329EA008580090500708000
B0254113314667S14802370EA008590090701008000
B0254163314640S14802400EA008700091500708000
B0254213314615S14802428EA008750092300808000
B0254263314596S14802464EA008850093200708000
B0254313314576S14802500EA008950094300608000
B0254363314556S14802532EA009060095300508000
B0254413314546S14802573EA009190096500908000
B0254463314576S14802595EA009300098101308000
B0254513314590S14802566EA009370099201408000
B0254563314560S14802549EA009520100401108000
B0255013314545S14802581EA009650101801408000
B0255063314578S14802587EA009790103201308000
B0255113314565S14802551EA009920104601308000
B0255163314537S14802584EA010100106201408000
B0255213314565S14802610EA010230108001308000
B0255263314576S14802574EA010360109301208000
B0255313314543S14802571EA010560111501408000
B0255363314547S14802617EA010680113101308000
B0255413314577S14802604EA010820114401308000
B0255463314550S14802585EA010990115701108000
B0255513314526S14802617EA011130117201208000
B0255563314558S14802644EA011220118801208000
B0256013314576S14802617EA011360120101108000
B0256063314542S14802601EA011510121500908000
B0256113314525S14802639EA011620122801308000
B0256163314553S14802672EA011740124100908000
B0256213314577S14802650EA011850125301108000
B0256263314554S14802623EA011960126401008000
B0256313314518S14802642EA012090127700708000
B0256363314506S14802689EA012190128901008000
B0256413314527S14802718EA012290130201108000
B0256463314556S14802696EA012410131201208000
B0256513314533S14802667EA012520132301108000
B0256563314514S14802710EA012580133101408000
B0257013314545S14802734EA012710134401208000
B0257063314556S14802699EA012810135501308000
B0257113314516S14802690EA012890136301408000
B0257163314484S14802724EA012980137100908000
B0257213314455S14802763EA013000137800808000
B0257263314433S14802805EA013100138700708000
B0257313314416S14802847EA013200139700808000
B0257363314419S14802893EA013280140700708000
B0257413314445S14802911EA013290141100808000
B0257463314472S14802891EA013400142000708000
B0257513314493S14802866EA013440142800708000
B0257563314510S14802841EA013460143100408000
B0258013314519S14802808EA013540143700808000
B0258063314529S14802775EA013670144600708000
B0258113314530S14802741EA013730145301108000
B0258163314495S14802723EA013780145801108000
B0258213314458S14802738EA013750146000808000
B0258263314431S14802776EA013730145800708000
B0258313314402S14802814EA013710145500708000
B0258363314383S14802855EA013740145500708000
B0258413314374S14802897EA013800146000608000
B0258463314363S14802940EA013810146500508000
B0258513314361S14802988EA013750146300708000
B0258563314378S14803025EA013690145500708000
B0259013314415S14803028EA013600144600908000
B0259063314443S14803000EA013590144300608000
B0259113314459S14802966EA013600144200708000
B0259163314469S14802930EA013640144500708000
B0259213314480S14802894EA013650144700708000
B0259263314494S14802863EA013660145000808000
B0259313314499S14802831EA013650144900808000
B0259363314508S14802797EA013580144300408000
B0259413314516S14802765EA013500143800908000
B0259463314524S14802732EA013380142700708000
B0259513314526S14802693EA013240141600908000
B0259563314499S14802665EA013180140401208000
B0300013314455S14802670EA013060138800908000
B0300063314416S14802699EA012840137000808000
B0300113314387S14802737EA012640134900608000
B0300163314362S14802779EA012560133000708000
B0300213314340S14802822EA012510132100808000
B0300263314317S14802862EA012480131500608000
B0300313314293S14802904EA012420131000808000
B0300363314276S14802954EA012200130001108000
B0300413314271S14803014EA012070128700808000
B0300463314261S14803070EA011990127700808000
B0300513314233S14803118EA011800126200608000
B0300563314195S14803158EA011670124100808000
B0301013314156S14803190EA011510122300508000
B0301063314109S14803217EA011370120700608000
B0301113314070S14803246EA011340119600708000
B0301163314035S14803278EA011280119000608000
B0301213314002S14803307EA011250118500408000
B0301263313973S14803338EA011140118000508000
B0301313313943S14803372EA010990116900508000
B0301363313913S14803403EA010870115500508000
B0301413313884S14803435EA010710114000508000
B0301463313853S14803470EA010540112100608000
B0301513313821S14803500EA010390110200608000
B0301563313791S14803532EA010250108500508000
B0302013313768S14803572EA010090106900608000
B0302063313748S14803615EA009910104900708000
B0302113313725S14803653EA009730103100608000
B0302163313696S14803693EA009520101000808000
B0302213313665S14803737EA009310098600508000
B0302263313634S14803780EA009130096500408000
B0302313313606S14803828EA008950094500608000
B0302363313575S14803875EA008740092400408000
B0302413313548S14803915EA008610090600508000
B0302463313523S14803952EA008460088900508000
B0302513313491S14803998EA008210087000508000
B0302563313465S14804044EA007970084900708000
B0303013313443S14804093EA007750082300808000
B0303063313425S14804133EA007580080100708000
B0303113313422S14804184EA007310077701008000
B0303163313416S14804242EA007190075900708000
B0303213313406S14804301EA007150074700708000
B0303263313403S14804355EA007250075100708000
B0303313313397S14804412EA007340076600908000
B0303363313390S14804469EA007320077200908000
B0303413313377S14804524EA007220076900708000
B0303463313341S14804530EA007120075900608000
B0303513313325S14804507EA007160075600608000
B0303563313325S14804478EA007220075800508000
B0304013313321S14804452EA007260076200908000
B0304063313287S14804464EA007320076601308000
B0304113313283S14804520EA007320077001208000
B0304163313320S14804522EA007330077201308000
B0304213313345S14804503EA007370077500708000
B0304263313354S14804477EA007400077700708000
B0304313313352S14804450EA007350077800408000
B0304363313345S14804425EA007340077700808000
B0304413313319S14804413EA007320077500808000
B0304463313291S14804400EA007170077100808000
B0304513313262S14804402EA007120076300908000
B0304563313229S14804421EA007110075800808000
B0305013313202S14804464EA007030074900508000
B0305063313173S14804505EA007070074500808000
B0305113313143S14804541EA007090074500708000
B0305163313112S14804568EA007080074500708000
B0305213313080S14804592EA007020074200508000
B0305263313045S14804617EA006930073700508000
B0305313313010S14804651EA006900073100308000
B0305363312976S14804683EA006950072900608000
B0305413312941S14804719EA006870072600608000
B0305463312906S14804753EA006870072500608000
B0305513312870S14804781EA006940072800508000
B0305563312844S14804818EA007110073801008000
B0306013312871S14804853EA007250075501508000
B0306063312872S14804827EA007360076601708000
B0306113312841S14804856EA007560078801508000
B0306163312877S14804876EA007670080501208000
B0306213312854S14804856EA007820082101408000
B0306263312833S14804895EA007990084101408000
B0306313312869S14804900EA008130085901108000
B0306363312853S14804888EA008280087401208000
B0306413312831S14804930EA008480089201008000
B0306463312862S14804943EA008590090601508000
B0306513312855S14804917EA008750091901208000
B0306563312843S14804961EA008930093801308000
B0307013312887S14804976EA009120095801508000
B0307063312869S14804964EA009270097501308000
B0307113312854S14805010EA009500099601408000
B0307163312892S14805015EA009620101701108000
B0307213312882S14804991EA009860103601208000
B0307263312852S14805027EA010040105701208000
B0307313312887S14805045EA010210107901308000
B0307363312880S14805020EA010390109601608000
B0307413312842S14805008EA010510111100908000
B0307463312815S14805039EA010640112601308000
B0307513312832S14805092EA010820114701108000
B0307563312866S14805112EA010950116301008000
B0308013312887S14805091EA011120118000908000
B0308063312857S14805078EA011310119701308000
B0308113312845S14805126EA011460121201508000
B0308163312883S14805133EA011660123001208000
B0308213312871S14805107EA011880125201108000
B0308263312854S14805149EA012030127001408000
B0308313312888S14805178EA012240129601108000
B0308363312923S14805168EA012470132101008000
B0308413312902S14805152EA012590134001308000
B0308463312865S14805187EA012850136201008000
B0308513312872S14805226EA012990138001608000
B0308563312922S14805224EA013110139301108000
B0309013312928S14805202EA013370141201508000
B0309063312904S14805241EA013530143301408000
B0309113312938S14805252EA013740145201208000
B0309163312914S14805228EA013940147201408000
B0309213312896S14805271EA014130149601508000
B0309263312935S14805281EA014290151501108000
B0309313312923S14805243EA014480153201408000
B0309363312888S14805256EA014690155101608000
B0309413312909S14805297EA014820156901808000
B0309463312939S14805269EA015000158501108000
B0309513312915S14805251EA015230160601708000
B0309563312908S14805297EA015360162701408000
B0310013312951S14805289EA015550164700908000
B0310063312950S14805253EA015800166601308000
B0310113312923S14805266EA016040169301508000
B0310163312950S14805283EA016270172101408000
B0310213312954S14805245EA016470174101208000
B0310263312924S14805257EA016630176301508000
B0310313312943S14805296EA016820178401608000
B0310363312970S14805266EA017000180101208000
B0310413312937S14805263EA017120181501708000
B0310463312925S14805305EA017300183200908000
B0310513312948S14805347EA017440184801408000
B0310563312992S14805325EA017660186501108000
B0311013312979S14805296EA017830188501008000
B0311063312958S14805322EA018020190301108000
B0311113312994S14805330EA018200192301308000
B0311163312985S14805290EA018350194101408000
B0311213312955S14805294EA018540196300908000
B0311263312947S14805327EA018640197801108000
B0311313312982S14805358EA018750198701708000
B0311363313019S14805346EA019010200700908000
B0311413313013S14805322EA019140202301608000
B0311463312993S14805356EA019310204101108000
B0311513313026S14805378EA019520206401308000
B0311563313053S14805350EA019680208201008000
B0312013313027S14805334EA019770209401208000
B0312063312999S14805348EA019920211000608000
B0312113312989S14805386EA019990212001008000
B0312163313021S14805417EA020070212901508000
B0312213313063S14805409EA020290214200708000
B0312263313067S14805369EA020390215400908000
B0312313313034S14805364EA020470216601108000
B0312363313005S14805379EA020640218200808000
B0312413312990S14805412EA020630218900908000
B0312463313022S14805436EA020570218601608000
B0312513313058S14805401EA020640218701308000
B0312563313069S14805355EA020730219400608000
B0313013313060S14805313EA020830220100608000
B0313063313034S14805288EA020820220500808000
B0313113313002S14805273EA020770220700608000
B0313163312973S14805264EA020780220600808000
B0313213312942S14805274EA020680219800808000
B0313263312911S14805284EA020590218700708000
B0313313312876S14805296EA020480217500608000
B0313363312836S14805311EA020340216100608000
B0313413312791S14805318EA020200214600408000
B0313463312742S14805322EA020040212800508000
B0313513312694S14805332EA019920211300508000
B0313563312646S14805343EA019800209900508000
B0314013312598S14805354EA019670208400508000
B0314063312552S14805365EA019540206800508000
B0314113312507S14805377EA019400205200408000
B0314163312460S14805390EA019270203700508000
F031421020506121920242529
B0314213312408S14805405EA019090201900509000
B0314263312360S14805418EA019030200800609000
B0314313312313S14805425EA018940199900409000
B0314363312261S14805432EA018790198800509000
B0314413312208S14805439EA018680197900409000
B0314463312154S14805446EA018540196700609000
B0314513312100S14805457EA018420195400509000
B0314563312046S14805470EA018330194200609000
B0315013311990S14805504EA018160192800609000
B0315063311950S14805545EA018220192500609000
B0315113311909S14805582EA018220192600709000
B0315163311864S14805616EA018180192600309000
B0315213311818S14805647EA018200192900609000
B0315263311773S14805674EA018220193000609000
B0315313311724S14805713EA018180193000509000
B0315363311682S14805751EA018200193000409000
B0315413311639S14805793EA018190193000609000
B0315463311596S14805833EA018290193400809000
B0315513311565S14805880EA018330193900509000
B0315563311535S14805931EA018320194100609000
B0316013311504S14805971EA018310194100509000
B0316063311466S14806016EA018210193500709000
B0316113311430S14806059EA018210193200709000
B0316163311412S14806109EA018230193200509000
B0316213311388S14806156EA018200193100509000
B0316263311357S14806196EA018140192700509000
B0316313311323S14806233EA018110192300409000
B0316363311291S14806268EA018120192300609000
B0316413311256S14806294EA018130192400609000
B0316463311221S14806314EA018180192700609000
B0316513311190S14806341EA018170192900609000
B0316563311160S14806372EA018180192900509000
B0317013311127S14806397EA018120192500609000
B0317063311093S14806428EA018030191900509000
B0317113311058S14806463EA017970191200509000
B0317163311028S14806497EA017890190500709000
B0317213310992S14806529EA017730188800509000
B0317263310953S14806563EA017540186500709000
B0317313310915S14806601EA017400184700709000
B0317363310879S14806636EA017260182900709000
B0317413310844S14806673EA017090181200609000
B0317463310808S14806702EA016890179200509000
B0317513310772S14806738EA016660176700609000
B0317563310738S14806776EA016520174800509000
B0318013310699S14806820EA016310172600409000
B0318063310664S14806864EA016130170800609000
B0318113310632S14806915EA015910168800509000
B0318163310593S14806959EA015740166700809000
B0318213310560S14807001EA015570164900709000
B0318263310528S14807035EA015390162800609000
B0318313310494S14807072EA015190160700709000
B0318363310457S14807107EA014990158600709000
B0318413310426S14807143EA014810156700509000
B0318463310392S14807174EA014570154400609000
B0318513310359S14807206EA014350152200609000
B0318563310320S14807247EA014010149000709000
B0319013310291S14807283EA013900146700609000
B0319063310258S14807319EA013690144500609000
B0319113310220S14807356EA013530142700809000
B0319163310190S14807402EA013390141300509000
B0319213310159S14807448EA013240139800409000
B0319263310118S14807489EA013080138300609000
B0319313310075S14807529EA012960137000709000
B0319363310033S14807565EA012900136000709000
B0319413309992S14807597EA012800135100509000
B0319463309958S14807628EA012770134700709000
B0319513309923S14807661EA012660133900709000
B0319563309885S14807691EA012610133400609000
B0320013309848S14807705EA012610133400609000
B0320063309812S14807721EA012590133400609000
B0320113309776S14807736EA012620133700609000
B0320163309741S14807743EA012630133900609000
B0320213309701S14807747EA012730134300609000
B0320263309658S14807755EA012710134600609000
B0320313309614S14807766EA012740134900809000
B0320363309579S14807788EA012750135100809000
B0320413309566S14807843EA012790135400809000
F0320460206121920242529
B0320463309598S14807892EA012950136500608000
F032051020506121920242529
B0320513309635S14807881EA013030137601009000
B0320563309630S14807849EA013080138300609000
B0321013309597S14807852EA013090138801009000
B0321063309575S14807893EA013240139800909000
B0321113309559S14807928EA013420141300809000
B0321163309552S14807894EA013610142900909000
B0321213309590S14807873EA013840146000809000
B0321263309621S14807906EA013920147800709000
B0321313309619S14807951EA014040149400709000
B0321363309595S14807970EA014240151200909000
B0321413309579S14807940EA014490153600809000
B0321463309621S14807929EA014720155901209000
B0321513309622S14807983EA014900158001209000
B0321563309598S14807966EA015120160501109000
B0322013309640S14807944EA015320162301309000
B0322063309686S14807980EA015400163800709000
B0322113309712S14808025EA015600165800909000
B0322163309693S14808055EA015840167801309000
B0322213309686S14808022EA016100170101509000
B0322263309724S14808047EA016280172701409000
B0322313309708S14808091EA016550175201209000
B0322363309706S14808057EA016800177701309000
B0322413309748S14808076EA016980180101109000
B0322463309737S14808126EA017240183001109000
B0322513309732S14808099EA017470185501209000
B0322563309778S14808118EA017650187400909000
B0323013309772S14808169EA017900189701109000
B0323063309760S14808135EA018110191801209000
B0323113309803S14808144EA018310193901109000
B0323163309792S14808191EA018530196201009000
B0323213309776S14808160EA018750198600909000
B0323263309815S14808154EA018970201101209000
B0323313309823S14808209EA019170203201109000
B0323363309795S14808208EA019390205200909000
B0323413309814S14808171EA019560207001109000
B0323463309851S14808206EA019730209001109000
B0323513309833S14808253EA019980211301109000
B0323563309824S14808216EA020120212901009000
B0324013309871S14808205EA020280214701109000
B0324063309887S14808259EA020500216701209000
B0324113309858S14808260EA020670218601009000
B0324163309884S14808219EA020850220601109000
B0324213309918S14808262EA021040222901509000
B0324263309892S14808293EA021220224701109000
B0324313309896S14808252EA021360226201009000
B0324363309945S14808262EA021570228001209000
B0324413309937S14808316EA021740229901509000
B0324463309916S14808290EA021890231700909000
B0324513309952S14808265EA022000233101409000
B0324563309998S14808292EA022210235200609000
B0325013310000S14808345EA022370236800909000
B0325063309974S14808346EA022490238300809000
B0325113309991S14808308EA022590239500909000
B0325163310045S14808314EA022740240600609000
B0325213310076S14808353EA022830241801009000
B0325263310062S14808397EA022850242301109000
B0325313310036S14808406EA022910242800809000
B0325363310014S14808403EA022990243400509000
B0325413309991S14808389EA023080244300609000
B0325463309961S14808372EA023160245000909000
B0325513309932S14808364EA023230245700409000
B0325563309912S14808340EA023320246300409000
B0326013309882S14808329EA023380247200709000
B0326063309848S14808324EA023470248300509000
B0326113309811S14808330EA023480248800609000
B0326163309777S14808342EA023610249700709000
B0326213309746S14808362EA023700250600609000
B0326263309713S14808381EA023770251400509000
B0326313309681S14808412EA023890252300309000
B0326363309651S14808446EA024080253800709000
B0326413309645S14808496EA024310256400709000
B0326463309683S14808503EA024550258901009000
B0326513309664S14808473EA024690261101109000
B0326563309627S14808484EA024920263901209000
B0327013309624S14808530EA025130266100909000
B0327063309661S14808537EA025340268200809000
B0327113309657S14808507EA025540270101309000
B0327163309621S14808530EA025750272401209000
B0327213309629S14808577EA025880274100909000
B0327263309664S14808581EA026090276200709000
B0327313309653S14808556EA026260278401009000
B0327363309625S14808592EA026470280201209000
B0327413309643S14808641EA026570281300909000
B0327463309679S14808630EA026710281900709000
B0327513309679S14808594EA026820283101009000
B0327563309638S14808589EA026920284801109000
B0328013309600S14808615EA027100286601009000
B0328063309598S14808668EA027200287700809000
B0328113309641S14808692EA027190287900909000
B0328163309661S14808671EA027390288601009000
B0328213309624S14808665EA027470289801009000
B0328263309609S14808724EA027540290700809000
B0328313309633S14808772EA027580291400809000
F0328360205061220242529
B0328363309663S14808754EA027620292001208000
F032841020506121920242529
B0328413309624S14808739EA027750292601409000
B0328463309576S14808775EA027800293401009000
B0328513309538S14808824EA027800293700509000
B0328563309499S14808869EA027680293400709000
B0329013309459S14808904EA027580292500509000
B0329063309422S14808944EA027480291400709000
B0329113309383S14808982EA027380290200609000
B0329163309340S14809015EA027230288600509000
B0329213309292S14809036EA027060286700609000
B0329263309243S14809049EA026880284700509000
B0329313309193S14809058EA026730282900509000
B0329363309142S14809071EA026570281000509000
B0329413309094S14809094EA026430279600409000
B0329463309050S14809119EA026370278800709000
B0329513309006S14809139EA026250277800709000
B0329563308962S14809158EA026160276800609000
B0330013308922S14809181EA026100276100509000
B0330063308882S14809212EA026030275400509000
B0330113308839S14809240EA025940274500509000
B0330163308791S14809255EA025860273500509000
B0330213308744S14809263EA025820272900309000
B0330263308695S14809280EA025730272200609000
B0330313308650S14809309EA025690271700609000
B0330363308605S14809338EA025640271100609000
B0330413308559S14809373EA025600270700509000
B0330463308513S14809410EA025550270200509000
B0330513308467S14809446EA025510269800509000
B0330563308421S14809484EA025460269200309000
B0331013308379S14809513EA025470269000609000
B0331063308334S14809533EA025400268600609000
B0331113308286S14809552EA025300267900709000
B0331163308238S14809576EA025150266800609000
B0331213308191S14809605EA025050265700609000
B0331263308148S14809639EA025020264800609000
B0331313308100S14809676EA024870263501009000
B0331363308054S14809718EA024850263000609000
B0331413308008S14809764EA024790262300409000
B0331463307962S14809803EA024760261700609000
B0331513307916S14809841EA024710261100509000
B0331563307874S14809876EA024630260400609000
B0332013307831S14809908EA024500259400609000
B0332063307786S14809939EA024330258000709000
B0332113307744S14809970EA024190256700609000
B0332163307705S14810006EA024080255400609000
B0332213307664S14810037EA023940254100509000
B0332263307614S14810058EA023830252700709000
B0332313307567S14810087EA023660250900709000
B0332363307521S14810114EA023530249300709000
B0332413307481S14810137EA023480248500709000
B0332463307438S14810164EA023310247300709000
B0332513307397S14810191EA023150245600709000
B0332563307352S14810218EA023010243800609000
B0333013307311S14810248EA022910242600709000
B0333063307273S14810288EA022760241200709000
B0333113307235S14810330EA022650239600409000
B0333163307195S14810368EA022710238800509000
B0333213307169S14810397EA022820239600509000
B0333263307132S14810410EA022820240300809000
B0333313307103S14810431EA022850241200609000
B0333363307081S14810470EA022870242000509000
B0333413307077S14810521EA022960242700609000
B0333463307104S14810557EA023150244200909000
B0333513307124S14810516EA023290245801009000
B0333563307091S14810501EA023420247701009000
B0334013307064S14810540EA023520249101209000
B0334063307054S14810588EA023710251000609000
B0334113307077S14810625EA023880252700809000
B0334163307104S14810594EA023970254000709000
B0334213307091S14810551EA024100255300609000
B0334263307053S14810550EA024270257101309000
B0334313307046S14810594EA024430258600909000
B0334363307077S14810612EA024550260100809000
B0334413307091S14810566EA024630261000909000
B0334463307063S14810527EA024770262001609000
B0334513307025S14810547EA024810263001209000
B0334563307036S14810593EA024920263600909000
B0335013307063S14810569EA025000263901109000
B0335063307029S14810546EA025140265001509000
B0335113307024S14810593EA025150265901209000
B0335163307058S14810593EA025250266900709000
B0335213307071S14810548EA025300267700709000
B0335263307034S14810519EA025290267801609000
B0335313307003S14810558EA025270267701009000
B0335363307010S14810605EA025270267400609000
B0335413307043S14810623EA025310267800509000
B0335463307074S14810610EA025400268400609000
B0335513307060S14810561EA025410268700709000
B0335563307025S14810538EA025410268900909000
B0336013306999S14810566EA025310268101009000
B0336063307004S14810616EA025230267100909000
B0336113307002S14810665EA025300267200509000
B0336163306979S14810713EA025350267500609000
B0336213306951S14810761EA025390268100709000
B0336263306927S14810810EA025370268300609000
B0336313306897S14810858EA025270267800909000
B0336363306870S14810910EA025110266700609000
B0336413306845S14810957EA024960264800409000
B0336463306819S14811008EA024790263000409000
B0336513306783S14811049EA024660261300409000
B0336563306747S14811083EA024520259700409000
B0337013306712S14811120EA024400258200409000
B0337063306681S14811161EA024270256800609000
B0337113306651S14811207EA024150255600509000
B0337163306621S14811248EA024040254300409000
B0337213306591S14811285EA023960253500409000
B0337263306555S14811316EA023830252300409000
B0337313306512S14811336EA023690250900409000
B0337363306469S14811351EA023610250000509000
B0337413306430S14811376EA023470248800409000
B0337463306390S14811404EA023410247800609000
B0337513306349S14811426EA023400247300609000
B0337563306305S14811451EA023350246800509000
B0338013306268S14811470EA023430247200609000
B0338063306229S14811491EA023370247400409000
B0338113306188S14811508EA023400247600509000
B0338163306148S14811523EA023400247600509000
B0338213306104S14811538EA023370247500409000
B0338263306057S14811551EA023370247600509000
B0338313306014S14811565EA023400247800509000
B0338363305973S14811583EA023370247700309000
B0338413305931S14811598EA023310247100509000
B0338463305888S14811611EA023260246500309000
B0338513305844S14811625EA023280246300709000
B0338563305804S14811641EA023250245900309000
B0339013305759S14811653EA023210245400509000
B0339063305717S14811661EA023160244900609000
B0339113305676S14811673EA023070244200509000
B0339163305637S14811691EA023020243600609000
B0339213305600S14811709EA022970243100509000
B0339263305565S14811724EA022930242700509000
B0339313305535S14811740EA022890242400509000
B0339363305507S14811762EA022800241700309000
B0339413305478S14811783EA022720240900509000
B0339463305446S14811797EA022590239600609000
B0339513305408S14811810EA022460238400609000
B0339563305372S14811832EA022360237200509000
B0340013305336S14811860EA022280236200509000
B0340063305307S14811894EA022240235500609000
B0340113305283S14811934EA022150234700609000
B0340163305256S14811968EA022090234100509000
B0340213305225S14812000EA021990233300509000
B0340263305194S14812031EA021890232300409000
B0340313305165S14812062EA021780231300709000
B0340363305142S14812092EA021740230500409000
B0340413305124S14812130EA021630229400709000
B0340463305109S14812173EA021560228600409000
B0340513305091S14812212EA021500227700309000
B0340563305076S14812258EA021360226500409000
B0341013305061S14812302EA021250225300309000
B0341063305029S14812320EA021100223600509000
B0341113304987S14812303EA020910221500709000
B0341163304944S14812268EA020750219800609000
B0341213304904S14812227EA020670218600609000
B0341263304863S14812180EA020590217700409000
B0341313304823S14812142EA020650217400609000
B0341363304783S14812108EA020660218200609000
B0341413304743S14812082EA020690218600609000
B0341463304710S14812057EA020750219300609000
B0341513304682S14812030EA020740219700409000
B0341563304654S14812006EA020900220600409000
B0342013304623S14811986EA021020221700409000
B0342063304594S14811993EA021110223001109000
B0342113304596S14812037EA021160223800709000
B0342163304628S14812067EA021230224600509000
B0342213304667S14812067EA021230224900409000
B0342263304691S14812035EA021260225300509000
B0342313304684S14811992EA021340225900609000
F0342360205061219202429
B0342363304656S14811984EA021430226601208000
F034241020506121920242529
B0342413304643S14812023EA021500227500809000
B0342463304674S14812055EA021540228100509000
B0342513304717S14812052EA021620228900609000
B0342563304734S14812011EA021670229500709000
B0343013304705S14811974EA021700229900809000
B0343063304672S14811964EA021830230901009000
B0343113304643S14811958EA021900231700709000
B0343163304610S14811956EA021880232000509000
B0343213304575S14811960EA021840231800409000
B0343263304538S14811955EA021750231200509000
B0343313304501S14811951EA021660230400809000
B0343363304456S14811934EA021400228400709000
B0343413304406S14811915EA021220226200709000
B0343463304366S14811898EA021220224800609000
B0343513304325S14811885EA021150223900509000
B0343563304287S14811871EA021130223300509000
B0344013304251S14811853EA021100223200609000
B0344063304213S14811830EA021120223100409000
B0344113304183S14811790EA021150223200409000
B0344163304154S14811754EA021230224000409000
B0344213304125S14811721EA021250224500609000
B0344263304096S14811689EA021320225200309000
B0344313304070S14811648EA021290225500409000
B0344363304049S14811610EA021340225700509000
B0344413304033S14811570EA021340225900609000
B0344463304013S14811542EA021440226200609000
B0344513303988S14811513EA021550227300609000
B0344563303988S14811469EA021630228000609000
B0345013304023S14811445EA021730229501109000
B0345063304051S14811488EA021780230700809000
B0345113304051S14811539EA021830231400509000
B0345163304027S14811569EA021920232200909000
B0345213303999S14811557EA022010233000609000
B0345263303977S14811524EA022080233800509000
B0345313303986S14811478EA022230234900809000
B0345363304029S14811494EA022340236101009000
B0345413304031S14811541EA022420237300809000
B0345463303994S14811541EA022490238000809000
B0345513303986S14811500EA022640239201009000
B0345563304027S14811494EA022740240201109000
B0346013304031S14811542EA022780240900909000
B0346063303994S14811538EA022940241800809000
B0346113304003S14811497EA023040243301209000
B0346163304048S14811510EA023080244301509000
B0346213304049S14811558EA023180245500709000
B0346263304017S14811572EA023280246500609000
B0346313303996S14811544EA023380247600709000
B0346363304016S14811512EA023420248201009000
F0346410205061220242529
B0346413304056S14811515EA023450248500708000
B0346463304081S14811557EA023480248600808000
B0346513304066S14811595EA023520248900908000
B0346563304032S14811601EA023560249100708000
B0347013304018S14811569EA023600249400708000
B0347063304053S14811547EA023580249600808000
B0347113304093S14811564EA023590249700708000
B0347163304107S14811613EA023630250100908000
B0347213304099S14811660EA023700250600708000
B0347263304077S14811700EA023770251300708000
B0347313304044S14811728EA023850252000608000
B0347363304007S14811747EA023910252700508000
B0347413303964S14811763EA023790252500808000
B0347463303921S14811787EA023690251800608000
B0347513303873S14811800EA023550251000608000
B0347563303826S14811805EA023500250400608000
B0348013303784S14811816EA023470249700708000
B0348063303739S14811831EA023420248900708000
B0348113303693S14811845EA023430248300608000
B0348163303646S14811861EA023400248000608000
B0348213303600S14811866EA023410247800508000
B0348263303558S14811860EA023400247700508000
B0348313303516S14811860EA023410247700608000
B0348363303474S14811871EA023390247600708000
B0348413303431S14811877EA023370247400708000
F034846020506122024252931
B0348463303388S14811881EA023360247200409000
B0348513303336S14811889EA023290246800409000
B0348563303284S14811909EA023230246100609000
B0349013303235S14811932EA023100245100609000
B0349063303184S14811961EA022990243900309000
B0349113303136S14811987EA022860242400309000
B0349163303089S14812017EA022700240800409000
B0349213303041S14812056EA022570239300309000
B0349263302994S14812093EA022430237600309000
B0349313302947S14812127EA022250235800309000
B0349363302895S14812158EA022070234100409000
B0349413302842S14812189EA021920232400509000
B0349463302781S14812210EA021770230700409000
B0349513302720S14812236EA021640229200609000
B0349563302663S14812268EA021530227700609000
B0350013302606S14812307EA021350225800609000
B0350063302556S14812347EA021200224200709000
B0350113302506S14812384EA021150223500709000
B0350163302456S14812415EA021070222900509000
B0350213302402S14812442EA020970221900509000
B0350263302350S14812465EA020890221100309000
B0350313302299S14812489EA020790220100509000
B0350363302251S14812515EA020660219000309000
B0350413302203S14812536EA020480217400409000
B0350463302156S14812555EA020310215500609000
B0350513302110S14812574EA020200214000309000
B0350563302065S14812596EA020050212400509000
B0351013302016S14812616EA019950210900309000
B0351063301972S14812634EA019830209700509000
B0351113301928S14812655EA019710208500509000
B0351163301884S14812678EA019600207300509000
B0351213301837S14812702EA019440206000309000
B0351263301785S14812727EA019270204300409000
B0351313301733S14812754EA019120202600509000
B0351363301685S14812790EA019020201300409000
B0351413301644S14812821EA019010200900409000
B0351463301603S14812853EA018920200200409000
B0351513301566S14812892EA018910200000609000
B0351563301532S14812938EA018800199600609000
B0352013301500S14812985EA018790199200609000
B0352063301459S14813026EA018710198600609000
B0352113301420S14813061EA018710198300409000
B0352163301381S14813096EA018720198100409000
B0352213301351S14813136EA018680198100609000
B0352263301321S14813171EA018610197900509000
B0352313301285S14813206EA018650197900809000
B0352363301252S14813242EA018640197700509000
B0352413301213S14813272EA018640197600309000
B0352463301173S14813301EA018630197600409000
B0352513301142S14813340EA018710198200609000
B0352563301115S14813384EA018860199100709000
B0353013301089S14813429EA018970200400609000
B0353063301070S14813472EA019090201700309000
B0353113301049S14813507EA019170202900709000
B0353163301026S14813536EA019190203500709000
B0353213301016S14813568EA019160203200609000
B0353263301050S14813572EA019070202601009000
B0353313301088S14813534EA019010201701009000
B0353363301109S14813496EA019080201800909000
B0353413301138S14813467EA019130202200609000
B0353463301173S14813441EA019180202700509000
B0353513301188S14813403EA019240203301009000
B0353563301153S14813396EA019300203901009000
B0354013301147S14813447EA019360204500809000
B0354063301176S14813471EA019450205300809000
B0354113301205S14813443EA019480205601509000
B0354163301178S14813416EA019500206100809000
B0354213301139S14813430EA019540206400509000
B0354263301122S14813476EA019560207000809000
F0354310205061224252931
B0354313301144S14813520EA019590207400808000
F035436020506122024252931
B0354363301181S14813536EA019650207900509000
B0354413301215S14813534EA019690208400409000
B0354463301247S14813515EA019660208500709000
B0354513301260S14813477EA019710208800709000
B0354563301249S14813439EA019830209700609000
B0355013301218S14813436EA019880210300809000
B0355063301205S14813488EA019920210901009000
B0355113301230S14813524EA019940211301009000
B0355163301266S14813502EA020030211600809000
B0355213301258S14813465EA020080212100809000
B0355263301220S14813461EA020080212300609000
B0355313301183S14813484EA020040212501109000
B0355363301181S14813533EA020080212900909000
B0355413301214S14813565EA020100213000709000
B0355463301250S14813564EA020150213300709000
B0355513301276S14813532EA020190213600709000
B0355563301275S14813498EA020230214000809000
B0356013301248S14813480EA020180214100809000
B0356063301214S14813481EA020090213401009000
B0356113301180S14813513EA019980212400409000
B0356163301144S14813551EA019940211700609000
B0356213301109S14813588EA019950211300609000
B0356263301074S14813629EA019850210500609000
B0356313301035S14813669EA019790209600409000
B0356363300991S14813704EA019720208900409000
B0356413300942S14813735EA019710208400709000
B0356463300908S14813764EA019800209100309000
B0356513300876S14813795EA019860209700509000
B0356563300850S14813835EA019860210000609000
B0357013300821S14813878EA019850210000509000
B0357063300792S14813921EA019830210100709000
B0357113300756S14813966EA019770209800409000
B0357163300707S14813995EA019730209300409000
B0357213300651S14814016EA019690208500609000
B0357263300593S14814042EA019580207400609000
B0357313300539S14814068EA019520206700609000
B0357363300493S14814092EA019540206400309000
B0357413300446S14814118EA019490205900509000
B0357463300393S14814117EA019410205400709000
B0357513300354S14814094EA019330204600809000
B0357563300381S14814072EA019190203501309000
B0358013300429S14814091EA019080202000709000
B0358063300471S14814118EA019090201800709000
B0358113300504S14814136EA019020201400709000
B0358163300548S14814153EA018940200800609000
B0358213300595S14814174EA018810199900709000
B0358263300653S14814191EA018660198100809000
B0358313300717S14814203EA018600196900709000
B0358363300778S14814208EA018600196400409000
B0358413300837S14814215EA018630196600509000
B0358463300886S14814221EA018890198200709000
B0358513300931S14814228EA019040200400609000
B0358563300967S14814210EA019260202501209000
B0359013300938S14814192EA019480205400909000
B0359063300930S14814237EA019630207901409000
B0359113300973S14814251EA019780209901209000
B0359163300982S14814211EA019980211801109000
B0359213300946S14814206EA020180214000809000
B0359263300938S14814254EA020370215901209000
B0359313300979S14814264EA020540217701309000
B0359363300978S14814230EA020710219401009000
B0359413300940S14814241EA020920221200809000
B0359463300946S14814286EA021080223301209000
B0359513300987S14814280EA021220224901009000
B0359563300980S14814241EA021380226501009000
B0400013300935S14814252EA021590228300809000
B0400063300944S14814297EA021720230001409000
B0400113300982S14814276EA021800231101309000
B0400163300972S14814230EA021980232301109000
B0400213300929S14814238EA022120233900809000
B0400263300918S14814288EA022240235400909000
B0400313300950S14814317EA022320236600609000
B0400363300984S14814287EA022420237201409000
B0400413301000S14814244EA022590238800709000
B0400463300980S14814208EA022700240300809000
B0400513300939S14814219EA022730240800709000
B0400563300932S14814279EA022740240701209000
B0401013300947S14814316EA022870241500909000
B0401063300977S14814301EA022940242400909000
B0401113300952S14814261EA023050243300709000
B0401163300909S14814262EA023170244401009000
B0401213300865S14814275EA023200245100409000
B0401263300816S14814280EA023110245300609000
B0401313300768S14814275EA023010244900709000
B0401363300717S14814275EA022920243800609000
B0401413300659S14814282EA022840242400609000
B0401463300609S14814288EA022740241200909000
B0401513300560S14814301EA022790240800609000
B0401563300511S14814312EA022760240600509000
B0402013300464S14814320EA022750240600809000
B0402063300416S14814330EA022670240100709000
B0402113300367S14814332EA022570239100309000
B0402163300304S14814335EA022360237301009000
B0402213300238S14814348EA022230235700609000
B0402263300181S14814358EA022170234500809000
B0402313300125S14814363EA022010232800609000
B0402363300068S14814367EA021840231200409000
B0402413300014S14814371EA021690229500309000
B0402463259954S14814379EA021480227500609000
B0402513259894S14814384EA021380226000609000
B0402563259835S14814384EA021220224400609000
B0403013259778S14814387EA021170223000609000
B0403063259721S14814391EA021020221700609000
B0403113259663S14814386EA020900220500609000
B0403163259610S14814383EA020790219500609000
B0403213259557S14814384EA020640218300409000
B0403263259511S14814382EA020550217500409000
B0403313259470S14814376EA020390216100809000
B0403363259422S14814376EA020210214300809000
B0403413259376S14814375EA020120212800409000
B0403463259333S14814375EA020000211400709000
B0403513259285S14814378EA019760209400609000
B0403563259232S14814378EA019600207500709000
B0404013259174S14814385EA019340205000509000
B0404063259119S14814392EA019190202900709000
B0404113259068S14814393EA018950200500609000
B0404163259019S14814388EA018790198300609000
B0404213258984S14814376EA018810197600809000
B0404263258948S14814372EA018890198100709000
B0404313258912S14814366EA018940198900709000
B0404363258873S14814366EA018980199800609000
F04044102050612202124252931
B0404413258838S14814358EA019030200600510000
B0404463258797S14814347EA019060201200710000
B0404513258762S14814325EA019180202300410000
B0404563258726S14814311EA019380204000910000
B0405013258693S14814303EA019610206800510000
B0405063258671S14814328EA019820209700510000
B0405113258693S14814361EA019980211700510000
B0405163258734S14814346EA020090213100810000
B0405213258747S14814300EA020270214700610000
B0405263258725S14814269EA020460216700510000
B0405313258692S14814264EA020690219000710000
B0405363258695S14814299EA020900221200810000
B0405413258733S14814283EA021080223301010000
B0405463258714S14814252EA021280225300910000
B0405513258690S14814281EA021460227400610000
B0405563258712S14814319EA021650229400810000
B0406013258742S14814291EA021810231201110000
B0406063258718S14814257EA022010233200710000
B0406113258692S14814265EA022180235000510000
B0406163258694S14814310EA022320236600510000
B0406213258732S14814323EA022460238000710000
B0406263258742S14814276EA022550238800810000
B0406313258718S14814239EA022760240700710000
B0406363258695S14814253EA022890242300710000
B0406413258723S14814293EA022980243401110000
B0406463258767S14814277EA023150245101010000
B0406513258756S14814240EA023320246501110000
B0406563258755S14814273EA023420247600910000
B0407013258798S14814273EA023580249300710000
B0407063258801S14814235EA023700250600910000
B0407113258770S14814245EA023820251800610000
B0407163258786S14814281EA023930253200610000
B0407213258827S14814283EA024030254200610000
B0407263258847S14814242EA024120254901310000
B0407313258823S14814215EA024180255701010000
B0407363258793S14814213EA024320256900710000
B0407413258764S14814216EA024410258000610000
B0407463258751S14814247EA024520259200410000
B0407513258763S14814283EA024580260100410000
B0407563258799S14814303EA024610260500510000
B0408013258842S14814281EA024690261300710000
B0408063258857S14814236EA024780262101310000
B0408113258833S14814205EA024800262500710000
B0408163258805S14814215EA024840262800410000
B0408213258787S14814241EA024930263600610000
B0408263258774S14814275EA025010264400410000
B0408313258760S14814313EA025160265500510000
B0408363258741S14814346EA025270266900410000
B0408413258723S14814379EA025460268600310000
B0408463258713S14814420EA025570270300510000
B0408513258750S14814440EA025710271901010000
B0408563258778S14814402EA025810273201210000
B0409013258774S14814352EA025930274400510000
B0409063258760S14814308EA026090275700610000
B0409113258740S14814312EA026240277401110000
B0409163258766S14814341EA026320278401010000
B0409213258793S14814306EA026420279201310000
B0409263258773S14814269EA026490280000710000
B0409313258742S14814257EA026610280900810000
B0409363258725S14814283EA026730282100610000
B0409413258752S14814313EA026800282800610000
B0409463258796S14814302EA026830283500910000
B0409513258817S14814250EA026880283900710000
B0409563258814S14814206EA026880284200610000
B0410013258785S14814189EA026880284100610000
B0410063258757S14814197EA026830283800410000
B0410113258728S14814213EA026890284100410000
B0410163258705S14814241EA027010285100310000
B0410213258689S14814279EA027110286200410000
B0410263258669S14814318EA027250287600310000
B0410313258665S14814362EA027430289400410000
B0410363258700S14814366EA027580291301210000
B0410413258680S14814331EA027740293001010000
B0410463258654S14814367EA027910295000810000
B0410513258678S14814396EA028030296400910000
B0410563258698S14814359EA028190297601010000
B0411013258669S14814324EA028350299600610000
B0411063258638S14814347EA028480301100510000
B0411113258658S14814388EA028530301500710000
B0411163258690S14814360EA028660302301510000
B0411213258657S14814311EA028710302901110000
B0411263258597S14814321EA028730303601110000
B0411313258545S14814355EA028810304000510000
B0411363258494S14814397EA028680303800510000
B0411413258436S14814439EA028480302000710000
B0411463258375S14814479EA028360300000610000
B0411513258317S14814526EA028100297500510000
B0411563258259S14814577EA027860294500410000
B0412013258201S14814623EA027630291900310000
B0412063258144S14814664EA027400289300310000
B0412113258085S14814698EA027220287000310000
B0412163258023S14814727EA027090285300310000
B0412213257959S14814755EA026890283500310000
B0412263257897S14814786EA026780282200610000
B0412313257840S14814820EA026640281000610000
B0412363257786S14814862EA026500279700510000
B0412413257732S14814905EA026340278200310000
B0412463257678S14814947EA026220276900410000
B0412513257628S14814987EA026150276100310000
B0412563257577S14815028EA026050275000310000
B0413013257530S14815070EA025980274000410000
B0413063257485S14815111EA025820272900310000
B0413113257438S14815145EA025670271600410000
B0413163257388S14815176EA025590270500310000
B0413213257338S14815209EA025450269200410000
B0413263257288S14815243EA025290267600610000
B0413313257240S14815276EA025150265900610000
B0413363257191S14815313EA024970264100510000
B0413413257145S14815350EA024870262800610000
B0413463257103S14815388EA024760261600410000
B0413513257056S14815421EA024640260400410000
B0413563257009S14815445EA024610259700310000
B0414013256966S14815470EA024610259700310000
B0414063256919S14815497EA024420258800710000
B0414113256872S14815524EA024290257500410000
B0414163256834S14815555EA024240256500310000
B0414213256793S14815590EA024100255200310000
B0414263256748S14815617EA023960253800310000
B0414313256703S14815645EA023870252500310000
B0414363256658S14815675EA023790251600510000
B0414413256614S14815703EA023740250800410000
B0414463256570S14815736EA023600249800410000
B0414513256527S14815774EA023510248600710000
B0414563256485S14815815EA023370247400410000
B0415013256445S14815859EA023260245900810000
B0415063256411S14815904EA023040244200510000
B0415113256374S14815963EA022740241200410000
B0415163256339S14816020EA022480238200410000
B0415213256299S14816076EA022170234700410000
B0415263256259S14816128EA022010232300710000
B0415313256229S14816181EA021940231200710000
B0415363256191S14816231EA021800230000310000
B0415413256146S14816278EA021770229200410000
B0415463256113S14816328EA021930230100710000
B0415513256101S14816371EA022110232700610000
B0415563256120S14816423EA022250234900510000
B0416013256154S14816461EA022400236700510000
B0416063256191S14816451EA022540238501110000
B0416113256196S14816412EA022600239600610000
B0416163256166S14816391EA022660240000910000
B0416213256135S14816410EA022790241100710000
B0416263256109S14816440EA022970242600410000
B0416313256095S14816486EA023080244000410000
B0416363256119S14816535EA023240245800510000
B0416413256159S14816529EA023400247601110000
B0416463256146S14816503EA023530249100910000
B0416513256113S14816529EA023660250700710000
B0416563256110S14816585EA023800251900410000
B0417013256116S14816639EA023880253000510000
B0417063256147S14816672EA024000254100810000
B0417113256169S14816653EA024100255200710000
B0417163256165S14816619EA024180256000410000
B0417213256153S14816590EA024310256900410000
B0417263256136S14816561EA024450258300810000
B0417313256115S14816533EA024630260000410000
B0417363256090S14816559EA024770262000810000
B0417413256124S14816613EA024820263000810000
B0417463256169S14816624EA024930264200710000
B0417513256184S14816592EA025020265100710000
B0417563256174S14816560EA025080265800710000
B0418013256135S14816578EA025130266100810000
B0418063256104S14816605EA025270267200710000
B0418113256073S14816632EA025270267400610000
B0418163256033S14816664EA025320267700510000
B0418213255985S14816690EA025250267500410000
B0418263255936S14816720EA025200266800410000
B0418313255887S14816749EA025110265900310000
B0418363255841S14816773EA025000264900510000
B0418413255788S14816809EA024740262300410000
B0418463255734S14816842EA024540259900510000
B0418513255678S14816882EA024350257500510000
B0418563255627S14816928EA024200255600710000
B0419013255579S14816981EA024100254100410000
B0419063255529S14817027EA023970253000510000
B0419113255474S14817074EA023810251700610000
B0419163255421S14817113EA023700250600910000
B0419213255365S14817164EA023510248900510000
B0419263255319S14817203EA023430247600510000
B0419313255273S14817237EA023260245700410000
B0419363255229S14817271EA023090244000710000
B0419413255182S14817308EA022860241800410000
B0419463255130S14817343EA022690239600310000
B0419513255080S14817375EA022570238000310000
B0419563255030S14817406EA022450236900310000
B0420013254976S14817437EA022280235400310000
B0420063254922S14817466EA022170234200410000
B0420113254865S14817496EA022030232800310000
B0420163254812S14817530EA021950231800510000
B0420213254759S14817560EA021830230800310000
B0420263254708S14817593EA021730229700510000
B0420313254655S14817626EA021620228700310000
B0420363254605S14817660EA021500227600510000
B0420413254554S14817696EA021370226200310000
B0420463254505S14817732EA021280225100210000
B0420513254456S14817761EA021170223900310000
B0420563254410S14817793EA021070222800310000
B0421013254366S14817827EA020960221800510000
B0421063254321S14817863EA020850220600310000
B0421113254276S14817899EA020740219500310000
B0421163254232S14817938EA020590218100310000
B0421213254189S14817979EA020450216600510000
B0421263254149S14818017EA020330215300310000
B0421313254107S14818054EA020170213600210000
B0421363254067S14818094EA020020212100310000
B0421413254029S14818130EA019860210300810000
B0421463253982S14818187EA019550207801110000
B0421513253943S14818246EA019410205300810000
B0421563253904S14818303EA019190203100510000
B0422013253860S14818357EA019080201200810000
B0422063253829S14818394EA019100201100410000
B0422113253796S14818427EA019020200800410000
B0422163253761S14818462EA018940200100410000
B0422213253729S14818487EA018960200100410000
B0422263253699S14818516EA018980200400410000
B0422313253669S14818555EA019000200700710000
B0422363253647S14818605EA019060201100410000
B0422413253623S14818651EA019100201700510000
B0422463253605S14818701EA019110202100510000
F042251020506122024252931
B0422513253586S14818747EA019200202700709000
F04225602050612202124252931
B0422563253568S14818801EA019170202900410000
B0423013253544S14818843EA019060202400610000
B0423063253506S14818877EA018800200700610000
B0423113253465S14818906EA018690198700510000
F042316020512202124252931
B0423163253428S14818939EA018520196900409000
B0423213253378S14818973EA018240194000409000
B0423263253325S14819003EA018060191600609000
B0423313253270S14819030EA017880189300609000
B0423363253216S14819049EA017730187700409000
B0423413253160S14819063EA017560185900609000
B0423463253103S14819077EA017440184400409000
B0423513253052S14819092EA017350183400609000
F0423560205122021252931
B0423563253005S14819116EA017240182300608000
B0424013252962S14819144EA017110181100408000
B0424063252918S14819177EA016940179600408000
B0424113252875S14819209EA016750177700408000
B0424163252830S14819236EA016550175600408000
F04242102051220212529
B0424213252785S14819261EA016370173500407000
F0424260205122021252931
B0424263252741S14819282EA016210171600508000
B0424313252692S14819296EA015900169100708000
B0424363252637S14819315EA015770166800508000
B0424413252581S14819333EA015490164201108000
B0424463252524S14819370EA015330162200608000
B0424513252470S14819400EA015260161000908000
B0424563252424S14819421EA015310160600808000
B0425013252386S14819427EA015320160801008000
B0425063252350S14819438EA015360161400808000
B0425113252317S14819461EA015420162200808000
B0425163252280S14819475EA015400162400508000
B0425213252249S14819507EA015450162901208000
B0425263252228S14819553EA015460163100608000
F04253102051220252931
B0425313252208S14819596EA015520163600607000
F0425360205122021252931
B0425363252172S14819626EA015610164400508000
B0425413252133S14819645EA015600165100408000
B0425463252095S14819660EA015500164800608000
B0425513252056S14819677EA015350163900808000
B0425563252024S14819686EA015260162600708000
B0426013251993S14819700EA015140161500408000
B0426063251977S14819739EA015050160400508000
B0426113252001S14819784EA014940159100608000
B0426163252039S14819803EA014820157300808000
B0426213252077S14819799EA014670155800608000
B0426263252112S14819787EA014600154500708000
B0426313252147S14819777EA014440153300508000
B0426363252182S14819761EA014410152600808000
B0426413252201S14819736EA014520152700808000
B0426463252220S14819713EA014550153100508000
B0426513252238S14819689EA014590153600608000
B0426563252255S14819661EA014650154200708000
B0427013252267S14819631EA014710154900608000
B0427063252283S14819601EA014720155300508000
B0427113252297S14819570EA014720155500808000
B0427163252305S14819538EA014720155800808000
B0427213252320S14819506EA014700155700908000
B0427263252331S14819468EA014640155400808000
B0427313252335S14819425EA014660155500508000
B0427363252344S14819390EA014700155600608000
B0427413252358S14819359EA014600155501008000
B0427463252369S14819317EA014450154400908000
B0427513252383S14819278EA014350153100808000
B0427563252401S14819238EA014230151600608000
B0428013252418S14819194EA014070149900808000
B0428063252430S14819149EA014050148800608000
B0428113252445S14819111EA013980148100808000
B0428163252459S14819071EA013890147200908000
B0428213252466S14819024EA013740145800808000
B0428263252468S14818983EA013700145000508000
B0428313252475S14818952EA013630144100608000
B0428363252482S14818918EA013540143400708000
B0428413252489S14818886EA013490142800708000
B0428463252504S14818851EA013370142000708000
B0428513252509S14818813EA013380141600708000
B0428563252511S14818777EA013360141300608000
B0429013252519S14818741EA013260140600708000
B0429063252523S14818707EA013170139600708000
B0429113252529S14818670EA013080138700608000
B0429163252541S14818636EA012970137500608000
B0429213252549S14818598EA012800136100508000
B0429263252557S14818559EA012650134400408000
B0429313252543S14818519EA012520132901208000
B0429363252518S14818492EA012420131500708000
B0429413252494S14818469EA012280130200708000
B0429463252465S14818446EA012110128500808000
B0429513252439S14818411EA011970126600708000
B0429563252415S14818389EA011900125400708000
B0430013252387S14818366EA011830124500708000
B0430063252369S14818337EA011770124200508000
B0430113252352S14818304EA011740124100708000
B0430163252334S14818278EA011680123700708000
B0430213252305S14818261EA011580122900708000
B0430263252271S14818246EA011530122200508000
