AFLY00Bn 0100731
HFDTE020118
HFFXA010
HFPLTPILOT:MICHAEL CASSELLS
HFCM2CREW2:NKN
HFGTYGLIDERTYPE:NKN             
HFGIDGLIDERID:NKN             
HFDTM100GPSDATUM:WGS84
HFRFWFIRMWAREVERSION: 2.00.00
HFRHWHARDWAREVERSION:1.00
HFFTYFRTYPE:Flytec Element Track
HFGPS:FASTRAX,IT430,48
HFPRSPRESSALTSENSOR:INTERSEMA,MS5401BM,12000
HFALGALTGPS:GEO
HFALPALTPRESSURE:ISA
HFTZNUTCOFFSET: 11.00h
I033638FXA3940SIU4143TAS
C010118232307020118006600
C3321372S14756016E TAKEOFF
C3321372S14756016E START  BMI023           00000000010000000000360000AREA
C3045810S15043422E FINISH MAN037           00000000001000000000360000AREA
C3045810S15043422E LANDING
F005608020612131517192428
B0056083321369S14756043EA002980023500509000
F0056380206121517192428
B0056383321369S14756043EA002990023400608000
F005708020612131517192428
B0057083321369S14756043EA002990023400409000
F005738020612131517192428
B0057383321370S14756043EA002980023200509000
F005808020612131517192428
B0058083321370S14756043EA002990023200609000
F005838020612131517192428
B0058383321370S14756043EA002980023200709000
F005908020612131517192428
B0059083321370S14756043EA002980023200509000
F005938020612131517192428
B0059383321370S14756043EA002980023200509000
F010008020612131517192428
B0100083321370S14756043EA002980023300509000
E010039STA
E010039ATS1005.7
LFLYA1 00235
B0100393321386S14756018EA003060023200409000
B0100443321391S14755992EA003000023300709000
B0100493321392S14755984EA002990023200609000
B0100543321392S14755984EA002980023200809000
B0100593321390S14755985EA002980023200709000
B0101043321390S14755985EA002990023200709000
B0101093321390S14755987EA002980023100509000
B0101143321388S14755988EA002990023100509000
B0101193321388S14755987EA002990023000509000
B0101243321389S14755985EA002990023000509000
B0101293321389S14755983EA002990023000309000
B0101343321389S14755983EA002990023000409000
B0101393321388S14755984EA002990023000309000
B0101443321386S14755987EA002990023000409000
B0101493321385S14755991EA002990023000309000
B0101543321384S14755995EA002990023000409000
B0101593321383S14756000EA002990023000509000
B0102043321383S14756004EA002990022900409000
B0102093321381S14756008EA002990022900409000
B0102143321379S14756013EA002990022900409000
B0102193321376S14756016EA002990022900509000
B0102243321373S14756019EA002990022900509000
B0102293321370S14756022EA002990022900509000
B0102343321368S14756026EA002990022900509000
B0102393321367S14756030EA003000023000309000
B0102443321367S14756035EA003000023100509000
B0102493321367S14756038EA002990023100409000
B0102543321367S14756038EA002990023100309000
B0102593321366S14756041EA002990023100409000
B0103043321366S14756044EA002990023100309000
B0103093321366S14756046EA002990023200409000
B0103143321366S14756046EA003000023200409000
B0103193321366S14756046EA002990023200409000
B0103243321366S14756046EA002990023200309000
B0103293321366S14756046EA002990023200309000
B0103343321366S14756046EA002990023200309000
B0103393321366S14756046EA002990023200409000
B0103443321366S14756046EA002990023200409000
B0103493321366S14756046EA003000023200509000
B0103543321366S14756046EA002990023200509000
B0103593321366S14756046EA002990023200309000
B0104043321366S14756046EA002990023200409000
B0104093321366S14756046EA002990023200609000
B0104143321366S14756046EA002990023200409000
B0104193321366S14756046EA002990023200609000
B0104243321366S14756046EA002990023200409000
B0104293321366S14756046EA002980023200309000
B0104343321366S14756046EA002980023200409000
B0104393321366S14756046EA002980023200409000
B0104443321366S14756046EA002980023200409000
B0104493321366S14756046EA002980023200409000
B0104543321366S14756046EA002980023200309000
B0104593321366S14756046EA002990023200409000
B0105043321366S14756046EA002990023200409000
B0105093321366S14756046EA002990023200409000
B0105143321366S14756046EA002990023200309000
B0105193321366S14756046EA002990023100509000
B0105243321368S14756045EA002990023100409000
B0105293321368S14756045EA002990023100609000
B0105343321368S14756045EA002990023100409000
B0105393321368S14756045EA002990023100409000
B0105443321369S14756045EA002990023100309000
B0105493321369S14756045EA002990023100509000
B0105543321369S14756044EA002990023100509000
B0105593321369S14756044EA002990023100509000
B0106043321369S14756044EA003000023100509000
B0106093321369S14756044EA002990023100509000
B0106143321369S14756044EA002990023100509000
B0106193321369S14756044EA002990023100509000
B0106243321369S14756042EA002990023100409000
B0106293321376S14756017EA003000023100409000
B0106343321386S14755974EA003090023300509000
B0106393321397S14755929EA003140024000609000
B0106443321406S14755888EA003300025200709000
B0106493321420S14755854EA003440026900709000
B0106543321430S14755834EA003610028900609000
B0106593321429S14755820EA003810031400709000
B0107043321418S14755800EA003880033800709000
B0107093321404S14755778EA003960035400709000
B0107143321394S14755753EA004060036800709000
B0107193321392S14755728EA004230038100609000
B0107243321395S14755699EA004320039100509000
B0107293321405S14755665EA004370039900609000
B0107343321408S14755632EA004480040400609000
B0107393321410S14755594EA004660040700609000
B0107443321402S14755556EA004740041001009000
B0107493321406S14755605EA004620041001709000
B0107543321460S14755663EA004510040401109000
B0107593321471S14755724EA004570040400709000
B0108043321442S14755779EA004540040300609000
B0108093321402S14755822EA004500039900709000
B0108143321363S14755870EA004480039500709000
B0108193321337S14755927EA004450039100509000
B0108243321321S14755992EA004430039000409000
B0108293321331S14756056EA004390038800609000
B0108343321358S14756059EA004410038600809000
B0108393321362S14756042EA004390038800709000
B0108443321362S14756022EA004360038600609000
B0108493321340S14755999EA004310038500709000
B0108543321318S14755979EA004320038400609000
B0108593321302S14755952EA004400038900609000
B0109043321277S14755933EA004470039401109000
B0109093321253S14755987EA004460039400809000
B0109143321283S14756016EA004420039201409000
B0109193321308S14755995EA004530039400709000
B0109243321302S14755966EA004510039500909000
B0109293321261S14755968EA004530039601609000
B0109343321274S14756020EA004420039300909000
B0109393321304S14756013EA004450039000809000
B0109443321311S14755975EA004550039300709000
B0109493321283S14755981EA004460039700909000
B0109543321277S14756036EA004360038800609000
B0109593321300S14756080EA004440038600609000
B0110043321323S14756075EA004480038801109000
B0110093321301S14756066EA004520039201209000
B0110143321306S14756116EA004550039500909000
B0110193321335S14756105EA004510039701109000
B0110243321312S14756098EA004510039801209000
B0110293321298S14756147EA004490039700909000
B0110343321304S14756193EA004570039900609000
B0110393321313S14756235EA004530039700509000
B0110443321339S14756254EA004530039900709000
B0110493321358S14756249EA004540040000909000
B0110543321330S14756235EA004580040201109000
B0110593321300S14756287EA004540040101209000
B0111043321330S14756321EA004500039701109000
B0111093321342S14756296EA004480039800909000
B0111143321342S14756272EA004480039700909000
B0111193321324S14756246EA004410039400709000
B0111243321342S14756220EA004390039101009000
B0111293321341S14756193EA004310038601409000
B0111343321304S14756194EA004370038500909000
B0111393321269S14756200EA004410038300809000
B0111443321242S14756192EA004440038400809000
B0111493321233S14756173EA004490038800909000
B0111543321253S14756168EA004450039000709000
B0111593321283S14756179EA004510039500609000
B0112043321317S14756182EA004520039700509000
B0112093321338S14756177EA004590040000709000
B0112143321311S14756177EA004650040600809000
B0112193321285S14756240EA004700041100709000
B0112243321312S14756281EA004770042000909000
B0112293321334S14756272EA004810042601009000
B0112343321312S14756250EA004910043200909000
B0112393321285S14756298EA004980043901309000
B0112443321308S14756328EA005000044401209000
B0112493321301S14756306EA005070044801309000
B0112543321264S14756347EA005110045401009000
B0112593321281S14756400EA005150046201509000
B0113043321300S14756390EA005250046601009000
B0113093321264S14756392EA005320047501409000
B0113143321250S14756452EA005350048101009000
B0113193321275S14756470EA005450048700809000
B0113243321250S14756454EA005530049301109000
B0113293321214S14756508EA005530050000909000
B0113343321194S14756573EA005570050700609000
B0113393321199S14756640EA005610051200909000
B0113443321234S14756658EA005710051700809000
B0113493321221S14756637EA005730051801509000
B0113543321178S14756689EA005850052701609000
B0113593321202S14756727EA005900053301609000
B0114043321186S14756705EA005910053701409000
B0114093321149S14756710EA005980054101109000
B0114143321102S14756749EA005980054500809000
B0114193321058S14756797EA006090055400709000
B0114243321014S14756848EA006220057001109000
B0114293321036S14756882EA006360058301609000
B0114343321010S14756858EA006480059601509000
B0114393320994S14756926EA006560061101509000
B0114443321022S14756911EA006620062201309000
B0114493320973S14756900EA006730063001209000
B0114543320938S14756972EA006700063401009000
B0114593320928S14757040EA006810064100709000
B0115043320955S14757081EA006780064301209000
B0115093320943S14757144EA006930065001109000
B0115143320896S14757146EA006960065601109000
B0115193320895S14757125EA007050066500709000
B0115243320920S14757154EA007040066801109000
B0115293320913S14757208EA007150067400909000
B0115343320877S14757203EA007120067701309000
B0115393320887S14757189EA007180067701009000
B0115443320902S14757181EA007210067900609000
B0115493320923S14757227EA007270068000709000
B0115543320886S14757242EA007230068301409000
B0115593320895S14757232EA007230068301109000
B0116043320911S14757277EA007290068600609000
B0116093320882S14757328EA007470069201209000
B0116143320856S14757301EA007520070201309000
B0116193320863S14757277EA007510070900809000
B0116243320883S14757279EA007410070700809000
B0116293320889S14757334EA007230069900809000
B0116343320872S14757398EA007230069300709000
B0116393320833S14757454EA007320069000509000
B0116443320797S14757453EA007350069301409000
B0116493320814S14757456EA007340069501109000
B0116543320803S14757525EA007340069500909000
B0116593320752S14757559EA007430069701209000
B0117043320742S14757535EA007430070101109000
B0117093320762S14757572EA007450070301009000
B0117143320771S14757641EA007590071500609000
B0117193320747S14757691EA007720072601309000
B0117243320723S14757672EA007810074301109000
B0117293320744S14757659EA007870075001209000
B0117343320766S14757703EA008050076501109000
B0117393320722S14757739EA008110077401109000
B0117443320727S14757716EA008280078800909000
B0117493320751S14757749EA008540081201109000
B0117543320742S14757804EA008660083101009000
B0117593320708S14757800EA008680084201009000
B0118043320714S14757774EA008810085201009000
B0118093320739S14757777EA008870086000609000
B0118143320763S14757797EA008850086100809000
B0118193320762S14757848EA008730085100709000
B0118243320733S14757912EA008930085300709000
B0118293320695S14757953EA008960085900909000
B0118343320661S14757939EA009040086700809000
B0118393320665S14757911EA009080087100709000
B0118443320688S14757923EA009130087401209000
B0118493320662S14757986EA009130088101609000
B0118543320632S14757957EA009210088701109000
B0118593320657S14757961EA009170088901009000
B0119043320662S14758023EA009150088900609000
B0119093320647S14758088EA009250089400609000
B0119143320619S14758138EA009330090301009000
B0119193320600S14758115EA009260090401009000
B0119243320626S14758104EA009340090500809000
B0119293320642S14758151EA009400091001009000
B0119343320605S14758196EA009480091701109000
B0119393320584S14758173EA009470092300609000
B0119443320595S14758158EA009530092600809000
B0119493320596S14758212EA009510092701009000
B0119543320560S14758255EA009590093000809000
B0119593320519S14758250EA009570093300609000
B0120043320503S14758228EA009580093400509000
B0120093320515S14758207EA009460093000609000
B0120143320540S14758222EA009360091901009000
B0120193320536S14758284EA009240090900809000
B0120243320490S14758334EA009190090200809000
B0120293320450S14758369EA009090089100709000
B0120343320407S14758412EA009060087900909000
B0120393320362S14758446EA008820086000809000
B0120443320310S14758478EA008740084800609000
B0120493320267S14758496EA008760084400809000
B0120543320220S14758512EA008730084100709000
B0120593320170S14758522EA008790084101009000
B0121043320130S14758532EA008910084900609000
B0121093320103S14758583EA008990085901309000
B0121143320133S14758610EA009000086801109000
B0121193320148S14758573EA009110087700809000
B0121243320162S14758615EA009130088101209000
B0121293320134S14758675EA009230089100909000
B0121343320102S14758669EA009330090101109000
B0121393320122S14758656EA009500091601009000
B0121443320137S14758705EA009510092401009000
B0121493320102S14758754EA009590093100909000
B0121543320065S14758756EA009720094601009000
B0121593320064S14758733EA009850095901109000
B0122043320091S14758761EA009970097100709000
B0122093320083S14758820EA010020098300909000
B0122143320040S14758851EA010100098800909000
B0122193320008S14758844EA010140099300609000
B0122243320023S14758830EA010150099500609000
B0122293320054S14758861EA010240099800909000
B0122343320052S14758926EA010380100500609000
B0122393320033S14758988EA010400101200409000
B0122443320009S14759048EA010390101800609000
B0122493319968S14759080EA010430102401009000
B0122543319950S14759056EA010460102500609000
B0122593319941S14759035EA010450102600509000
B0123043319924S14759014EA010470102600909000
B0123093319925S14758991EA010500102900709000
B0123143319933S14758971EA010540103100409000
B0123193319942S14758949EA010630103600309000
B0123243319938S14758927EA010780104500609000
B0123293319909S14758945EA010970106201609000
B0123343319932S14758986EA011070108300909000
B0123393319934S14758954EA011190110000809000
B0123443319959S14758948EA011350111701109000
B0123493319967S14759014EA011440112901009000
B0123543319930S14759064EA011660114700909000
B0123593319911S14759049EA011820116400909000
B0124043319947S14759073EA011980118500909000
B0124093319932S14759136EA012190120601109000
B0124143319903S14759131EA012350122401009000
B0124193319936S14759133EA012520124101209000
B0124243319929S14759199EA012700125801009000
B0124293319892S14759204EA012870127901009000
B0124343319905S14759186EA013040129800909000
B0124393319929S14759232EA013230131801009000
B0124443319896S14759287EA013410133400909000
B0124493319867S14759283EA013600135601109000
B0124543319893S14759283EA013740137400809000
B0124593319909S14759342EA013950139300909000
B0125043319874S14759374EA014150141200909000
B0125093319865S14759350EA014330143300709000
B0125143319897S14759368EA014510145201109000
B0125193319896S14759425EA014720147400809000
B0125243319855S14759438EA014890149201009000
B0125293319857S14759419EA015060151101009000
B0125343319880S14759471EA015210152501009000
B0125393319841S14759508EA015370154101109000
B0125443319821S14759487EA015510155700909000
B0125493319853S14759498EA015670157201009000
B0125543319865S14759556EA015890159500809000
B0125593319832S14759594EA016050161501009000
B0126043319813S14759573EA016160162900909000
B0126093319839S14759583EA016340164300909000
B0126143319833S14759642EA016510165801009000
B0126193319796S14759639EA016640167401109000
B0126243319803S14759616EA016800169300609000
B0126293319833S14759651EA016950170800609000
B0126343319823S14759705EA017130172601009000
B0126393319782S14759719EA017240174201009000
B0126443319777S14759696EA017370175400609000
B0126493319807S14759709EA017520176800609000
B0126543319811S14759766EA017690178500709000
B0126593319775S14759807EA017850180101009000
F0127040206121517192428
B0127043319743S14759803EA017960181600808000
B0127093319754S14759786EA018030182300708000
B0127143319787S14759809EA018210183401108000
B0127193319790S14759869EA018340185000708000
B0127243319748S14759900EA018490186401308000
B0127293319732S14759873EA018570187701408000
B0127343319750S14759854EA018710188900708000
B0127393319777S14759854EA018790190200808000
B0127443319790S14759909EA018750190400708000
B0127493319774S14759968EA018770190600608000
B0127543319734S14800004EA018910190901208000
B0127593319709S14759986EA019010191501108000
B0128043319731S14759977EA019160192501008000
B0128093319743S14800026EA019210193300908000
B0128143319701S14800068EA019310194600808000
B0128193319659S14800072EA019390195801008000
B0128243319639S14800051EA019540197101108000
B0128293319665S14800056EA019620198001008000
B0128343319680S14800107EA019720199301008000
B0128393319653S14800162EA019820200400808000
B0128443319612S14800166EA019920201400808000
B0128493319594S14800145EA020050202500908000
B0128543319620S14800159EA020060203201508000
B0128593319637S14800213EA020180204200908000
B0129043319626S14800276EA020300205400608000
B0129093319587S14800310EA020440206701108000
B0129143319574S14800278EA020500207901308000
B0129193319603S14800267EA020620208800608000
B0129243319633S14800284EA020760210100808000
B0129293319639S14800335EA020800211301008000
B0129343319594S14800373EA020950212300808000
B0129393319571S14800353EA021050213401208000
B0129443319606S14800364EA021150214301608000
B0129493319609S14800430EA021240215401008000
B0129543319576S14800485EA021370216600708000
B0129593319541S14800527EA021500218100808000
B0130043319492S14800539EA021630219401008000
B0130093319479S14800515EA021760220800908000
B0130143319511S14800534EA021800221501508000
B0130193319514S14800595EA021940222701308000
B0130243319473S14800645EA022120224000908000
B0130293319440S14800627EA022270225601008000
B0130343319459S14800608EA022350227100908000
B0130393319487S14800647EA022460228200708000
B0130443319474S14800711EA022560229300508000
B0130493319441S14800764EA022750230700408000
B0130543319397S14800780EA022920232501108000
B0130593319388S14800753EA023140234601508000
B0131043319410S14800746EA023280236901208000
B0131093319429S14800798EA023380238400608000
B0131143319427S14800864EA023500239600608000
B0131193319395S14800922EA023660241300608000
B0131243319350S14800935EA023880242901008000
B0131293319346S14800905EA024100245201208000
B0131343319375S14800916EA024270247301108000
B0131393319386S14800980EA024430249100908000
B0131443319355S14801043EA024580251000708000
B0131493319307S14801076EA024790252700708000
B0131543319279S14801060EA024970254401208000
B0131593319296S14801044EA025210256700808000
B0132043319316S14801090EA025450259101008000
B0132093319277S14801141EA025660261401008000
B0132143319242S14801127EA025870263801008000
B0132193319251S14801106EA026080266200708000
B0132243319273S14801149EA026240267901508000
B0132293319251S14801220EA026420269900808000
B0132343319203S14801256EA026650271801208000
B0132393319180S14801234EA026760273301508000
B0132443319206S14801236EA026910274500608000
B0132493319237S14801281EA027060275900708000
B0132543319237S14801344EA027280278201308000
B0132593319193S14801372EA027440280101308000
B0133043319179S14801347EA027650282201308000
B0133093319206S14801358EA027830284301408000
B0133143319208S14801429EA028010286201108000
B0133193319174S14801483EA028190288101108000
B0133243319146S14801470EA028340289800908000
F01332902061217192428
B0133293319163S14801463EA028530291400807000
B0133343319187S14801503EA028670292901107000
B0133393319176S14801573EA028750294100607000
B0133443319130S14801619EA028920295400807000
B0133493319080S14801645EA029050296601007000
B0133543319032S14801667EA029080297500807000
B0133593319010S14801652EA029060297601107000
B0134043319029S14801638EA029050297200607000
B0134093319055S14801636EA029200297500607000
B0134143319078S14801639EA029300298000507000
B0134193319102S14801641EA029400298900807000
B0134243319126S14801648EA029460299500307000
B0134293319147S14801656EA029560300300407000
B0134343319172S14801671EA029530300900707000
B0134393319182S14801732EA029590301601307000
B0134443319163S14801802EA029700302400607000
F013449020612171924
B0134493319126S14801860EA029820303200806000
B0134503319117S14801867EA029840303301006000
B0134513319107S14801872EA029850303501206000
B0134523319098S14801874EA029870303701106000
B0134533319090S14801873EA029880303901606000
B0134543319083S14801870EA029890304101406000
B0134553319078S14801866EA029910304201206000
B0134563319074S14801862EA029920304301206000
B0134573319071S14801858EA029940304401206000
B0134583319070S14801854EA029960304501206000
B0134593319070S14801851EA029970304500806000
B0135003319070S14801848EA029970304500706000
B0135013319071S14801845EA029980304600706000
B0135023319074S14801843EA029980304700906000
B0135033319077S14801841EA029980304700906000
B0135043319080S14801841EA029980304801006000
B0135093319103S14801854EA029990305500906000
B0135123319119S14801872EA030030305800906000
B0135133319124S14801878EA030050305900906000
B0135143319129S14801885EA030060306100706000
B0135153319134S14801893EA030080306200806000
B0135163319139S14801900EA030090306300906000
B0135173319143S14801908EA030090306400806000
B0135183319148S14801916EA030080306400806000
B0135193319154S14801925EA030060306501006000
B0135203319160S14801933EA030070306501006000
B0135213319165S14801940EA030090306601006000
B0135223319171S14801946EA030100306800806000
B0135233319175S14801951EA030110306800906000
B0135243319180S14801955EA030130306901006000
B0135293319194S14801954EA030130307100706000
B0135343319189S14801934EA030210307400906000
B0135373319179S14801922EA030320307800606000
B0135383319176S14801917EA030340307900906000
B0135393319173S14801913EA030350308000906000
B0135403319171S14801907EA030370308101106000
B0135413319168S14801902EA030400308300906000
F0135420206121924
B0135423319166S14801897EA030440308401005000
F013543020612171924
B0135433319165S14801893EA030480308600606000
B0135443319164S14801888EA030540308700706000
B0135453319164S14801884EA030570308900906000
B0135493319163S14801862EA030710309901006000
B0135543319160S14801835EA030910311201106000
B0135593319177S14801818EA031110313001506000
B0136043319203S14801861EA031360315301806000
B0136083319187S14801912EA031530317601806000
B0136093319180S14801922EA031560318101706000
B0136103319171S14801928EA031590318602006000
B0136113319162S14801930EA031630319202006000
B0136123319155S14801929EA031650319702006000
B0136133319150S14801925EA031680320301806000
B0136143319146S14801920EA031720320801306000
B0136153319143S14801914EA031750321401106000
B0136173319141S14801901EA031820322801306000
B0136183319142S14801894EA031860323601206000
B0136193319143S14801889EA031900324301306000
B0136203319145S14801883EA031940324901106000
B0136213319149S14801879EA031980325501106000
B0136223319154S14801876EA032030326001206000
B0136233319161S14801877EA032080326501706000
B0136243319169S14801881EA032120327101706000
B0136273319189S14801907EA032250328501506000
B0136283319193S14801918EA032280329001406000
B0136293319195S14801931EA032320329501906000
B0136303319194S14801948EA032370330101806000
B0136313319190S14801962EA032410330602506000
B0136323319184S14801974EA032450331102006000
B0136333319175S14801983EA032480331601606000
B0136343319166S14801990EA032520331902206000
B0136393319130S14801990EA032710334201506000
B0136443319128S14801963EA032860336101306000
B0136493319153S14801950EA033090338001306000
B0136543319188S14801982EA033290339501606000
B0136593319204S14802034EA033470341401306000
B0137043319183S14802092EA033660343200806000
B0137093319147S14802136EA033830345201306000
B0137143319111S14802141EA033970346701306000
B0137193319088S14802120EA034090348201006000
B0137243319090S14802092EA034260349601106000
B0137293319113S14802065EA034390350901106000
B0137343319134S14802046EA034560352400906000
B0137393319157S14802038EA034600353101306000
B0137443319183S14802076EA034630353601006000
B0137493319185S14802136EA034630354000906000
B0137543319169S14802196EA034640354200806000
B0137593319148S14802258EA034640354401006000
B0138043319118S14802322EA034680354500706000
B0138093319072S14802361EA034850355301606000
B0138143319041S14802339EA035000356001806000
B0138193319068S14802319EA035030356301406000
B0138243319103S14802313EA035030356801306000
B0138293319139S14802318EA034980356901206000
B0138343319168S14802315EA034940356801106000
B0138393319191S14802295EA034920356801006000
B0138443319198S14802261EA035000357001006000
B0138493319195S14802225EA035040357100706000
B0138543319192S14802188EA034960357000906000
B0138593319189S14802154EA034890357001006000
B0139043319179S14802115EA034870356800706000
B0139093319165S14802080EA034820356600906000
B0139143319149S14802043EA034740356000906000
B0139193319132S14802003EA034610355500906000
B0139243319124S14801961EA034520354701006000
B0139293319113S14801922EA034390353801006000
B0139343319096S14801879EA034190352301106000
B0139353319093S14801870EA034170352001006000
B0139363319090S14801862EA034140351700906000
B0139373319088S14801853EA034100351400806000
B0139383319085S14801845EA034070351000906000
B0139393319083S14801837EA034040350700906000
B0139403319080S14801829EA034000350300906000
B0139413319077S14801820EA033950350000706000
B0139423319073S14801812EA033930349500806000
B0139443319068S14801794EA033880349100906000
B0139493319061S14801747EA033800348100806000
B0139543319069S14801696EA033680346901106000
B0139593319066S14801647EA033640345900806000
B0140043319056S14801607EA033630345101306000
B0140093319052S14801561EA033530344101006000
B0140143319058S14801522EA033410343400906000
B0140193319072S14801478EA033330342901206000
B0140243319084S14801434EA033330342301206000
B0140293319098S14801396EA033310341601106000
B0140343319111S14801352EA033200340901106000
B0140393319131S14801311EA033100340200906000
B0140443319159S14801273EA032950339200806000
B0140493319176S14801229EA032800338000906000
B0140543319194S14801185EA032670336600806000
B0140593319218S14801143EA032580335501106000
B0141043319244S14801108EA032550334800806000
B0141093319270S14801073EA032430333600806000
B0141143319301S14801031EA032300332401006000
B0141193319330S14800995EA032210331300806000
F0141240206121924
B0141243319361S14800956EA032020330201205000
F014129020612171924
B0141293319393S14800921EA031890328900706000
B0141343319425S14800884EA031770327501106000
B0141393319449S14800855EA031690325801106000
B0141443319474S14800824EA031560323801006000
B0141493319507S14800791EA031400322500706000
B0141543319542S14800761EA031290321200706000
B0141593319573S14800732EA031150319301006000
B0142043319598S14800702EA030990317300806000
B0142093319623S14800672EA030830315500806000
B0142143319646S14800643EA030680313900806000
B0142193319667S14800614EA030430312200606000
B0142243319690S14800589EA030230310101006000
B0142293319715S14800564EA030000307901006000
B0142343319745S14800538EA029780305801006000
B0142393319772S14800519EA029750304501006000
B0142443319794S14800504EA029670303401106000
B0142493319811S14800486EA029570302200906000
B0142543319828S14800468EA029480301600806000
F0142590206121924
B0142593319841S14800452EA029490301301105000
F014304020612171924
B0143043319851S14800439EA029500301300906000
B0143093319862S14800426EA029550301300806000
B0143143319877S14800410EA029530301200606000
B0143193319894S14800397EA029500301100606000
B0143243319911S14800382EA029500301200806000
B0143293319923S14800367EA029500301200806000
B0143343319935S14800353EA029520301300806000
B0143393319945S14800343EA029590301500906000
B0143443319960S14800333EA029640301700806000
B0143493319976S14800323EA029660301800906000
B0143543319984S14800309EA029620301900606000
B0143593319996S14800295EA029520301700806000
B0144043320007S14800286EA029490301700706000
B0144093320020S14800272EA029450301600706000
B0144143320024S14800258EA029400301400606000
B0144193320022S14800240EA029340301100806000
B0144243320027S14800223EA029280300800806000
B0144293320033S14800203EA029220300600806000
B0144343320037S14800178EA029150300300806000
B0144393320041S14800151EA029140299800906000
B0144443320030S14800126EA029260299701006000
B0144493320014S14800098EA029400299601006000
B0144543320021S14800072EA029490299801406000
B0144593320050S14800103EA029570300001606000
B0145043320047S14800173EA029660300801606000
B0145093320002S14800213EA029770301501506000
B0145143319966S14800195EA029910302301506000
B0145193319980S14800177EA030070303502306000
B0145243320000S14800226EA030120304602106000
B0145293319963S14800286EA030240305402006000
B0145343319912S14800295EA030390307001406000
B0145393319900S14800267EA030430308201806000
B0145443319927S14800261EA030560309201706000
B0145493319935S14800317EA030730310702206000
B0145543319886S14800358EA030840311702206000
B0145593319858S14800324EA030930313001906000
B0146043319884S14800314EA031020314401606000
B0146093319904S14800362EA031170315801406000
B0146143319870S14800415EA031320317102106000
B0146193319831S14800390EA031420318501906000
B0146243319848S14800367EA031560319601506000
B0146293319880S14800397EA031710321402106000
B0146343319860S14800446EA031840322702006000
B0146393319831S14800420EA031960324202506000
B0146443319866S14800423EA032100325102006000
B0146493319852S14800482EA032210326502506000
B0146543319812S14800471EA032360328101706000
B0146593319835S14800453EA032470329401806000
B0147043319862S14800500EA032590330801806000
B0147093319831S14800547EA032740332202206000
B0147143319802S14800526EA032850333601906000
B0147193319827S14800511EA032970334802106000
B0147243319850S14800566EA033090336202106000
B0147293319819S14800608EA033210337301806000
B0147343319798S14800577EA033340338802406000
B0147393319834S14800568EA033450340001106000
B0147443319856S14800618EA033530341101806000
B0147493319821S14800664EA033670342302106000
B0147543319790S14800648EA033730343102006000
B0147593319814S14800630EA033800343701706000
B0148043319856S14800655EA033850344401306000
B0148093319889S14800695EA034030345601806000
B0148143319856S14800724EA034220346501906000
B0148193319848S14800691EA034350347402106000
B0148243319899S14800711EA034440348402306000
B0148293319907S14800768EA034580349501406000
B0148343319876S14800806EA034580350702306000
B0148393319856S14800778EA034680351802006000
B0148443319892S14800752EA034700352901506000
B0148493319939S14800756EA034790354201406000
B0148543319990S14800783EA034790354401206000
B0148593320014S14800837EA034730354701506000
B0149043320001S14800892EA034650354701606000
B0149093319975S14800876EA034580354401406000
B0149143319970S14800828EA034580354101706000
B0149193319962S14800788EA034610354101206000
B0149243319953S14800752EA034610354101106000
B0149293319942S14800718EA034570354100706000
B0149343319928S14800682EA034570354100806000
B0149393319916S14800646EA034550353901106000
B0149443319910S14800607EA034550353700906000
B0149493319916S14800567EA034540353601206000
B0149543319957S14800553EA034490353201806000
B0149593319980S14800597EA034440352801806000
B0150043319958S14800631EA034380352201606000
B0150093319927S14800640EA034360351801206000
B0150143319901S14800628EA034330351600906000
B0150193319875S14800611EA034250351300906000
B0150243319847S14800589EA034200350800906000
B0150293319816S14800565EA034050350200906000
F01503402061217192425
B0150343319780S14800542EA033850348900707000
B0150393319742S14800523EA033710346801107000
B0150443319707S14800515EA033600345500607000
B0150493319669S14800509EA033430343500707000
B0150543319630S14800499EA033270341800807000
B0150593319597S14800481EA033180339901207000
B0151043319562S14800471EA033000338100707000
B0151093319529S14800464EA032820336500807000
B0151143319492S14800448EA032570334401007000
B0151193319452S14800424EA032540333001507000
B0151243319416S14800413EA032460331901007000
F015129020617192425
B0151293319384S14800407EA032370330701106000
F01513402061217192425
B0151343319347S14800396EA032180329101007000
B0151393319307S14800380EA032050327800807000
B0151443319268S14800355EA031940326500907000
B0151493319234S14800330EA031810325201107000
B0151543319198S14800312EA031780324400807000
B0151593319164S14800303EA031710323900807000
B0152043319130S14800291EA031630323501307000
B0152093319099S14800280EA031520322901007000
B0152143319065S14800270EA031360322000907000
B0152193319027S14800257EA031160320700807000
B0152243318988S14800243EA030960318700807000
B0152293318949S14800232EA030720316600607000
B0152343318912S14800218EA030470312800707000
B0152393318876S14800197EA030240309801407000
B0152443318842S14800180EA030060307301407000
B0152493318803S14800159EA029860304901107000
B0152543318765S14800140EA029690302800907000
B0152593318728S14800125EA029550301501407000
B0153043318694S14800110EA029400300101207000
B0153093318657S14800097EA029210298101207000
B0153143318614S14800090EA029060296500707000
B0153193318569S14800087EA028910295000507000
B0153243318528S14800083EA028720293500607000
B0153293318487S14800070EA028560291501307000
B0153343318445S14800065EA028390290000707000
B0153393318406S14800060EA028320288801107000
B0153443318365S14800051EA028150287300807000
B0153493318326S14800037EA027960285601207000
B0153543318292S14800018EA027770283701507000
B0153593318251S14759996EA027570281701307000
B0154043318208S14759981EA027470280100807000
B0154093318164S14759970EA027390278800807000
B0154143318122S14759971EA027350278200707000
B0154193318079S14759975EA027340277800807000
B0154243318040S14759977EA027390277900807000
B0154293318004S14759982EA027540278600807000
B0154343317967S14759985EA027590279200807000
B0154393317926S14759997EA027680280400707000
B0154443317887S14800006EA027750281300607000
B0154493317852S14800005EA027790282000707000
B0154543317819S14759995EA027870282700807000
B0154593317786S14759985EA027930283900707000
B0155043317755S14759977EA027970284501107000
B0155093317719S14759969EA027980284900707000
B0155143317683S14759964EA027950284900907000
B0155193317647S14759955EA027940284801007000
B0155243317608S14759947EA027920284800907000
B0155293317567S14759944EA027900284801007000
B0155343317526S14759943EA027860284700707000
B0155393317484S14759943EA027890284800607000
B0155443317443S14759944EA027860284600707000
B0155493317402S14759945EA027850284400707000
B0155543317361S14759948EA027890284600707000
B0155593317317S14759958EA027950284600707000
B0156043317276S14759973EA027980285001107000
B0156093317235S14759991EA028000285200607000
B0156143317190S14800010EA028020285400607000
B0156183317150S14800029EA028020285700907000
B0156193317141S14800032EA028030285700507000
B0156203317131S14800035EA028030285800507000
B0156213317122S14800038EA028030285800507000
B0156223317113S14800041EA028020285800607000
B0156233317103S14800043EA028010285800607000
B0156243317093S14800046EA028000285800607000
B0156253317082S14800049EA028000285900607000
B0156293317041S14800064EA028020285900607000
B0156343316988S14800086EA028060286200607000
B0156393316937S14800115EA028090286600507000
B0156443316889S14800145EA028070286500607000
B0156493316841S14800184EA028000286200707000
B0156543316795S14800237EA028050285900707000
B0156593316763S14800301EA028190286700707000
B0157043316720S14800354EA028310287500907000
B0157093316677S14800341EA028400288401607000
B0157143316693S14800321EA028520289401007000
B0157193316716S14800362EA028630290400907000
B0157243316704S14800428EA028780291501607000
B0157293316661S14800466EA028890293400807000
B0157343316620S14800458EA029000294901307000
B0157393316615S14800431EA029100296201107000
B0157443316645S14800452EA029220297001007000
B0157493316626S14800516EA029320298601807000
B0157543316575S14800517EA029400299702007000
B0157593316574S14800486EA029520300801407000
B0158043316607S14800476EA029610301400807000
B0158093316630S14800511EA029740302401107000
B0158143316602S14800569EA029850303301307000
B0158193316557S14800560EA029980305002007000
B0158243316574S14800537EA030070306301107000
B0158293316598S14800579EA030190307501107000
B0158343316568S14800632EA030320308701307000
B0158393316530S14800606EA030410310202007000
B0158443316549S14800575EA030560311301107000
B0158493316577S14800600EA030620312201807000
B0158543316562S14800660EA030600312802107000
B0158593316505S14800682EA030710312900907000
B0159043316466S14800664EA030780313601307000
B0159093316450S14800628EA030880314501507000
B0159143316470S14800613EA030940315000907000
B0159193316496S14800656EA030940315100807000
B0159243316502S14800715EA030950315200607000
B0159293316481S14800781EA030970315400807000
B0159343316443S14800817EA031010316000807000
B0159393316411S14800799EA031030316301507000
B0159443316421S14800772EA031050316701207000
B0159493316452S14800779EA031150317101107000
B0159543316480S14800796EA031070317100807000
B0159593316508S14800793EA031040316900807000
B0200043316533S14800782EA031090317000807000
B0200093316555S14800775EA031160317200707000
B0200143316582S14800774EA031140317200607000
B0200193316612S14800767EA031130317200807000
B0200243316641S14800764EA031070317000807000
B0200293316674S14800764EA031000316900807000
B0200343316718S14800764EA030870316500807000
B0200393316761S14800757EA030720315200807000
B0200443316797S14800754EA030580314000907000
B0200493316839S14800752EA030440312800707000
B0200543316879S14800753EA030320311300607000
B0200593316915S14800757EA030230310300607000
B0201043316948S14800762EA030140309100807000
B0201093316983S14800760EA030040307801007000
B0201143317011S14800755EA030000306900907000
B0201193317049S14800753EA029900306101307000
B0201243317085S14800743EA029840305401807000
B0201293317114S14800722EA029830305101407000
B0201343317147S14800708EA029840305101107000
B0201393317182S14800697EA029800304801307000
B0201443317218S14800681EA029690304100807000
B0201493317252S14800663EA029610303401107000
B0201543317292S14800646EA029560302501107000
B0201593317328S14800633EA029580302201007000
B0202043317359S14800618EA029600302000807000
B0202093317393S14800597EA029540301701107000
B0202143317428S14800581EA029430301001007000
B0202193317468S14800568EA029250299501207000
B0202243317508S14800557EA029180298401407000
B0202273317530S14800552EA029160297901407000
B0202283317538S14800551EA029150297800807000
B0202293317546S14800550EA029130297601207000
E020230TPC
B0202303317553S14800549EA029110297401207000
B0202313317560S14800548EA029070297201107000
B0202323317567S14800546EA029060297001107000
B0202333317572S14800543EA029040296901307000
B0202343317576S14800540EA029030296800907000
B0202353317578S14800535EA029010296600807000
B0202393317567S14800512EA028860296101407000
B0202443317512S14800512EA028700294801107000
B0202493317460S14800533EA028590293100907000
B0202543317411S14800569EA028460291600607000
B0202593317362S14800610EA028350290400607000
B0203043317308S14800657EA028230288900607000
F020309020612171924
B0203093317259S14800703EA028210288001206000
F02031402061217192425
B0203143317215S14800752EA028190287400707000
B0203193317173S14800804EA028130286800607000
B0203243317131S14800855EA028120286500807000
B0203293317084S14800906EA028010286100707000
B0203343317039S14800953EA027960285400707000
B0203393316991S14801005EA027890284800607000
B0203443316947S14801050EA027860284300607000
B0203493316899S14801093EA027740283500607000
B0203543316850S14801136EA027710282900507000
B0203593316802S14801182EA027660282400607000
B0204043316754S14801228EA027660282300607000
B0204093316709S14801270EA027650282100607000
B0204143316659S14801310EA027640281900507000
B0204193316613S14801349EA027570281400507000
B0204243316566S14801390EA027520280900507000
B0204293316516S14801430EA027490280400507000
B0204343316473S14801473EA027410280000707000
B0204393316426S14801521EA027290278900607000
B0204443316379S14801562EA027210277800607000
B0204493316330S14801607EA027100276600507000
B0204543316280S14801649EA026960275300507000
B0204593316227S14801685EA026780273700507000
B0205043316171S14801720EA026680272400507000
B0205093316122S14801760EA026600271200607000
B0205143316075S14801802EA026450269800607000
B0205193316026S14801841EA026360268700707000
B0205243315976S14801875EA026220267300507000
B0205293315925S14801903EA026090265900407000
B0205343315872S14801935EA025910264100607000
B0205393315818S14801966EA025680261800607000
B0205443315761S14801998EA025410259400607000
B0205493315701S14802028EA025130256600507000
B0205543315639S14802058EA024920254100607000
F020559020612171924
B0205593315583S14802089EA024640251001006000
F02060402061217192425
B0206043315522S14802123EA024340247900807000
B0206093315467S14802164EA024180245900807000
B0206143315409S14802210EA024000243700607000
B0206193315351S14802254EA023830242100707000
B0206243315292S14802296EA023690240400607000
B0206293315231S14802338EA023490238600607000
B0206343315176S14802379EA023320237000707000
F0206390205061217192425
B0206393315118S14802419EA022990233900608000
B0206443315055S14802463EA022760230900508000
F020649020506121719242529
B0206493315003S14802506EA022600228800409000
B0206543314950S14802551EA022360226400409000
B0206593314895S14802601EA022170224300409000
B0207043314845S14802650EA021910222000309000
B0207093314791S14802703EA021630219300409000
B0207143314735S14802757EA021400216600409000
B0207193314684S14802814EA021190214300409000
B0207243314630S14802870EA020950211900409000
B0207293314571S14802930EA020800210000509000
B0207343314520S14802983EA020720209100409000
B0207393314473S14803029EA020700209000409000
B0207443314429S14803070EA020630208700409000
B0207493314385S14803107EA020680209100509000
B0207543314349S14803148EA020740209600309000
B0207593314314S14803193EA020780210000409000
B0208043314283S14803246EA020810210500509000
B0208093314251S14803293EA020820210900409000
B0208143314218S14803340EA020830211300409000
B0208193314182S14803379EA020840211600509000
B0208243314139S14803407EA020810211500609000
B0208293314096S14803426EA020820211400309000
B0208343314055S14803440EA020900211800409000
B0208393314012S14803463EA020950212200309000
B0208443313968S14803486EA020970212700409000
B0208493313927S14803520EA020950212700409000
B0208543313888S14803557EA020950212600509000
B0208593313847S14803596EA020980212700309000
B0209043313805S14803630EA020980212800409000
B0209093313766S14803670EA020960212800309000
B0209143313730S14803711EA020950212500309000
B0209193313692S14803748EA020860211900309000
B0209243313653S14803774EA020800211200409000
B0209293313604S14803795EA020780210800409000
B0209343313557S14803816EA020770210500509000
B0209393313512S14803840EA020770210400409000
B0209443313464S14803871EA020750210200309000
B0209493313411S14803899EA020780210200609000
B0209543313369S14803940EA020950211300609000
B0209593313337S14803990EA021070212900709000
B0210043313313S14803982EA021110213901109000
B0210093313335S14803959EA021280215200809000
B0210143313367S14803992EA021370216501209000
B0210193313355S14804062EA021470217500809000
B0210243313320S14804082EA021570219101409000
B0210293313318S14804055EA021690220300609000
B0210343313342S14804057EA021810221400609000
B0210393313349S14804120EA021960222700909000
B0210443313313S14804143EA022090224100709000
B0210493313299S14804120EA022210225501209000
B0210543313325S14804115EA022360227200509000
B0210593313344S14804158EA022480228600809000
B0211043313322S14804216EA022590229800609000
B0211093313283S14804246EA022720231100609000
B0211143313265S14804222EA022770232001209000
B0211193313269S14804194EA022930233100509000
B0211243313293S14804215EA022990234001009000
B0211293313279S14804281EA023090234600709000
B0211343313242S14804322EA023220236100909000
B0211393313215S14804310EA023310237101009000
B0211443313248S14804319EA023340237501109000
B0211493313257S14804388EA023480238600809000
B0211543313237S14804446EA023530239200509000
B0211593313201S14804496EA023620240000509000
B0212043313162S14804521EA023680241100809000
B0212093313154S14804492EA023640241000809000
B0212143313179S14804482EA023820241600709000
B0212193313200S14804543EA023920242601109000
B0212243313172S14804600EA024060244000909000
B0212293313137S14804603EA024050245100709000
B0212343313121S14804566EA024090245200709000
B0212393313117S14804538EA024200245900709000
B0212443313121S14804515EA024260246500409000
B0212493313143S14804510EA024270246900309000
B0212543313172S14804535EA024360247600409000
B0212593313195S14804580EA024450248700709000
B0213043313193S14804642EA024620250000509000
B0213093313159S14804671EA024700251400909000
B0213143313143S14804639EA024800252600909000
B0213193313170S14804635EA024940254100909000
B0213243313180S14804696EA025010255201009000
B0213293313166S14804759EA025070255600509000
B0213343313139S14804814EA025010255600409000
B0213393313110S14804860EA025080255700809000
B0213443313074S14804906EA025140256000509000
B0213493313028S14804931EA025230256700709000
B0213543312998S14804924EA025320257600809000
B0213593313014S14804908EA025360258500709000
B0214043313046S14804929EA025430259200709000
B0214093313054S14804988EA025500259900709000
B0214143313028S14805044EA025600260900709000
B0214193312988S14805056EA025670261700709000
B0214243312973S14805035EA025730262200609000
B0214293312985S14805013EA025810262800509000
B0214343312994S14804989EA025870263500509000
B0214393313011S14804969EA025920264000309000
F0214440205061217192425
B0214443313026S14804944EA026010264800708000
F021449020506121719242529
B0214493313051S14804941EA026080265600409000
B0214543313064S14804992EA026100266000709000
B0214593313048S14805055EA026130266400409000
B0215043313025S14805118EA026190266800409000
B0215093312994S14805165EA026290267600809000
B0215143312956S14805153EA026350268400809000
B0215193312958S14805128EA026470269600509000
B0215243312985S14805134EA026550270500509000
B0215293312999S14805188EA026640271600809000
B0215343312975S14805246EA026700272200709000
B0215393312930S14805279EA026800273100609000
B0215443312886S14805285EA026870274100409000
B0215493312864S14805261EA026960275000709000
B0215543312878S14805240EA026990275500509000
B0215593312904S14805262EA027050275801009000
B0216043312901S14805321EA027120276600509000
B0216093312861S14805363EA027170277000809000
B0216143312820S14805361EA027280277900909000
B0216193312825S14805340EA027280278301209000
B0216243312854S14805370EA027290278500809000
B0216293312846S14805435EA027330278700509000
B0216343312820S14805487EA027370279100409000
B0216393312784S14805526EA027420279500509000
B0216443312741S14805555EA027410279800609000
B0216493312700S14805588EA027350279600509000
B0216543312656S14805629EA027330279100409000
B0216593312616S14805694EA027290278600609000
B0217043312581S14805754EA027330278500509000
B0217093312542S14805812EA027360278600409000
B0217143312506S14805861EA027400279200709000
B0217193312464S14805908EA027320278800509000
B0217243312424S14805953EA027260278400509000
B0217293312386S14806002EA027120277400809000
B0217343312342S14806060EA026910275300409000
B0217393312298S14806104EA026740273100509000
B0217443312252S14806140EA026690271600609000
B0217493312214S14806178EA026750271900709000
B0217543312172S14806216EA026800272900609000
B0217593312127S14806254EA026860273600409000
B0218043312082S14806290EA026920274500509000
B0218093312036S14806327EA027000275400409000
B0218143311988S14806365EA027050275900509000
B0218193311944S14806398EA027050276300709000
B0218243311899S14806437EA027070276600509000
B0218293311854S14806479EA027090276600409000
B0218343311810S14806519EA027100276600509000
F0218390205061217192429
B0218393311764S14806559EA027080276500708000
F021844020506121719242529
B0218443311718S14806602EA027080276400409000
B0218493311671S14806641EA027080276400409000
B0218543311632S14806685EA027090276500409000
B0218593311594S14806737EA027060276200509000
B0219043311557S14806792EA027120276300409000
B0219093311520S14806842EA027090276200509000
B0219143311482S14806890EA027110276300609000
B0219193311447S14806940EA027110276300409000
B0219243311412S14806997EA027050276100509000
B0219293311368S14807031EA026950275500809000
B0219343311321S14807053EA026890274800509000
B0219393311275S14807062EA026780273800409000
B0219443311226S14807077EA026710272900509000
B0219493311172S14807100EA026630272000409000
B0219543311125S14807121EA026560271100509000
B0219593311079S14807145EA026450270000409000
B0220043311032S14807180EA026270268500709000
B0220093310982S14807239EA026160266800309000
B0220143310930S14807291EA026000265100409000
B0220193310879S14807344EA025890263700409000
B0220243310830S14807398EA025760262300409000
B0220293310779S14807450EA025670261100509000
B0220343310722S14807482EA025570260100309000
B0220393310664S14807509EA025470259100409000
B0220443310604S14807544EA025300257700509000
B0220493310547S14807575EA025220256400509000
B0220543310491S14807593EA025100255300509000
B0220593310438S14807608EA025010254300409000
B0221043310386S14807626EA024830253000509000
B0221093310326S14807630EA024580250800609000
B0221143310269S14807629EA024470249100509000
B0221193310217S14807623EA024370247801009000
B0221243310168S14807626EA024310247100509000
B0221293310116S14807646EA024230246300409000
B0221343310071S14807692EA024180245700509000
B0221393310039S14807753EA024150245400409000
B0221443310011S14807820EA024060245000409000
B0221493309985S14807888EA023970244100409000
B0221543309961S14807961EA023860242900309000
B0221593309935S14808036EA023690241500309000
B0222043309909S14808118EA023530239800409000
B0222093309883S14808197EA023430238500309000
B0222143309857S14808273EA023340237400309000
B0222193309834S14808357EA023230236200309000
B0222243309812S14808440EA023090234800309000
B0222293309789S14808520EA022900233100409000
B0222343309773S14808599EA022800231500609000
B0222393309754S14808671EA022640229800409000
F0222440205061217192429
B0222443309733S14808748EA022550228900408000
F022249020506121719242529
B0222493309712S14808821EA022460227900309000
B0222543309690S14808899EA022320226600309000
B0222593309669S14808980EA022180225100409000
B0223043309649S14809064EA021990223300409000
B0223093309631S14809150EA021860221700309000
B0223143309616S14809226EA021800220700409000
B0223193309605S14809301EA021680219700409000
B0223243309592S14809371EA021570218700309000
B0223293309576S14809440EA021470217700409000
B0223343309565S14809513EA021310216400509000
B0223393309555S14809583EA021220215400409000
B0223443309547S14809645EA021130214400409000
B0223493309538S14809712EA020960212800409000
B0223543309533S14809777EA020880211500409000
B0223593309521S14809843EA020860210800509000
B0224043309515S14809906EA020950211600809000
B0224093309521S14809970EA021100213400409000
B0224143309533S14810027EA021240215100409000
B0224193309551S14810085EA021370216700709000
B0224243309549S14810156EA021540218400509000
B0224293309510S14810191EA021680220000809000
B0224343309483S14810166EA021900222001409000
B0224393309511S14810167EA022080224101109000
B0224443309507S14810231EA022210225700909000
B0224493309465S14810255EA022410227800809000
B0224543309443S14810228EA022630230201009000
B0224593309460S14810210EA022850232800709000
B0225043309482S14810255EA022990234401109000
B0225093309460S14810319EA023180236200709000
B0225143309420S14810353EA023410238500909000
B0225193309386S14810339EA023660240900909000
B0225243309409S14810326EA023910243601209000
B0225293309417S14810385EA024110246101209000
B0225343309373S14810409EA024360248601009000
B0225393309367S14810379EA024630251301409000
B0225443309393S14810414EA024850253601409000
B0225493309367S14810472EA025080256100809000
B0225543309333S14810455EA025330258701509000
B0225593309357S14810455EA025580261101409000
B0226043309356S14810516EA025820263701309000
B0226093309311S14810526EA026060266101409000
B0226143309313S14810493EA026340268801209000
B0226193309337S14810524EA026560271401109000
B0226243309306S14810575EA026800273701109000
B0226293309268S14810569EA027070276300809000
B0226343309284S14810551EA027310279001009000
B0226393309299S14810604EA027530281200809000
B0226443309266S14810649EA027790283800809000
B0226493309230S14810640EA028040286401009000
B0226543309242S14810616EA028310289300709000
B0226593309270S14810638EA028510291600909000
B0227043309272S14810697EA028700293600609000
B0227093309241S14810742EA028970296100909000
B0227143309209S14810721EA029180298501009000
B0227193309227S14810703EA029410300901109000
B0227243309251S14810737EA029620303101109000
B0227293309222S14810790EA029810304900909000
B0227343309177S14810795EA030030307100609000
B0227393309166S14810772EA030270309301509000
B0227443309191S14810801EA030430311501409000
B0227493309173S14810860EA030650313300709000
B0227543309130S14810886EA030800314800609000
B0227593309087S14810880EA030920316300609000
B0228043309049S14810875EA031090317800609000
B0228093309018S14810922EA031130318600809000
B0228143309028S14810986EA031160318900609000
B0228193309053S14811042EA031230319400709000
B0228243309075S14811095EA031410320500509000
B0228293309099S14811115EA031510321801109000
B0228343309096S14811087EA031570322800709000
B0228393309053S14811082EA031660323900609000
B0228443309006S14811108EA031790325000509000
B0228493308973S14811160EA031860325900509000
B0228543308941S14811221EA031910326500309000
B0228593308909S14811280EA031970327100309000
B0229043308883S14811340EA032060327800409000
B0229093308882S14811405EA032080328200609000
B0229143308908S14811450EA032150328700709000
B0229193308933S14811449EA032200329101109000
B0229243308921S14811420EA032220329400909000
B0229293308878S14811413EA032320330200709000
B0229343308827S14811439EA032330330500709000
B0229393308775S14811469EA032380330800709000
B0229443308729S14811496EA032400331000609000
B0229493308683S14811531EA032330330600609000
B0229543308634S14811570EA032270330100509000
B0229593308582S14811607EA032320330000609000
B0230043308531S14811646EA032280329700409000
B0230093308475S14811685EA032210329100509000
B0230143308411S14811719EA032150328400609000
B0230193308355S14811752EA032090327900409000
B0230243308295S14811780EA031920326600609000
B0230293308244S14811806EA031680324500509000
B0230343308185S14811850EA031340320700709000
B0230393308121S14811894EA031000316800509000
B0230443308058S14811942EA030680313300509000
B0230493307996S14811991EA030430310400509000
B0230543307932S14812042EA030150307500409000
B0230593307867S14812084EA029920304900409000
B0231043307801S14812119EA029710302600409000
B0231093307740S14812158EA029600301100509000
B0231143307683S14812196EA029570300700509000
B0231193307634S14812225EA029540300600509000
B0231243307591S14812251EA029510300500509000
B0231293307549S14812277EA029460300300609000
B0231343307511S14812311EA029360299700409000
B0231393307465S14812337EA029220298500409000
B0231443307413S14812354EA029030296700509000
B0231493307361S14812377EA028800294100509000
B0231543307311S14812401EA028560291700409000
B0231593307258S14812427EA028350289400409000
B0232043307199S14812452EA028150287000509000
B0232093307144S14812475EA027990285200509000
B0232143307089S14812506EA027820283400409000
B0232193307030S14812540EA027590281400509000
B0232243306974S14812576EA027340279000709000
B0232293306920S14812604EA027120276400509000
B0232343306863S14812637EA026920274100609000
B0232393306805S14812672EA026780272400609000
B0232443306744S14812704EA026600270700509000
B0232493306684S14812737EA026450269000509000
B0232543306627S14812772EA026250267100409000
B0232593306571S14812808EA026040265200409000
B0233043306516S14812846EA025870263400609000
B0233093306459S14812884EA025710261600409000
B0233143306409S14812912EA025600260200409000
B0233193306355S14812948EA025300257800709000
B0233243306300S14812982EA025090255400409000
B0233293306247S14813018EA024850253100609000
B0233343306190S14813046EA024570250200409000
B0233393306132S14813064EA024370247600509000
B0233443306075S14813080EA024060244800509000
B0233493306009S14813106EA023730241400609000
B0233543305942S14813137EA023450238200509000
B0233593305876S14813171EA023180235100509000
B0234043305810S14813199EA022890232100409000
B0234093305750S14813225EA022640229500409000
B0234143305699S14813251EA022520227600609000
B0234193305649S14813287EA022240225300609000
B0234243305597S14813325EA022100223600509000
F0234290205061217192425
B0234293305539S14813350EA021980222300508000
F023434020506121719242529
B0234343305482S14813362EA021890221500709000
B0234393305427S14813379EA021830220900609000
B0234443305382S14813398EA021780220500509000
B0234493305341S14813416EA021730220200509000
B0234543305300S14813436EA021720220000609000
B0234593305259S14813451EA021680219900609000
B0235043305217S14813465EA021720220200509000
B0235093305183S14813509EA021670220100609000
B0235143305156S14813567EA021610219600709000
B0235193305131S14813630EA021600219300409000
B0235243305106S14813690EA021530218700409000
B0235293305080S14813752EA021480218300409000
B0235343305054S14813815EA021470218100609000
B0235393305029S14813876EA021440217900409000
B0235443305000S14813931EA021440217700309000
B0235493304967S14813980EA021430217500609000
B0235543304934S14814029EA021420217500609000
B0235593304907S14814086EA021440217400509000
B0236043304882S14814148EA021490217700609000
B0236093304858S14814210EA021530218100309000
B0236143304826S14814270EA021540218200409000
B0236193304784S14814321EA021570218600409000
B0236243304751S14814383EA021650219300509000
B0236293304727S14814450EA021730220200309000
B0236343304705S14814517EA021870221600509000
B0236393304682S14814581EA022010223100309000
B0236443304656S14814640EA022110224400509000
B0236493304661S14814692EA022200225501109000
B0236543304687S14814698EA022300226501209000
B0236593304703S14814685EA022460227900609000
B0237043304699S14814663EA022510228800509000
B0237093304658S14814654EA022570229600809000
B0237143304607S14814674EA022690230700709000
B0237193304565S14814724EA022810231900509000
B0237243304554S14814785EA022960233300909000
B0237293304574S14814798EA023120234900809000
B0237343304555S14814777EA023320236900809000
B0237393304510S14814798EA023520239200909000
B0237443304489S14814859EA023730241400709000
B0237493304505S14814895EA023890243300809000
B0237543304509S14814882EA024100245500609000
B0237593304468S14814883EA024370248000909000
B0238043304446S14814942EA024600250401209000
B0238093304466S14814969EA024790252701009000
B0238143304457S14814948EA025040255200809000
B0238193304409S14814969EA025280257900709000
B0238243304392S14815038EA025500260200909000
B0238293304413S14815071EA025610261401009000
B0238343304411S14815049EA025780262401209000
B0238393304358S14815060EA026010265000809000
B0238443304348S14815124EA026220267201209000
B0238493304373S14815127EA026300268600909000
B0238543304358S14815102EA026510270601109000
B0238593304311S14815110EA026750272800909000
B0239043304300S14815171EA026890274501409000
B0239093304331S14815185EA027070276201209000
B0239143304328S14815159EA027260278101009000
B0239193304280S14815183EA027500280000909000
B0239243304300S14815222EA027650282501509000
B0239293304297S14815191EA027870284701209000
B0239343304247S14815203EA028090286800909000
B0239393304236S14815265EA028260288601009000
B0239443304264S14815304EA028440290600809000
B0239493304274S14815284EA028640292600809000
B0239543304224S14815279EA028860294701109000
B0239593304202S14815334EA029080296800909000
B0240043304227S14815348EA029270299101009000
B0240093304209S14815326EA029470301601009000
B0240143304163S14815350EA029660303000909000
B0240193304158S14815415EA029780304201009000
B0240243304188S14815444EA029940306200709000
B0240293304202S14815423EA030120307900909000
B0240343304154S14815415EA030280309700809000
B0240393304126S14815469EA030430311100909000
B0240443304149S14815508EA030590312800909000
B0240493304167S14815487EA030730314100809000
B0240543304128S14815472EA030900316200809000
B0240593304084S14815508EA031070317800909000
B0241043304082S14815570EA031160318801009000
B0241093304114S14815595EA031280319900809000
B0241143304142S14815588EA031450321600909000
B0241193304145S14815557EA031690323600609000
B0241243304104S14815551EA031870325800909000
B0241293304072S14815602EA032020327501109000
B0241343304073S14815664EA032190329300809000
B0241393304099S14815687EA032360331100909000
B0241443304120S14815657EA032590333200609000
B0241493304096S14815625EA032860336100809000
B0241543304054S14815643EA033050338201209000
B0241593304036S14815703EA033180339800709000
B0242043304050S14815756EA033350341300709000
B0242093304085S14815767EA033490342800609000
B0242143304113S14815753EA033750344800709000
B0242193304112S14815722EA033920346700509000
B0242243304075S14815709EA034150349100809000
B0242293304040S14815744EA034350351400709000
B0242343304043S14815795EA034560353600709000
B0242393304073S14815809EA034750355701009000
B0242443304082S14815780EA034900357500709000
B0242493304049S14815761EA035020358700909000
B0242543304009S14815778EA035190360200709000
B0242593303984S14815823EA035330361700509000
B0243043303977S14815874EA035470363000509000
B0243093304003S14815901EA035530363901109000
B0243143304021S14815873EA035620364600909000
B0243193303995S14815833EA035710365400709000
B0243243303948S14815821EA035790366100609000
B0243293303899S14815837EA035910367100509000
B0243343303853S14815882EA036040368000509000
B0243393303801S14815936EA036000368300609000
B0243443303751S14815987EA036000368500609000
B0243493303704S14816038EA036000368700409000
B0243543303660S14816085EA036000368800509000
B0243593303621S14816135EA035980368600409000
B0244043303583S14816189EA035960368400409000
F0244090205061219242529
B0244093303545S14816238EA035980368300508000
B0244143303514S14816298EA035950368100408000
B0244193303479S14816358EA035900367600508000
B0244243303442S14816419EA035760366700408000
B0244293303400S14816475EA035640365600708000
B0244343303347S14816505EA035510364200508000
B0244393303288S14816510EA035420363100508000
B0244443303235S14816491EA035310361400608000
B0244493303179S14816477EA035200360300508000
B0244543303120S14816471EA035060358900708000
B0244593303061S14816470EA034890357200608000
B0245043303002S14816465EA034730355600408000
B0245093302941S14816458EA034550353600508000
B0245143302877S14816453EA034380351600408000
B0245193302818S14816453EA034260350000508000
B0245243302756S14816452EA034100348500508000
B0245293302694S14816451EA034000347200308000
B0245343302627S14816446EA033820345800708000
B0245393302564S14816445EA033720344500608000
B0245443302504S14816450EA033640343600608000
B0245493302441S14816456EA033450342200708000
B0245543302377S14816452EA033260340300408000
B0245593302317S14816439EA033070338400508000
B0246043302259S14816424EA032930336600508000
B0246093302205S14816407EA032800335100608000
B0246143302152S14816388EA032610333200508000
B0246193302091S14816375EA032400331300708000
B0246243302032S14816367EA032290329700608000
B0246293301975S14816374EA032240328800908000
B0246343301917S14816376EA032120327900708000
F02463902050612192429
B0246393301859S14816372EA031940326600807000
B0246443301804S14816364EA031870325500607000
F0246490205061219242529
B0246493301758S14816359EA031850325000508000
B0246543301711S14816350EA031720324100408000
B0246593301666S14816348EA031600322800908000
B0247043301620S14816342EA031400321200608000
B0247093301577S14816331EA031200319100708000
B0247143301532S14816324EA031010316700508000
B0247193301484S14816321EA030810314400408000
B0247243301436S14816316EA030690312600508000
B0247293301390S14816305EA030500311000508000
B0247343301339S14816295EA030340309600408000
B0247393301293S14816287EA030230308400608000
B0247443301246S14816283EA030090307200508000
B0247493301201S14816285EA029990306100508000
B0247543301155S14816284EA029840304800608000
B0247593301108S14816287EA029760303600608000
B0248043301064S14816284EA029450302101008000
B0248093301021S14816281EA029350300400708000
B0248143300970S14816289EA029210298800808000
B0248193300916S14816299EA029000296700608000
F02482402050612192425
B0248243300858S14816305EA028810294500807000
B0248293300803S14816309EA028660292800607000
F0248340205061219242529
B0248343300750S14816312EA028510291100508000
B0248393300696S14816313EA028380289400608000
B0248443300643S14816311EA028260288100608000
B0248493300600S14816309EA028260287200808000
B0248543300561S14816314EA028160286700708000
B0248593300522S14816319EA028150286700608000
B0249043300481S14816324EA028140286600708000
B0249093300443S14816333EA028120286500608000
B0249143300406S14816339EA028070286500408000
B0249193300369S14816327EA027930285900608000
B0249243300322S14816341EA027810284600708000
B0249293300283S14816379EA027800283900508000
B0249343300253S14816425EA027750283200508000
B0249393300221S14816465EA027670282500808000
B0249443300187S14816465EA027600281600908000
B0249493300164S14816447EA027480280700708000
B0249543300139S14816431EA027340279500808000
B0249593300107S14816425EA027200277900808000
B0250043300075S14816419EA027010276100608000
B0250093300049S14816405EA026830274300508000
B0250143300028S14816385EA026740272600508000
B0250193300004S14816367EA026630271100708000
B0250243259973S14816356EA026480269700608000
B0250293259934S14816351EA026410268700608000
B0250343259892S14816341EA026210267000808000
B0250393259854S14816335EA026110265800608000
B0250443259819S14816328EA025910264200708000
B0250493259785S14816316EA025730262400608000
B0250543259751S14816301EA025570260600608000
B0250593259713S14816284EA025410258800708000
B0251043259671S14816265EA025250257100708000
B0251093259639S14816247EA025180255900808000
B0251143259617S14816227EA025190255800608000
B0251193259589S14816210EA025190256000608000
B0251243259557S14816200EA025210256300708000
B0251293259514S14816199EA025220256600608000
B0251343259472S14816202EA025300257300908000
B0251393259438S14816201EA025400258300708000
F02514402051219242529
B0251443259409S14816194EA025560259400707000
F0251490205061219242529
B0251493259373S14816186EA025620260600908000
B0251543259334S14816183EA025680261700408000
B0251593259297S14816174EA025720262400708000
B0252043259259S14816185EA025810263000808000
B0252093259222S14816203EA025950264000808000
B0252143259184S14816193EA026100265300708000
B0252193259145S14816183EA026230266700608000
B0252243259101S14816188EA026350268100508000
B0252293259056S14816190EA026490269400708000
B0252343259011S14816205EA026520270500408000
B0252393258974S14816244EA026540271000508000
B0252443258959S14816307EA026710271900808000
B0252493258978S14816355EA026910273601308000
B0252543259000S14816339EA027170275701508000
B0252593258960S14816349EA027370277901208000
B0253043258956S14816403EA027600280701108000
B0253093258987S14816421EA027810283601008000
B0253143258992S14816394EA028030286001008000
B0253193258955S14816383EA028210288200808000
B0253243258916S14816413EA028380289901008000
B0253293258913S14816474EA028540291401108000
B0253343258949S14816500EA028700292901408000
B0253393258983S14816490EA028950295100808000
B0253443258967S14816466EA029110297001008000
B0253493258925S14816490EA029270298900708000
B0253543258895S14816530EA029440300600808000
B0253593258904S14816582EA029530301801308000
B0254043258944S14816580EA029720303301008000
B0254093258965S14816556EA029910305201008000
B0254143258938S14816556EA030010306301608000
B0254193258938S14816619EA030160307701208000
B0254243258978S14816650EA030340309800908000
B0254293259003S14816633EA030460311101108000
B0254343258978S14816608EA030500312001108000
B0254393258935S14816628EA030540312000908000
B0254443258903S14816673EA030690312700608000
B0254493258884S14816725EA030840313900608000
B0254543258904S14816772EA030910315101308000
B0254593258943S14816774EA031000316300908000
B0255043258966S14816751EA031100317400908000
B0255093258966S14816719EA031220318900808000
B0255143258945S14816693EA031140318900808000
B0255193258906S14816687EA031110318400908000
B0255243258865S14816695EA031070317900508000
F02552902050612242529
B0255293258830S14816689EA031050317700607000
F0255340205061219242529
B0255343258793S14816688EA031020317400708000
B0255393258755S14816716EA031000317000808000
B0255443258723S14816754EA031080317200608000
B0255493258699S14816794EA031200317900708000
B0255543258705S14816850EA031270318901008000
B0255593258740S14816862EA031330319801208000
B0256043258746S14816832EA031340320101008000
B0256093258706S14816816EA031360320501108000
B0256143258665S14816819EA031490321300908000
B0256193258625S14816827EA031650322500708000
B0256243258585S14816832EA031740323700608000
B0256293258544S14816831EA031850325100708000
B0256343258507S14816830EA031970326200608000
F02563902050619242529
B0256393258468S14816826EA032050327400507000
F0256440205061219242529
B0256443258429S14816826EA032080328100608000
B0256493258389S14816824EA032180328900608000
B0256543258346S14816824EA032270330000508000
B0256593258303S14816830EA032380331000408000
B0257043258260S14816833EA032470332000508000
B0257093258217S14816846EA032520332700508000
B0257143258175S14816875EA032580333400408000
B0257193258135S14816911EA032630334000508000
B0257243258096S14816958EA032670334200408000
B0257293258058S14817007EA032720334700508000
B0257343258020S14817059EA032840335500608000
B0257393257985S14817114EA032930336400708000
B0257443257952S14817169EA033020337500708000
B0257493257920S14817226EA033010337800708000
B0257543257883S14817279EA033000337700608000
B0257593257842S14817329EA032960337500508000
B0258043257798S14817379EA032840336500608000
B0258093257747S14817426EA032680335200808000
B0258143257702S14817478EA032610333900508000
B0258193257651S14817527EA032530332700608000
B0258243257602S14817564EA032530332000508000
B0258293257546S14817604EA032490331700508000
B0258343257488S14817645EA032450331200508000
B0258393257438S14817692EA032540331800708000
B0258443257390S14817743EA032590332400708000
B0258493257345S14817789EA032670333100608000
B0258543257302S14817836EA032630333300808000
B0258593257266S14817885EA032580333100508000
B0259043257222S14817931EA032480332300508000
B0259093257175S14817964EA032390331400508000
B0259143257128S14817990EA032280330300508000
B0259193257083S14818021EA032130329100408000
B0259243257033S14818060EA031910327300508000
B0259293256985S14818093EA031800325500408000
B0259343256938S14818119EA031640323600508000
B0259393256891S14818147EA031460321600608000
B0259443256842S14818177EA031250319300308000
B0259493256795S14818207EA031080317300408000
B0259543256747S14818240EA030890315300408000
B0259593256700S14818271EA030780313400408000
B0300043256659S14818296EA030800312300808000
B0300093256621S14818324EA030870312700608000
B0300143256582S14818354EA030850313100708000
B0300193256564S14818411EA030750313201308000
B0300243256586S14818476EA030800314000808000
B0300293256626S14818508EA030780314000808000
B0300343256663S14818506EA030780313901008000
B0300393256672S14818480EA030700313800908000
B0300443256641S14818465EA030720313801008000
B0300493256606S14818468EA030790314300808000
B0300543256570S14818480EA030840314500908000
B0300593256541S14818469EA030730314300708000
B0301043256507S14818480EA030760314400808000
B0301093256470S14818525EA030710313900808000
B0301143256437S14818582EA030780314000608000
B0301193256401S14818639EA030820314500608000
B0301243256370S14818693EA030920315100708000
B0301293256338S14818741EA030990315800808000
B0301343256305S14818787EA030950316200508000
B0301393256268S14818819EA030930316000808000
B0301443256233S14818847EA030840315700508000
B0301493256201S14818876EA030690314600608000
B0301543256164S14818907EA030390312800708000
B0301593256135S14818936EA030390311100808000
B0302043256105S14818980EA030210309200708000
B0302093256074S14819016EA030170308100708000
B0302143256037S14819043EA030140307600708000
B0302193255999S14819075EA030140307400608000
B0302243255951S14819099EA030100307400608000
B0302293255904S14819113EA030240307900608000
B0302343255860S14819121EA030330308600608000
B0302393255814S14819156EA030510309801208000
B0302443255780S14819213EA030670311200808000
B0302493255787S14819281EA030770313101408000
B0302543255824S14819304EA030880314901108000
B0302593255823S14819292EA031060316701208000
B0303043255778S14819322EA031200318301408000
B0303093255772S14819402EA031380320101208000
B0303143255806S14819432EA031470321601508000
B0303193255809S14819405EA031570323001308000
B0303243255773S14819399EA031710324300908000
B0303293255729S14819413EA031870326000808000
B0303343255689S14819451EA032030327500708000
B0303393255669S14819521EA032090328401208000
B0303443255688S14819592EA032230329701408000
B0303493255719S14819594EA032270330101308000
B0303543255682S14819583EA032400331001108000
B0303593255639S14819623EA032520332301108000
B0304043255647S14819699EA032610333201408000
B0304093255682S14819716EA032720334201108000
B0304143255695S14819694EA032750334701008000
B0304193255692S14819671EA032900335600708000
B0304243255676S14819656EA033000336500708000
B0304293255657S14819639EA032990336900608000
B0304343255627S14819642EA033050337400908000
B0304393255591S14819684EA033120338100808000
B0304443255563S14819750EA033200339000508000
B0304493255530S14819810EA033310340300508000
B0304543255504S14819878EA033390341400508000
B0304593255477S14819945EA033430342000508000
B0305043255452S14820014EA033420342300608000
B0305093255415S14820074EA033460342600708000
B0305143255372S14820120EA033450342500808000
B0305193255333S14820172EA033450342400708000
B0305243255298S14820240EA033440342200708000
B0305293255256S14820300EA033440342100708000
B0305343255200S14820337EA033360341400708000
B0305393255144S14820371EA033310340800608000
B0305443255091S14820404EA033240340100508000
B0305493255035S14820430EA033120339000608000
B0305543254982S14820461EA033060338100608000
B0305593254933S14820505EA033010337500708000
B0306043254883S14820545EA032790336400908000
B0306093254834S14820560EA032610334500608000
B0306143254787S14820569EA032460332600708000
B0306193254737S14820579EA032330331000708000
B0306243254685S14820593EA032220329600608000
B0306293254633S14820611EA032140328700608000
B0306343254581S14820629EA032060327900508000
B0306393254530S14820649EA031990327200408000
B0306443254478S14820670EA031930326500408000
B0306493254431S14820693EA031880325900508000
B0306543254388S14820722EA031730325000608000
B0306593254337S14820750EA031580323700608000
B0307043254288S14820770EA031470322200708000
B0307093254237S14820797EA031370321000808000
B0307143254184S14820828EA031330320100508000
B0307193254132S14820859EA031250319200508000
B0307243254079S14820889EA031150318300508000
B0307293254025S14820916EA031120317800708000
B0307343253971S14820941EA031060317300508000
B0307393253919S14820967EA031020316700608000
B0307443253872S14821006EA030910316000708000
B0307493253829S14821041EA030810315100508000
B0307543253782S14821069EA030700313900508000
B0307593253725S14821100EA030360312100708000
B0308043253670S14821129EA030300310400508000
B0308093253620S14821162EA030280309600808000
B0308143253576S14821206EA030190308500708000
B0308193253523S14821249EA030010307000608000
B0308243253467S14821291EA029860305500708000
B0308293253412S14821331EA029740304100808000
B0308343253354S14821369EA029590302500708000
B0308393253307S14821396EA029630301600708000
B0308443253260S14821432EA029520300800708000
B0308493253216S14821465EA029500300300508000
B0308543253171S14821490EA029480300300908000
B0308593253133S14821509EA029470300200808000
B0309043253090S14821521EA029360299900708000
B0309093253059S14821555EA029390300101008000
B0309143253023S14821596EA029330299800808000
B0309193252989S14821637EA029400300000608000
B0309243252948S14821675EA029460300500508000
B0309293252911S14821722EA029590301500708000
B0309343252877S14821769EA029710302900708000
B0309393252844S14821812EA029850304400608000
B0309443252809S14821856EA029960305700608000
B0309493252777S14821910EA030060307100608000
B0309543252746S14821972EA030240308600708000
B0309593252716S14822031EA030410310200708000
B0310043252717S14822099EA030480311601008000
B0310093252747S14822129EA030460311801108000
B0310143252767S14822117EA030580312100908000
B0310193252768S14822098EA030720313200808000
B0310243252761S14822078EA030870314800708000
B0310293252727S14822081EA031040316301308000
B0310343252705S14822142EA031190318001208000
B0310393252732S14822202EA031270319601508000
B0310443252770S14822206EA031400320701208000
B0310493252779S14822186EA031530322100608000
B0310543252767S14822169EA031640323300808000
B0310593252745S14822160EA031810324800708000
B0311043252718S14822159EA031910326000708000
B0311093252688S14822207EA031970327101208000
B0311143252673S14822277EA032060328100708000
B0311193252655S14822345EA032090328900708000
B0311243252635S14822412EA032060329200908000
B0311293252620S14822478EA032000328300708000
B0311343252587S14822538EA031860327000908000
B0311393252554S14822597EA031860326400708000
B0311443252523S14822648EA031900326100608000
B0311493252485S14822695EA031830325800708000
B0311543252442S14822739EA031740325300608000
B0311593252394S14822786EA031600324300808000
B0312043252358S14822827EA031640323600708000
B0312093252312S14822865EA031590323200608000
B0312143252266S14822908EA031670323400708000
B0312193252219S14822951EA031780324100608000
B0312243252168S14822982EA031880325200808000
B0312293252114S14823024EA031860325900808000
B0312343252063S14823048EA031880326200708000
B0312393252013S14823062EA031910326400708000
B0312443251967S14823063EA031860326300608000
B0312493251918S14823077EA031880326200808000
B0312543251857S14823102EA031740325301008000
B0312593251804S14823124EA031880325700908000
B0313043251754S14823137EA031930326400608000
B0313093251704S14823146EA032040327200708000
B0313143251651S14823149EA031980327400508000
B0313193251599S14823152EA032020327500808000
B0313243251548S14823162EA032090327900708000
B0313293251498S14823176EA032170328300608000
B0313343251450S14823183EA032190328800508000
B0313393251403S14823181EA032230329500708000
B0313443251359S14823186EA032270330100608000
B0313493251309S14823193EA032230330100708000
B0313543251266S14823198EA032290330300508000
B0313593251223S14823188EA032280330300708000
B0314043251179S14823173EA032280330300608000
B0314093251131S14823162EA032340330500608000
B0314143251097S14823124EA032320330500808000
B0314193251044S14823112EA032380331001208000
B0314243250991S14823119EA032370331100608000
B0314293250933S14823124EA032300330800708000
B0314343250874S14823126EA032210330100708000
B0314393250821S14823111EA032050328600608000
B0314443250772S14823099EA031910327200708000
B0314493250715S14823101EA031720324600808000
B0314543250661S14823093EA031550322400608000
B0314593250608S14823100EA031310320100808000
B0315043250557S14823092EA031030317500808000
B0315093250515S14823081EA030880315300508000
B0315143250469S14823071EA030690313300808000
B0315193250422S14823081EA030550311700708000
B0315243250368S14823095EA030310309600608000
B0315293250319S14823096EA030170307900508000
B0315343250270S14823098EA030050306400608000
B0315393250216S14823111EA029970305200608000
B0315443250167S14823139EA029900304600708000
B0315493250121S14823164EA029880304200708000
B0315543250073S14823178EA029740303600708000
B0315593250028S14823185EA029630302900608000
B0316043249982S14823185EA029500301700608000
B0316093249938S14823178EA029400300700608000
B0316143249896S14823164EA029330299800508000
B0316193249858S14823147EA029300299400508000
B0316243249819S14823135EA029300299100708000
B0316293249783S14823127EA029280298900508000
B0316343249755S14823106EA029290298900508000
B0316393249725S14823087EA029240298600408000
B0316443249700S14823068EA029140298000608000
B0316493249676S14823052EA029140297700708000
F03165402051219242529
B0316543249649S14823030EA029040297200607000
F0316590205061219242529
B0316593249617S14823014EA029000296700508000
B0317043249576S14823014EA028980296200708000
B0317093249530S14823038EA028880295500708000
B0317143249485S14823077EA028850294700708000
B0317193249443S14823120EA028780293800608000
B0317243249401S14823161EA028750293300708000
B0317293249357S14823203EA028640292600608000
B0317343249315S14823247EA028540291800708000
B0317393249285S14823302EA028580291500808000
B0317443249252S14823361EA028540291200708000
B0317493249223S14823420EA028510291100508000
B0317543249196S14823477EA028490290800408000
B0317593249165S14823535EA028370290100508000
B0318043249129S14823595EA028300289300708000
B0318093249102S14823661EA028240288500708000
B0318143249089S14823724EA028290288200608000
B0318193249077S14823788EA028360288500708000
B0318243249059S14823848EA028520289700708000
B0318293249053S14823919EA028640291200908000
B0318343249054S14823991EA028810292800808000
B0318393249058S14824051EA029160295600908000
B0318443249016S14824087EA029440299101208000
B0318493248978S14824071EA029690302601108000
B0318543248995S14824056EA030030306401508000
B0318593249020S14824104EA030280309701408000
B0319043248996S14824163EA030600312501108000
B0319093248946S14824169EA030850315301208000
B0319143248938S14824133EA031090317601308000
B0319193248977S14824152EA031310320301508000
B0319243248982S14824211EA031480322301008000
B0319293248923S14824253EA031790324501308000
B0319343248878S14824235EA031970326900808000
B0319393248881S14824199EA032200329101208000
B0319443248917S14824190EA032350330801308000
B0319493248939S14824246EA032510332701108000
B0319543248922S14824318EA032680334101008000
B0319593248871S14824349EA032910336301208000
B0320043248831S14824324EA033090338001108000
B0320093248845S14824293EA033170339301408000
B0320143248882S14824309EA033220339901008000
B0320193248910S14824356EA033340340900908000
B0320243248926S14824419EA033580343000908000
B0320293248929S14824491EA033780345000708000
B0320343248906S14824548EA033910346900808000
B0320393248862S14824561EA034040348301008000
B0320443248850S14824524EA034250349701308000
B0320493248886S14824519EA034380351401708000
B0320543248908S14824571EA034550353201408000
B0320593248889S14824633EA034650354101008000
B0321043248843S14824652EA034740355401008000
B0321093248815S14824627EA034890356601108000
B0321143248834S14824597EA035020358001208000
B0321193248868S14824606EA035140359600808000
B0321243248892S14824659EA035250360801108000
B0321293248887S14824722EA035370362100808000
B0321343248850S14824767EA035400362601008000
B0321393248804S14824791EA035510363300708000
B0321443248756S14824815EA035660364600608000
B0321493248711S14824831EA035700365600708000
B0321543248664S14824854EA035720366100408000
B0321593248615S14824886EA035590365800908000
B0322043248559S14824915EA035360363900708000
B0322093248505S14824947EA035190361600808000
B0322143248459S14824978EA035090359800508000
B0322193248414S14825014EA034970358200608000
B0322243248371S14825052EA034830356700408000
B0322293248325S14825085EA034730355400508000
B0322343248283S14825118EA034740354700708000
B0322393248244S14825151EA034700354400608000
B0322443248206S14825187EA034630354200708000
B0322493248166S14825225EA034570353700708000
B0322543248133S14825272EA034490353100508000
B0322593248093S14825316EA034430352500608000
B0323043248052S14825351EA034370352000708000
B0323093248010S14825393EA034300351300608000
B0323143247967S14825429EA034260350800508000
B0323193247926S14825463EA034180350200708000
B0323243247884S14825503EA034170349700608000
B0323293247837S14825548EA034090349100608000
B0323343247794S14825584EA034180349100708000
B0323393247748S14825618EA034170349100608000
B0323443247699S14825657EA034080348900708000
B0323493247646S14825685EA033990348200408000
B0323543247591S14825712EA033860347100508000
B0323593247537S14825739EA033790346000708000
B0324043247490S14825782EA033760345300608000
B0324093247446S14825819EA033750344800608000
B0324143247401S14825848EA033680344300608000
B0324193247353S14825865EA033640343900508000
B0324243247301S14825886EA033460342900708000
B0324293247249S14825910EA033350341600608000
B0324343247199S14825933EA033340341000408000
B0324393247150S14825955EA033300340500608000
B0324443247099S14825974EA033250340000808000
B0324493247053S14825992EA033200339600608000
B0324543247001S14826011EA033090338400608000
B0324593246948S14826028EA032970337300508000
B0325043246895S14826046EA032900336400508000
B0325093246844S14826065EA032840335600608000
F032514020506121920242529
B0325143246798S14826086EA032850335400709000
B0325193246751S14826102EA032740334600709000
B0325243246701S14826119EA032550333200809000
B0325293246653S14826137EA032350331000809000
B0325343246604S14826143EA032160328800709000
B0325393246557S14826152EA032150327900809000
B0325443246506S14826167EA032080327400509000
B0325493246456S14826186EA032070327100609000
B0325543246405S14826212EA032040326900609000
B0325593246355S14826238EA032020327000609000
B0326043246305S14826254EA032010326800609000
B0326093246257S14826265EA032030327000609000
B0326143246206S14826281EA031940326600709000
B0326193246156S14826302EA031830325800609000
B0326243246106S14826320EA031740324900609000
B0326293246057S14826330EA031650323800609000
B0326343246010S14826336EA031520322500309000
B0326393245961S14826337EA031380320900609000
B0326443245918S14826342EA031300319800509000
B0326493245871S14826350EA031210318900409000
B0326543245825S14826360EA031160318200609000
B0326593245778S14826359EA031100317600509000
B0327043245739S14826346EA031090317200409000
B0327093245713S14826326EA031200317600409000
B0327143245691S14826299EA031270318300409000
B0327193245671S14826270EA031350319300409000
B0327243245658S14826235EA031410320100509000
B0327293245647S14826196EA031450320800409000
B0327343245639S14826159EA031490321300509000
B0327393245615S14826126EA031480321500409000
B0327443245578S14826101EA031460321400409000
B0327493245534S14826080EA031370321000709000
B0327543245484S14826082EA031290320000609000
B0327593245434S14826103EA031140319100809000
B0328043245375S14826130EA030920317100709000
B0328093245315S14826157EA030640313900709000
B0328143245263S14826198EA030390311100509000
B0328193245208S14826232EA030270309101009000
B0328243245149S14826257EA030320308500809000
B0328293245095S14826298EA030380309400809000
B0328343245048S14826349EA030410310100509000
B0328393245001S14826398EA030420310500509000
B0328443244957S14826441EA030430310800509000
B0328493244909S14826484EA030420310700509000
B0328543244864S14826523EA030460311000609000
B0328593244824S14826561EA030510311600609000
B0329043244786S14826603EA030550311900309000
B0329093244747S14826645EA030460311800509000
B0329143244706S14826676EA030500311800609000
B0329193244659S14826693EA030430311500709000
B0329243244610S14826715EA030320310500709000
B0329293244560S14826750EA030190309200609000
B0329343244510S14826779EA030100308100409000
B0329393244461S14826803EA030000306800609000
B0329443244408S14826827EA029880305600509000
B0329493244350S14826849EA029770304400609000
B0329543244299S14826883EA029750303700409000
B0329593244251S14826910EA029730303200609000
B0330043244205S14826944EA029710302900409000
B0330093244160S14826985EA029610302400609000
B0330143244116S14827027EA029500301500709000
B0330193244069S14827063EA029360300100709000
B0330243244024S14827103EA029240298700609000
B0330293243980S14827145EA029090297100509000
B0330343243935S14827185EA028930295400509000
B0330393243885S14827223EA028740293600609000
B0330443243835S14827257EA028720292800709000
B0330493243783S14827294EA028680292300709000
B0330543243731S14827338EA028620291800509000
B0330593243680S14827382EA028550291200509000
B0331043243624S14827409EA028510290700509000
B0331093243564S14827415EA028470290300609000
B0331143243509S14827411EA028400289800509000
B0331193243454S14827425EA028370289400809000
B0331243243404S14827464EA028310288800509000
B0331293243359S14827508EA028280288500409000
B0331343243323S14827556EA028250288200609000
B0331393243291S14827606EA028220287800709000
B0331443243265S14827658EA028170287500509000
B0331493243239S14827720EA028040286600709000
B0331543243234S14827788EA028110286500509000
B0331593243240S14827850EA028160286900509000
B0332043243240S14827916EA028190287300409000
B0332093243222S14827982EA028230287700509000
B0332143243224S14828043EA028210287900709000
B0332193243220S14828102EA028300288600509000
B0332243243194S14828168EA028270289000909000
B0332293243157S14828237EA028250289000709000
B0332343243129S14828307EA028290289100409000
B0332393243108S14828374EA028300289200409000
B0332443243091S14828437EA028290289100409000
B0332493243078S14828500EA028330289300509000
B0332543243072S14828555EA028370289600309000
B0332593243069S14828614EA028360289700309000
B0333043243063S14828675EA028370289900609000
B0333093243057S14828735EA028390290100309000
B0333143243053S14828791EA028390290100409000
B0333193243051S14828849EA028410290000609000
B0333243243048S14828906EA028440290100409000
B0333293243033S14828960EA028400290000609000
B0333343243022S14829021EA028420290100409000
B0333393243011S14829086EA028480290600609000
B0333443242993S14829151EA028550291400509000
B0333493242973S14829213EA028550291700609000
B0333543242959S14829275EA028520291400409000
B0333593242939S14829343EA028490291000609000
B0334043242918S14829411EA028480290600709000
B0334093242904S14829475EA028530291000609000
B0334143242889S14829540EA028430290700509000
B0334193242871S14829602EA028290289900909000
B0334243242864S14829671EA028180288500709000
B0334293242856S14829735EA028110287500609000
B0334343242841S14829801EA028030286600609000
B0334393242822S14829865EA027980286000409000
B0334443242802S14829931EA027920285300409000
B0334493242785S14829999EA027830284500409000
B0334543242773S14830071EA027730283400409000
B0334593242765S14830145EA027640282400309000
B0335043242753S14830215EA027530281300409000
B0335093242741S14830291EA027390279900409000
B0335143242735S14830371EA027280278500409000
B0335193242727S14830447EA027210277400409000
B0335243242716S14830522EA027190276700509000
B0335293242699S14830591EA027080275800509000
B0335343242682S14830668EA026950274600609000
B0335393242667S14830749EA026860273700609000
B0335443242655S14830834EA026710272400509000
B0335493242647S14830915EA026730272200509000
B0335543242640S14830985EA026680271800509000
B0335593242639S14831058EA026560270800509000
B0336043242630S14831133EA026480269800509000
B0336093242611S14831203EA026430269100609000
B0336143242594S14831269EA026430268900409000
B0336193242588S14831335EA026470269000509000
B0336243242573S14831403EA026450269100509000
B0336293242584S14831464EA026440269100609000
B0336343242624S14831491EA026420269000909000
B0336393242658S14831492EA026420269000409000
B0336443242678S14831475EA026370268900509000
B0336493242669S14831456EA026290268600809000
B0336543242623S14831475EA026140267301209000
B0336593242598S14831539EA026080266000709000
B0337043242587S14831604EA026050265500709000
B0337093242574S14831667EA026020265100509000
B0337143242557S14831734EA025990264600509000
B0337193242544S14831799EA025930264000509000
B0337243242531S14831869EA025810263000609000
B0337293242530S14831941EA025760262200509000
B0337343242537S14832010EA025650261200409000
B0337393242542S14832081EA025520259900309000
B0337443242537S14832155EA025370258400409000
B0337493242545S14832228EA025250257100409000
B0337543242560S14832302EA025200256000509000
B0337593242576S14832375EA025140255400509000
B0338043242590S14832446EA025060254600609000
B0338093242598S14832520EA025000254100409000
B0338143242595S14832592EA024910253200509000
B0338193242579S14832665EA024780252300509000
B0338243242557S14832733EA024640251000409000
B0338293242531S14832806EA024490249400409000
B0338343242507S14832877EA024420248200609000
B0338393242483S14832946EA024210246200509000
B0338443242467S14833018EA023980243900509000
B0338493242451S14833092EA023770241500409000
B0338543242428S14833160EA023530239200509000
B0338593242398S14833224EA023370237200409000
B0339043242366S14833284EA023150235000409000
B0339093242332S14833340EA022990233000409000
B0339143242288S14833393EA022740230800409000
B0339193242246S14833454EA022530228300609000
B0339243242207S14833528EA022280225900309000
B0339293242168S14833593EA022150223900509000
B0339343242125S14833651EA021980222000409000
B0339393242080S14833702EA021780220000509000
B0339443242025S14833745EA021540217700509000
B0339493241968S14833789EA021340215600409000
B0339543241910S14833830EA021120213300709000
B0339593241847S14833868EA020890211100609000
B0340043241784S14833907EA020720209100409000
B0340093241723S14833945EA020590207500609000
B0340143241660S14833984EA020400205600509000
B0340193241596S14834019EA020270204100409000
B0340243241535S14834055EA020170203000509000
B0340293241476S14834092EA020110202500409000
B0340343241422S14834127EA020070202100409000
B0340393241371S14834162EA020040201800409000
B0340443241325S14834203EA020030201600309000
B0340493241279S14834248EA020010201400309000
B0340543241232S14834292EA019950201100609000
B0340593241186S14834341EA019940200800309000
B0341043241143S14834384EA020030201000609000
B0341093241100S14834423EA020170202600609000
B0341143241054S14834454EA020340204800509000
B0341193241014S14834492EA020520207000609000
B0341243241018S14834547EA020680208900909000
B0341293241044S14834540EA020820210400809000
B0341343241015S14834531EA020970211801609000
B0341393240988S14834588EA021120213401209000
B0341443241017S14834629EA021270215201109000
B0341493241013S14834607EA021380216401409000
B0341543240973S14834649EA021540217901409000
B0341593240991S14834699EA021660219401009000
B0342043241006S14834683EA021780220300909000
B0342093240968S14834677EA021910221801309000
B0342143240937S14834726EA022080223700909000
B0342193240956S14834769EA022210225300909000
B0342243240967S14834753EA022330226501109000
B0342293240925S14834752EA022460227801309000
F0342340205061219202429
B0342343240894S14834804EA022640229500808000
F034239020506121920242529
B0342393240912S14834848EA022770231100809000
B0342443240932S14834838EA022880232200909000
B0342493240899S14834827EA023010233401209000
B0342543240868S14834876EA023140235001109000
B0342593240888S14834924EA023250236000909000
B0343043240903S14834910EA023380237001009000
B0343093240874S14834892EA023510238300809000
B0343143240836S14834928EA023620239901109000
B0343193240847S14834986EA023710240800709000
B0343243240874S14834993EA023810241700709000
B0343293240867S14834972EA023930242600909000
B0343343240823S14834985EA024020244001109000
B0343393240789S14835038EA024140245200609000
B0343443240769S14835099EA024250246400609000
B0343493240791S14835146EA024360247500909000
B0343543240800S14835135EA024470248301109000
B0343593240756S14835151EA024530249401409000
B0344043240727S14835211EA024700250601109000
B0344093240735S14835264EA024790251900909000
B0344143240763S14835259EA024870252600809000
B0344193240753S14835237EA024950253400809000
B0344243240715S14835237EA025070254900709000
B0344293240682S14835282EA025180256100809000
B0344343240688S14835343EA025290257300509000
B0344393240716S14835373EA025380258200609000
B0344443240725S14835361EA025440258800709000
B0344493240698S14835352EA025530259700809000
B0344543240656S14835368EA025640260800809000
B0344593240621S14835410EA025730261800709000
B0345043240614S14835470EA025790262700509000
B0345093240641S14835505EA025820263000809000
B0345143240667S14835500EA025870263400509000
B0345193240677S14835483EA025970264200409000
B0345243240685S14835464EA026070265300409000
B0345293240693S14835445EA026150266400309000
B0345343240701S14835427EA026240267300409000
B0345393240710S14835406EA026280267800409000
B0345443240721S14835387EA026340268300409000
B0345493240731S14835367EA026350268400409000
B0345543240742S14835350EA026290268400309000
B0345593240742S14835332EA026280268200409000
B0346043240734S14835311EA026340268400409000
B0346093240736S14835287EA026320268400609000
B0346143240738S14835262EA026310268300509000
B0346193240732S14835229EA026280268100509000
B0346243240730S14835201EA026260267800509000
B0346293240734S14835178EA026220267600409000
B0346343240724S14835149EA026190267400409000
B0346393240715S14835119EA026220267500509000
B0346443240707S14835084EA026230267500509000
B0346493240688S14835066EA026240267500509000
B0346543240670S14835046EA026120267000509000
B0346593240647S14835036EA026050266200509000
B0347043240610S14835032EA025980265200609000
B0347093240570S14835032EA026040265100409000
B0347143240530S14835031EA026110265600709000
B0347193240497S14835013EA026170265800309000
B0347243240469S14834993EA026310266600509000
B0347293240424S14835008EA026350267801509000
B0347343240407S14835068EA026380268400809000
B0347393240420S14835127EA026410268900509000
B0347443240442S14835173EA026470269500409000
B0347493240470S14835205EA026580270400509000
B0347543240491S14835195EA026700271300409000
B0347593240502S14835171EA026760272100509000
B0348043240511S14835148EA026820272800509000
B0348093240532S14835131EA027020273800509000
B0348143240547S14835110EA027240275400609000
B0348193240515S14835100EA027410278201209000
B0348243240491S14835153EA027500280401309000
B0348293240513S14835212EA027590281600609000
B0348343240550S14835246EA027760283000609000
B0348393240583S14835259EA027870284200409000
B0348443240604S14835242EA027900284800609000
B0348493240610S14835210EA027940284900509000
B0348543240613S14835179EA028090285800509000
B0348593240602S14835146EA028180287100609000
B0349043240588S14835116EA028270288100509000
B0349093240578S14835084EA028330289100409000
B0349143240565S14835056EA028420290000409000
B0349193240556S14835026EA028540291100409000
B0349243240536S14835002EA028690292300509000
B0349293240497S14834996EA028750293300609000
B0349343240449S14835011EA028830294300809000
B0349393240407S14835054EA028660293801009000
B0349443240409S14835120EA028510292400809000
B0349493240427S14835182EA028380290700609000
B0349543240435S14835252EA028350289600709000
B0349593240438S14835318EA028410289500609000
B0350043240436S14835385EA028430289600509000
B0350093240425S14835449EA028380289700709000
B0350143240397S14835513EA028430290100909000
B0350193240351S14835545EA028450290500909000
B0350243240307S14835567EA028510291100709000
B0350293240272S14835563EA028540291600509000
B0350343240233S14835548EA028440291500709000
B0350393240192S14835536EA028420291100709000
B0350443240148S14835539EA028550291200809000
B0350493240117S14835516EA028580291400609000
B0350543240117S14835479EA028650292100509000
B0350593240135S14835454EA028780292900609000
B0351043240165S14835462EA028910294500709000
B0351093240178S14835518EA028980295600709000
B0351143240154S14835576EA029040296400609000
B0351193240112S14835604EA029090296900909000
B0351243240073S14835595EA029130297200409000
B0351293240058S14835562EA029110297400509000
B0351343240067S14835538EA029280298000509000
B0351393240087S14835524EA029370299000409000
B0351443240111S14835547EA029420299800609000
B0351493240114S14835607EA029440300500709000
B0351543240086S14835661EA029510301200609000
B0351593240041S14835681EA029560301700709000
B0352043240005S14835664EA029610302200509000
B0352093239981S14835639EA029700302900509000
B0352143239949S14835620EA029770303600409000
B0352193239905S14835615EA029850304400609000
B0352243239852S14835628EA029830304700609000
B0352293239799S14835651EA029820304600509000
B0352343239747S14835663EA029790304400809000
B0352393239709S14835703EA029740303800509000
B0352443239674S14835742EA029640303100609000
B0352493239635S14835781EA029510301600709000
B0352543239596S14835833EA029400300300509000
B0352593239564S14835886EA029490300200509000
B0353043239533S14835935EA029590301000509000
B0353093239495S14835983EA029630301800409000
B0353143239460S14836035EA029640302100709000
B0353193239429S14836097EA029670302300309000
B0353243239394S14836152EA029770303100409000
B0353293239362S14836208EA029860304400609000
B0353343239329S14836271EA029980305700309000
B0353393239297S14836331EA030060306800509000
B0353443239268S14836395EA030070307400609000
B0353493239237S14836461EA030030307400409000
B0353543239195S14836518EA029970306800409000
B0353593239150S14836572EA029930306100409000
B0354043239108S14836627EA029840305000409000
B0354093239071S14836687EA029790304300409000
B0354143239033S14836748EA029680303300409000
B0354193238992S14836814EA029660302700809000
B0354243238963S14836881EA029640302400509000
B0354293238936S14836950EA029530301800309000
B0354343238911S14837013EA029360300400609000
B0354393238892S14837083EA029170298400409000
B0354443238870S14837151EA029060296700409000
B0354493238852S14837213EA028980295500509000
B0354543238835S14837274EA028920294800509000
B0354593238818S14837338EA028830293800309000
B0355043238795S14837400EA028700292900509000
B0355093238769S14837462EA028630292100509000
B0355143238743S14837522EA028540291300509000
B0355193238713S14837576EA028410290100509000
B0355243238683S14837631EA028300288900509000
B0355293238652S14837685EA028220288100409000
B0355343238625S14837740EA028100286900409000
B0355393238599S14837794EA028000285900309000
B0355443238564S14837846EA027890284800409000
B0355493238519S14837887EA027750283300409000
B0355543238471S14837928EA027590281700409000
B0355593238413S14837963EA027430279700509000
B0356043238354S14837997EA027340278400609000
B0356093238297S14838030EA027230277300609000
B0356143238246S14838059EA027130276300609000
B0356193238191S14838084EA026980275000409000
B0356243238133S14838109EA026840273400509000
B0356293238074S14838139EA026690271900409000
B0356343238008S14838163EA026570270400409000
B0356393237942S14838179EA026510269200809000
B0356443237888S14838206EA026500268600809000
B0356493237832S14838237EA026430268200709000
B0356543237781S14838267EA026580269600809000
B0356593237751S14838318EA026730271500809000
B0357043237765S14838362EA026840273301009000
B0357093237789S14838355EA027010275000709000
B0357143237753S14838339EA027110276301109000
B0357193237705S14838380EA027240277701109000
B0357243237698S14838430EA027450279700709000
B0357293237719S14838426EA027570281000809000
B0357343237700S14838393EA027740282600709000
B0357393237648S14838385EA027840284101109000
B0357443237606S14838418EA028030286101109000
B0357493237616S14838453EA028160287600809000
B0357543237621S14838430EA028310288701009000
B0357593237568S14838429EA028440290201309000
B0358043237540S14838477EA028580291600809000
B0358093237558S14838500EA028710293000909000
B0358143237560S14838471EA028830293900909000
B0358193237513S14838456EA028960295400909000
B0358243237461S14838465EA029110297000809000
B0358293237430S14838506EA029250298500909000
B0358343237450S14838533EA029340299600709000
B0358393237466S14838512EA029420300600609000
B0358443237444S14838472EA029510301300709000
B0358493237407S14838440EA029640302500509000
B0358543237363S14838412EA029730303600609000
B0358593237306S14838404EA029750304300609000
B0359043237269S14838446EA029730303900709000
B0359093237273S14838498EA029760303800709000
B0359143237287S14838538EA029900304700609000
B0359193237296S14838580EA030010305900509000
B0359243237314S14838606EA030090306900409000
B0359293237326S14838583EA030130307500809000
B0359343237288S14838548EA030200308300809000
B0359393237235S14838557EA030260309000509000
B0359443237195S14838596EA030330309800809000
B0359493237183S14838649EA030390310500609000
B0359543237180S14838700EA030490311400709000
B0359593237147S14838748EA030500311901109000
B0400043237091S14838773EA030590312300809000
