AFLY00Bn 0100731
HFDTE311217
HFFXA010
HFPLTPILOT:MICHAEL CASSELLS
HFCM2CREW2:NKN
HFGTYGLIDERTYPE:NKN             
HFGIDGLIDERID:NKN             
HFDTM100GPSDATUM:WGS84
HFRFWFIRMWAREVERSION: 2.00.00
HFRHWHARDWAREVERSION:1.00
HFFTYFRTYPE:Flytec Element Track
HFGPS:FASTRAX,IT430,48
HFPRSPRESSALTSENSOR:INTERSEMA,MS5401BM,12000
HFALGALTGPS:GEO
HFALPALTPRESSURE:ISA
HFTZNUTCOFFSET: 11.00h
I033638FXA3940SIU4143TAS
C311217011451311217006302
C3321372S14756016E TAKEOFF
C3321372S14756016E START  BMI023           00000000010000000000360000AREA
C3351224S14756517E TURN   PINEY            00000000002000000000360000AREA
C3427815S14842189E TURN   ATTILA           00000000005000000000360000AREA
C3449128S14840085E FINISH BOOKHA           00000000001000000000360000AREA
C3449128S14840085E LANDING
F021608020506121719242529
B0216083321391S14756042EA002650023100409000
F021638020506121719242529
B0216383321380S14756037EA002650023000509000
F021708020506121719242529
B0217083321373S14756037EA002650023000409000
F021738020506121719242529
B0217383321373S14756037EA002650023000609000
F021808020506121719242529
B0218083321373S14756037EA002660023000609000
F021838020506121719242529
B0218383321373S14756037EA002660023000609000
F021908020506121719242529
B0219083321373S14756037EA002660023000709000
F021938020506121719242529
B0219383321373S14756037EA002660023000609000
F022008020506121719242529
B0220083321371S14756030EA002660023000809000
E022012STA
E022012ATS1009.0
LFLYA1 00230
B0220123321363S14756003EA002650023000509000
B0220173321348S14755954EA002710023200809000
B0220223321325S14755911EA002880024100709000
B0220273321303S14755870EA003020025900609000
B0220323321281S14755826EA003190028200509000
B0220373321265S14755779EA003420030500709000
B0220423321251S14755733EA003570032700509000
B0220473321239S14755693EA003690034500409000
B0220523321223S14755661EA003890036500809000
B0220573321202S14755632EA004080038500609000
B0221023321181S14755602EA004230040300709000
B0221073321144S14755581EA004450042400809000
B0221123321103S14755581EA004670045100509000
B0221173321059S14755586EA004960047800609000
B0221223321019S14755598EA005180050300609000
B0221273320976S14755627EA005440052800509000
B0221323320951S14755680EA005660055200609000
B0221373320942S14755739EA005770056900409000
B0221423320927S14755793EA005860058200609000
B0221473320954S14755829EA005800057800909000
B0221523320985S14755827EA005890058100709000
B0221573321010S14755813EA006000058500709000
B0222023321017S14755784EA006060059100909000
B0222073320986S14755792EA006150060100709000
B0222123320980S14755841EA006240061100709000
B0222173321005S14755884EA006310062100609000
B0222223321034S14755898EA006380062900909000
B0222273321058S14755882EA006490064000509000
B0222323321066S14755851EA006570064700809000
B0222373321036S14755834EA006660065700709000
B0222423321019S14755882EA006730066200609000
B0222473321030S14755937EA006850067100509000
B0222523321053S14755957EA006860067601109000
B0222573321076S14755936EA006870067700709000
B0223023321088S14755902EA006890067900509000
B0223073321097S14755866EA006970068000609000
B0223123321071S14755854EA006910068001209000
B0223173321054S14755899EA006880067900809000
B0223223321081S14755941EA006900068101109000
B0223273321119S14755964EA006930068400609000
B0223323321156S14755970EA006920068300809000
B0223373321199S14755979EA006990068600709000
B0223423321199S14756029EA007060069301309000
B0223473321165S14756018EA007150070401209000
B0223523321187S14755992EA007260071401009000
B0223573321221S14756025EA007330072101209000
B0224023321210S14756075EA007270072400809000
B0224073321177S14756097EA007290072500909000
B0224123321158S14756073EA007350072700809000
B0224173321154S14756042EA007440073400809000
B0224223321156S14756009EA007460074100509000
B0224273321124S14756002EA007440074000909000
B0224323321122S14756056EA007380073501309000
B0224373321148S14756100EA007430073600709000
B0224423321180S14756138EA007500074200909000
B0224473321210S14756178EA007580075000509000
B0224523321243S14756204EA007520075200609000
B0224573321273S14756190EA007370074201109000
B0225023321266S14756156EA007230072400909000
B0225073321229S14756144EA007230071300809000
B0225123321191S14756157EA007310071300809000
B0225173321191S14756207EA007450072401609000
B0225223321204S14756185EA007500073401209000
B0225273321170S14756173EA007600074901209000
B0225323321162S14756222EA007690075801009000
B0225373321187S14756221EA007770077001109000
B0225423321160S14756202EA007870077801209000
B0225473321138S14756252EA007900078100809000
B0225523321165S14756282EA007980078701409000
B0225573321172S14756254EA008010079601109000
B0226023321146S14756227EA008080079900709000
B0226073321115S14756244EA008010079500809000
B0226123321108S14756298EA007920079100609000
B0226173321125S14756347EA007940079000909000
B0226223321151S14756389EA008030079400509000
B0226273321182S14756425EA007930078900509000
B0226323321214S14756440EA007760078000609000
B0226373321226S14756406EA007560075900609000
B0226423321221S14756367EA007520074400709000
B0226473321213S14756335EA007570074200509000
B0226523321210S14756303EA007560074400509000
B0226573321200S14756270EA007540074500709000
B0227023321193S14756245EA007500074400409000
B0227073321181S14756216EA007440074100409000
B0227123321168S14756183EA007370073600609000
B0227173321148S14756151EA007360073400409000
B0227223321130S14756115EA007360073300409000
B0227273321118S14756079EA007400073300409000
B0227323321105S14756042EA007470073600409000
B0227373321092S14756006EA007470073900409000
B0227423321081S14755972EA007480074000409000
B0227473321072S14755937EA007530074400409000
B0227523321058S14755907EA007640075100509000
B0227573321043S14755877EA007760076300509000
B0228023321012S14755892EA007870077501009000
B0228073321024S14755942EA007990078800809000
B0228123321052S14755948EA008120080401109000
B0228173321030S14755933EA008240082101209000
B0228223321006S14755978EA008420083100809000
B0228273321029S14756006EA008530084701309000
B0228323321032S14755983EA008650085901209000
B0228373321002S14756008EA008780087400909000
B0228423321009S14756059EA008900088500809000
B0228473321036S14756059EA009040089901209000
B0228523321018S14756043EA009200091601009000
B0228573320996S14756080EA009310092900809000
B0229023321015S14756116EA009410094101009000
B0229073321038S14756105EA009530095500709000
B0229123321023S14756082EA009670096900709000
B0229173320996S14756096EA009750097700909000
B0229223320990S14756156EA009850098600609000
B0229273321012S14756195EA009960099600809000
B0229323321031S14756178EA010050100501209000
B0229373321012S14756152EA010210102200609000
B0229423320982S14756146EA010340103700809000
B0229473320975S14756195EA010390104500709000
B0229523321006S14756225EA010510105500709000
B0229573321030S14756210EA010650106800909000
B0230023321032S14756181EA010760108200809000
B0230073320997S14756188EA010920109601109000
B0230123321007S14756235EA011030110901209000
B0230173321028S14756218EA011130112101109000
B0230223320989S14756202EA011270113500909000
B0230273320963S14756249EA011390114600909000
B0230323320984S14756280EA011490115801309000
B0230373320999S14756252EA011580116800709000
B0230423320997S14756218EA011720118100709000
B0230473320988S14756187EA011810119000509000
B0230523320954S14756196EA011870119801109000
B0230573320942S14756252EA011920120500609000
B0231023320957S14756301EA012000121300609000
B0231073320984S14756318EA012100122000609000
B0231123320990S14756286EA012170122300909000
B0231173320960S14756270EA012230122801209000
B0231223320941S14756318EA012330123900909000
B0231273320968S14756343EA012420125200809000
B0231323320993S14756328EA012460126100709000
B0231373321018S14756309EA012520126800609000
B0231423321038S14756287EA012600127500509000
B0231473321040S14756262EA012530127500409000
B0231523321017S14756249EA012490127100609000
B0231573320988S14756270EA012420126600509000
B0232023320977S14756323EA012390126000709000
B0232073320977S14756379EA012470126300409000
B0232123320977S14756438EA012590127000509000
B0232173320989S14756494EA012760128600509000
B0232223321015S14756495EA012890130300909000
B0232273321003S14756469EA013020132000709000
B0232323320970S14756493EA013170133200909000
B0232373320979S14756551EA013370135201209000
F0232420205061219242529
B0232423321011S14756554EA013520137201208000
F023247020506121719242529
B0232473320996S14756533EA013670138900909000
B0232523320960S14756553EA013850140800709000
B0232573320952S14756605EA014000142300709000
B0233023320979S14756623EA014120143801309000
B0233073320981S14756597EA014290145600809000
B0233123320953S14756589EA014410147101309000
B0233173320934S14756638EA014540148200609000
B0233223320954S14756684EA014640149001109000
B0233273320989S14756687EA014740149900909000
B0233323321017S14756672EA014870151000609000
B0233373321018S14756644EA014960152000509000
B0233423321008S14756614EA015030152900409000
B0233473320991S14756595EA014940153001009000
B0233523320968S14756633EA014730152001309000
B0233573320988S14756694EA014790151100809000
B0234023321016S14756740EA014920151601109000
B0234073321053S14756765EA015090153000609000
B0234123321074S14756754EA015140153901209000
B0234173321040S14756741EA015130154101009000
B0234223321001S14756752EA015210154800509000
B0234273320979S14756795EA015340155901009000
B0234323321005S14756827EA015420156801209000
B0234373321018S14756802EA015510157800809000
B0234423320994S14756786EA015610159000809000
B0234473320969S14756824EA015720160000809000
B0234523320977S14756875EA015810160901309000
B0234573321014S14756884EA015820161301009000
B0235023321029S14756859EA015920162100609000
B0235073321003S14756836EA015980162800609000
B0235123320974S14756851EA016090163600709000
B0235173320988S14756893EA016120164201109000
B0235223321026S14756903EA016200165000609000
B0235273321051S14756876EA016260165800909000
B0235323321027S14756854EA016210165700909000
B0235373320992S14756874EA016140164900609000
B0235423320998S14756924EA016090164101009000
B0235473321033S14756955EA016190164601009000
B0235523321078S14756963EA016220165000809000
B0235573321105S14756937EA016220165301109000
B0236023321108S14756903EA016150165000909000
B0236073321099S14756875EA015970164100809000
B0236123321085S14756843EA015870162800809000
B0236173321070S14756810EA015700161000709000
B0236223321058S14756775EA015560159200409000
B0236273321056S14756732EA015360157200409000
B0236323321057S14756686EA015230155400509000
B0236373321046S14756646EA015140154100609000
B0236423321023S14756616EA015080153300509000
B0236473320996S14756588EA015100153300409000
B0236523320965S14756566EA015110153500409000
B0236573320935S14756543EA015180154000409000
B0237023320904S14756522EA015290155100709000
B0237073320898S14756485EA015380156301909000
B0237123320940S14756484EA015430157001109000
B0237173320952S14756523EA015520158001109000
B0237223320922S14756551EA015580158800909000
B0237273320891S14756532EA015700159800609000
B0237323320900S14756497EA015860161300809000
B0237373320941S14756509EA015980162801409000
B0237423320923S14756549EA016060164101109000
B0237473320893S14756534EA016210165301109000
B0237523320914S14756503EA016400167001209000
B0237573320942S14756534EA016580169001009000
B0238023320916S14756547EA016690170401109000
B0238073320902S14756509EA016890172000909000
B0238123320937S14756475EA017060173701009000
B0238173320985S14756483EA017170175101409000
B0238223320995S14756535EA017250176601109000
B0238273320972S14756567EA017320177400809000
B0238323320941S14756555EA017550178701009000
B0238373320968S14756529EA017640180301309000
B0238423320989S14756569EA017780181301009000
B0238473320958S14756587EA017930183001109000
B0238523320956S14756551EA018080184501409000
B0238573320995S14756539EA018190185800909000
B0239023321022S14756571EA018280186900909000
B0239073321006S14756609EA018390187700609000
B0239123320984S14756590EA018510188901409000
B0239173321001S14756550EA018580189800809000
B0239223321046S14756534EA018640190600909000
B0239273321081S14756563EA018700191300909000
B0239323321072S14756603EA018740191700709000
B0239373321042S14756605EA018820192300509000
B0239423321032S14756571EA018940193201009000
B0239473321068S14756546EA018960193801209000
B0239523321103S14756564EA019010194401209000
B0239573321114S14756605EA019030194600809000
B0240023321094S14756635EA019070194900909000
B0240073321067S14756643EA019160195500609000
B0240123321055S14756616EA019200195900609000
B0240173321078S14756584EA019240196300509000
B0240223321120S14756598EA019240196401209000
B0240273321128S14756640EA019280196800509000
B0240323321106S14756661EA019330197400909000
B0240373321085S14756642EA019380197900609000
B0240423321094S14756605EA019420198300909000
B0240473321138S14756598EA019420198400909000
B0240523321161S14756634EA019390198500609000
B0240573321149S14756670EA019390198400809000
B0241023321126S14756690EA019450198700809000
B0241073321103S14756711EA019470199000509000
B0241123321085S14756696EA019440199000809000
B0241173321097S14756657EA019370198701009000
B0241223321142S14756660EA019370198100909000
B0241273321177S14756692EA019340197800609000
B0241323321194S14756737EA019390197900409000
B0241373321181S14756774EA019360197800609000
B0241423321150S14756780EA019300197500609000
B0241473321126S14756748EA019310197400609000
B0241523321110S14756713EA019310197300509000
B0241573321128S14756677EA019290197200509000
B0242023321166S14756678EA019240196900809000
B0242073321187S14756718EA019190196400609000
B0242123321183S14756762EA019220196500409000
B0242173321159S14756788EA019180196300709000
B0242223321130S14756788EA019160196200409000
B0242273321118S14756755EA019140195900609000
B0242323321132S14756715EA019110195400409000
B0242373321165S14756701EA019010194800509000
B0242423321202S14756720EA018870193400709000
B0242473321220S14756769EA018800192200709000
B0242523321206S14756810EA018770191700509000
B0242573321185S14756835EA018740191200809000
B0243023321159S14756856EA018680191000509000
B0243073321133S14756875EA018650190800709000
B0243123321105S14756870EA018600190500709000
B0243173321100S14756837EA018550190000409000
B0243223321121S14756806EA018510189700309000
B0243273321155S14756785EA018420189000709000
B0243323321195S14756773EA018360188000509000
B0243373321235S14756775EA018260187000609000
B0243423321277S14756786EA018170185900709000
B0243473321319S14756804EA018120185200609000
B0243523321361S14756825EA018000184300809000
B0243573321402S14756850EA017930183500709000
B0244023321435S14756881EA017850182500609000
B0244073321471S14756913EA017780181700409000
B0244123321506S14756952EA017680180800509000
B0244173321546S14756986EA017610180000509000
B0244223321591S14757006EA017580179500709000
B0244273321636S14757020EA017480178700609000
B0244323321682S14757032EA017390177700609000
B0244373321725S14757051EA017320176800509000
B0244423321764S14757077EA017240175900409000
B0244473321807S14757095EA017160175100709000
B0244523321854S14757103EA017090174300409000
B0244573321904S14757112EA016960173100509000
B0245023321954S14757113EA016880172100709000
B0245073321999S14757105EA016820171400509000
B0245123322043S14757098EA016740170700609000
B0245173322089S14757097EA016670170000609000
B0245223322138S14757095EA016610169400609000
B0245273322184S14757088EA016600169100609000
B0245323322228S14757078EA016570168800609000
B0245373322274S14757068EA016550168500409000
B0245423322320S14757056EA016550168300609000
B0245473322364S14757036EA016500168000709000
B0245523322405S14757019EA016440167400709000
B0245573322450S14757009EA016360166800409000
B0246023322493S14757006EA016300166200409000
B0246073322537S14756999EA016170165200709000
B0246123322584S14756990EA016110164400509000
B0246173322631S14756986EA016010163500509000
B0246223322676S14756978EA015920162400409000
B0246273322718S14756964EA015790161000709000
B0246323322762S14756951EA015660159700609000
B0246373322805S14756941EA015540158300409000
B0246423322849S14756934EA015420157000409000
B0246473322896S14756945EA015320155800409000
B0246523322945S14756966EA015260155000509000
B0246573322996S14756991EA015170154100709000
B0247023323052S14757001EA015120153400509000
B0247073323102S14757012EA015020152500609000
B0247123323147S14757026EA014910151400609000
B0247173323196S14757036EA014790150300509000
B0247223323247S14757039EA014710149300409000
B0247273323291S14757041EA014670148600409000
B0247323323333S14757040EA014600147800609000
B0247373323376S14757034EA014470146800509000
B0247423323419S14757028EA014390146000609000
B0247473323460S14757024EA014240144900509000
B0247523323508S14757026EA014100143400509000
B0247573323558S14757032EA013940141800409000
B0248023323607S14757041EA013790140200509000
B0248073323657S14757048EA013680138700709000
F0248120206121719242529
B0248123323704S14757062EA013570137500708000
B0248173323750S14757073EA013470136500708000
F024822020506121719242529
B0248223323797S14757089EA013380135500509000
B0248273323844S14757096EA013250134400509000
F0248320206121719242529
B0248323323890S14757108EA013130133200708000
F024837020506121719242529
B0248373323937S14757126EA013000131800409000
B0248423323980S14757142EA012900130700409000
B0248473324022S14757155EA012800129600709000
B0248523324060S14757164EA012750128800609000
B0248573324098S14757174EA012630127800509000
B0249023324139S14757182EA012490126600709000
B0249073324180S14757186EA012360125300509000
B0249123324217S14757186EA012270124200509000
B0249173324254S14757186EA012160123100509000
B0249223324288S14757187EA012070122000509000
B0249273324321S14757185EA011940120900509000
B0249323324355S14757181EA011820119700409000
B0249373324387S14757176EA011720118500709000
B0249423324416S14757167EA011630117500309000
B0249473324445S14757156EA011480116200709000
B0249523324474S14757146EA011350114800409000
B0249573324506S14757138EA011220113400509000
B0250023324539S14757127EA011000111500409000
B0250073324583S14757114EA010840109200609000
B0250123324622S14757102EA010690107500609000
B0250173324658S14757094EA010550106000609000
B0250223324700S14757083EA010330104000709000
B0250273324744S14757077EA010120101800509000
B0250323324784S14757071EA009930099600609000
B0250373324817S14757067EA009820097800709000
B0250423324845S14757064EA009580095800809000
B0250473324878S14757054EA009420093800609000
B0250523324914S14757043EA009360092700609000
B0250573324947S14757031EA009360092600809000
B0251023324977S14757013EA009360092800609000
B0251073325006S14756997EA009420093100709000
B0251123325033S14756977EA009380093200509000
B0251173325021S14756940EA009390093300709000
B0251223324982S14756937EA009420093700909000
B0251273324944S14756971EA009300093300909000
B0251323324916S14757020EA009120092100609000
B0251373324930S14757067EA008940089601009000
F0251420205061219242529
B0251423324974S14757077EA008770087300808000
B0251473325009S14757063EA008740086000808000
B0251523325037S14757045EA008770086000908000
B0251573325054S14757021EA008820086600808000
B0252023325070S14756996EA008830087000808000
B0252073325076S14756964EA008700086600708000
B0252123325086S14756934EA008580085800708000
B0252173325119S14756937EA008470084900808000
B0252223325135S14756986EA008360083501008000
B0252273325132S14757041EA008310082800608000
B0252323325117S14757092EA008340082500608000
B0252373325101S14757142EA008370082700508000
B0252423325077S14757185EA008440083200508000
B0252473325051S14757228EA008450083400608000
B0252523325016S14757250EA008350083301308000
B0252573324991S14757231EA008290082800708000
B0253023324975S14757204EA008110081900808000
B0253073324958S14757181EA007910079600808000
B0253123324954S14757157EA007720077300808000
B0253173324975S14757132EA007560075400808000
B0253223324990S14757111EA007420073700808000
B0253273324999S14757084EA007300072300608000
B0253323324993S14757055EA007170070900608000
B0253373324969S14757042EA007060069500608000
B0253423324932S14757053EA006940068200508000
B0253473324899S14757063EA006890067400608000
B0253523324867S14757068EA006790066500608000
B0253573324834S14757072EA006690065700708000
B0254023324805S14757077EA006620065100608000
B0254073324775S14757090EA006560064400608000
B0254123324749S14757121EA006420063300508000
B0254173324722S14757160EA006260062100508000
B0254223324712S14757210EA006160060701308000
B0254273324741S14757269EA006110059500908000
B0254323324772S14757317EA006090059000608000
B0254373324804S14757354EA005950057800908000
B0254423324842S14757379EA005800056200808000
B0254473324882S14757396EA005710055100708000
B0254523324923S14757407EA005680054300708000
B0254573324962S14757417EA005730054300808000
B0255023324989S14757405EA005710054300808000
B0255073324970S14757386EA005650054201108000
B0255123324938S14757416EA005600053900708000
B0255173324922S14757462EA005530053400608000
B0255223324924S14757520EA005490053000608000
B0255273324940S14757580EA005480052800608000
B0255323324965S14757631EA005470052600908000
B0255373324997S14757670EA005490052700808000
B0255423325026S14757708EA005490052700708000
B0255473325059S14757733EA005510052900908000
B0255523325079S14757707EA005520052901108000
B0255573325077S14757677EA005480052800808000
B0256023325064S14757657EA005390052300908000
B0256073325035S14757685EA005280051400708000
B0256123325027S14757736EA005210050400708000
B0256173325036S14757790EA005220050000808000
B0256223325053S14757834EA005230049900708000
B0256273325062S14757884EA005240050100508000
B0256323325083S14757930EA005290050500908000
B0256373325108S14757915EA005330050901508000
B0256423325077S14757907EA005340051101308000
B0256473325061S14757952EA005400051500808000
B0256523325080S14757989EA005430051900908000
B0256573325111S14757982EA005470052300808000
B0257023325114S14757947EA005580052901408000
B0257073325083S14757964EA005560053301308000
B0257123325091S14758018EA005560053500908000
B0257173325114S14758062EA005630054200808000
B0257223325147S14758069EA005710054601008000
B0257273325133S14758045EA005670054701308000
B0257323325104S14758077EA005780054901208000
B0257373325115S14758128EA005850055501208000
B0257423325146S14758132EA005950056501208000
B0257473325129S14758100EA005960057001308000
B0257523325094S14758121EA006050057901308000
B0257573325086S14758171EA006010058001008000
B0258023325121S14758186EA005950057801408000
B0258073325149S14758163EA006000058000608000
B0258123325145S14758131EA006040058300808000
B0258173325120S14758116EA006130058901008000
B0258223325101S14758154EA006050058901208000
B0258273325136S14758193EA006060058701408000
B0258323325170S14758180EA006090059000808000
B0258373325178S14758142EA006180059500908000
B0258423325166S14758113EA006270060300708000
B0258473325143S14758135EA006230060701408000
B0258523325156S14758187EA006190060401208000
B0258573325198S14758202EA006200060301108000
B0259023325227S14758177EA006240060600908000
B0259073325228S14758141EA006280060800808000
B0259123325216S14758107EA006250060900908000
B0259173325185S14758128EA006090060001308000
B0259223325168S14758182EA006000058900808000
B0259273325165S14758235EA006020058600608000
B0259323325165S14758290EA005930058100608000
B0259373325174S14758350EA005910057800708000
B0259423325203S14758391EA005940057601008000
B0259473325243S14758398EA005990057900708000
B0259523325262S14758372EA005980057901008000
B0259573325235S14758369EA005970057601208000
B0300023325218S14758410EA005960057501208000
B0300073325242S14758459EA005990057601108000
B0300123325276S14758472EA005970057900808000
B0300173325301S14758449EA005900057400708000
B0300223325293S14758417EA005870056900908000
B0300273325267S14758426EA005840056501108000
B0300323325246S14758470EA005880056600908000
B0300373325232S14758518EA005910056800708000
B0300423325228S14758570EA005910057100608000
B0300473325224S14758624EA005910057100608000
B0300523325196S14758653EA005860056900708000
B0300573325175S14758643EA005800056500908000
B0301023325181S14758622EA005700055900808000
B0301073325218S14758624EA005540054600808000
B0301123325257S14758641EA005510053400808000
B0301173325294S14758671EA005490052900608000
B0301223325330S14758689EA005610053200908000
B0301273325353S14758722EA005660053801208000
B0301323325328S14758761EA005720054301508000
B0301373325314S14758736EA005790055001408000
B0301423325347S14758733EA005830055601208000
B0301473325373S14758767EA005900056400908000
B0301523325363S14758817EA005950057001108000
B0301573325334S14758811EA006010057501408000
B0302023325361S14758796EA006100058301408000
B0302073325376S14758842EA006190059101308000
B0302123325342S14758861EA006280060101408000
B0302173325343S14758838EA006310060601408000
B0302223325385S14758863EA006420061401308000
B0302273325377S14758917EA006480062201608000
B0302323325337S14758926EA006610063501408000
B0302373325352S14758901EA006620064301008000
B0302423325387S14758920EA006720065400908000
B0302473325412S14758962EA006880066700808000
B0302523325406S14759009EA007000067901308000
B0302573325372S14759006EA007080068801608000
B0303023325370S14758976EA007250070401108000
B0303073325404S14758987EA007370071901108000
B0303123325418S14759036EA007520073601008000
B0303173325383S14759052EA007650075101408000
B0303223325378S14759026EA007790076601108000
B0303273325414S14759027EA007830077301108000
B0303323325449S14759059EA007950078300908000
B0303373325455S14759111EA008070079400908000
B0303423325420S14759120EA008150080601508000
B0303473325429S14759085EA008280081501508000
B0303523325463S14759094EA008440083101408000
B0303573325447S14759153EA008480084101408000
B0304023325408S14759163EA008540084801208000
B0304073325383S14759151EA008750086101108000
B0304123325367S14759199EA008830087101608000
B0304173325399S14759239EA008970088701208000
B0304223325424S14759227EA009090090001008000
B0304273325415S14759199EA009160090801008000
B0304323325379S14759198EA009320092200808000
B0304373325367S14759246EA009380093201308000
B0304423325393S14759291EA009510094600808000
B0304473325419S14759288EA009600095601108000
B0304523325401S14759260EA009650096300908000
B0304573325376S14759233EA009720097100608000
B0305023325341S14759232EA009780097801108000
B0305073325329S14759284EA009760097801208000
B0305123325350S14759339EA009770097801008000
B0305173325378S14759375EA009860098200708000
B0305223325409S14759410EA009960099200808000
B0305273325441S14759431EA010010099901008000
B0305323325451S14759404EA010060100401008000
B0305373325425S14759393EA010190100901708000
B0305423325416S14759445EA010290101601608000
B0305473325442S14759439EA010330102401508000
B0305523325409S14759432EA010450103401308000
B0305573325402S14759480EA010560104801108000
B0306023325430S14759496EA010640106100908000
B0306073325438S14759474EA010670106700908000
B0306123325420S14759446EA010740107300708000
B0306173325399S14759419EA010780107700608000
B0306223325374S14759389EA010730107800708000
B0306273325332S14759400EA010680107400708000
B0306323325304S14759444EA010620106901008000
B0306373325310S14759501EA010570106301008000
B0306423325324S14759550EA010530105700808000
B0306473325351S14759592EA010490105201008000
B0306523325380S14759625EA010590105600908000
B0306573325411S14759652EA010660106300808000
B0307023325447S14759670EA010660106600608000
B0307073325484S14759684EA010710107100608000
B0307123325517S14759681EA010760107600808000
B0307173325536S14759659EA010820108000608000
B0307223325517S14759647EA010770108201208000
B0307273325480S14759677EA010710107800808000
B0307323325446S14759711EA010740107900608000
B0307373325424S14759759EA010800108100808000
B0307423325425S14759816EA010840108700808000
B0307473325432S14759872EA010830108700508000
B0307523325438S14759934EA010780108400708000
B0307573325443S14759998EA010710107700608000
B0308023325448S14800058EA010590106500608000
B0308073325458S14800120EA010490105200508000
B0308123325465S14800188EA010450104400408000
B0308133325465S14800201EA010460104300408000
B0308143325465S14800213EA010470104200408000
B0308153325464S14800225EA010450104100508000
B0308163325462S14800238EA010420104000608000
B0308173325460S14800252EA010400103900708000
B0308183325459S14800265EA010390103800608000
B0308193325458S14800279EA010380103800508000
B0308203325458S14800291EA010380103800508000
B0308213325457S14800304EA010380103700508000
B0308223325457S14800317EA010370103600608000
B0308233325457S14800330EA010360103500508000
B0308273325460S14800380EA010340103300608000
B0308323325445S14800441EA010310103100608000
B0308373325410S14800465EA010300103001008000
B0308423325387S14800451EA010250102600608000
B0308473325383S14800424EA010230102300608000
B0308523325392S14800398EA010200101900608000
B0308573325402S14800372EA010170101700608000
B0309023325410S14800347EA010120101300508000
B0309073325414S14800322EA010040100700408000
B0309113325415S14800303EA009960100000508000
B0309123325415S14800297EA009940099800508000
B0309133325416S14800291EA009920099600508000
E030914TPC
B0309143325417S14800286EA009910099500408000
B0309153325418S14800280EA009890099300408000
B0309163325419S14800274EA009870099100408000
B0309173325420S14800269EA009870099000408000
B0309183325422S14800263EA009860098800508000
B0309193325424S14800258EA009850098700508000
B0309223325429S14800244EA009830098300608000
B0309273325432S14800217EA009740097600508000
B0309323325439S14800185EA009650096800508000
B0309373325442S14800153EA009660096400808000
B0309423325431S14800122EA009640096100808000
B0309473325425S14800095EA009570095700608000
B0309523325420S14800064EA009540095400508000
B0309573325414S14800030EA009500094900508000
B0310023325406S14759996EA009450094300408000
B0310073325400S14759963EA009440094000308000
B0310123325399S14759929EA009370093600408000
B0310173325397S14759897EA009320092900408000
B0310223325397S14759861EA009290092500608000
B0310273325397S14759830EA009230092000708000
B0310323325393S14759797EA009130091400708000
B0310373325389S14759763EA009040090700808000
B0310423325394S14759738EA008950089500708000
B0310473325397S14759703EA008820088300908000
B0310523325401S14759672EA008760087300608000
B0310573325406S14759647EA008800087000808000
B0311023325414S14759623EA008820087200408000
B0311073325425S14759597EA008820087300608000
B0311123325422S14759569EA008790087200408000
B0311173325419S14759541EA008790087100608000
B0311223325418S14759513EA008810087100508000
B0311273325413S14759485EA008770087000608000
B0311323325409S14759458EA008740086700508000
B0311373325401S14759428EA008720086500508000
B0311423325380S14759409EA008670086100708000
B0311473325358S14759390EA008560085400608000
B0311523325331S14759385EA008410084400708000
B0311573325313S14759424EA008260082901108000
B0312023325329S14759477EA008150081400808000
B0312073325356S14759522EA008080080400608000
B0312123325392S14759558EA008000079300708000
B0312173325434S14759579EA007920078400608000
B0312223325478S14759601EA007810077300808000
B0312273325517S14759636EA007810076800608000
B0312323325547S14759683EA007770076200708000
B0312373325575S14759733EA007720075800708000
B0312423325610S14759777EA007680075400608000
B0312473325651S14759814EA007670075200708000
B0312523325689S14759856EA007690075400708000
B0312573325729S14759895EA007780076100808000
B0313023325766S14759939EA007900077500608000
B0313073325793S14759983EA007990078500708000
B0313123325788S14800034EA007950078600908000
B0313173325750S14800034EA007930078501008000
B0313223325737S14800007EA007980078600808000
B0313273325750S14759973EA008060079200908000
B0313323325795S14759983EA008200080101508000
B0313373325793S14800032EA008280080901408000
B0313423325765S14800029EA008410082001008000
B0313473325780S14759997EA008540082901108000
B0313523325811S14759979EA008640084401108000
B0313573325849S14800017EA008730085801308000
B0314023325846S14800070EA008890087301008000
B0314073325824S14800068EA009030088901408000
B0314123325859S14800054EA009160090501408000
B0314173325881S14800107EA009290092001208000
B0314223325856S14800141EA009350093101408000
B0314273325839S14800118EA009480093801008000
B0314323325865S14800096EA009610095201408000
B0314373325897S14800137EA009720096601308000
B0314423325863S14800157EA009860098101708000
B0314473325871S14800124EA009970099001608000
B0314523325918S14800143EA010050099901208000
B0314573325931S14800196EA010200101301108000
B0315023325909S14800201EA010100101101608000
B0315073325914S14800160EA010280101800808000
B0315123325948S14800152EA010330102301308000
B0315173325972S14800202EA010370103001008000
B0315223325944S14800220EA010430103601308000
B0315273325934S14800193EA010540104301008000
B0315323325964S14800184EA010590105101408000
B0315373325982S14800234EA010640105800808000
B0315423325958S14800251EA010690106501208000
B0315473325940S14800228EA010780107101008000
B0315523325929S14800203EA010870108200708000
B0315573325939S14800178EA010930108900908000
B0316023325984S14800206EA010940109401308000
B0316073326014S14800252EA011040109901008000
B0316123326015S14800298EA011070110501008000
B0316173325989S14800301EA011200111600808000
B0316223326001S14800279EA011200112201308000
B0316273326042S14800285EA011240112800808000
B0316323326073S14800324EA011300113200908000
B0316373326072S14800373EA011310113500808000
B0316423326048S14800401EA011390114000808000
B0316473326022S14800413EA011460114700608000
B0316523326000S14800445EA011520115300808000
B0316573326016S14800494EA011600116101008000
B0317023326059S14800502EA011620116600908000
B0317073326079S14800474EA011540116501308000
B0317123326061S14800453EA011630116700708000
B0317173326038S14800453EA011630116901208000
B0317223326017S14800492EA011710117300908000
B0317273326033S14800541EA011700117601208000
B0317323326082S14800554EA011700117901208000
B0317373326124S14800547EA011730118100708000
B0317423326159S14800531EA011740118100808000
B0317473326192S14800509EA011680118000608000
B0317523326228S14800479EA011530117500808000
F03175702050612242529
B0317573326262S14800441EA011410116201007000
F0318020205061219242529
B0318023326281S14800393EA011280114300608000
B0318073326305S14800342EA011120112300708000
B0318123326324S14800303EA011010110800708000
B0318173326346S14800258EA010780108900808000
B0318223326367S14800217EA010670107000708000
B0318273326394S14800176EA010510105200808000
B0318323326416S14800144EA010410103700708000
B0318373326439S14800104EA010210101900808000
B0318423326461S14800074EA010180101201008000
B0318473326483S14800045EA010130100800808000
B0318523326510S14800016EA010040100300708000
B0318573326539S14759993EA010050099900608000
B0319023326563S14759974EA010060099700808000
B0319073326588S14759949EA009990099500908000
B0319123326602S14759919EA010050100000808000
B0319173326624S14759893EA010190100800608000
B0319223326620S14759871EA010310101801208000
B0319273326589S14759903EA010370102701208000
B0319323326584S14759960EA010530104401008000
B0319373326611S14759995EA010630106001108000
B0319423326637S14759975EA010740107001108000
B0319473326612S14759961EA010890108701308000
B0319523326583S14800003EA011000110001408000
B0319573326589S14800055EA011140111401008000
B0320023326623S14800071EA011210112501108000
B0320073326647S14800043EA011300113100808000
B0320123326642S14800006EA011320113800808000
B0320173326608S14800000EA011360114001108000
B0320223326574S14800034EA011430114601008000
B0320273326547S14800076EA011450114901008000
B0320323326564S14800127EA011520115601008000
B0320373326594S14800128EA011620116301008000
B0320423326575S14800111EA011750117101008000
B0320473326553S14800152EA011830118001508000
B0320523326582S14800173EA011920119201008000
B0320573326591S14800146EA012040120501208000
B0321023326554S14800152EA012130121501408000
B0321073326525S14800197EA012180122401008000
B0321123326519S14800253EA012260123400808000
B0321173326545S14800286EA012280124001108000
B0321223326572S14800270EA012370124400808000
B0321273326588S14800243EA012440125300608000
B0321323326585S14800211EA012450125501108000
B0321373326547S14800219EA012500125801008000
B0321423326520S14800257EA012530126101008000
B0321473326523S14800312EA012560126401008000
B0321523326545S14800349EA012650127200908000
B0321573326573S14800345EA012640127400808000
B0322023326584S14800319EA012670127600608000
B0322073326568S14800297EA012690127800708000
B0322123326541S14800330EA012670127801008000
B0322173326534S14800386EA012670127800808000
B0322223326532S14800444EA012700127900708000
B0322273326550S14800484EA012710128201108000
B0322323326579S14800495EA012770128500908000
B0322373326606S14800524EA012760128600508000
B0322423326618S14800581EA012760128700708000
B0322473326622S14800641EA012730128700808000
B0322523326636S14800695EA012670128300908000
B0322573326608S14800728EA012570127901408000
B0323023326584S14800711EA012460127000608000
B0323073326575S14800681EA012390126000608000
B0323123326569S14800652EA012320125100608000
B0323173326574S14800628EA012320124500708000
B0323223326575S14800606EA012300124200808000
B0323273326577S14800580EA012210123500708000
B0323323326579S14800552EA012180123100508000
B0323373326581S14800528EA012170123000408000
B0323423326586S14800499EA012160122800308000
B0323473326590S14800469EA012130122600508000
B0323523326591S14800438EA012120122400408000
B0323573326595S14800411EA012110122200408000
B0324023326595S14800382EA012080122000408000
F03240702051219242529
B0324073326595S14800352EA012010121600507000
F0324120205061219242529
B0324123326594S14800331EA012110121501108000
B0324173326555S14800334EA012190121801008000
B0324223326549S14800389EA012240122301408000
B0324273326578S14800394EA012280122901408000
B0324323326568S14800368EA012270123300908000
B0324373326565S14800342EA012280123400608000
B0324423326555S14800312EA012250123400608000
B0324473326546S14800287EA012360124000708000
B0324523326535S14800257EA012430124800508000
B0324573326522S14800226EA012510125700508000
B0325023326510S14800195EA012610126700508000
B0325073326485S14800180EA012740127700908000
B0325123326464S14800219EA012870128601308000
B0325173326493S14800242EA012960130001208000
B0325223326502S14800222EA013080131401008000
B0325273326470S14800223EA013170132401108000
B0325323326458S14800264EA013290133601208000
B0325373326487S14800295EA013360134801008000
B0325423326513S14800283EA013450135900708000
B0325473326515S14800257EA013530136800608000
B0325523326486S14800256EA013500136900908000
B0325573326461S14800296EA013520137100808000
B0326023326450S14800351EA013580137500508000
B0326073326475S14800399EA013670138201308000
B0326123326509S14800386EA013790139101208000
B0326173326486S14800377EA013900140301508000
B0326223326480S14800433EA013990141501308000
B0326273326516S14800466EA014080142601208000
B0326323326549S14800459EA014190143701108000
B0326373326525S14800454EA014270144401208000
B0326423326498S14800498EA014350145300908000
B0326473326481S14800549EA014400146000708000
B0326523326499S14800596EA014380146001308000
B0326573326537S14800586EA014370145700908000
B0327023326551S14800557EA014430146000708000
B0327073326555S14800526EA014590146800708000
B0327123326535S14800528EA014670147501508000
B0327173326532S14800581EA014710148301308000
B0327223326562S14800625EA014770149200908000
B0327273326593S14800615EA014850150201008000
B0327323326583S14800596EA014960151101108000
B0327373326563S14800637EA015030152101108000
B0327423326587S14800685EA015110153101308000
B0327473326625S14800686EA015200154100908000
B0327523326635S14800659EA015240154801008000
B0327573326604S14800659EA015290154901208000
B0328023326581S14800704EA015370155600908000
B0328073326598S14800752EA015400156201108000
B0328123326630S14800740EA015440156800908000
B0328173326626S14800714EA015510157300908000
B0328223326596S14800728EA015560157601308000
B0328273326590S14800786EA015580158001108000
B0328323326612S14800836EA015610158400908000
B0328373326646S14800859EA015630158701008000
B0328423326666S14800834EA015540158300908000
B0328473326662S14800804EA015560158200608000
B0328523326655S14800774EA015600158300608000
B0328573326649S14800746EA015660158600508000
B0329023326647S14800717EA015710159000608000
B0329073326647S14800683EA015750159400408000
B0329123326645S14800649EA015820159900508000
B0329173326649S14800614EA015950160800508000
B0329223326639S14800584EA016010161600708000
B0329273326606S14800609EA016050162401408000
B0329323326603S14800662EA016040162901008000
B0329373326627S14800714EA016040163000908000
F03294202050612192529
B0329423326656S14800756EA016150163701207000
F0329470205061219242529
B0329473326695S14800788EA016240164901008000
B0329523326735S14800817EA016300165800608000
B0329573326772S14800851EA016350166300908000
B0330023326812S14800874EA016400166700708000
B0330073326854S14800886EA016410166900708000
B0330123326898S14800905EA016510167500608000
B0330173326935S14800900EA016550168001008000
B0330223326925S14800870EA016510168001108000
B0330273326899S14800856EA016600168300508000
B0330323326873S14800864EA016650168901108000
B0330373326860S14800913EA016680169500908000
B0330423326870S14800969EA016720170100708000
B0330473326900S14801010EA016780170500808000
B0330523326936S14801001EA016800170800808000
B0330573326950S14800971EA016770170700808000
B0331023326947S14800937EA016780170600608000
B0331073326942S14800900EA016800170900508000
B0331123326935S14800869EA016890171300908000
B0331173326927S14800839EA016910171600408000
B0331223326924S14800801EA016920171900408000
B0331273326918S14800765EA016970172500508000
B0331323326917S14800732EA017020172900408000
B0331373326918S14800699EA017090173600408000
B0331423326920S14800667EA017160174300308000
B0331473326903S14800645EA017240175000808000
B0331523326880S14800674EA017310175701008000
B0331573326898S14800725EA017330176201308000
B0332023326939S14800751EA017390176901008000
B0332073326974S14800741EA017450177700808000
B0332123326993S14800713EA017550178300608000
B0332173327003S14800688EA017690179300808000
B0332223326979S14800708EA017760180501308000
B0332273326984S14800770EA017860181700808000
B0332323327021S14800794EA017940182801008000
B0332373327024S14800766EA018020183501108000
B0332423326992S14800784EA018100184501208000
B0332473327012S14800836EA018200185401508000
B0332523327051S14800823EA018210185601108000
B0332573327055S14800793EA018320186200908000
B0333023327030S14800806EA018380186901508000
B0333073327034S14800866EA018440187701108000
B0333123327072S14800897EA018480188601108000
B0333173327099S14800873EA018470188801008000
B0333223327095S14800847EA018530189000708000
B0333273327087S14800816EA018540189200508000
B0333323327082S14800782EA018670189900608000
B0333373327075S14800750EA018830191500808000
B0333423327062S14800714EA018890192300608000
B0333473327030S14800716EA018930192901108000
B0333523327022S14800769EA019000193501108000
B0333573327039S14800821EA019030194001008000
B0334023327078S14800847EA019110194801008000
B0334073327106S14800822EA019270195901008000
B0334123327077S14800821EA019390197201408000
B0334173327081S14800873EA019440198201208000
B0334223327118S14800905EA019580199701308000
B0334273327150S14800887EA019670200700908000
B0334323327137S14800852EA019750201801008000
B0334373327106S14800851EA019970203301308000
B0334423327105S14800893EA020130205201308000
B0334473327145S14800906EA020290207200908000
B0334523327162S14800870EA020420208701008000
B0334573327131S14800846EA020500209801308000
F033502020506121920242529
B0335023327109S14800875EA020460209901109000
B0335073327128S14800936EA020410209400809000
B0335123327161S14800991EA020600210400509000
B0335173327198S14801008EA020740211700909000
B0335223327211S14800972EA020790212300909000
F0335270205061219202429
B0335273327188S14800947EA020870213000808000
F033532020506121920242529
B0335323327177S14800990EA021010213901109000
B0335373327217S14800989EA021140215301109000
B0335423327206S14800966EA021230216600909000
B0335473327182S14800995EA021340218101209000
B0335523327191S14801053EA021390218900609000
B0335573327222S14801098EA021540220300609000
B0336023327261S14801104EA021630221400709000
B0336073327274S14801066EA021590221500609000
B0336123327265S14801037EA021640221800709000
B0336173327238S14801040EA021660222000709000
B0336223327208S14801070EA021640221900709000
B0336273327213S14801129EA021580221600709000
B0336323327238S14801195EA021680222000509000
B0336373327265S14801245EA021780222800709000
B0336423327294S14801223EA021770222900909000
B0336473327277S14801205EA021780223001009000
B0336523327253S14801246EA021860223601009000
B0336573327259S14801312EA021870223900509000
B0337023327288S14801355EA021880224100509000
B0337073327330S14801358EA021820223500509000
B0337123327363S14801333EA021690222400809000
B0337173327385S14801299EA021620221500609000
B0337223327408S14801265EA021560220700509000
B0337273327434S14801236EA021500220200709000
B0337323327466S14801205EA021390219300709000
B0337373327500S14801175EA021270218100509000
B0337423327528S14801141EA021070216400709000
B0337473327555S14801110EA020970215000509000
B0337523327584S14801079EA020870213800509000
B0337573327610S14801050EA020840213200709000
B0338023327630S14801018EA020750212400409000
B0338073327649S14800984EA020660211500409000
B0338123327664S14800948EA020550210600409000
B0338173327680S14800916EA020460209800509000
B0338223327698S14800885EA020420209100409000
B0338273327713S14800854EA020330208400409000
B0338323327727S14800822EA020270207700409000
B0338373327742S14800788EA020180206800409000
B0338423327759S14800756EA020140206300409000
B0338473327777S14800723EA020060205700509000
B0338523327796S14800693EA019980205000509000
B0338573327813S14800662EA019810203500609000
B0339023327828S14800638EA019730202100509000
B0339073327841S14800614EA019650201200509000
B0339123327866S14800590EA019550200100509000
B0339173327887S14800564EA019520199600609000
B0339223327910S14800537EA019500199200709000
B0339273327926S14800508EA019490199100609000
B0339323327937S14800481EA019500199100409000
B0339373327945S14800457EA019540199300409000
B0339423327957S14800427EA019550199400509000
B0339473327958S14800399EA019590199800409000
B0339523327957S14800371EA019590200000409000
B0339573327959S14800343EA019620200300709000
B0340023327960S14800314EA019620200500409000
B0340073327962S14800289EA019670200700409000
B0340123327963S14800261EA019660200800509000
B0340173327970S14800233EA019660200900509000
B0340223327982S14800206EA019680200900609000
B0340273327995S14800181EA019690201200409000
B0340323328013S14800155EA019690201300509000
B0340373328019S14800124EA019680201300509000
B0340423328034S14800095EA019640201200509000
B0340473328067S14800082EA019640201000409000
B0340523328103S14800069EA019770201600409000
B0340573328143S14800062EA019950202700509000
B0341023328136S14800033EA020140204601009000
B0341073328109S14800059EA020280206901209000
B0341123328131S14800094EA020450209100909000
B0341173328150S14800075EA020600210900809000
B0341223328123S14800077EA020640211801409000
B0341273328125S14800130EA020820212800709000
B0341323328152S14800133EA020940214001109000
B0341373328125S14800111EA021020214801509000
B0341423328108S14800160EA021170216500609000
B0341473328129S14800196EA021280217700709000
B0341523328150S14800174EA021360218800809000
B0341573328124S14800148EA021430219401109000
B0342023328091S14800178EA021540220500809000
B0342073328083S14800230EA021660221500509000
B0342123328109S14800256EA021750222500809000
B0342173328123S14800231EA021880223601109000
B0342223328085S14800226EA021960224701209000
B0342273328065S14800270EA022060225900709000
B0342323328087S14800310EA022100226500809000
B0342373328118S14800305EA022190227200609000
B0342423328108S14800272EA022250227701009000
B0342473328063S14800274EA022320228401109000
B0342523328039S14800318EA022330228700809000
B0342573328057S14800362EA022340228800809000
B0343023328094S14800362EA022380229200509000
B0343073328130S14800357EA022440229800509000
B0343123328164S14800339EA022490230500709000
B0343173328195S14800316EA022540231200409000
B0343223328227S14800292EA022480231200509000
B0343273328266S14800271EA022470230900409000
B0343323328306S14800256EA022480230600509000
B0343373328338S14800231EA022310229700709000
B0343423328372S14800201EA022230228800409000
B0343473328409S14800180EA022140227800509000
B0343523328453S14800159EA022000226400409000
B0343573328505S14800145EA021910224900409000
B0344023328551S14800139EA021950224400509000
B0344073328590S14800131EA021960224500509000
B0344123328625S14800128EA021890224300409000
F0344170205061219242529
B0344173328665S14800124EA021830223700608000
F034422020506121920242529
B0344223328705S14800126EA021770223100409000
F0344270205061219242529
B0344273328745S14800129EA021700222400608000
F034432020506121920242529
B0344323328784S14800126EA021610221300309000
B0344373328823S14800123EA021530220400309000
B0344423328861S14800123EA021480219600409000
B0344473328900S14800123EA021370218700409000
B0344523328936S14800113EA021330218200709000
B0344573328966S14800096EA021300217900309000
B0345023328998S14800082EA021290217700409000
F0345070205061220242529
B0345073329032S14800070EA021230217400408000
B0345123329070S14800061EA021150216800408000
B0345173329106S14800046EA021090216300608000
B0345223329138S14800031EA020990215400708000
F034527020506121920242529
B0345273329172S14800024EA020930214500409000
B0345323329205S14800013EA020800213300509000
B0345373329243S14800005EA020650212100409000
B0345423329280S14800000EA020570211000309000
B0345473329313S14759992EA020500210100509000
B0345523329345S14759984EA020460209500409000
B0345573329381S14759974EA020400208900509000
B0346023329411S14759964EA020390208400409000
B0346073329440S14759950EA020330207900409000
B0346123329466S14759934EA020280207600509000
B0346173329491S14759921EA020250207100309000
B0346223329523S14759913EA020190206400409000
B0346273329556S14759902EA020120205700409000
B0346323329588S14759889EA020070205200309000
B0346373329613S14759876EA019990204600409000
F0346420205061220242529
B0346423329643S14759862EA019920203900608000
F034647020506121920242529
B0346473329673S14759848EA019850203200409000
B0346523329708S14759835EA019790202500409000
B0346573329741S14759822EA019750202000309000
B0347023329769S14759802EA019710201600609000
B0347073329797S14759783EA019690201300409000
B0347123329830S14759764EA019640200800609000
B0347173329861S14759748EA019650200600309000
B0347223329891S14759732EA019600200200309000
B0347273329920S14759718EA019540199600309000
B0347323329950S14759704EA019500199100309000
B0347373329979S14759689EA019460198700309000
B0347423330006S14759673EA019420198300309000
B0347473330036S14759660EA019350197700409000
B0347523330067S14759649EA019280197100409000
B0347573330100S14759637EA019190196200409000
B0348023330135S14759628EA019110195300309000
B0348073330171S14759621EA019070194700409000
B0348123330204S14759613EA019020194100309000
B0348173330239S14759600EA018860193300409000
B0348223330275S14759586EA018810192700409000
B0348273330307S14759572EA018770192100409000
B0348323330339S14759558EA018720191500409000
B0348373330373S14759549EA018660190800409000
B0348423330405S14759540EA018550189800409000
B0348473330440S14759529EA018470188900609000
B0348523330480S14759523EA018340187700409000
B0348573330518S14759518EA018260186700409000
B0349023330552S14759513EA018150185500309000
B0349073330590S14759506EA018070184600309000
B0349123330627S14759502EA018010183800309000
B0349173330663S14759497EA017860182800409000
B0349223330699S14759492EA017780181600309000
B0349273330735S14759485EA017640180200409000
B0349323330772S14759480EA017540179000309000
B0349373330813S14759477EA017450178000409000
B0349423330852S14759468EA017390177300309000
B0349473330888S14759458EA017320176500509000
B0349523330929S14759444EA017260175900609000
B0349573330968S14759432EA017230175500309000
B0350023331003S14759425EA017260175400409000
B0350073331040S14759415EA017200175100309000
B0350123331072S14759403EA017190175100409000
B0350173331104S14759387EA017200175100309000
B0350223331135S14759373EA017190175100409000
B0350273331169S14759361EA017210175100409000
B0350323331199S14759342EA017130174900709000
B0350373331241S14759348EA017110174700609000
B0350423331285S14759363EA017220175100609000
B0350473331330S14759361EA017330176100709000
B0350523331346S14759325EA017450177000909000
B0350573331314S14759332EA017490178001109000
B0351023331307S14759384EA017530178600909000
B0351073331318S14759436EA017670179600709000
B0351123331353S14759470EA017790180800509000
B0351173331385S14759456EA017980182101009000
B0351223331366S14759454EA018160183701309000
B0351273331386S14759487EA018310186100909000
B0351323331403S14759460EA018470187901109000
B0351373331380S14759472EA018640190101309000
B0351423331409S14759504EA018790191901009000
B0351473331429S14759478EA018980193601309000
B0351523331403S14759494EA019090194801009000
B0351573331420S14759536EA019240196201009000
B0352023331451S14759524EA019400197700909000
B0352073331430S14759514EA019470198801509000
B0352123331423S14759562EA019630200400909000
B0352173331456S14759583EA019800201900909000
B0352223331459S14759557EA019820202701209000
B0352273331424S14759576EA019970204100809000
B0352323331430S14759615EA020090205201109000
B0352373331478S14759602EA020180206300809000
B0352423331483S14759571EA020230206901109000
B0352473331452S14759595EA020360207701109000
B0352523331460S14759638EA020450208800909000
B0352573331503S14759627EA020520209401009000
B0353023331495S14759589EA020520209801309000
B0353073331462S14759588EA020680210800809000
B0353123331453S14759625EA020750211601109000
B0353173331493S14759639EA020830212700709000
B0353223331523S14759610EA020920213900609000
B0353273331510S14759574EA020980214601009000
B0353323331475S14759579EA021030215300909000
B0353373331461S14759615EA021090215800409000
B0353423331458S14759659EA021130216200609000
B0353473331462S14759702EA021220216900609000
B0353523331472S14759746EA021260217500509000
B0353573331499S14759787EA021190217400909000
B0354023331544S14759786EA021170216800509000
B0354073331577S14759759EA021210217000809000
B0354123331607S14759731EA021220217000509000
B0354173331635S14759704EA021250217200509000
B0354223331666S14759673EA021260217300509000
B0354273331698S14759643EA021210217000509000
B0354323331729S14759613EA021160216600509000
B0354373331764S14759583EA021110216100409000
B0354423331802S14759562EA021080215700409000
B0354473331833S14759549EA021070215500809000
B0354523331857S14759526EA020980214800609000
B0354573331883S14759506EA020900214000309000
B0355023331910S14759486EA020840213300609000
B0355073331929S14759459EA020770212500409000
B0355123331952S14759430EA020700211800309000
B0355173331977S14759404EA020660211300609000
B0355223331999S14759380EA020570210500509000
B0355273332021S14759352EA020420209500709000
B0355323332048S14759329EA020310208200409000
B0355373332083S14759315EA020230207300409000
B0355423332118S14759306EA020180206500409000
B0355473332152S14759294EA020120205700309000
B0355523332189S14759279EA020040204800309000
B0355573332227S14759268EA019970204000309000
B0356023332271S14759258EA020010203600309000
F0356070205061220242529
B0356073332301S14759238EA020140204001608000
B0356123332263S14759219EA020290205301508000
F035617020506121920242529
B0356173332246S14759268EA020430207100909000
B0356223332271S14759280EA020570209101009000
B0356273332247S14759262EA020640210501509000
B0356323332217S14759299EA020780212300909000
B0356373332236S14759327EA020860213601009000
B0356423332273S14759315EA020940214300509000
B0356473332307S14759306EA021060215400509000
B0356523332330S14759283EA021130216200609000
B0356573332315S14759255EA021200216801109000
B0357023332278S14759276EA021210217200909000
B0357073332248S14759316EA021230217400709000
B0357123332235S14759366EA021300217700609000
B0357173332240S14759419EA021380218200509000
B0357223332248S14759466EA021440219000509000
B0357273332282S14759493EA021390218900609000
B0357323332321S14759496EA021430219300409000
B0357373332358S14759500EA021560220600509000
B0357423332394S14759507EA021650221600509000
B0357473332431S14759515EA021770222800309000
B0357523332462S14759508EA021800223300509000
B0357573332445S14759490EA021740222901009000
B0358023332405S14759509EA021750222901109000
B0358073332367S14759539EA021840223700809000
B0358123332348S14759588EA021920224400809000
B0358173332356S14759638EA021990225000509000
B0358223332381S14759682EA022020225400409000
B0358273332415S14759700EA022080226000509000
B0358323332447S14759690EA022170226600509000
B0358373332476S14759674EA022260227400309000
B0358423332509S14759659EA022190227400509000
B0358473332542S14759641EA022110226700409000
B0358523332580S14759624EA022000225500509000
B0358573332619S14759607EA022010225100409000
B0359023332661S14759592EA021970224900309000
B0359073332699S14759575EA021940224700409000
B0359123332739S14759558EA021750223600509000
B0359173332775S14759532EA021660222600409000
B0359223332803S14759500EA021610221700409000
B0359273332844S14759472EA021420220300509000
F0359320205061220242529
B0359323332888S14759444EA021320218700608000
F035937020506121920242529
B0359373332928S14759417EA021240217500709000
B0359423332969S14759389EA021020215600509000
B0359473333014S14759361EA020850213800409000
B0359523333061S14759334EA020770212400509000
B0359573333107S14759308EA020680211300409000
B0400023333152S14759284EA020610210600409000
B0400073333187S14759264EA020560210200509000
B0400123333219S14759249EA020470209600409000
B0400173333251S14759233EA020390208700409000
B0400223333284S14759213EA020260207600409000
B0400273333316S14759198EA020180206600309000
B0400323333350S14759184EA020090205500309000
B0400373333383S14759171EA020020204500409000
B0400423333421S14759160EA019950203900509000
B0400473333456S14759151EA019910203400309000
B0400523333494S14759140EA019850202700309000
B0400573333531S14759132EA019810202100209000
B0401023333568S14759121EA019760201700209000
B0401073333605S14759111EA019750201500409000
B0401123333641S14759101EA019740201300309000
B0401173333676S14759090EA019690200900309000
B0401223333711S14759078EA019640200500209000
B0401273333748S14759064EA019580199900309000
B0401323333786S14759050EA019550199500209000
B0401373333821S14759039EA019540199400409000
B0401423333857S14759027EA019500199100409000
B0401473333895S14759017EA019460198700409000
B0401523333932S14759004EA019380197900309000
B0401573333967S14758989EA019310197100409000
B0402023334006S14758978EA019220196300309000
B0402073334037S14758960EA019200195700609000
B0402123334064S14758932EA019130195100509000
B0402173334082S14758899EA019100194600409000
B0402223334094S14758863EA019020193900309000
B0402273334111S14758826EA018920192900309000
B0402323334133S14758787EA018790191900409000
B0402373334155S14758750EA018690190900409000
B0402423334181S14758715EA018570189800309000
B0402473334209S14758679EA018410188500409000
B0402523334238S14758646EA018330187500309000
B0402573334268S14758615EA018210186200509000
B0403023334300S14758585EA018100185000709000
B0403073334335S14758558EA017970183500309000
B0403123334367S14758533EA017880182200609000
B0403173334398S14758507EA017780181200609000
B0403223334429S14758487EA017680180100609000
B0403273334466S14758471EA017630179400309000
B0403323334496S14758453EA017570178800309000
B0403373334522S14758437EA017430178000409000
B0403423334552S14758417EA017300176900409000
B0403473334581S14758403EA017200175700509000
B0403523334606S14758387EA017080174300309000
B0403573334628S14758371EA016930172800509000
B0404023334660S14758353EA016740171100309000
B0404073334693S14758343EA016650169700409000
B0404123334726S14758329EA016510168200609000
B0404173334765S14758322EA016440167000409000
B0404223334798S14758321EA016450166700409000
B0404273334819S14758308EA016420166800609000
B0404323334833S14758286EA016420166700309000
B0404373334847S14758263EA016430166900309000
B0404423334854S14758236EA016440167000309000
B0404473334855S14758211EA016470167200409000
B0404523334857S14758184EA016440167200409000
B0404573334859S14758158EA016380166900409000
B0405023334858S14758132EA016380166700709000
B0405073334858S14758103EA016370166600409000
B0405123334860S14758078EA016320166300309000
B0405173334862S14758053EA016260165800309000
B0405223334866S14758026EA016180165200609000
B0405273334861S14757996EA016160164600409000
B0405323334855S14757964EA016160164300209000
B0405373334859S14757935EA016140164000109000
B0405423334860S14757908EA016140163700809000
B0405473334853S14757881EA016130163700109000
B0405523334857S14757849EA016160163900109000
B0405573334857S14757811EA016090163800709000
B0406023334851S14757773EA016060163500709000
B0406073334849S14757734EA016000163000109000
B0406123334843S14757698EA015940162400609000
B0406173334832S14757663EA015860161700609000
B0406223334812S14757633EA015800161100109000
F0406270205061220242529
B0406273334792S14757609EA015800160900708000
B0406323334771S14757581EA015770160500708000
B0406373334756S14757549EA015700160000708000
B0406423334735S14757526EA015610159400708000
B0406473334706S14757512EA015560158800708000
B0406523334678S14757493EA015500158200608000
B0406573334655S14757471EA015380157300608000
B0407023334631S14757451EA015290156200608000
F040707020506122024252931
B0407073334619S14757424EA015170154900509000
B0407123334608S14757400EA015100153900509000
B0407173334594S14757378EA015060152900509000
B0407223334576S14757360EA014960152000509000
B0407273334559S14757335EA014810150600609000
B0407323334553S14757300EA014720149500709000
B0407373334552S14757263EA014590148400609000
B0407423334549S14757210EA014400146600809000
B0407473334542S14757171EA014340145500509000
B0407523334534S14757138EA014300145100409000
B0407573334528S14757104EA014190144200609000
B0408023334513S14757073EA014090143300609000
B0408073334500S14757050EA014020142200809000
B0408123334483S14757024EA013850141000609000
B0408173334460S14757001EA013710139500609000
B0408223334461S14756976EA013570137701009000
B0408273334491S14756975EA013410136000609000
B0408323334527S14756986EA013240134200609000
B0408373334564S14756985EA013050132100609000
B0408423334593S14756964EA012940130100609000
B0408473334609S14756942EA012960129600509000
B0408523334618S14756915EA012960130100909000
B0408573334619S14756888EA012990130500509000
B0409023334617S14756860EA012970130600609000
B0409073334608S14756833EA012940130600609000
B0409123334594S14756807EA012920130600509000
B0409173334592S14756782EA012830130400909000
B0409223334588S14756758EA012760129900609000
B0409273334579S14756729EA012750129600709000
B0409323334574S14756701EA012730129100609000
B0409373334571S14756672EA012750129100509000
B0409423334568S14756637EA012750129000409000
B0409473334576S14756608EA012840129500509000
B0409523334582S14756575EA012930130200609000
B0409573334589S14756544EA013170132200709000
B0410023334576S14756529EA013390134700809000
B0410073334573S14756575EA013560136901109000
B0410123334611S14756600EA013750139101109000
B0410173334618S14756580EA014000141701109000
B0410223334589S14756595EA014200143801009000
F0410270205061220252931
B0410273334605S14756639EA014370145601208000
F041032020506122024252931
B0410323334640S14756640EA014590147801409000
B0410373334633S14756611EA014890150701209000
B0410423334619S14756649EA015130153500909000
B0410473334652S14756658EA015320155701109000
B0410523334650S14756631EA015590158401009000
B0410573334626S14756651EA015800160701309000
B0411023334650S14756695EA015970162700909000
B0411073334685S14756699EA016250165300909000
B0411123334667S14756684EA016490167701109000
B0411173334651S14756724EA016710170101309000
B0411223334689S14756743EA016940172301009000
B0411273334693S14756720EA017170174801009000
B0411323334663S14756736EA017380177100809000
B0411373334667S14756785EA017610179501109000
B0411423334703S14756794EA017850181701209000
B0411473334700S14756768EA018080184101209000
B0411523334675S14756796EA018260186100709000
B0411573334704S14756845EA018440188101009000
B0412023334732S14756836EA018680190401009000
B0412073334708S14756830EA018880192300809000
B0412123334686S14756878EA019050194301309000
B0412173334696S14756935EA019260196500609000
B0412223334726S14756960EA019470198600909000
B0412273334739S14756940EA019680200900909000
B0412323334721S14756923EA019820202500709000
B0412373334688S14756950EA019940203900909000
B0412423334675S14757008EA020130205800409000
B0412473334667S14757068EA020300207700709000
B0412523334685S14757116EA020460209200609000
B0412573334701S14757102EA020550210301509000
B0413023334687S14757071EA020720211800709000
B0413073334670S14757047EA020870213400609000
B0413123334635S14757070EA020950214301109000
B0413173334628S14757127EA021010214900809000
B0413223334637S14757184EA021030215500509000
B0413273334646S14757241EA021200216600509000
B0413323334670S14757281EA021360218000709000
B0413373334685S14757267EA021400218801009000
B0413423334666S14757237EA021490219700809000
B0413473334630S14757238EA021580220500709000
B0413523334593S14757251EA021620221000809000
B0413573334570S14757298EA021650221200909000
B0414023334572S14757354EA021760222100609000
B0414073334600S14757391EA021720222400609000
B0414123334636S14757403EA021780222800609000
B0414173334669S14757402EA021880223300509000
B0414223334695S14757383EA021960223900809000
B0414273334707S14757358EA022020224600409000
B0414323334712S14757328EA022040225100709000
B0414373334717S14757305EA022060225500609000
B0414423334721S14757280EA022020225400709000
B0414473334726S14757252EA022030225400609000
B0414523334735S14757227EA022040225400509000
B0414573334743S14757201EA022040225300609000
B0415023334745S14757168EA022080225500509000
B0415073334745S14757138EA022140226000609000
B0415123334766S14757112EA022240226900509000
B0415173334785S14757086EA022320227800509000
B0415223334801S14757057EA022360228300809000
B0415273334813S14757023EA022350228500709000
B0415323334828S14756991EA022330228400609000
B0415373334855S14756966EA022300228200509000
B0415423334894S14756972EA022270228100809000
B0415473334938S14757002EA022220227600609000
B0415523334985S14756999EA022130226900609000
B0415573335029S14756988EA022030226000509000
B0416023335076S14756984EA021930224900409000
B0416073335123S14756981EA021860224100409000
B0416123335166S14756972EA021880223700709000
B0416173335206S14756950EA021770223100709000
B0416223335250S14756927EA021680222100609000
B0416273335295S14756906EA021590221100409000
B0416323335344S14756888EA021480220100609000
B0416373335392S14756875EA021380218900409000
B0416423335437S14756871EA021370218300509000
B0416473335483S14756857EA021330217700609000
B0416523335531S14756844EA021290217500509000
B0416573335580S14756834EA021230217100509000
B0417023335628S14756829EA021130216400509000
B0417073335672S14756823EA021040215400509000
B0417123335715S14756819EA020910214400609000
B0417173335757S14756820EA020840213500509000
B0417223335795S14756812EA020730212400509000
B0417273335834S14756813EA020620211200409000
B0417323335877S14756825EA020490209800409000
B0417373335920S14756835EA020330208200509000
B0417423335968S14756849EA020220206800709000
B0417473336013S14756852EA020150205900509000
B0417523336056S14756855EA020040204700509000
B0417573336102S14756861EA019970203700509000
B0418023336146S14756866EA019950203200309000
B0418073336191S14756873EA019890202700309000
B0418123336237S14756874EA019870202400509000
B0418173336281S14756871EA019830202000509000
B0418223336325S14756871EA019760201500409000
B0418273336366S14756875EA019740201100509000
B0418323336410S14756874EA019690200900509000
B0418373336454S14756876EA019650200500309000
B0418423336497S14756881EA019610200100409000
B0418473336540S14756878EA019540199500409000
B0418523336582S14756873EA019490198800509000
B0418573336626S14756869EA019430198200409000
B0419023336667S14756867EA019330197400509000
B0419073336713S14756868EA019240196400509000
B0419123336757S14756870EA019140195500309000
B0419173336803S14756857EA019020194000509000
B0419223336845S14756843EA018980193100709000
B0419273336885S14756833EA018920192600509000
B0419323336930S14756828EA018820192000509000
B0419373336974S14756821EA018750191200509000
B0419423337021S14756819EA018700190600409000
B0419473337064S14756820EA018710190400509000
B0419523337107S14756824EA018700190300309000
B0419573337146S14756823EA018690190200409000
B0420023337184S14756821EA018690190300509000
B0420073337223S14756838EA018700190400309000
B0420123337258S14756873EA018670190300409000
B0420173337296S14756903EA018580189800309000
B0420223337339S14756910EA018480188900409000
B0420273337385S14756899EA018340187400609000
B0420323337427S14756887EA018290186500509000
B0420373337469S14756874EA018220185700709000
B0420423337506S14756848EA018140184700609000
B0420473337533S14756815EA018090184000309000
B0420523337556S14756780EA018030183500709000
B0420573337575S14756745EA017980183000509000
B0421023337587S14756710EA017930182600609000
B0421073337594S14756674EA017840182100609000
B0421123337607S14756634EA017760181300409000
B0421173337616S14756594EA017660180300709000
B0421223337620S14756556EA017640179600509000
B0421273337635S14756516EA017540178900409000
B0421323337652S14756477EA017580178700509000
B0421373337659S14756436EA017610178800709000
B0421423337665S14756398EA017640179100709000
B0421473337667S14756367EA017650179300509000
B0421523337667S14756337EA017590179300509000
B0421573337671S14756303EA017580179200609000
B0422023337679S14756271EA017520178800709000
B0422073337680S14756238EA017460178100709000
B0422123337678S14756204EA017390177400509000
B0422173337672S14756174EA017300176800409000
B0422223337668S14756139EA017190175700709000
B0422273337669S14756107EA017160174800609000
B0422323337683S14756074EA017000173700609000
B0422373337694S14756040EA016830171900409000
B0422423337695S14756005EA016710170000509000
B0422473337696S14755972EA016570168701109000
B0422523337711S14755946EA016490167900509000
B0422573337732S14755925EA016410167000309000
B0423023337759S14755914EA016380166500609000
B0423073337791S14755912EA016290165900309000
B0423123337822S14755905EA016200165200709000
B0423173337847S14755887EA016160164600709000
B0423223337872S14755872EA016100164000709000
B0423273337896S14755857EA016030163300409000
B0423323337924S14755846EA015930162300609000
B0423373337961S14755844EA015810160900609000
B0423423337998S14755855EA015730159600409000
B0423473338038S14755862EA015610158400409000
B0423523338078S14755869EA015550157600309000
B0423573338116S14755876EA015440156600609000
B0424023338153S14755871EA015310155500609000
B0424073338184S14755864EA015200154400509000
B0424123338218S14755856EA015110153500609000
B0424173338247S14755846EA015110153000609000
B0424223338267S14755821EA015090152900409000
B0424273338292S14755804EA015110153100509000
B0424323338324S14755798EA015100153000509000
B0424373338357S14755796EA015090152900409000
B0424423338387S14755785EA015110152800409000
F04244702050612202124252931
B0424473338415S14755769EA015120152800310000
B0424523338447S14755756EA015120152900510000
B0424573338477S14755744EA015180153300610000
B0425023338506S14755739EA015260154000510000
B0425073338537S14755738EA015340155000610000
B0425123338566S14755727EA015370155600410000
B0425173338568S14755692EA015400156000710000
B0425223338557S14755654EA015510157000610000
B0425273338555S14755621EA015570157800410000
B0425323338541S14755593EA015570158000610000
B0425373338502S14755601EA015520157801110000
B0425423338485S14755649EA015510157600510000
B0425473338488S14755703EA015460157300410000
B0425523338490S14755758EA015410156700410000
B0425573338491S14755811EA015490156700410000
B0426023338489S14755866EA015520156900310000
B0426073338498S14755922EA015560157400310000
B0426123338507S14755978EA015640158100310000
B0426173338520S14756034EA015700158900310000
B0426223338539S14756088EA015780159900410000
B0426273338550S14756145EA015840160700310000
B0426323338557S14756196EA015840161300310000
B0426373338584S14756226EA015800160900810000
B0426423338607S14756204EA015670159700610000
B0426473338607S14756166EA015650159100610000
B0426523338606S14756128EA015650158900410000
B0426573338601S14756089EA015610158700610000
B0427023338587S14756057EA015590158600410000
B0427073338579S14756024EA015660158700710000
B0427123338568S14755990EA015670158800410000
B0427173338557S14755961EA015760159400410000
B0427223338535S14755939EA015800160000510000
B0427273338497S14755937EA015800160300710000
B0427323338462S14755952EA015810160600310000
B0427373338427S14755977EA015770160500610000
B0427423338406S14756018EA015760160300310000
B0427473338397S14756074EA015710159900310000
B0427523338388S14756134EA015640159200510000
B0427573338426S14756164EA015670158800610000
B0428023338461S14756168EA015800159600710000
B0428073338491S14756193EA015880160700610000
B0428123338486S14756250EA015910161300610000
B0428173338451S14756281EA015950161900810000
B0428223338410S14756282EA015960162200610000
B0428273338387S14756258EA016050162700610000
B0428323338396S14756230EA016060163000510000
B0428373338429S14756223EA016040163000510000
B0428423338466S14756234EA016100163400310000
B0428473338484S14756277EA016200164100510000
B0428523338456S14756302EA016230164601010000
B0428573338432S14756273EA016260165100610000
B0429023338442S14756241EA016320165600710000
B0429073338477S14756244EA016330165900510000
B0429123338503S14756284EA016370166400410000
B0429173338507S14756339EA016390166600510000
B0429223338493S14756392EA016410166800410000
B0429273338457S14756406EA016450167100710000
B0429323338448S14756369EA016550167501010000
B0429373338480S14756385EA016640168200910000
B0429423338468S14756436EA016680169201210000
B0429473338432S14756431EA016770170100710000
B0429523338448S14756406EA016790170600810000
B0429573338487S14756428EA016830171100610000
B0430023338495S14756479EA016860171400810000
B0430073338461S14756516EA016890171700910000
B0430123338429S14756501EA016940172300710000
B0430173338446S14756470EA016980172800810000
B0430223338483S14756483EA017040173200410000
B0430273338501S14756527EA017070173500510000
B0430323338484S14756576EA017090173900610000
B0430373338448S14756586EA017180174700710000
B0430423338430S14756561EA017230175200810000
B0430473338460S14756541EA017240175500610000
B0430523338492S14756564EA017280175700510000
B0430573338510S14756608EA017290176000510000
B0431023338492S14756649EA017320176300410000
B0431073338455S14756653EA017410176900410000
B0431123338453S14756624EA017490177700810000
B0431173338485S14756637EA017580178300710000
B0431223338485S14756688EA017610179000610000
B0431273338448S14756706EA017710180000810000
B0431323338433S14756681EA017780180800910000
B0431373338464S14756676EA017810181301010000
B0431423338482S14756721EA017930182200510000
B0431473338463S14756760EA018030183200810000
B0431523338446S14756735EA018080183900710000
B0431573338474S14756720EA018150184700710000
B0432023338508S14756729EA018200185101010000
B0432073338499S14756707EA018180185100910000
B0432123338464S14756732EA018210185300810000
B0432173338446S14756777EA018310185900510000
B0432223338466S14756810EA018330186300610000
B0432273338497S14756803EA018450187200810000
B0432323338476S14756789EA018540188300910000
B0432373338458S14756826EA018630189400810000
B0432423338487S14756854EA018730190500710000
B0432473338506S14756836EA018800191500910000
B0432523338487S14756814EA018890192100710000
B0432573338454S14756834EA018960192800510000
B0433023338445S14756879EA018970193000410000
B0433073338469S14756918EA018960193100510000
B0433123338503S14756940EA019040193500410000
B0433173338533S14756929EA019080194000810000
B0433223338525S14756898EA019120194400710000
B0433273338493S14756913EA019170195000710000
B0433323338494S14756960EA019230195700710000
B0433373338530S14756981EA019250196100810000
B0433423338560S14756970EA019290196500910000
B0433473338562S14756934EA019190196100510000
B0433523338570S14756899EA019070195100510000
B0433573338596S14756880EA018970193600510000
B0434023338631S14756881EA018860192300610000
B0434073338667S14756880EA018780191400610000
B0434123338699S14756870EA018700190500610000
B0434173338731S14756860EA018620189600510000
B0434223338765S14756853EA018520188800310000
B0434273338801S14756852EA018430187800510000
B0434323338837S14756851EA018340186800310000
B0434373338875S14756854EA018270185900410000
B0434423338912S14756856EA018180185100310000
B0434473338946S14756859EA018170184600310000
B0434523338980S14756860EA018140184200310000
B0434573339016S14756856EA018080183900410000
B0435023339054S14756856EA018060183700710000
B0435073339094S14756870EA018050183600610000
B0435123339138S14756884EA017970183200610000
B0435173339183S14756884EA017960182800710000
B0435223339224S14756879EA017890182300810000
B0435273339263S14756872EA017810181500610000
B0435323339302S14756882EA017690180600410000
B0435373339344S14756887EA017540179100610000
B0435423339380S14756886EA017410177500410000
B0435473339418S14756885EA017220175700410000
B0435523339460S14756876EA017060173700710000
B0435573339497S14756868EA016880171700410000
B0436023339537S14756872EA016700169700410000
B0436073339574S14756891EA016530167700310000
B0436123339613S14756915EA016310165600310000
B0436173339643S14756953EA016170163700310000
B0436223339666S14756995EA016030162100310000
B0436273339690S14757032EA015940160800410000
B0436323339724S14757065EA015850160200410000
B0436373339763S14757091EA015780159500610000
B0436423339800S14757114EA015710159000310000
B0436473339837S14757142EA015650158600310000
B0436523339876S14757179EA015640158500410000
B0436573339914S14757209EA015540158100610000
B0437023339936S14757259EA015490157700410000
B0437073339969S14757299EA015400156900610000
B0437123340014S14757292EA015340155800810000
B0437173340058S14757288EA015250154700410000
F043722020506122021252931
B0437223340100S14757298EA015260154200409000
F04372702050612202124252931
B0437273340143S14757316EA015220153700110000
B0437323340183S14757339EA015190153300110000
B0437373340219S14757369EA015180153200310000
B0437423340262S14757393EA015060152600410000
B0437473340301S14757407EA014950151700410000
B0437523340340S14757419EA014840150500410000
B0437573340376S14757434EA014760149400310000
B0438023340415S14757444EA014610148100410000
B0438073340452S14757451EA014550146900410000
B0438123340496S14757451EA014460145800110000
B0438173340536S14757446EA014390145000110000
B0438223340580S14757441EA014280144100510000
B0438273340629S14757448EA014150143000410000
B0438323340675S14757455EA014000141700110000
B0438373340723S14757454EA013850140100310000
B0438423340760S14757452EA013830139100810000
B0438473340796S14757450EA013740138200610000
B0438523340839S14757449EA013540136700410000
B0438573340885S14757447EA013380135000610000
B0439023340922S14757446EA013230133400610000
B0439073340961S14757448EA013050131500310000
B0439123341004S14757453EA012900129900310000
B0439173341051S14757462EA012760128300310000
B0439223341098S14757470EA012640126900410000
B0439273341146S14757481EA012560125900510000
B0439323341187S14757491EA012470125200610000
B0439373341229S14757496EA012390124300310000
B0439423341273S14757501EA012300123400310000
B0439473341320S14757513EA012230122500310000
B0439523341362S14757531EA012180121900410000
B0439573341402S14757546EA012110121300510000
B0440023341440S14757561EA012080121000310000
B0440073341483S14757583EA012030120700510000
B0440123341527S14757604EA012030120600610000
B0440173341570S14757622EA012050120500710000
B0440223341613S14757631EA012110120800610000
B0440273341655S14757639EA012190121600410000
B0440323341698S14757661EA012350123100510000
B0440373341719S14757652EA012340123901010000
B0440423341701S14757629EA012420124700510000
B0440473341664S14757638EA012490125600810000
B0440523341629S14757679EA012630127100510000
B0440573341638S14757738EA012760128400810000
B0441023341667S14757737EA012930130001010000
B0441073341635S14757749EA013040131400910000
B0441123341646S14757807EA013130132300810000
B0441173341666S14757799EA013200133201210000
B0441223341636S14757776EA013320134400910000
B0441273341597S14757782EA013490135900710000
B0441323341586S14757840EA013670137600810000
B0441373341618S14757853EA013820139300810000
B0441423341601S14757833EA013990141000810000
B0441473341572S14757879EA014160143001010000
B0441523341597S14757931EA014240144100610000
F044157020506122021252931
B0441573341614S14757923EA014360145100809000
B0442023341603S14757897EA014510146400609000
B0442073341590S14757873EA014690147900509000
B0442123341553S14757888EA014780149300809000
B0442173341550S14757942EA014860150600909000
B0442223341574S14757948EA014910151100909000
B0442273341573S14757925EA015000151600509000
B0442323341566S14757907EA015080152400409000
B0442373341556S14757891EA015060152700509000
B0442423341523S14757901EA015090152701009000
B0442473341483S14757923EA015070152700809000
B0442523341449S14757940EA015040152400609000
B0442573341427S14757988EA014980151900609000
B0443023341431S14758050EA014970151500409000
B0443073341457S14758107EA014940151200309000
B0443123341488S14758157EA014910150800409000
B0443173341518S14758210EA014940150700409000
B0443223341554S14758257EA014980151100409000
B0443273341589S14758301EA015060151800409000
B0443323341626S14758345EA015190153000409000
B0443373341664S14758385EA015230153800709000
B0443423341699S14758390EA015260154300609000
B0443473341718S14758370EA015300154700509000
B0443523341717S14758347EA015330155000409000
B0443573341685S14758348EA015360155300509000
B0444023341655S14758385EA015410156100609000
B0444073341647S14758449EA015470156500409000
B0444123341659S14758513EA015520157100709000
B0444173341676S14758574EA015550157500309000
B0444223341700S14758632EA015530157500409000
B0444273341740S14758661EA015510157300509000
B0444323341773S14758658EA015530157400609000
B0444373341797S14758649EA015490157300309000
B0444423341822S14758632EA015410156900409000
B0444473341846S14758621EA015400156500409000
B0444523341870S14758603EA015380156300409000
B0444573341898S14758587EA015390156100709000
B0445023341926S14758577EA015320155600709000
B0445073341954S14758563EA015190154500609000
B0445123341979S14758547EA015040152900409000
F0445170205122021252931
B0445173342010S14758537EA015000151900808000
B0445223342044S14758535EA014950151100708000
B0445273342077S14758522EA014880150400508000
B0445323342099S14758500EA014800149800708000
B0445373342130S14758482EA014790149300608000
B0445423342161S14758469EA014760149100508000
B0445473342194S14758452EA014690148800708000
B0445523342226S14758435EA014650148500708000
B0445573342253S14758410EA014560147800708000
B0446023342270S14758376EA014440146700808000
B0446073342276S14758339EA014470146100808000
B0446123342291S14758308EA014380145500808000
B0446173342310S14758278EA014370145200708000
B0446223342332S14758249EA014340144800708000
B0446273342352S14758219EA014250144200708000
B0446323342372S14758191EA014090143000908000
B0446373342387S14758152EA013880140800608000
B0446423342393S14758106EA013730138700708000
B0446473342390S14758061EA013680137600908000
B0446523342391S14758017EA013730137500908000
B0446573342399S14757984EA013780138200608000
B0447023342405S14757945EA013780138600608000
B0447073342403S14757900EA013750138600808000
B0447123342398S14757856EA013790138800608000
B0447173342395S14757817EA013840139200708000
B0447223342396S14757781EA013910139800708000
B0447273342396S14757751EA014000140800708000
B0447323342394S14757726EA014110142000708000
B0447373342394S14757698EA014250143200708000
B0447423342402S14757675EA014150143201008000
B0447473342394S14757649EA013970142500608000
B0447523342368S14757649EA013870141601008000
B0447573342348S14757708EA013740140301108000
B0448023342341S14757777EA013800139400708000
B0448073342345S14757846EA013840139500608000
B0448123342360S14757906EA013860139700608000
B0448173342396S14757937EA013890140000708000
B0448223342429S14757936EA013910140300808000
B0448273342449S14757918EA013990140800608000
B0448323342464S14757897EA014050141400908000
B0448373342473S14757877EA014070141700808000
B0448423342476S14757858EA013920141400908000
B0448473342465S14757827EA013830140600908000
B0448523342458S14757792EA013650139200908000
B0448573342449S14757753EA013560137800808000
B0449023342439S14757718EA013460136600808000
B0449073342425S14757686EA013420135600708000
B0449123342414S14757658EA013400135100708000
B0449173342407S14757630EA013430135000908000
B0449223342409S14757604EA013440135100808000
B0449273342402S14757579EA013480135400708000
B0449323342389S14757558EA013460135400808000
B0449373342377S14757531EA013340134900808000
B0449423342381S14757500EA013360134600808000
B0449473342391S14757469EA013350134600708000
B0449523342393S14757433EA013350134600608000
B0449573342385S14757397EA013400134700808000
B0450023342377S14757369EA013480135200808000
B0450073342378S14757338EA013460135400708000
B0450123342380S14757309EA013520135700708000
B0450173342380S14757281EA013520135900908000
B0450223342378S14757255EA013630136600808000
B0450273342378S14757225EA013750137700808000
B0450323342387S14757198EA013850138900708000
B0450373342386S14757166EA013950140100808000
B0450423342371S14757136EA014110141600808000
B0450473342341S14757165EA014330143301008000
B0450523342366S14757191EA014530145301108000
B0450573342356S14757187EA014700147501008000
B0451023342362S14757225EA014920150101008000
B0451073342363S14757205EA015080152001508000
B0451123342346S14757243EA015240153901308000
B0451173342375S14757245EA015420155701708000
B0451223342350S14757251EA015590157701208000
B0451273342372S14757282EA015730159401408000
B0451323342367S14757254EA015900160901308000
B0451373342345S14757289EA016050162401208000
B0451423342383S14757312EA016270164501508000
B0451473342369S14757302EA016430165901108000
B0451523342358S14757349EA016630168001108000
B0451573342384S14757344EA016800170201608000
B0452023342354S14757342EA016980172001308000
B0452073342353S14757392EA017200174001208000
B0452123342377S14757391EA017360176101508000
B0452173342349S14757406EA017550177901108000
B0452223342371S14757446EA017710179801108000
B0452273342386S14757428EA017880181801308000
B0452323342358S14757433EA018070184001008000
B0452373342373S14757468EA018180185301108000
B0452423342398S14757450EA018330186601408000
B0452473342380S14757431EA018520188601308000
B0452523342375S14757465EA018590189901508000
B0452573342408S14757451EA018660190201608000
B0453023342389S14757423EA018870191300808000
B0453073342362S14757411EA018980192401008000
B0453123342355S14757460EA019040193101208000
B0453173342390S14757504EA019160194300608000
B0453223342438S14757518EA019240195501008000
B0453273342473S14757501EA019430197401008000
B0453323342456S14757494EA019550199001208000
B0453373342465S14757542EA019680200401308000
B0453423342504S14757542EA019810201701108000
B0453473342494S14757513EA019860202401508000
B0453523342465S14757523EA019980203501008000
B0453573342478S14757571EA020060204301008000
B0454023342520S14757596EA020160205300908000
B0454073342565S14757605EA020240206200508000
B0454123342610S14757601EA020210206401208000
B0454173342629S14757564EA020190206101408000
B0454223342603S14757548EA020120205601008000
B0454273342573S14757573EA020150205400608000
B0454323342564S14757621EA020200205600708000
B0454373342582S14757679EA020170205600608000
B0454423342629S14757714EA020120205301408000
B0454473342679S14757707EA020150205301108000
B0454523342728S14757692EA020090204900908000
B0454573342780S14757675EA019950203900808000
B0455023342826S14757661EA019920203100808000
B0455073342877S14757651EA019820202200508000
B0455123342924S14757636EA019700201300808000
B0455173342973S14757618EA019560199700808000
B0455223343023S14757601EA019380197700808000
B0455273343063S14757592EA019350196500808000
B0455323343106S14757586EA019210195100708000
B0455373343148S14757576EA019080193700708000
B0455423343181S14757568EA018950192400608000
B0455473343219S14757558EA018750191100708000
B0455523343263S14757546EA018660189800808000
B0455573343304S14757532EA018450188000808000
B0456023343345S14757507EA018260186101008000
B0456073343380S14757471EA018090184200608000
B0456123343412S14757431EA017960182600708000
B0456173343453S14757413EA017880181400708000
B0456223343498S14757406EA017770180300608000
B0456273343536S14757402EA017720179700608000
B0456323343578S14757401EA017610178900608000
B0456373343620S14757396EA017520178200608000
B0456423343664S14757387EA017450177600508000
B0456473343702S14757382EA017470177400608000
B0456523343743S14757378EA017430177100508000
B0456573343774S14757363EA017450177000808000
B0457023343782S14757329EA017450177000708000
B0457073343787S14757289EA017440177000708000
B0457123343778S14757253EA017440177000708000
B0457173343761S14757213EA017440177100708000
B0457223343752S14757172EA017500177400608000
B0457273343744S14757133EA017470177500708000
B0457323343734S14757099EA017460177400608000
B0457373343724S14757057EA017410177200608000
B0457423343725S14757021EA017450177100808000
B0457473343730S14756982EA017360176700708000
B0457523343729S14756945EA017350176400708000
B0457573343725S14756904EA017250175700708000
B0458023343728S14756869EA017160174800608000
B0458073343736S14756834EA017030173600608000
B0458123343752S14756804EA016970172700608000
B0458173343774S14756777EA016880171800608000
B0458223343798S14756753EA016810171000608000
B0458273343816S14756727EA016740170100608000
B0458323343826S14756697EA016630169200608000
B0458373343832S14756664EA016510168100608000
B0458423343837S14756630EA016370166800608000
B0458473343852S14756605EA016250165500708000
B0458523343873S14756582EA016170164200908000
B0458573343888S14756557EA016080163100808000
B0459023343902S14756535EA016020162200708000
B0459073343916S14756510EA015900161200708000
B0459123343937S14756487EA015810160200708000
B0459173343965S14756471EA015720159200608000
B0459223343992S14756456EA015600158100708000
B0459273344020S14756436EA015470156900408000
B0459323344048S14756421EA015340155500608000
B0459373344078S14756403EA015180154000708000
B0459423344108S14756380EA015020152500508000
B0459473344145S14756368EA014870150700708000
B0459523344184S14756363EA014710148900708000
B0459573344219S14756365EA014570147300408000
B0500023344257S14756365EA014400145600608000
B0500073344302S14756357EA014310144300608000
B0500123344346S14756354EA014240143200608000
B0500173344384S14756344EA014200142600608000
B0500223344421S14756326EA014100141900508000
B0500273344460S14756306EA014050141300708000
B0500323344500S14756287EA013950140500708000
B0500373344538S14756268EA013860139600608000
B0500423344572S14756251EA013740138600608000
B0500473344601S14756236EA013670137700708000
B0500523344629S14756218EA013580136800608000
B0500573344660S14756199EA013460135800608000
B0501023344697S14756186EA013400135100608000
B0501073344738S14756181EA013310134200608000
B0501123344780S14756175EA013230133400408000
B0501173344820S14756170EA013180132700608000
B0501223344861S14756169EA013110132000608000
B0501273344899S14756163EA012980131000508000
B0501323344938S14756152EA012910130100608000
B0501373344979S14756149EA012900129500608000
B0501423345015S14756149EA012990129700708000
B0501473345031S14756123EA012960129801308000
B0501523345026S14756089EA012990129900908000
B0501573345032S14756060EA012960129900808000
B0502023345042S14756031EA012900129600808000
B0502073345026S14756011EA012890129600608000
B0502123345010S14756052EA012820129301208000
B0502173345016S14756108EA012780128700508000
B0502223345017S14756164EA012700128200508000
B0502273345023S14756222EA012740128100808000
B0502323345035S14756276EA012750128100408000
B0502373345041S14756333EA012800128200508000
B0502423345048S14756389EA012850128500508000
B0502473345059S14756443EA012990129400408000
B0502523345087S14756480EA013140130601708000
B0502573345090S14756459EA013320132501608000
B0503023345060S14756493EA013510134901308000
B0503073345083S14756531EA013670137201408000
B0503123345087S14756512EA013830139101508000
B0503173345055S14756537EA014010140600808000
B0503223345063S14756594EA014180142700808000
B0503273345095S14756622EA014350144600908000
B0503323345094S14756608EA014460146101508000
B0503373345058S14756619EA014640147700708000
B0503423345053S14756663EA014720149101108000
B0503473345097S14756677EA014760149301208000
B0503523345121S14756668EA014910150301208000
B0503573345093S14756666EA015020151401608000
B0504023345078S14756722EA015200152900608000
B0504073345107S14756758EA015210153901208000
B0504123345111S14756734EA015270154301508000
B0504173345076S14756748EA015340154701208000
B0504223345051S14756787EA015390155300808000
B0504273345053S14756842EA015450156100908000
B0504323345064S14756893EA015500156600608000
B0504373345075S14756950EA015620157200808000
B0504423345096S14756985EA015800158400908000
B0504473345110S14756971EA016040160301308000
B0504523345082S14756993EA016170162401108000
B0504573345096S14757048EA016350164900808000
B0505023345126S14757051EA016520167201208000
B0505073345104S14757031EA016730169301508000
B0505123345089S14757068EA016920171301108000
B0505173345123S14757086EA017080172801508000
B0505223345109S14757067EA017280174801408000
B0505273345091S14757103EA017470177101308000
B0505323345122S14757122EA017650179401308000
B0505373345122S14757096EA017840181201308000
B0505423345093S14757121EA018020183101308000
B0505473345110S14757162EA018220185001208000
B0505523345128S14757141EA018390186801408000
B0505573345099S14757151EA018560188601308000
B0506023345118S14757200EA018730190601108000
B0506073345136S14757184EA018870191901308000
B0506123345108S14757165EA019070193800908000
B0506173345092S14757207EA019230195401308000
B0506223345125S14757232EA019390197201208000
B0506273345135S14757207EA019540198801208000
B0506323345106S14757210EA019680200301408000
B0506373345110S14757255EA019850201901108000
B0506423345140S14757256EA019980203301208000
B0506473345126S14757236EA020130204901008000
B0506523345109S14757273EA020240206101608000
B0506573345140S14757297EA020400207801408000
B0507023345152S14757269EA020490208801308000
B0507073345132S14757245EA020590210000608000
B0507123345107S14757229EA020570210400708000
B0507173345072S14757253EA020530210200908000
B0507223345071S14757317EA020530210101108000
B0507273345079S14757374EA020600210400708000
B0507323345097S14757429EA020680210900608000
B0507373345120S14757482EA020720211300608000
B0507423345149S14757533EA020840212300508000
B0507473345166S14757587EA020990213300608000
B0507523345200S14757596EA021010214201208000
B0507573345199S14757560EA021030214701208000
B0508023345186S14757529EA021090215200808000
B0508073345166S14757507EA021060215200808000
B0508123345137S14757523EA021060215201108000
B0508173345133S14757588EA021090215101008000
B0508223345164S14757626EA021180215501008000
B0508273345167S14757605EA021140215501208000
B0508323345133S14757605EA021170215501308000
B0508373345114S14757651EA021250215901108000
B0508423345144S14757693EA021370216700908000
B0508473345158S14757680EA021400217201208000
B0508523345123S14757688EA021430217800908000
B0508573345094S14757732EA021550218900908000
B0509023345083S14757788EA021670219900808000
B0509073345108S14757823EA021820221401308000
B0509123345120S14757799EA021950223201208000
B0509173345089S14757805EA022020224601208000
B0509223345086S14757862EA022130225900908000
B0509273345099S14757919EA022190227000708000
B0509323345122S14757963EA022160227000708000
B0509373345162S14757976EA022090226300908000
B0509423345204S14757971EA022080225900808000
B0509473345250S14757975EA022080225800508000
B0509523345297S14757972EA022100225700808000
B0509573345334S14757953EA022080225500708000
B0510023345369S14757933EA021920224700508000
B0510073345402S14757912EA021780223400708000
B0510123345432S14757891EA021650221901008000
B0510173345460S14757867EA021540220400708000
B0510223345496S14757847EA021360218600808000
B0510273345542S14757829EA021230216900708000
B0510323345583S14757819EA021130215600708000
B0510373345629S14757808EA021010214100608000
B0510423345675S14757801EA020810212600808000
B0510473345720S14757788EA020630210700508000
B0510523345754S14757777EA020540209200708000
B0510573345790S14757780EA020440208100708000
B0511023345828S14757791EA020380207300608000
B0511073345867S14757797EA020300206700508000
B0511123345903S14757792EA020250206100608000
B0511173345942S14757791EA020170205500608000
B0511223345981S14757794EA020090204800508000
B0511273346022S14757799EA020000203900508000
B0511323346062S14757803EA019960203400608000
B0511373346100S14757807EA019900202700608000
B0511423346138S14757804EA019870202400608000
B0511473346174S14757795EA019810202000708000
B0511523346215S14757785EA019750201500708000
B0511573346254S14757781EA019680201000608000
B0512023346291S14757777EA019610200200608000
B0512073346327S14757769EA019510199300508000
B0512123346360S14757755EA019420198200608000
B0512173346394S14757739EA019310197000508000
B0512223346428S14757724EA019210195800308000
F05122702051221252931
B0512273346465S14757712EA019120194600607000
F0512320205122021252931
B0512323346500S14757699EA019020193500608000
B0512373346533S14757680EA018960192800408000
B0512423346569S14757669EA018820191900608000
B0512473346605S14757655EA018740190900508000
B0512523346639S14757641EA018670190000608000
B0512573346673S14757634EA018630189300508000
B0513023346709S14757628EA018560188700508000
B0513073346744S14757625EA018510188400508000
B0513123346782S14757624EA018420187600508000
B0513173346819S14757618EA018360186800508000
B0513223346855S14757613EA018320186100608000
B0513273346888S14757605EA018260185500608000
B0513323346921S14757594EA018210185200608000
B0513373346952S14757585EA018160184700508000
B0513423346985S14757574EA018070184100608000
B0513473347017S14757567EA017970183200708000
B0513523347050S14757559EA017870182100608000
B0513573347079S14757551EA017830181400708000
B0514023347109S14757548EA017720180500608000
B0514073347138S14757544EA017630179500608000
B0514123347166S14757536EA017510178200408000
B0514173347198S14757530EA017400177000508000
B0514223347228S14757524EA017310175900508000
B0514273347256S14757522EA017210174800508000
B0514323347286S14757521EA017110173600608000
B0514373347310S14757504EA016980172500608000
B0514423347335S14757487EA016870171200508000
B0514473347368S14757478EA016750170000608000
B0514523347399S14757470EA016670169000508000
B0514573347432S14757461EA016520167700708000
B0515023347468S14757462EA016400166400508000
B0515073347504S14757468EA016290165200608000
B0515123347536S14757470EA016160163800608000
B0515173347565S14757474EA016030162300708000
B0515223347599S14757471EA015810160400708000
B0515273347637S14757472EA015700158700708000
B0515323347673S14757480EA015550157000708000
B0515373347706S14757469EA015420155600708000
B0515423347734S14757451EA015240154100508000
B0515473347767S14757446EA015220153200508000
B0515523347804S14757460EA015110152300608000
B0515573347836S14757461EA015080151900808000
B0516023347859S14757439EA015070152000908000
B0516073347878S14757414EA015070152000708000
B0516123347895S14757387EA015060152200708000
B0516173347918S14757371EA015130152600608000
B0516223347935S14757350EA015110152800608000
B0516273347942S14757324EA015170153100608000
B0516323347946S14757299EA015220153600708000
B0516373347944S14757263EA015260154000708000
B0516423347933S14757226EA015320154500608000
B0516473347921S14757185EA015260154300908000
B0516523347910S14757150EA015230154200808000
B0516573347903S14757113EA015240154100708000
B0517023347905S14757080EA015280154200608000
B0517073347910S14757050EA015280154200608000
B0517123347918S14757018EA015300154300608000
B0517173347925S14756994EA015310154500608000
B0517223347932S14756964EA015230154400608000
B0517273347933S14756933EA015150153900708000
B0517323347936S14756898EA015100153200608000
B0517373347943S14756863EA015000152500608000
B0517423347947S14756830EA014890151400708000
B0517473347940S14756795EA014780150200708000
B0517523347910S14756800EA014680148800908000
B0517573347899S14756853EA014560147600908000
B0518023347904S14756909EA014510146600408000
B0518073347908S14756961EA014460145800408000
B0518123347908S14757013EA014430145200408000
B0518173347906S14757069EA014430145100608000
B0518223347909S14757127EA014400145000508000
B0518273347919S14757183EA014370144800508000
B0518323347929S14757237EA014360144600308000
B0518373347939S14757291EA014300144200808000
B0518423347950S14757344EA014290143800608000
B0518473347960S14757398EA014250143500608000
B0518523347977S14757450EA014240143200408000
B0518573347993S14757500EA014190142800508000
B0519023348012S14757552EA014150142600708000
B0519073348031S14757589EA014140142400808000
B0519123348055S14757628EA014110142300608000
B0519173348073S14757669EA014130142300508000
B0519223348095S14757714EA014130142300708000
B0519273348130S14757739EA014090142100708000
B0519323348167S14757753EA014150142200808000
B0519373348186S14757737EA014050141801008000
B0519423348165S14757723EA013930140900808000
B0519473348143S14757756EA013880140401008000
B0519523348131S14757807EA013870140100608000
B0519573348122S14757863EA013950140200408000
B0520023348112S14757922EA014000140600508000
B0520073348115S14757982EA014010140900608000
B0520123348100S14758040EA014000141100508000
B0520173348101S14758099EA013990141101308000
B0520223348133S14758132EA013960140701008000
B0520273348164S14758136EA013880140200808000
B0520323348191S14758131EA013800139600608000
B0520373348219S14758119EA013670138500608000
B0520423348242S14758097EA013560137300708000
B0520473348266S14758082EA013440136100608000
B0520523348294S14758061EA013340134800708000
B0520573348327S14758050EA013270133800708000
B0521023348361S14758039EA013150132700508000
B0521073348393S14758021EA012990131100608000
B0521123348424S14757996EA012850129300608000
B0521173348450S14757968EA012780128100608000
B0521223348480S14757943EA012630126900708000
B0521273348504S14757918EA012640126500808000
B0521323348533S14757895EA012650126400708000
B0521373348566S14757876EA012680126600508000
B0521423348597S14757864EA012730127000308000
B0521473348628S14757855EA012770127300608000
B0521523348660S14757848EA012780127800708000
B0521573348680S14757831EA012810128100608000
B0522023348697S14757808EA012840128500608000
B0522073348712S14757787EA012890128800508000
B0522123348720S14757758EA012910129100608000
B0522173348728S14757731EA012930129400708000
B0522223348738S14757704EA013060130000608000
B0522273348738S14757681EA013140130800908000
B0522323348711S14757708EA013200131601408000
B0522373348729S14757753EA013280132701208000
B0522423348741S14757740EA013350133801408000
B0522473348707S14757756EA013420134401208000
B0522523348708S14757808EA013490135101108000
B0522573348734S14757816EA013530135801508000
B0523023348725S14757797EA013600136301008000
B0523073348697S14757819EA013650136901108000
B0523123348690S14757870EA013680137200508000
B0523173348693S14757927EA013750137700708000
B0523223348722S14757941EA013800138301408000
B0523273348720S14757910EA013820138701008000
B0523323348688S14757905EA013880139300708000
